{
  "contractName": "ContentManagement",
  "abi": [
    {
      "inputs": [
        {
          "internalType": "address",
          "name": "_userManagementAddress",
          "type": "address"
        }
      ],
      "stateMutability": "nonpayable",
      "type": "constructor"
    },
    {
      "anonymous": false,
      "inputs": [
        {
          "indexed": true,
          "internalType": "uint256",
          "name": "movieId",
          "type": "uint256"
        }
      ],
      "name": "MovieReleased",
      "type": "event"
    },
    {
      "anonymous": false,
      "inputs": [
        {
          "indexed": true,
          "internalType": "uint256",
          "name": "movieId",
          "type": "uint256"
        },
        {
          "indexed": false,
          "internalType": "string",
          "name": "name",
          "type": "string"
        },
        {
          "indexed": false,
          "internalType": "uint256",
          "name": "releaseDate",
          "type": "uint256"
        },
        {
          "indexed": false,
          "internalType": "uint256",
          "name": "endDate",
          "type": "uint256"
        },
        {
          "indexed": false,
          "internalType": "string",
          "name": "description",
          "type": "string"
        }
      ],
      "name": "NewMovie",
      "type": "event"
    },
    {
      "inputs": [
        {
          "internalType": "string",
          "name": "_name",
          "type": "string"
        },
        {
          "internalType": "string",
          "name": "_rate",
          "type": "string"
        },
        {
          "internalType": "uint256",
          "name": "_releaseDate",
          "type": "uint256"
        },
        {
          "internalType": "uint256",
          "name": "_endDate",
          "type": "uint256"
        },
        {
          "internalType": "string",
          "name": "_description",
          "type": "string"
        }
      ],
      "name": "createMovie",
      "outputs": [],
      "stateMutability": "nonpayable",
      "type": "function"
    },
    {
      "inputs": [
        {
          "internalType": "uint256",
          "name": "_id",
          "type": "uint256"
        }
      ],
      "name": "releaseMovie",
      "outputs": [],
      "stateMutability": "nonpayable",
      "type": "function"
    },
    {
      "inputs": [
        {
          "internalType": "uint256",
          "name": "_id",
          "type": "uint256"
        }
      ],
      "name": "isMovieAvailable",
      "outputs": [
        {
          "internalType": "bool",
          "name": "",
          "type": "bool"
        }
      ],
      "stateMutability": "view",
      "type": "function"
    },
    {
      "inputs": [
        {
          "internalType": "uint256",
          "name": "_id",
          "type": "uint256"
        }
      ],
      "name": "getMovie",
      "outputs": [
        {
          "internalType": "string",
          "name": "name",
          "type": "string"
        },
        {
          "internalType": "string",
          "name": "rate",
          "type": "string"
        },
        {
          "internalType": "uint256",
          "name": "releaseDate",
          "type": "uint256"
        },
        {
          "internalType": "uint256",
          "name": "endDate",
          "type": "uint256"
        },
        {
          "internalType": "string",
          "name": "description",
          "type": "string"
        },
        {
          "internalType": "bool",
          "name": "isReleased",
          "type": "bool"
        }
      ],
      "stateMutability": "view",
      "type": "function"
    },
    {
      "inputs": [],
      "name": "getMovieCount",
      "outputs": [
        {
          "internalType": "uint256",
          "name": "",
          "type": "uint256"
        }
      ],
      "stateMutability": "view",
      "type": "function"
    }
  ],
  "bytecode": "0x6080604052600180553480156200001557600080fd5b50604051620014283803806200142883398181016040528101906200003b91906200009a565b80600260006101000a81548173ffffffffffffffffffffffffffffffffffffffff021916908373ffffffffffffffffffffffffffffffffffffffff1602179055505062000114565b6000815190506200009481620000fa565b92915050565b600060208284031215620000ad57600080fd5b6000620000bd8482850162000083565b91505092915050565b6000620000d382620000da565b9050919050565b600073ffffffffffffffffffffffffffffffffffffffff82169050919050565b6200010581620000c6565b81146200011157600080fd5b50565b61130480620001246000396000f3fe608060405234801561001057600080fd5b50600436106100575760003560e01c806313174f5e1461005c578063179ffe76146100785780638488ed0e146100ad578063c6e092f6146100dd578063ea7f1231146100f9575b600080fd5b61007660048036038101906100719190610ca1565b610117565b005b610092600480360381019061008d9190610ca1565b610293565b6040516100a496959493929190610ec8565b60405180910390f35b6100c760048036038101906100c29190610ca1565b61053c565b6040516100d49190610ead565b60405180910390f35b6100f760048036038101906100f29190610be2565b6107c6565b005b610101610a5e565b60405161010e9190611031565b60405180910390f35b806000806000838152602001908152602001600020600001541415610171576040517f08c379a000000000000000000000000000000000000000000000000000000000815260040161016890610ff1565b60405180910390fd5b81426000808381526020019081526020016000206003015411156101ca576040517f08c379a00000000000000000000000000000000000000000000000000000000081526004016101c190610fd1565b60405180910390fd5b60008082815260200190815260200160002060060160009054906101000a900460ff161561022d576040517f08c379a000000000000000000000000000000000000000000000000000000000815260040161022490611011565b60405180910390fd5b6000806000858152602001908152602001600020905060018160060160006101000a81548160ff021916908315150217905550837fcbb8dfd6722e81e4bcb07366bbacc1b49be7490763dc5c80fa3b09dbecd0dd6560405160405180910390a250505050565b606080600080606060008660008060008381526020019081526020016000206000015414156102f7576040517f08c379a00000000000000000000000000000000000000000000000000000000081526004016102ee90610ff1565b60405180910390fd5b60008060008a81526020019081526020016000206040518060e00160405290816000820154815260200160018201805461033090611187565b80601f016020809104026020016040519081016040528092919081815260200182805461035c90611187565b80156103a95780601f1061037e576101008083540402835291602001916103a9565b820191906000526020600020905b81548152906001019060200180831161038c57829003601f168201915b505050505081526020016002820180546103c290611187565b80601f01602080910402602001604051908101604052809291908181526020018280546103ee90611187565b801561043b5780601f106104105761010080835404028352916020019161043b565b820191906000526020600020905b81548152906001019060200180831161041e57829003601f168201915b50505050508152602001600382015481526020016004820154815260200160058201805461046890611187565b80601f016020809104026020016040519081016040528092919081815260200182805461049490611187565b80156104e15780601f106104b6576101008083540402835291602001916104e1565b820191906000526020600020905b8154815290600101906020018083116104c457829003601f168201915b505050505081526020016006820160009054906101000a900460ff161515151581525050905080602001518160400151826060015183608001518460a001518560c00151975097509750975097509750505091939550919395565b6000816000806000838152602001908152602001600020600001541415610598576040517f08c379a000000000000000000000000000000000000000000000000000000000815260040161058f90610ff1565b60405180910390fd5b60008060008581526020019081526020016000206040518060e0016040529081600082015481526020016001820180546105d190611187565b80601f01602080910402602001604051908101604052809291908181526020018280546105fd90611187565b801561064a5780601f1061061f5761010080835404028352916020019161064a565b820191906000526020600020905b81548152906001019060200180831161062d57829003601f168201915b5050505050815260200160028201805461066390611187565b80601f016020809104026020016040519081016040528092919081815260200182805461068f90611187565b80156106dc5780601f106106b1576101008083540402835291602001916106dc565b820191906000526020600020905b8154815290600101906020018083116106bf57829003601f168201915b50505050508152602001600382015481526020016004820154815260200160058201805461070990611187565b80601f016020809104026020016040519081016040528092919081815260200182805461073590611187565b80156107825780601f1061075757610100808354040283529160200191610782565b820191906000526020600020905b81548152906001019060200180831161076557829003601f168201915b505050505081526020016006820160009054906101000a900460ff16151515158152505090508060c0015180156107bd575042816080015110155b92505050919050565b600260009054906101000a900473ffffffffffffffffffffffffffffffffffffffff1673ffffffffffffffffffffffffffffffffffffffff1663893d20e86040518163ffffffff1660e01b815260040160206040518083038186803b15801561082e57600080fd5b505afa158015610842573d6000803e3d6000fd5b505050506040513d601f19601f820116820180604052508101906108669190610bb9565b73ffffffffffffffffffffffffffffffffffffffff163373ffffffffffffffffffffffffffffffffffffffff16146108d3576040517f08c379a00000000000000000000000000000000000000000000000000000000081526004016108ca90610f91565b60405180910390fd5b818310610915576040517f08c379a000000000000000000000000000000000000000000000000000000000815260040161090c90610fb1565b60405180910390fd5b60006040518060e00160405280600154815260200187815260200186815260200185815260200184815260200183815260200160001515815250905080600080600154815260200190815260200160002060008201518160000155602082015181600101908051906020019061098c929190610a84565b5060408201518160020190805190602001906109a9929190610a84565b50606082015181600301556080820151816004015560a08201518160050190805190602001906109da929190610a84565b5060c08201518160060160006101000a81548160ff0219169083151502179055509050506001547f0400088b6f170897c8d8d82885b02b0803e3dd91f361746fd32025eee293f30d87868686604051610a369493929190610f3e565b60405180910390a260016000815480929190610a51906111b9565b9190505550505050505050565b60008060015411610a70576000610a7f565b60018054610a7e91906110c9565b5b905090565b828054610a9090611187565b90600052602060002090601f016020900481019282610ab25760008555610af9565b82601f10610acb57805160ff1916838001178555610af9565b82800160010185558215610af9579182015b82811115610af8578251825591602001919060010190610add565b5b509050610b069190610b0a565b5090565b5b80821115610b23576000816000905550600101610b0b565b5090565b6000610b3a610b358461107d565b61104c565b905082815260208101848484011115610b5257600080fd5b610b5d848285611145565b509392505050565b600081519050610b74816112a0565b92915050565b600082601f830112610b8b57600080fd5b8135610b9b848260208601610b27565b91505092915050565b600081359050610bb3816112b7565b92915050565b600060208284031215610bcb57600080fd5b6000610bd984828501610b65565b91505092915050565b600080600080600060a08688031215610bfa57600080fd5b600086013567ffffffffffffffff811115610c1457600080fd5b610c2088828901610b7a565b955050602086013567ffffffffffffffff811115610c3d57600080fd5b610c4988828901610b7a565b9450506040610c5a88828901610ba4565b9350506060610c6b88828901610ba4565b925050608086013567ffffffffffffffff811115610c8857600080fd5b610c9488828901610b7a565b9150509295509295909350565b600060208284031215610cb357600080fd5b6000610cc184828501610ba4565b91505092915050565b610cd38161110f565b82525050565b6000610ce4826110ad565b610cee81856110b8565b9350610cfe818560208601611154565b610d078161128f565b840191505092915050565b6000610d1f601d836110b8565b91507f4f6e6c7920746865206f776e65722063616e20616464206d6f766965730000006000830152602082019050919050565b6000610d5f6028836110b8565b91507f52656c656173652064617465206d757374206265206265666f7265207468652060008301527f656e6420646174650000000000000000000000000000000000000000000000006020830152604082019050919050565b6000610dc56026836110b8565b91507f4d6f76696520686173206e6f742072656163686564207468652072656c65617360008301527f65206461746500000000000000000000000000000000000000000000000000006020830152604082019050919050565b6000610e2b6014836110b8565b91507f4d6f76696520646f6573206e6f742065786973740000000000000000000000006000830152602082019050919050565b6000610e6b601f836110b8565b91507f4d6f7669652068617320616c7265616479206265656e2072656c6561736564006000830152602082019050919050565b610ea78161113b565b82525050565b6000602082019050610ec26000830184610cca565b92915050565b600060c0820190508181036000830152610ee28189610cd9565b90508181036020830152610ef68188610cd9565b9050610f056040830187610e9e565b610f126060830186610e9e565b8181036080830152610f248185610cd9565b9050610f3360a0830184610cca565b979650505050505050565b60006080820190508181036000830152610f588187610cd9565b9050610f676020830186610e9e565b610f746040830185610e9e565b8181036060830152610f868184610cd9565b905095945050505050565b60006020820190508181036000830152610faa81610d12565b9050919050565b60006020820190508181036000830152610fca81610d52565b9050919050565b60006020820190508181036000830152610fea81610db8565b9050919050565b6000602082019050818103600083015261100a81610e1e565b9050919050565b6000602082019050818103600083015261102a81610e5e565b9050919050565b60006020820190506110466000830184610e9e565b92915050565b6000604051905081810181811067ffffffffffffffff8211171561107357611072611260565b5b8060405250919050565b600067ffffffffffffffff82111561109857611097611260565b5b601f19601f8301169050602081019050919050565b600081519050919050565b600082825260208201905092915050565b60006110d48261113b565b91506110df8361113b565b9250828210156110f2576110f1611202565b5b828203905092915050565b60006111088261111b565b9050919050565b60008115159050919050565b600073ffffffffffffffffffffffffffffffffffffffff82169050919050565b6000819050919050565b82818337600083830152505050565b60005b83811015611172578082015181840152602081019050611157565b83811115611181576000848401525b50505050565b6000600282049050600182168061119f57607f821691505b602082108114156111b3576111b2611231565b5b50919050565b60006111c48261113b565b91507fffffffffffffffffffffffffffffffffffffffffffffffffffffffffffffffff8214156111f7576111f6611202565b5b600182019050919050565b7f4e487b7100000000000000000000000000000000000000000000000000000000600052601160045260246000fd5b7f4e487b7100000000000000000000000000000000000000000000000000000000600052602260045260246000fd5b7f4e487b7100000000000000000000000000000000000000000000000000000000600052604160045260246000fd5b6000601f19601f8301169050919050565b6112a9816110fd565b81146112b457600080fd5b50565b6112c08161113b565b81146112cb57600080fd5b5056fea264697066735822122095c4047925358eb871f411b64a9083ac6fc3c92b0993f95218800a8d4ad11c6264736f6c63430008000033",
  "immutableReferences": {},
  "source": "// SPDX-License-Identifier: MIT\r\npragma solidity ^0.8.0;\r\n\r\ninterface IUserManagementv2 {\r\n    function getOwner() external view returns (address);\r\n}\r\n\r\ncontract ContentManagement {\r\n    // Mapping of movie IDs to movie structs\r\n    mapping(uint256 => Movie) private movies;\r\n\r\n    // Event emitted when a new movie is created\r\n    event NewMovie(uint256 indexed movieId, string name, uint256 releaseDate, uint256 endDate, string description);\r\n\r\n    // Event emitted when a movie is released\r\n    event MovieReleased(uint256 indexed movieId);\r\n\r\n    // Struct to represent a movie\r\n    struct Movie {\r\n        uint256 id;\r\n        string name;\r\n        string rate; // e.g. \"R\", \"P12\"\r\n        uint256 releaseDate;\r\n        uint256 endDate;\r\n        string description;\r\n        bool isReleased;\r\n    }\r\n\r\n    // Movie ID counter, starting from 1\r\n    uint256 private movieIdCounter = 1;\r\n\r\n    // Declare the user management contract interface\r\n    IUserManagementv2 private userManagement;\r\n\r\n    // Constructor to initialize the UserManagement interface with its address\r\n    constructor(address _userManagementAddress) {\r\n        userManagement = IUserManagementv2(_userManagementAddress);\r\n    }\r\n\r\n    // Modifier to check if the caller is the owner\r\n    modifier onlyOwner() {\r\n        require(msg.sender == userManagement.getOwner(), \"Only the owner can add movies\");\r\n        _;\r\n    }\r\n\r\n    // Modifier to check if the movie exists\r\n    modifier movieExists(uint256 _id) {\r\n        require(movies[_id].id != 0, \"Movie does not exist\");\r\n        _;\r\n    }\r\n\r\n    // Modifier to check if the movie can be released\r\n    modifier canRelease(uint256 _id) {\r\n        require(movies[_id].releaseDate <= block.timestamp, \"Movie has not reached the release date\");\r\n        require(!movies[_id].isReleased, \"Movie has already been released\");\r\n        _;\r\n    }\r\n\r\n    // Create a new movie\r\n    function createMovie(\r\n        string memory _name,\r\n        string memory _rate,\r\n        uint256 _releaseDate,\r\n        uint256 _endDate,\r\n        string memory _description\r\n    ) public onlyOwner {\r\n        require(_releaseDate < _endDate, \"Release date must be before the end date\");\r\n\r\n        // Create a new movie struct\r\n        Movie memory newMovie = Movie({\r\n            id: movieIdCounter,\r\n            name: _name,\r\n            rate: _rate,\r\n            releaseDate: _releaseDate,\r\n            endDate: _endDate,\r\n            description: _description,\r\n            isReleased: false\r\n        });\r\n\r\n        // Add movie to the mapping\r\n        movies[movieIdCounter] = newMovie;\r\n\r\n        // Emit event for new movie creation\r\n        emit NewMovie(movieIdCounter, _name, _releaseDate, _endDate, _description);\r\n\r\n        // Increment movie ID counter\r\n        movieIdCounter++;\r\n    }\r\n\r\n    // Release a movie when the release date is reached\r\n    function releaseMovie(uint256 _id) public movieExists(_id) canRelease(_id) {\r\n        Movie storage movie = movies[_id];\r\n        movie.isReleased = true;\r\n\r\n        emit MovieReleased(_id);\r\n    }\r\n\r\n    // Check if a movie is available to watch\r\n    function isMovieAvailable(uint256 _id) public view movieExists(_id) returns (bool) {\r\n        Movie memory movie = movies[_id];\r\n        return movie.isReleased && movie.endDate >= block.timestamp;\r\n    }\r\n\r\n    // Get movie details\r\n    function getMovie(uint256 _id) public view movieExists(_id) returns (\r\n        string memory name,\r\n        string memory rate,\r\n        uint256 releaseDate,\r\n        uint256 endDate,\r\n        string memory description,\r\n        bool isReleased\r\n    ) {\r\n        Movie memory movie = movies[_id];\r\n        return (\r\n            movie.name,\r\n            movie.rate,\r\n            movie.releaseDate,\r\n            movie.endDate,\r\n            movie.description,\r\n            movie.isReleased\r\n        );\r\n    }\r\n\r\n    // Get total number of movies\r\n    function getMovieCount() public view returns (uint256) {\r\n        return movieIdCounter > 0 ? movieIdCounter - 1 : 0;\r\n    }\r\n}\r\n",
  "sourcePath": "C:\\Users\\User\\Desktop\\movie_last\\smart_contract\\contracts\\ContentManagement.sol",
  "compiler": {
    "name": "solc",
    "version": "0.8.0+commit.c7dfd78e.Emscripten.clang"
  },
  "schemaVersion": "3.4.16",
  "updatedAt": "2024-09-26T08:36:32.042Z",
  "networkType": "ethereum",
  "devdoc": {
    "kind": "dev",
    "methods": {},
    "version": 1
  },
  "userdoc": {
    "kind": "user",
    "methods": {},
    "version": 1
  }
}