{
  "contractName": "ContentManagement",
  "abi": [
    {
      "inputs": [],
      "stateMutability": "nonpayable",
      "type": "constructor"
    },
    {
      "anonymous": false,
      "inputs": [
        {
          "indexed": true,
          "internalType": "uint256",
          "name": "movieId",
          "type": "uint256"
        }
      ],
      "name": "MovieReleased",
      "type": "event"
    },
    {
      "anonymous": false,
      "inputs": [
        {
          "indexed": true,
          "internalType": "uint256",
          "name": "movieId",
          "type": "uint256"
        },
        {
          "indexed": false,
          "internalType": "string",
          "name": "name",
          "type": "string"
        },
        {
          "indexed": false,
          "internalType": "uint256",
          "name": "releaseDate",
          "type": "uint256"
        },
        {
          "indexed": false,
          "internalType": "uint256",
          "name": "endDate",
          "type": "uint256"
        },
        {
          "indexed": false,
          "internalType": "string",
          "name": "description",
          "type": "string"
        }
      ],
      "name": "NewMovie",
      "type": "event"
    },
    {
      "inputs": [
        {
          "internalType": "string",
          "name": "_name",
          "type": "string"
        },
        {
          "internalType": "string",
          "name": "_rate",
          "type": "string"
        },
        {
          "internalType": "uint256",
          "name": "_releaseDate",
          "type": "uint256"
        },
        {
          "internalType": "uint256",
          "name": "_endDate",
          "type": "uint256"
        },
        {
          "internalType": "string",
          "name": "_description",
          "type": "string"
        }
      ],
      "name": "createMovie",
      "outputs": [],
      "stateMutability": "nonpayable",
      "type": "function"
    },
    {
      "inputs": [
        {
          "internalType": "uint256",
          "name": "_id",
          "type": "uint256"
        }
      ],
      "name": "releaseMovie",
      "outputs": [],
      "stateMutability": "nonpayable",
      "type": "function"
    },
    {
      "inputs": [
        {
          "internalType": "uint256",
          "name": "_id",
          "type": "uint256"
        }
      ],
      "name": "isMovieAvailable",
      "outputs": [
        {
          "internalType": "bool",
          "name": "",
          "type": "bool"
        }
      ],
      "stateMutability": "view",
      "type": "function",
      "constant": true
    },
    {
      "inputs": [
        {
          "internalType": "uint256",
          "name": "_id",
          "type": "uint256"
        }
      ],
      "name": "getMovie",
      "outputs": [
        {
          "internalType": "string",
          "name": "name",
          "type": "string"
        },
        {
          "internalType": "string",
          "name": "rate",
          "type": "string"
        },
        {
          "internalType": "uint256",
          "name": "releaseDate",
          "type": "uint256"
        },
        {
          "internalType": "uint256",
          "name": "endDate",
          "type": "uint256"
        },
        {
          "internalType": "string",
          "name": "description",
          "type": "string"
        },
        {
          "internalType": "bool",
          "name": "isReleased",
          "type": "bool"
        }
      ],
      "stateMutability": "view",
      "type": "function",
      "constant": true
    },
    {
      "inputs": [],
      "name": "getMovieCount",
      "outputs": [
        {
          "internalType": "uint256",
          "name": "",
          "type": "uint256"
        }
      ],
      "stateMutability": "view",
      "type": "function",
      "constant": true
    }
  ],
  "bytecode": "0x6080604052600160025534801561001557600080fd5b5033600160006101000a81548173ffffffffffffffffffffffffffffffffffffffff021916908373ffffffffffffffffffffffffffffffffffffffff160217905550611216806100666000396000f3fe608060405234801561001057600080fd5b50600436106100575760003560e01c806313174f5e1461005c578063179ffe76146100785780638488ed0e146100ad578063c6e092f6146100dd578063ea7f1231146100f9575b600080fd5b61007660048036038101906100719190610bd6565b610117565b005b610092600480360381019061008d9190610bd6565b610293565b6040516100a496959493929190610e23565b60405180910390f35b6100c760048036038101906100c29190610bd6565b61053c565b6040516100d49190610e08565b60405180910390f35b6100f760048036038101906100f29190610b17565b6107c6565b005b6101016109e1565b60405161010e9190610f8c565b60405180910390f35b806000806000838152602001908152602001600020600001541415610171576040517f08c379a000000000000000000000000000000000000000000000000000000000815260040161016890610f2c565b60405180910390fd5b81426000808381526020019081526020016000206003015411156101ca576040517f08c379a00000000000000000000000000000000000000000000000000000000081526004016101c190610f0c565b60405180910390fd5b60008082815260200190815260200160002060060160009054906101000a900460ff161561022d576040517f08c379a000000000000000000000000000000000000000000000000000000000815260040161022490610f6c565b60405180910390fd5b6000806000858152602001908152602001600020905060018160060160006101000a81548160ff021916908315150217905550837fcbb8dfd6722e81e4bcb07366bbacc1b49be7490763dc5c80fa3b09dbecd0dd6560405160405180910390a250505050565b606080600080606060008660008060008381526020019081526020016000206000015414156102f7576040517f08c379a00000000000000000000000000000000000000000000000000000000081526004016102ee90610f2c565b60405180910390fd5b60008060008a81526020019081526020016000206040518060e001604052908160008201548152602001600182018054610330906110b0565b80601f016020809104026020016040519081016040528092919081815260200182805461035c906110b0565b80156103a95780601f1061037e576101008083540402835291602001916103a9565b820191906000526020600020905b81548152906001019060200180831161038c57829003601f168201915b505050505081526020016002820180546103c2906110b0565b80601f01602080910402602001604051908101604052809291908181526020018280546103ee906110b0565b801561043b5780601f106104105761010080835404028352916020019161043b565b820191906000526020600020905b81548152906001019060200180831161041e57829003601f168201915b505050505081526020016003820154815260200160048201548152602001600582018054610468906110b0565b80601f0160208091040260200160405190810160405280929190818152602001828054610494906110b0565b80156104e15780601f106104b6576101008083540402835291602001916104e1565b820191906000526020600020905b8154815290600101906020018083116104c457829003601f168201915b505050505081526020016006820160009054906101000a900460ff161515151581525050905080602001518160400151826060015183608001518460a001518560c00151975097509750975097509750505091939550919395565b6000816000806000838152602001908152602001600020600001541415610598576040517f08c379a000000000000000000000000000000000000000000000000000000000815260040161058f90610f2c565b60405180910390fd5b60008060008581526020019081526020016000206040518060e0016040529081600082015481526020016001820180546105d1906110b0565b80601f01602080910402602001604051908101604052809291908181526020018280546105fd906110b0565b801561064a5780601f1061061f5761010080835404028352916020019161064a565b820191906000526020600020905b81548152906001019060200180831161062d57829003601f168201915b50505050508152602001600282018054610663906110b0565b80601f016020809104026020016040519081016040528092919081815260200182805461068f906110b0565b80156106dc5780601f106106b1576101008083540402835291602001916106dc565b820191906000526020600020905b8154815290600101906020018083116106bf57829003601f168201915b505050505081526020016003820154815260200160048201548152602001600582018054610709906110b0565b80601f0160208091040260200160405190810160405280929190818152602001828054610735906110b0565b80156107825780601f1061075757610100808354040283529160200191610782565b820191906000526020600020905b81548152906001019060200180831161076557829003601f168201915b505050505081526020016006820160009054906101000a900460ff16151515158152505090508060c0015180156107bd575042816080015110155b92505050919050565b600160009054906101000a900473ffffffffffffffffffffffffffffffffffffffff1673ffffffffffffffffffffffffffffffffffffffff163373ffffffffffffffffffffffffffffffffffffffff1614610856576040517f08c379a000000000000000000000000000000000000000000000000000000000815260040161084d90610f4c565b60405180910390fd5b818310610898576040517f08c379a000000000000000000000000000000000000000000000000000000000815260040161088f90610eec565b60405180910390fd5b60006040518060e00160405280600254815260200187815260200186815260200185815260200184815260200183815260200160001515815250905080600080600254815260200190815260200160002060008201518160000155602082015181600101908051906020019061090f9291906109f7565b50604082015181600201908051906020019061092c9291906109f7565b50606082015181600301556080820151816004015560a082015181600501908051906020019061095d9291906109f7565b5060c08201518160060160006101000a81548160ff0219169083151502179055509050506002547f0400088b6f170897c8d8d82885b02b0803e3dd91f361746fd32025eee293f30d878686866040516109b99493929190610e99565b60405180910390a2600260008154809291906109d4906110e2565b9190505550505050505050565b600060016002546109f29190611024565b905090565b828054610a03906110b0565b90600052602060002090601f016020900481019282610a255760008555610a6c565b82601f10610a3e57805160ff1916838001178555610a6c565b82800160010185558215610a6c579182015b82811115610a6b578251825591602001919060010190610a50565b5b509050610a799190610a7d565b5090565b5b80821115610a96576000816000905550600101610a7e565b5090565b6000610aad610aa884610fd8565b610fa7565b905082815260208101848484011115610ac557600080fd5b610ad084828561106e565b509392505050565b600082601f830112610ae957600080fd5b8135610af9848260208601610a9a565b91505092915050565b600081359050610b11816111c9565b92915050565b600080600080600060a08688031215610b2f57600080fd5b600086013567ffffffffffffffff811115610b4957600080fd5b610b5588828901610ad8565b955050602086013567ffffffffffffffff811115610b7257600080fd5b610b7e88828901610ad8565b9450506040610b8f88828901610b02565b9350506060610ba088828901610b02565b925050608086013567ffffffffffffffff811115610bbd57600080fd5b610bc988828901610ad8565b9150509295509295909350565b600060208284031215610be857600080fd5b6000610bf684828501610b02565b91505092915050565b610c0881611058565b82525050565b6000610c1982611008565b610c238185611013565b9350610c3381856020860161107d565b610c3c816111b8565b840191505092915050565b6000610c54602883611013565b91507f52656c656173652064617465206d757374206265206265666f7265207468652060008301527f656e6420646174650000000000000000000000000000000000000000000000006020830152604082019050919050565b6000610cba602683611013565b91507f4d6f76696520686173206e6f742072656163686564207468652072656c65617360008301527f65206461746500000000000000000000000000000000000000000000000000006020830152604082019050919050565b6000610d20601483611013565b91507f4d6f76696520646f6573206e6f742065786973740000000000000000000000006000830152602082019050919050565b6000610d60602583611013565b91507f4f6e6c7920746865206f776e65722063616e206372656174652061206e65772060008301527f6d6f7669650000000000000000000000000000000000000000000000000000006020830152604082019050919050565b6000610dc6601f83611013565b91507f4d6f7669652068617320616c7265616479206265656e2072656c6561736564006000830152602082019050919050565b610e0281611064565b82525050565b6000602082019050610e1d6000830184610bff565b92915050565b600060c0820190508181036000830152610e3d8189610c0e565b90508181036020830152610e518188610c0e565b9050610e606040830187610df9565b610e6d6060830186610df9565b8181036080830152610e7f8185610c0e565b9050610e8e60a0830184610bff565b979650505050505050565b60006080820190508181036000830152610eb38187610c0e565b9050610ec26020830186610df9565b610ecf6040830185610df9565b8181036060830152610ee18184610c0e565b905095945050505050565b60006020820190508181036000830152610f0581610c47565b9050919050565b60006020820190508181036000830152610f2581610cad565b9050919050565b60006020820190508181036000830152610f4581610d13565b9050919050565b60006020820190508181036000830152610f6581610d53565b9050919050565b60006020820190508181036000830152610f8581610db9565b9050919050565b6000602082019050610fa16000830184610df9565b92915050565b6000604051905081810181811067ffffffffffffffff82111715610fce57610fcd611189565b5b8060405250919050565b600067ffffffffffffffff821115610ff357610ff2611189565b5b601f19601f8301169050602081019050919050565b600081519050919050565b600082825260208201905092915050565b600061102f82611064565b915061103a83611064565b92508282101561104d5761104c61112b565b5b828203905092915050565b60008115159050919050565b6000819050919050565b82818337600083830152505050565b60005b8381101561109b578082015181840152602081019050611080565b838111156110aa576000848401525b50505050565b600060028204905060018216806110c857607f821691505b602082108114156110dc576110db61115a565b5b50919050565b60006110ed82611064565b91507fffffffffffffffffffffffffffffffffffffffffffffffffffffffffffffffff8214156111205761111f61112b565b5b600182019050919050565b7f4e487b7100000000000000000000000000000000000000000000000000000000600052601160045260246000fd5b7f4e487b7100000000000000000000000000000000000000000000000000000000600052602260045260246000fd5b7f4e487b7100000000000000000000000000000000000000000000000000000000600052604160045260246000fd5b6000601f19601f8301169050919050565b6111d281611064565b81146111dd57600080fd5b5056fea264697066735822122074b7ebab81f6a6392a3f571c9967a51af40da9940eee51e4e888213a7d6407c464736f6c63430008000033",
  "immutableReferences": {},
  "source": "// SPDX-License-Identifier: MIT\r\npragma solidity ^0.8.0;\r\n\r\ncontract ContentManagement {\r\n    // Mapping of movie IDs to movie structs\r\n    mapping(uint256 => Movie) private movies;\r\n\r\n    // Event emitted when a new movie is created\r\n    event NewMovie(uint256 indexed movieId, string name, uint256 releaseDate, uint256 endDate, string description);\r\n\r\n    // Event emitted when a movie is released\r\n    event MovieReleased(uint256 indexed movieId);\r\n\r\n    // Struct to represent a movie\r\n    struct Movie {\r\n        uint256 id;\r\n        string name;\r\n        string rate; // e.g. \"R\", \"P12\"\r\n        uint256 releaseDate;\r\n        uint256 endDate;\r\n        string description;\r\n        bool isReleased;\r\n    }\r\n\r\n    // Only the owner can create a new movie\r\n    address private owner;\r\n\r\n    // Movie ID counter, starting from 1\r\n    uint256 private movieIdCounter = 1;\r\n\r\n    // Constructor to set the owner\r\n    constructor() {\r\n        owner = msg.sender;\r\n    }\r\n\r\n    // Modifier to check if the caller is the owner\r\n    modifier onlyOwner() {\r\n        require(msg.sender == owner, \"Only the owner can create a new movie\");\r\n        _;\r\n    }\r\n\r\n    // Modifier to check if the movie exists\r\n    modifier movieExists(uint256 _id) {\r\n        require(movies[_id].id != 0, \"Movie does not exist\");\r\n        _;\r\n    }\r\n\r\n    // Modifier to check if the movie can be released\r\n    modifier canRelease(uint256 _id) {\r\n        require(movies[_id].releaseDate <= block.timestamp, \"Movie has not reached the release date\");\r\n        require(!movies[_id].isReleased, \"Movie has already been released\");\r\n        _;\r\n    }\r\n\r\n    // Create a new movie\r\n    function createMovie(\r\n        string memory _name,\r\n        string memory _rate,\r\n        uint256 _releaseDate,\r\n        uint256 _endDate,\r\n        string memory _description\r\n    ) public onlyOwner {\r\n        require(_releaseDate < _endDate, \"Release date must be before the end date\");\r\n\r\n        // Create a new movie struct\r\n        Movie memory newMovie = Movie({\r\n            id: movieIdCounter,\r\n            name: _name,\r\n            rate: _rate,\r\n            releaseDate: _releaseDate,\r\n            endDate: _endDate,\r\n            description: _description,\r\n            isReleased: false\r\n        });\r\n\r\n        // Add movie to the mapping\r\n        movies[movieIdCounter] = newMovie;\r\n\r\n        // Emit event for new movie creation\r\n        emit NewMovie(movieIdCounter, _name, _releaseDate, _endDate, _description);\r\n\r\n        // Increment movie ID counter\r\n        movieIdCounter++;\r\n    }\r\n\r\n    // Release a movie when the release date is reached\r\n    function releaseMovie(uint256 _id) public movieExists(_id) canRelease(_id) {\r\n        Movie storage movie = movies[_id];\r\n        movie.isReleased = true;\r\n\r\n        emit MovieReleased(_id);\r\n    }\r\n\r\n    // Check if a movie is available to watch\r\n    function isMovieAvailable(uint256 _id) public view movieExists(_id) returns (bool) {\r\n        Movie memory movie = movies[_id];\r\n        return movie.isReleased && movie.endDate >= block.timestamp;\r\n    }\r\n\r\n    // Get movie details\r\n    function getMovie(uint256 _id) public view movieExists(_id) returns (\r\n        string memory name,\r\n        string memory rate,\r\n        uint256 releaseDate,\r\n        uint256 endDate,\r\n        string memory description,\r\n        bool isReleased\r\n    ) {\r\n        Movie memory movie = movies[_id];\r\n        return (\r\n            movie.name,\r\n            movie.rate,\r\n            movie.releaseDate,\r\n            movie.endDate,\r\n            movie.description,\r\n            movie.isReleased\r\n        );\r\n    }\r\n\r\n    // Get total number of movies\r\n    function getMovieCount() public view returns (uint256) {\r\n        return movieIdCounter -1;\r\n    }\r\n}\r\n",
  "sourcePath": "C:\\Users\\User\\Downloads\\Movie_subscription_solidity-main\\smart_contract\\contracts\\ContentManagement.sol",
  "compiler": {
    "name": "solc",
    "version": "0.8.0+commit.c7dfd78e.Emscripten.clang"
  },
  "schemaVersion": "3.4.16",
  "updatedAt": "2024-09-25T08:42:26.524Z",
  "networkType": "ethereum",
  "devdoc": {
    "kind": "dev",
    "methods": {},
    "version": 1
  },
  "userdoc": {
    "kind": "user",
    "methods": {},
    "version": 1
  }
}