{
  "contractName": "ContentManagement",
  "abi": [
    {
      "inputs": [],
      "stateMutability": "nonpayable",
      "type": "constructor"
    },
    {
      "anonymous": false,
      "inputs": [
        {
          "indexed": true,
          "internalType": "uint256",
          "name": "movieId",
          "type": "uint256"
        },
        {
          "indexed": false,
          "internalType": "string",
          "name": "name",
          "type": "string"
        },
        {
          "indexed": false,
          "internalType": "uint256",
          "name": "releaseDate",
          "type": "uint256"
        },
        {
          "indexed": false,
          "internalType": "string",
          "name": "description",
          "type": "string"
        }
      ],
      "name": "NewMovie",
      "type": "event"
    },
    {
      "inputs": [
        {
          "internalType": "string",
          "name": "_name",
          "type": "string"
        },
        {
          "internalType": "string",
          "name": "_rate",
          "type": "string"
        },
        {
          "internalType": "uint256",
          "name": "_releaseDate",
          "type": "uint256"
        },
        {
          "internalType": "string",
          "name": "_description",
          "type": "string"
        }
      ],
      "name": "createMovie",
      "outputs": [],
      "stateMutability": "nonpayable",
      "type": "function"
    },
    {
      "inputs": [
        {
          "internalType": "uint256",
          "name": "_id",
          "type": "uint256"
        }
      ],
      "name": "isMovieAvailable",
      "outputs": [
        {
          "internalType": "bool",
          "name": "",
          "type": "bool"
        }
      ],
      "stateMutability": "view",
      "type": "function"
    },
    {
      "inputs": [
        {
          "internalType": "uint256",
          "name": "_id",
          "type": "uint256"
        }
      ],
      "name": "getMovie",
      "outputs": [
        {
          "internalType": "string",
          "name": "name",
          "type": "string"
        },
        {
          "internalType": "string",
          "name": "rate",
          "type": "string"
        },
        {
          "internalType": "uint256",
          "name": "releaseDate",
          "type": "uint256"
        },
        {
          "internalType": "string",
          "name": "description",
          "type": "string"
        },
        {
          "internalType": "bool",
          "name": "isAvailable",
          "type": "bool"
        }
      ],
      "stateMutability": "view",
      "type": "function"
    },
    {
      "inputs": [],
      "name": "getMovieCount",
      "outputs": [
        {
          "internalType": "uint256",
          "name": "",
          "type": "uint256"
        }
      ],
      "stateMutability": "view",
      "type": "function"
    }
  ],
  "bytecode": "0x6080604052600160025534801561001557600080fd5b5033600160006101000a81548173ffffffffffffffffffffffffffffffffffffffff021916908373ffffffffffffffffffffffffffffffffffffffff160217905550610e75806100666000396000f3fe608060405234801561001057600080fd5b506004361061004c5760003560e01c80630d48084b14610051578063179ffe761461006d5780638488ed0e146100a1578063ea7f1231146100d1575b600080fd5b61006b60048036038101906100669190610912565b6100ef565b005b610087600480360381019061008291906109bd565b6102bd565b604051610098959493929190610afe565b60405180910390f35b6100bb60048036038101906100b691906109bd565b610558565b6040516100c89190610ae3565b60405180910390f35b6100d96107cb565b6040516100e69190610beb565b60405180910390f35b600160009054906101000a900473ffffffffffffffffffffffffffffffffffffffff1673ffffffffffffffffffffffffffffffffffffffff163373ffffffffffffffffffffffffffffffffffffffff161461017f576040517f08c379a000000000000000000000000000000000000000000000000000000000815260040161017690610bcb565b60405180910390fd5b600042831115905060006040518060c00160405280600254815260200187815260200186815260200185815260200184815260200183151581525090508060008060025481526020019081526020016000206000820151816000015560208201518160010190805190602001906101f79291906107f2565b5060408201518160020190805190602001906102149291906107f2565b5060608201518160030155608082015181600401908051906020019061023b9291906107f2565b5060a08201518160050160006101000a81548160ff0219169083151502179055509050506002547f6ac425cf23edc2a55ba589df2f532efbbf370956f618eacc75cc407d161c9f5087868660405161029593929190610b66565b60405180910390a2600260008154809291906102b090610d41565b9190505550505050505050565b606080600060606000856000806000838152602001908152602001600020600001541415610320576040517f08c379a000000000000000000000000000000000000000000000000000000000815260040161031790610bab565b60405180910390fd5b60008060008981526020019081526020016000206040518060c00160405290816000820154815260200160018201805461035990610d0f565b80601f016020809104026020016040519081016040528092919081815260200182805461038590610d0f565b80156103d25780601f106103a7576101008083540402835291602001916103d2565b820191906000526020600020905b8154815290600101906020018083116103b557829003601f168201915b505050505081526020016002820180546103eb90610d0f565b80601f016020809104026020016040519081016040528092919081815260200182805461041790610d0f565b80156104645780601f1061043957610100808354040283529160200191610464565b820191906000526020600020905b81548152906001019060200180831161044757829003601f168201915b505050505081526020016003820154815260200160048201805461048790610d0f565b80601f01602080910402602001604051908101604052809291908181526020018280546104b390610d0f565b80156105005780601f106104d557610100808354040283529160200191610500565b820191906000526020600020905b8154815290600101906020018083116104e357829003601f168201915b505050505081526020016005820160009054906101000a900460ff161515151581525050905080602001518160400151826060015183608001516105438c610558565b96509650965096509650505091939590929450565b60008160008060008381526020019081526020016000206000015414156105b4576040517f08c379a00000000000000000000000000000000000000000000000000000000081526004016105ab90610bab565b60405180910390fd5b60008060008581526020019081526020016000206040518060c0016040529081600082015481526020016001820180546105ed90610d0f565b80601f016020809104026020016040519081016040528092919081815260200182805461061990610d0f565b80156106665780601f1061063b57610100808354040283529160200191610666565b820191906000526020600020905b81548152906001019060200180831161064957829003601f168201915b5050505050815260200160028201805461067f90610d0f565b80601f01602080910402602001604051908101604052809291908181526020018280546106ab90610d0f565b80156106f85780601f106106cd576101008083540402835291602001916106f8565b820191906000526020600020905b8154815290600101906020018083116106db57829003601f168201915b505050505081526020016003820154815260200160048201805461071b90610d0f565b80601f016020809104026020016040519081016040528092919081815260200182805461074790610d0f565b80156107945780601f1061076957610100808354040283529160200191610794565b820191906000526020600020905b81548152906001019060200180831161077757829003601f168201915b505050505081526020016005820160009054906101000a900460ff1615151515815250509050428160600151111592505050919050565b600080600254116107dd5760006107ed565b60016002546107ec9190610c83565b5b905090565b8280546107fe90610d0f565b90600052602060002090601f0160209004810192826108205760008555610867565b82601f1061083957805160ff1916838001178555610867565b82800160010185558215610867579182015b8281111561086657825182559160200191906001019061084b565b5b5090506108749190610878565b5090565b5b80821115610891576000816000905550600101610879565b5090565b60006108a86108a384610c37565b610c06565b9050828152602081018484840111156108c057600080fd5b6108cb848285610ccd565b509392505050565b600082601f8301126108e457600080fd5b81356108f4848260208601610895565b91505092915050565b60008135905061090c81610e28565b92915050565b6000806000806080858703121561092857600080fd5b600085013567ffffffffffffffff81111561094257600080fd5b61094e878288016108d3565b945050602085013567ffffffffffffffff81111561096b57600080fd5b610977878288016108d3565b9350506040610988878288016108fd565b925050606085013567ffffffffffffffff8111156109a557600080fd5b6109b1878288016108d3565b91505092959194509250565b6000602082840312156109cf57600080fd5b60006109dd848285016108fd565b91505092915050565b6109ef81610cb7565b82525050565b6000610a0082610c67565b610a0a8185610c72565b9350610a1a818560208601610cdc565b610a2381610e17565b840191505092915050565b6000610a3b601483610c72565b91507f4d6f76696520646f6573206e6f742065786973740000000000000000000000006000830152602082019050919050565b6000610a7b602583610c72565b91507f4f6e6c7920746865206f776e65722063616e206372656174652061206e65772060008301527f6d6f7669650000000000000000000000000000000000000000000000000000006020830152604082019050919050565b610add81610cc3565b82525050565b6000602082019050610af860008301846109e6565b92915050565b600060a0820190508181036000830152610b1881886109f5565b90508181036020830152610b2c81876109f5565b9050610b3b6040830186610ad4565b8181036060830152610b4d81856109f5565b9050610b5c60808301846109e6565b9695505050505050565b60006060820190508181036000830152610b8081866109f5565b9050610b8f6020830185610ad4565b8181036040830152610ba181846109f5565b9050949350505050565b60006020820190508181036000830152610bc481610a2e565b9050919050565b60006020820190508181036000830152610be481610a6e565b9050919050565b6000602082019050610c006000830184610ad4565b92915050565b6000604051905081810181811067ffffffffffffffff82111715610c2d57610c2c610de8565b5b8060405250919050565b600067ffffffffffffffff821115610c5257610c51610de8565b5b601f19601f8301169050602081019050919050565b600081519050919050565b600082825260208201905092915050565b6000610c8e82610cc3565b9150610c9983610cc3565b925082821015610cac57610cab610d8a565b5b828203905092915050565b60008115159050919050565b6000819050919050565b82818337600083830152505050565b60005b83811015610cfa578082015181840152602081019050610cdf565b83811115610d09576000848401525b50505050565b60006002820490506001821680610d2757607f821691505b60208210811415610d3b57610d3a610db9565b5b50919050565b6000610d4c82610cc3565b91507fffffffffffffffffffffffffffffffffffffffffffffffffffffffffffffffff821415610d7f57610d7e610d8a565b5b600182019050919050565b7f4e487b7100000000000000000000000000000000000000000000000000000000600052601160045260246000fd5b7f4e487b7100000000000000000000000000000000000000000000000000000000600052602260045260246000fd5b7f4e487b7100000000000000000000000000000000000000000000000000000000600052604160045260246000fd5b6000601f19601f8301169050919050565b610e3181610cc3565b8114610e3c57600080fd5b5056fea2646970667358221220c4f3650ea6436736b9dae9b4f3309e9e3af31e98f5911def17ba0290888ef5cf64736f6c63430008000033",
  "immutableReferences": {},
  "source": "// SPDX-License-Identifier: MIT\r\npragma solidity ^0.8.0;\r\n\r\ncontract ContentManagement {\r\n    // Mapping of movie IDs to movie structs\r\n    mapping(uint256 => Movie) private movies;\r\n\r\n    // Event emitted when a new movie is created\r\n    event NewMovie(\r\n        uint256 indexed movieId,\r\n        string name,\r\n        uint256 releaseDate,\r\n        string description\r\n    );\r\n\r\n    // Struct to represent a movie\r\n    struct Movie {\r\n        uint256 id;\r\n        string name;\r\n        string rate; // e.g. \"R\", \"P12\"\r\n        uint256 releaseDate;\r\n        string description;\r\n        bool isAvailable; // true if released, false otherwise\r\n    }\r\n\r\n    // Only the owner can create a new movie\r\n    address private owner;\r\n\r\n    // Movie ID counter, starting from 1\r\n    uint256 private movieIdCounter = 1;\r\n\r\n    // Constructor to set the owner\r\n    constructor() {\r\n        owner = msg.sender;\r\n    }\r\n\r\n    // Modifier to check if the caller is the owner\r\n    modifier onlyOwner() {\r\n        require(msg.sender == owner, \"Only the owner can create a new movie\");\r\n        _;\r\n    }\r\n\r\n    // Modifier to check if the movie exists\r\n    modifier movieExists(uint256 _id) {\r\n        require(movies[_id].id != 0, \"Movie does not exist\");\r\n        _;\r\n    }\r\n\r\n    // Create a new movie\r\n    function createMovie(\r\n        string memory _name,\r\n        string memory _rate,\r\n        uint256 _releaseDate,\r\n        string memory _description\r\n    ) public onlyOwner {\r\n        // Create a new movie struct\r\n        bool availability = _releaseDate <= block.timestamp;\r\n        Movie memory newMovie = Movie({\r\n            id: movieIdCounter,\r\n            name: _name,\r\n            rate: _rate,\r\n            releaseDate: _releaseDate,\r\n            description: _description,\r\n            isAvailable: availability // Set availability based on the release date\r\n        });\r\n\r\n        // Add movie to the mapping\r\n        movies[movieIdCounter] = newMovie;\r\n\r\n        // Emit event for new movie creation\r\n        emit NewMovie(movieIdCounter, _name, _releaseDate, _description);\r\n\r\n        // Increment movie ID counter\r\n        movieIdCounter++;\r\n    }\r\n\r\n    // Check if a movie is available to watch (dynamically checks the release date)\r\n    function isMovieAvailable(\r\n        uint256 _id\r\n    ) public view movieExists(_id) returns (bool) {\r\n        Movie memory movie = movies[_id];\r\n        // Update availability based on the release date\r\n        return movie.releaseDate <= block.timestamp;\r\n    }\r\n\r\n    // Get movie details\r\n    function getMovie(\r\n        uint256 _id\r\n    )\r\n        public\r\n        view\r\n        movieExists(_id)\r\n        returns (\r\n            string memory name,\r\n            string memory rate,\r\n            uint256 releaseDate,\r\n            string memory description,\r\n            bool isAvailable\r\n        )\r\n    {\r\n        Movie memory movie = movies[_id];\r\n        return (\r\n            movie.name,\r\n            movie.rate,\r\n            movie.releaseDate,\r\n            movie.description,\r\n            isMovieAvailable(_id) // Dynamically return if movie is available\r\n        );\r\n    }\r\n\r\n    // Get total number of movies\r\n    function getMovieCount() public view returns (uint256) {\r\n        return movieIdCounter > 0 ? movieIdCounter - 1 : 0;\r\n    }\r\n}\r\n",
  "sourcePath": "C:\\Users\\User\\Desktop\\movie_last\\smart_contract\\contracts\\ContentManagement.sol",
  "compiler": {
    "name": "solc",
    "version": "0.8.0+commit.c7dfd78e.Emscripten.clang"
  },
  "schemaVersion": "3.4.16",
  "updatedAt": "2024-09-26T13:18:54.887Z",
  "networkType": "ethereum",
  "devdoc": {
    "kind": "dev",
    "methods": {},
    "version": 1
  },
  "userdoc": {
    "kind": "user",
    "methods": {},
    "version": 1
  }
}