{
  "contractName": "MovieVoting",
  "abi": [
    {
      "inputs": [
        {
          "internalType": "address",
          "name": "_transactionPayment",
          "type": "address"
        }
      ],
      "stateMutability": "nonpayable",
      "type": "constructor"
    },
    {
      "inputs": [
        {
          "internalType": "string",
          "name": "",
          "type": "string"
        }
      ],
      "name": "categories",
      "outputs": [
        {
          "internalType": "string",
          "name": "name",
          "type": "string"
        },
        {
          "internalType": "uint256",
          "name": "startTime",
          "type": "uint256"
        },
        {
          "internalType": "uint256",
          "name": "endTime",
          "type": "uint256"
        }
      ],
      "stateMutability": "view",
      "type": "function",
      "constant": true
    },
    {
      "inputs": [],
      "name": "transactionPayment",
      "outputs": [
        {
          "internalType": "contract ITransactionPaymentv2",
          "name": "",
          "type": "address"
        }
      ],
      "stateMutability": "view",
      "type": "function",
      "constant": true
    },
    {
      "inputs": [
        {
          "internalType": "string",
          "name": "categoryName",
          "type": "string"
        },
        {
          "internalType": "string",
          "name": "movieName",
          "type": "string"
        }
      ],
      "name": "submitVote",
      "outputs": [],
      "stateMutability": "nonpayable",
      "type": "function"
    },
    {
      "inputs": [
        {
          "internalType": "string",
          "name": "categoryName",
          "type": "string"
        }
      ],
      "name": "viewVotingResults",
      "outputs": [
        {
          "internalType": "string[]",
          "name": "movieNames",
          "type": "string[]"
        },
        {
          "internalType": "uint256[]",
          "name": "voteCounts",
          "type": "uint256[]"
        }
      ],
      "stateMutability": "view",
      "type": "function",
      "constant": true
    },
    {
      "inputs": [
        {
          "internalType": "string",
          "name": "categoryName",
          "type": "string"
        }
      ],
      "name": "cancelVote",
      "outputs": [],
      "stateMutability": "nonpayable",
      "type": "function"
    }
  ],
  "bytecode": "0x60806040523480156200001157600080fd5b5060405162002ab038038062002ab0833981810160405281019062000037919062001089565b806000806101000a81548173ffffffffffffffffffffffffffffffffffffffff021916908373ffffffffffffffffffffffffffffffffffffffff160217905550620000c76040518060400160405280601981526020017f42657374204d6f76696520696e206175677573742032303234000000000000008152506366a97e806366d25d0062000e9e60201b60201c565b620001176040518060400160405280602081526020017f4265737420436f6d656479204d6f76696520696e2061756775737420323032348152506366a97e806366d25d0062000e9e60201b60201c565b620001676040518060400160405280602081526020017f4265737420486f72726f72204d6f76696520696e2061756775737420323032348152506366a97e806366d25d0062000e9e60201b60201c565b620001b76040518060400160405280601a81526020017f42657374204d6f76696520696e206f63746f62657220323032340000000000008152506366f9ea00636722c88062000e9e60201b60201c565b620001eb60405180606001604052806021815260200162002a20602191396366f9ea00636722c88062000e9e60201b60201c565b6200021f604051806060016040528060218152602001620029ff602191396366f9ea00636722c88062000e9e60201b60201c565b6200026f6040518060400160405280601c81526020017f42657374204d6f76696520696e2053657074656d6265722032303234000000008152506366d25d006366f9ea0062000e9e60201b60201c565b620002a360405180606001604052806023815260200162002a41602391396366d25d006366f9ea0062000e9e60201b60201c565b620002d760405180606001604052806023815260200162002a8d602391396366d25d006366f9ea0062000e9e60201b60201c565b620003536040518060400160405280601981526020017f42657374204d6f76696520696e206175677573742032303234000000000000008152506040518060400160405280600c81526020017f496e73696465204f75742032000000000000000000000000000000000000000081525062000ef560201b60201c565b620003cf6040518060400160405280601a81526020017f42657374204d6f76696520696e206f63746f62657220323032340000000000008152506040518060400160405280600c81526020017f496e73696465204f75742032000000000000000000000000000000000000000081525062000ef560201b60201c565b6200044b6040518060400160405280601c81526020017f42657374204d6f76696520696e2053657074656d6265722032303234000000008152506040518060400160405280600c81526020017f496e73696465204f75742032000000000000000000000000000000000000000081525062000ef560201b60201c565b620004c76040518060400160405280601c81526020017f42657374204d6f76696520696e2053657074656d6265722032303234000000008152506040518060400160405280601481526020017f44656164706f6f6c202620576f6c766572696e6500000000000000000000000081525062000ef560201b60201c565b620005436040518060400160405280601c81526020017f42657374204d6f76696520696e2053657074656d6265722032303234000000008152506040518060400160405280601781526020017f426565746c656a7569636520426565746c656a7569636500000000000000000081525062000ef560201b60201c565b620005bf6040518060400160405280601c81526020017f42657374204d6f76696520696e2053657074656d6265722032303234000000008152506040518060400160405280600881526020017f4c6f6e676c65677300000000000000000000000000000000000000000000000081525062000ef560201b60201c565b6200063b6040518060400160405280601c81526020017f42657374204d6f76696520696e2053657074656d6265722032303234000000008152506040518060400160405280601481526020017f536f6e696320746865204865646765686f67203300000000000000000000000081525062000ef560201b60201c565b6200069b6040518060400160405280601c81526020017f42657374204d6f76696520696e2053657074656d62657220323032340000000081525060405180606001604052806029815260200162002a646029913962000ef560201b60201c565b620007176040518060400160405280601c81526020017f42657374204d6f76696520696e2053657074656d6265722032303234000000008152506040518060400160405280601081526020017f5472616e73666f726d657273204f6e650000000000000000000000000000000081525062000ef560201b60201c565b620007936040518060400160405280601c81526020017f42657374204d6f76696520696e2053657074656d6265722032303234000000008152506040518060400160405280600f81526020017f44657370696361626c65204d652034000000000000000000000000000000000081525062000ef560201b60201c565b6200080f6040518060400160405280601c81526020017f42657374204d6f76696520696e2053657074656d6265722032303234000000008152506040518060400160405280601381526020017f486973205468726565204461756768746572730000000000000000000000000081525062000ef560201b60201c565b6200086f60405180606001604052806023815260200162002a41602391396040518060400160405280600c81526020017f496e73696465204f75742032000000000000000000000000000000000000000081525062000ef560201b60201c565b620008cf60405180606001604052806023815260200162002a41602391396040518060400160405280601481526020017f44656164706f6f6c202620576f6c766572696e6500000000000000000000000081525062000ef560201b60201c565b6200092f60405180606001604052806023815260200162002a41602391396040518060400160405280601781526020017f426565746c656a7569636520426565746c656a7569636500000000000000000081525062000ef560201b60201c565b6200098f60405180606001604052806023815260200162002a41602391396040518060400160405280600881526020017f4c6f6e676c65677300000000000000000000000000000000000000000000000081525062000ef560201b60201c565b620009ef60405180606001604052806023815260200162002a41602391396040518060400160405280601481526020017f536f6e696320746865204865646765686f67203300000000000000000000000081525062000ef560201b60201c565b62000a3360405180606001604052806023815260200162002a416023913960405180606001604052806029815260200162002a646029913962000ef560201b60201c565b62000a9360405180606001604052806023815260200162002a41602391396040518060400160405280601081526020017f5472616e73666f726d657273204f6e650000000000000000000000000000000081525062000ef560201b60201c565b62000af360405180606001604052806023815260200162002a41602391396040518060400160405280600f81526020017f44657370696361626c65204d652034000000000000000000000000000000000081525062000ef560201b60201c565b62000b5360405180606001604052806023815260200162002a41602391396040518060400160405280601381526020017f486973205468726565204461756768746572730000000000000000000000000081525062000ef560201b60201c565b62000bb360405180606001604052806023815260200162002a8d602391396040518060400160405280600c81526020017f496e73696465204f75742032000000000000000000000000000000000000000081525062000ef560201b60201c565b62000c1360405180606001604052806023815260200162002a8d602391396040518060400160405280601481526020017f44656164706f6f6c202620576f6c766572696e6500000000000000000000000081525062000ef560201b60201c565b62000c7360405180606001604052806023815260200162002a8d602391396040518060400160405280601781526020017f426565746c656a7569636520426565746c656a7569636500000000000000000081525062000ef560201b60201c565b62000cd360405180606001604052806023815260200162002a8d602391396040518060400160405280600881526020017f4c6f6e676c65677300000000000000000000000000000000000000000000000081525062000ef560201b60201c565b62000d3360405180606001604052806023815260200162002a8d602391396040518060400160405280601481526020017f536f6e696320746865204865646765686f67203300000000000000000000000081525062000ef560201b60201c565b62000d7760405180606001604052806023815260200162002a8d6023913960405180606001604052806029815260200162002a646029913962000ef560201b60201c565b62000dd760405180606001604052806023815260200162002a8d602391396040518060400160405280601081526020017f5472616e73666f726d657273204f6e650000000000000000000000000000000081525062000ef560201b60201c565b62000e3760405180606001604052806023815260200162002a8d602391396040518060400160405280600f81526020017f44657370696361626c65204d652034000000000000000000000000000000000081525062000ef560201b60201c565b62000e9760405180606001604052806023815260200162002a8d602391396040518060400160405280601381526020017f486973205468726565204461756768746572730000000000000000000000000081525062000ef560201b60201c565b5062001204565b600060018460405162000eb29190620010ec565b908152602001604051809103902090508381600001908051906020019062000edc92919062000fc2565b5082816004018190555081816005018190555050505050565b600060018360405162000f099190620010ec565b9081526020016040518091039020905060405180604001604052808381526020016000815250816001018360405162000f439190620010ec565b9081526020016040518091039020600082015181600001908051906020019062000f6f92919062000fc2565b5060208201518160010155905050806002018290806001815401808255809150506001900390600052602060002001600090919091909150908051906020019062000fbc92919062000fc2565b50505050565b82805462000fd09062001185565b90600052602060002090601f01602090048101928262000ff4576000855562001040565b82601f106200100f57805160ff191683800117855562001040565b8280016001018555821562001040579182015b828111156200103f57825182559160200191906001019062001022565b5b5090506200104f919062001053565b5090565b5b808211156200106e57600081600090555060010162001054565b5090565b6000815190506200108381620011ea565b92915050565b6000602082840312156200109c57600080fd5b6000620010ac8482850162001072565b91505092915050565b6000620010c28262001105565b620010ce818562001110565b9350620010e08185602086016200114f565b80840191505092915050565b6000620010fa8284620010b5565b915081905092915050565b600081519050919050565b600081905092915050565b600062001128826200112f565b9050919050565b600073ffffffffffffffffffffffffffffffffffffffff82169050919050565b60005b838110156200116f57808201518184015260208101905062001152565b838111156200117f576000848401525b50505050565b600060028204905060018216806200119e57607f821691505b60208210811415620011b557620011b4620011bb565b5b50919050565b7f4e487b7100000000000000000000000000000000000000000000000000000000600052602260045260246000fd5b620011f5816200111b565b81146200120157600080fd5b50565b6117eb80620012146000396000f3fe608060405234801561001057600080fd5b50600436106100575760003560e01c806318c30c6e1461005c57806346ee4b861461008d578063561b29cc146100a957806385d894c3146100db578063b2e635e1146100f9575b600080fd5b61007660048036038101906100719190610e30565b610115565b604051610084929190611335565b60405180910390f35b6100a760048036038101906100a29190610e30565b61049f565b005b6100c360048036038101906100be9190610e30565b6107ce565b6040516100d293929190611387565b60405180910390f35b6100e3610896565b6040516100f0919061136c565b60405180910390f35b610113600480360381019061010e9190610eb2565b6108ba565b005b6060808260018160405161012991906112ee565b90815260200160405180910390206004015442101561017d576040517f08c379a000000000000000000000000000000000000000000000000000000000815260040161017490611445565b60405180910390fd5b60018160405161018d91906112ee565b9081526020016040518091039020600501544211156101e1576040517f08c379a00000000000000000000000000000000000000000000000000000000081526004016101d890611405565b60405180910390fd5b60006001856040516101f391906112ee565b908152602001604051809103902090506000816002018054905090508067ffffffffffffffff81111561024f577f4e487b7100000000000000000000000000000000000000000000000000000000600052604160045260246000fd5b60405190808252806020026020018201604052801561028257816020015b606081526020019060019003908161026d5790505b5094508067ffffffffffffffff8111156102c5577f4e487b7100000000000000000000000000000000000000000000000000000000600052604160045260246000fd5b6040519080825280602002602001820160405280156102f35781602001602082028036833780820191505090505b50935060005b8181101561049657600083600201828154811061033f577f4e487b7100000000000000000000000000000000000000000000000000000000600052603260045260246000fd5b9060005260206000200180546103549061169c565b80601f01602080910402602001604051908101604052809291908181526020018280546103809061169c565b80156103cd5780601f106103a2576101008083540402835291602001916103cd565b820191906000526020600020905b8154815290600101906020018083116103b057829003601f168201915b505050505090508087838151811061040e577f4e487b7100000000000000000000000000000000000000000000000000000000600052603260045260246000fd5b6020026020010181905250836001018160405161042b91906112ee565b908152602001604051809103902060010154868381518110610476577f4e487b7100000000000000000000000000000000000000000000000000000000600052603260045260246000fd5b60200260200101818152505050808061048e906116ce565b9150506102f9565b50505050915091565b806001816040516104b091906112ee565b908152602001604051809103902060040154421015610504576040517f08c379a00000000000000000000000000000000000000000000000000000000081526004016104fb90611445565b60405180910390fd5b60018160405161051491906112ee565b908152602001604051809103902060050154421115610568576040517f08c379a000000000000000000000000000000000000000000000000000000000815260040161055f90611405565b60405180910390fd5b600060018360405161057a91906112ee565b908152602001604051809103902090508060030160003373ffffffffffffffffffffffffffffffffffffffff1673ffffffffffffffffffffffffffffffffffffffff16815260200190815260200160002060009054906101000a900460ff16610618576040517f08c379a000000000000000000000000000000000000000000000000000000000815260040161060f906113c5565b60405180910390fd5b60008160060160003373ffffffffffffffffffffffffffffffffffffffff1673ffffffffffffffffffffffffffffffffffffffff16815260200190815260200160002080546106669061169c565b80601f01602080910402602001604051908101604052809291908181526020018280546106929061169c565b80156106df5780601f106106b4576101008083540402835291602001916106df565b820191906000526020600020905b8154815290600101906020018083116106c257829003601f168201915b50505050509050600182600101826040516106fa91906112ee565b9081526020016040518091039020600101600082825461071a91906115c6565b9250508190555060008260030160003373ffffffffffffffffffffffffffffffffffffffff1673ffffffffffffffffffffffffffffffffffffffff16815260200190815260200160002060006101000a81548160ff0219169083151502179055508160060160003373ffffffffffffffffffffffffffffffffffffffff1673ffffffffffffffffffffffffffffffffffffffff16815260200190815260200160002060006107c89190610c7d565b50505050565b6001818051602081018201805184825260208301602085012081835280955050505050506000915090508060000180546108079061169c565b80601f01602080910402602001604051908101604052809291908181526020018280546108339061169c565b80156108805780601f1061085557610100808354040283529160200191610880565b820191906000526020600020905b81548152906001019060200180831161086357829003601f168201915b5050505050908060040154908060050154905083565b60008054906101000a900473ffffffffffffffffffffffffffffffffffffffff1681565b816001816040516108cb91906112ee565b90815260200160405180910390206004015442101561091f576040517f08c379a000000000000000000000000000000000000000000000000000000000815260040161091690611445565b60405180910390fd5b60018160405161092f91906112ee565b908152602001604051809103902060050154421115610983576040517f08c379a000000000000000000000000000000000000000000000000000000000815260040161097a90611405565b60405180910390fd5b8260018160405161099491906112ee565b908152602001604051809103902060030160003373ffffffffffffffffffffffffffffffffffffffff1673ffffffffffffffffffffffffffffffffffffffff16815260200190815260200160002060009054906101000a900460ff1615610a30576040517f08c379a0000000000000000000000000000000000000000000000000000000008152600401610a27906113e5565b60405180910390fd5b604051602001610a3f90611305565b6040516020818303038152906040528051906020012060008054906101000a900473ffffffffffffffffffffffffffffffffffffffff1673ffffffffffffffffffffffffffffffffffffffff16631ddda9b6336040518263ffffffff1660e01b8152600401610aae919061131a565b60006040518083038186803b158015610ac657600080fd5b505afa158015610ada573d6000803e3d6000fd5b505050506040513d6000823e3d601f19601f82011682018060405250810190610b039190610e71565b604051602001610b1391906112ee565b6040516020818303038152906040528051906020012014610b69576040517f08c379a0000000000000000000000000000000000000000000000000000000008152600401610b6090611425565b60405180910390fd5b6000600185604051610b7b91906112ee565b9081526020016040518091039020905060018160010185604051610b9f91906112ee565b90815260200160405180910390206001016000828254610bbf9190611570565b9250508190555060018160030160003373ffffffffffffffffffffffffffffffffffffffff1673ffffffffffffffffffffffffffffffffffffffff16815260200190815260200160002060006101000a81548160ff021916908315150217905550838160060160003373ffffffffffffffffffffffffffffffffffffffff1673ffffffffffffffffffffffffffffffffffffffff1681526020019081526020016000209080519060200190610c75929190610cbd565b505050505050565b508054610c899061169c565b6000825580601f10610c9b5750610cba565b601f016020900490600052602060002090810190610cb99190610d43565b5b50565b828054610cc99061169c565b90600052602060002090601f016020900481019282610ceb5760008555610d32565b82601f10610d0457805160ff1916838001178555610d32565b82800160010185558215610d32579182015b82811115610d31578251825591602001919060010190610d16565b5b509050610d3f9190610d43565b5090565b5b80821115610d5c576000816000905550600101610d44565b5090565b6000610d73610d6e84611496565b611465565b905082815260208101848484011115610d8b57600080fd5b610d9684828561165a565b509392505050565b6000610db1610dac84611496565b611465565b905082815260208101848484011115610dc957600080fd5b610dd4848285611669565b509392505050565b600082601f830112610ded57600080fd5b8135610dfd848260208601610d60565b91505092915050565b600082601f830112610e1757600080fd5b8151610e27848260208601610d9e565b91505092915050565b600060208284031215610e4257600080fd5b600082013567ffffffffffffffff811115610e5c57600080fd5b610e6884828501610ddc565b91505092915050565b600060208284031215610e8357600080fd5b600082015167ffffffffffffffff811115610e9d57600080fd5b610ea984828501610e06565b91505092915050565b60008060408385031215610ec557600080fd5b600083013567ffffffffffffffff811115610edf57600080fd5b610eeb85828601610ddc565b925050602083013567ffffffffffffffff811115610f0857600080fd5b610f1485828601610ddc565b9150509250929050565b6000610f2a838361103b565b905092915050565b6000610f3e83836112d0565b60208301905092915050565b610f53816115fa565b82525050565b6000610f64826114e6565b610f6e8185611521565b935083602082028501610f80856114c6565b8060005b85811015610fbc5784840389528151610f9d8582610f1e565b9450610fa883611507565b925060208a01995050600181019050610f84565b50829750879550505050505092915050565b6000610fd9826114f1565b610fe38185611532565b9350610fee836114d6565b8060005b8381101561101f5781516110068882610f32565b975061101183611514565b925050600181019050610ff2565b5085935050505092915050565b61103581611636565b82525050565b6000611046826114fc565b6110508185611543565b9350611060818560208601611669565b611069816117a4565b840191505092915050565b600061107f826114fc565b6110898185611554565b9350611099818560208601611669565b6110a2816117a4565b840191505092915050565b60006110b8826114fc565b6110c28185611565565b93506110d2818560208601611669565b80840191505092915050565b60006110eb602483611554565b91507f596f752068617665206e6f7420766f74656420696e207468697320636174656760008301527f6f72792e000000000000000000000000000000000000000000000000000000006020830152604082019050919050565b6000611151600683611565565b91507f51756575656400000000000000000000000000000000000000000000000000006000830152600682019050919050565b6000611191602883611554565b91507f596f75206861766520616c726561647920766f74656420696e2074686973206360008301527f617465676f72792e0000000000000000000000000000000000000000000000006020830152604082019050919050565b60006111f7601183611554565b91507f566f74696e672068617320656e6465642e0000000000000000000000000000006000830152602082019050919050565b6000611237602d83611554565b91507f596f75206d757374206861766520616e2061637469766520737562736372697060008301527f74696f6e20746f20766f74652e000000000000000000000000000000000000006020830152604082019050919050565b600061129d601b83611554565b91507f566f74696e6720686173206e6f742073746172746564207965742e00000000006000830152602082019050919050565b6112d98161162c565b82525050565b6112e88161162c565b82525050565b60006112fa82846110ad565b915081905092915050565b600061131082611144565b9150819050919050565b600060208201905061132f6000830184610f4a565b92915050565b6000604082019050818103600083015261134f8185610f59565b905081810360208301526113638184610fce565b90509392505050565b6000602082019050611381600083018461102c565b92915050565b600060608201905081810360008301526113a18186611074565b90506113b060208301856112df565b6113bd60408301846112df565b949350505050565b600060208201905081810360008301526113de816110de565b9050919050565b600060208201905081810360008301526113fe81611184565b9050919050565b6000602082019050818103600083015261141e816111ea565b9050919050565b6000602082019050818103600083015261143e8161122a565b9050919050565b6000602082019050818103600083015261145e81611290565b9050919050565b6000604051905081810181811067ffffffffffffffff8211171561148c5761148b611775565b5b8060405250919050565b600067ffffffffffffffff8211156114b1576114b0611775565b5b601f19601f8301169050602081019050919050565b6000819050602082019050919050565b6000819050602082019050919050565b600081519050919050565b600081519050919050565b600081519050919050565b6000602082019050919050565b6000602082019050919050565b600082825260208201905092915050565b600082825260208201905092915050565b600082825260208201905092915050565b600082825260208201905092915050565b600081905092915050565b600061157b8261162c565b91506115868361162c565b9250827fffffffffffffffffffffffffffffffffffffffffffffffffffffffffffffffff038211156115bb576115ba611717565b5b828201905092915050565b60006115d18261162c565b91506115dc8361162c565b9250828210156115ef576115ee611717565b5b828203905092915050565b60006116058261160c565b9050919050565b600073ffffffffffffffffffffffffffffffffffffffff82169050919050565b6000819050919050565b600061164182611648565b9050919050565b60006116538261160c565b9050919050565b82818337600083830152505050565b60005b8381101561168757808201518184015260208101905061166c565b83811115611696576000848401525b50505050565b600060028204905060018216806116b457607f821691505b602082108114156116c8576116c7611746565b5b50919050565b60006116d98261162c565b91507fffffffffffffffffffffffffffffffffffffffffffffffffffffffffffffffff82141561170c5761170b611717565b5b600182019050919050565b7f4e487b7100000000000000000000000000000000000000000000000000000000600052601160045260246000fd5b7f4e487b7100000000000000000000000000000000000000000000000000000000600052602260045260246000fd5b7f4e487b7100000000000000000000000000000000000000000000000000000000600052604160045260246000fd5b6000601f19601f830116905091905056fea26469706673582212203261828c1d044c4d66132f51ece9995e6e44ece07fbee7ce11d32b522148e9f464736f6c634300080000334265737420486f72726f72204d6f76696520696e206f63746f62657220323032344265737420436f6d656479204d6f76696520696e206f63746f62657220323032344265737420436f6d656479204d6f76696520696e2053657074656d6265722032303234546865204c6f7264206f66207468652052696e67733a205468652052696e6773206f6620506f7765724265737420486f72726f72204d6f76696520696e2053657074656d6265722032303234",
  "immutableReferences": {},
  "source": "// SPDX-License-Identifier: MIT\r\npragma solidity ^0.8.0;\r\n\r\ninterface ITransactionPaymentv2 {\r\n    function getSubscriptionStatus(address _user) external view returns (string memory);\r\n}\r\n\r\ncontract MovieVoting {\r\n    ITransactionPaymentv2 public transactionPayment; // Declare as public\r\n\r\n    struct Movie {\r\n        string name;\r\n        uint256 votes;\r\n    }\r\n\r\n    struct Category {\r\n        string name;\r\n        mapping(string => Movie) movies;\r\n        string[] movieList;  // Array to store movie names for iteration\r\n        mapping(address => bool) hasVoted;\r\n        uint256 startTime;\r\n        uint256 endTime;\r\n        mapping(address => string) votedMovie; // Track the movie voted by each address\r\n    }\r\n\r\n    mapping(string => Category) public categories;\r\n\r\n    // Modifier to check if voting is open\r\n    modifier votingOpen(string memory categoryName) {\r\n        require(block.timestamp >= categories[categoryName].startTime, \"Voting has not started yet.\");\r\n        require(block.timestamp <= categories[categoryName].endTime, \"Voting has ended.\");\r\n        _;\r\n    }\r\n\r\n    // Modifier to ensure the user has not already voted\r\n    modifier hasNotVoted(string memory categoryName) {\r\n        require(!categories[categoryName].hasVoted[msg.sender], \"You have already voted in this category.\");\r\n        _;\r\n    }\r\n\r\n    // Modifier to check if the user has an active subscription\r\n    modifier onlyActiveSubscribers() {\r\n        require(\r\n            keccak256(abi.encodePacked(transactionPayment.getSubscriptionStatus(msg.sender))) == keccak256(abi.encodePacked(\"Queued\")),\r\n            \"You must have an active subscription to vote.\"\r\n        );\r\n        _;\r\n    }\r\n\r\n    // Function to add movie category\r\n    constructor(address _transactionPayment){\r\n         transactionPayment = ITransactionPaymentv2(_transactionPayment);\r\n        addCategory(\"Best Movie in august 2024\", 1722384000, 1725062400);\r\n        addCategory(\"Best Comedy Movie in august 2024\", 1722384000, 1725062400);\r\n        addCategory(\"Best Horror Movie in august 2024\", 1722384000, 1725062400);\r\n        addCategory(\"Best Movie in october 2024\", 1727654400, 1730332800);\r\n        addCategory(\"Best Comedy Movie in october 2024\", 1727654400, 1730332800);\r\n        addCategory(\"Best Horror Movie in october 2024\", 1727654400, 1730332800);\r\n        addCategory(\"Best Movie in September 2024\", 1725062400, 1727654400);\r\n        addCategory(\"Best Comedy Movie in September 2024\", 1725062400, 1727654400);\r\n        addCategory(\"Best Horror Movie in September 2024\", 1725062400, 1727654400);\r\n        addMovieToCategory(\"Best Movie in august 2024\", \"Inside Out 2\");\r\n        addMovieToCategory(\"Best Movie in october 2024\", \"Inside Out 2\");\r\n        addMovieToCategory(\"Best Movie in September 2024\", \"Inside Out 2\");\r\n        addMovieToCategory(\"Best Movie in September 2024\", \"Deadpool & Wolverine\");\r\n        addMovieToCategory(\"Best Movie in September 2024\", \"Beetlejuice Beetlejuice\");\r\n        addMovieToCategory(\"Best Movie in September 2024\", \"Longlegs\");\r\n        addMovieToCategory(\"Best Movie in September 2024\", \"Sonic the Hedgehog 3\");\r\n        addMovieToCategory(\"Best Movie in September 2024\", \"The Lord of the Rings: The Rings of Power\");\r\n        addMovieToCategory(\"Best Movie in September 2024\", \"Transformers One\");\r\n        addMovieToCategory(\"Best Movie in September 2024\", \"Despicable Me 4\");\r\n        addMovieToCategory(\"Best Movie in September 2024\", \"His Three Daughters\");\r\n        addMovieToCategory(\"Best Comedy Movie in September 2024\", \"Inside Out 2\");\r\n        addMovieToCategory(\"Best Comedy Movie in September 2024\", \"Deadpool & Wolverine\");\r\n        addMovieToCategory(\"Best Comedy Movie in September 2024\", \"Beetlejuice Beetlejuice\");\r\n        addMovieToCategory(\"Best Comedy Movie in September 2024\", \"Longlegs\");\r\n        addMovieToCategory(\"Best Comedy Movie in September 2024\", \"Sonic the Hedgehog 3\");\r\n        addMovieToCategory(\"Best Comedy Movie in September 2024\", \"The Lord of the Rings: The Rings of Power\");\r\n        addMovieToCategory(\"Best Comedy Movie in September 2024\", \"Transformers One\");\r\n        addMovieToCategory(\"Best Comedy Movie in September 2024\", \"Despicable Me 4\");\r\n        addMovieToCategory(\"Best Comedy Movie in September 2024\", \"His Three Daughters\");\r\n        addMovieToCategory(\"Best Horror Movie in September 2024\", \"Inside Out 2\");\r\n        addMovieToCategory(\"Best Horror Movie in September 2024\", \"Deadpool & Wolverine\");\r\n        addMovieToCategory(\"Best Horror Movie in September 2024\", \"Beetlejuice Beetlejuice\");\r\n        addMovieToCategory(\"Best Horror Movie in September 2024\", \"Longlegs\");\r\n        addMovieToCategory(\"Best Horror Movie in September 2024\", \"Sonic the Hedgehog 3\");\r\n        addMovieToCategory(\"Best Horror Movie in September 2024\", \"The Lord of the Rings: The Rings of Power\");\r\n        addMovieToCategory(\"Best Horror Movie in September 2024\", \"Transformers One\");\r\n        addMovieToCategory(\"Best Horror Movie in September 2024\", \"Despicable Me 4\");\r\n        addMovieToCategory(\"Best Horror Movie in September 2024\", \"His Three Daughters\");\r\n    }\r\n    function addCategory(string memory categoryName, uint256 startTime, uint256 endTime) private {\r\n        Category storage category = categories[categoryName];\r\n        category.name = categoryName;\r\n        category.startTime = startTime;\r\n        category.endTime = endTime;\r\n    }\r\n\r\n    // Function to add a movie to a category\r\n    function addMovieToCategory(string memory categoryName, string memory movieName) private {\r\n        Category storage category = categories[categoryName];\r\n        category.movies[movieName] = Movie(movieName, 0);\r\n        category.movieList.push(movieName);  // Add movie name to the list\r\n    }\r\n\r\n    // Function to submit a vote\r\n    function submitVote(string memory categoryName, string memory movieName) public votingOpen(categoryName) hasNotVoted(categoryName) onlyActiveSubscribers {\r\n        Category storage category = categories[categoryName];\r\n        category.movies[movieName].votes += 1;\r\n        category.hasVoted[msg.sender] = true;\r\n        category.votedMovie[msg.sender] = movieName; // Track the voted movie\r\n    }\r\n\r\n    // Function to view voting results\r\n    function viewVotingResults(string memory categoryName) public view votingOpen(categoryName) returns (string[] memory movieNames, uint256[] memory voteCounts) {\r\n        Category storage category = categories[categoryName];\r\n        uint256 movieCount = category.movieList.length;\r\n\r\n        movieNames = new string[](movieCount);\r\n        voteCounts = new uint256[](movieCount);\r\n\r\n        for (uint i = 0; i < movieCount; i++) {\r\n            string memory movieName = category.movieList[i];\r\n            movieNames[i] = movieName;\r\n            voteCounts[i] = category.movies[movieName].votes;\r\n        }\r\n    }\r\n\r\n    // Function to cancel a vote\r\n    function cancelVote(string memory categoryName) public votingOpen(categoryName) {\r\n        Category storage category = categories[categoryName];\r\n        require(category.hasVoted[msg.sender], \"You have not voted in this category.\");\r\n\r\n        string memory votedMovieName = category.votedMovie[msg.sender];\r\n        category.movies[votedMovieName].votes -= 1; // Decrement the vote count\r\n        category.hasVoted[msg.sender] = false; // Mark the user as not having voted\r\n        delete category.votedMovie[msg.sender]; // Clear the voted movie record\r\n    }\r\n}\r\n",
  "sourcePath": "C:\\Users\\User\\Desktop\\movie_last\\smart_contract\\contracts\\VoteMovie.sol",
  "compiler": {
    "name": "solc",
    "version": "0.8.0+commit.c7dfd78e.Emscripten.clang"
  },
  "schemaVersion": "3.4.16",
  "updatedAt": "2024-09-26T08:36:32.024Z",
  "networkType": "ethereum",
  "devdoc": {
    "kind": "dev",
    "methods": {},
    "version": 1
  },
  "userdoc": {
    "kind": "user",
    "methods": {},
    "version": 1
  }
}