{
  "contractName": "MovieVoting",
  "abi": [
    {
      "inputs": [],
      "stateMutability": "nonpayable",
      "type": "constructor"
    },
    {
      "inputs": [
        {
          "internalType": "string",
          "name": "",
          "type": "string"
        }
      ],
      "name": "categories",
      "outputs": [
        {
          "internalType": "string",
          "name": "name",
          "type": "string"
        },
        {
          "internalType": "uint256",
          "name": "startTime",
          "type": "uint256"
        },
        {
          "internalType": "uint256",
          "name": "endTime",
          "type": "uint256"
        }
      ],
      "stateMutability": "view",
      "type": "function",
      "constant": true
    },
    {
      "inputs": [
        {
          "internalType": "string",
          "name": "categoryName",
          "type": "string"
        },
        {
          "internalType": "string",
          "name": "movieName",
          "type": "string"
        }
      ],
      "name": "submitVote",
      "outputs": [],
      "stateMutability": "nonpayable",
      "type": "function"
    },
    {
      "inputs": [
        {
          "internalType": "string",
          "name": "categoryName",
          "type": "string"
        }
      ],
      "name": "viewVotingResults",
      "outputs": [
        {
          "internalType": "string[]",
          "name": "movieNames",
          "type": "string[]"
        },
        {
          "internalType": "uint256[]",
          "name": "voteCounts",
          "type": "uint256[]"
        }
      ],
      "stateMutability": "view",
      "type": "function",
      "constant": true
    },
    {
      "inputs": [
        {
          "internalType": "string",
          "name": "categoryName",
          "type": "string"
        }
      ],
      "name": "cancelVote",
      "outputs": [],
      "stateMutability": "nonpayable",
      "type": "function"
    }
  ],
  "bytecode": "0x60806040523480156200001157600080fd5b50620000626040518060400160405280601981526020017f42657374204d6f76696520696e206175677573742032303234000000000000008152506366a97e806366d25d0062000e3860201b60201c565b620000b26040518060400160405280602081526020017f4265737420436f6d656479204d6f76696520696e2061756775737420323032348152506366a97e806366d25d0062000e3860201b60201c565b620001026040518060400160405280602081526020017f4265737420486f72726f72204d6f76696520696e2061756775737420323032348152506366a97e806366d25d0062000e3860201b60201c565b620001526040518060400160405280601a81526020017f42657374204d6f76696520696e206f63746f62657220323032340000000000008152506366f9ea00636722c88062000e3860201b60201c565b6200018660405180606001604052806021815260200162002570602191396366f9ea00636722c88062000e3860201b60201c565b620001ba6040518060600160405280602181526020016200254f602191396366f9ea00636722c88062000e3860201b60201c565b6200020a6040518060400160405280601c81526020017f42657374204d6f76696520696e2053657074656d6265722032303234000000008152506366d25d006366f9ea0062000e3860201b60201c565b6200023e60405180606001604052806023815260200162002591602391396366d25d006366f9ea0062000e3860201b60201c565b62000272604051806060016040528060238152602001620025dd602391396366d25d006366f9ea0062000e3860201b60201c565b620002ee6040518060400160405280601981526020017f42657374204d6f76696520696e206175677573742032303234000000000000008152506040518060400160405280600c81526020017f496e73696465204f75742032000000000000000000000000000000000000000081525062000e8e60201b60201c565b6200036a6040518060400160405280601a81526020017f42657374204d6f76696520696e206f63746f62657220323032340000000000008152506040518060400160405280600c81526020017f496e73696465204f75742032000000000000000000000000000000000000000081525062000e8e60201b60201c565b620003e66040518060400160405280601c81526020017f42657374204d6f76696520696e2053657074656d6265722032303234000000008152506040518060400160405280600c81526020017f496e73696465204f75742032000000000000000000000000000000000000000081525062000e8e60201b60201c565b620004626040518060400160405280601c81526020017f42657374204d6f76696520696e2053657074656d6265722032303234000000008152506040518060400160405280601481526020017f44656164706f6f6c202620576f6c766572696e6500000000000000000000000081525062000e8e60201b60201c565b620004de6040518060400160405280601c81526020017f42657374204d6f76696520696e2053657074656d6265722032303234000000008152506040518060400160405280601781526020017f426565746c656a7569636520426565746c656a7569636500000000000000000081525062000e8e60201b60201c565b6200055a6040518060400160405280601c81526020017f42657374204d6f76696520696e2053657074656d6265722032303234000000008152506040518060400160405280600881526020017f4c6f6e676c65677300000000000000000000000000000000000000000000000081525062000e8e60201b60201c565b620005d66040518060400160405280601c81526020017f42657374204d6f76696520696e2053657074656d6265722032303234000000008152506040518060400160405280601481526020017f536f6e696320746865204865646765686f67203300000000000000000000000081525062000e8e60201b60201c565b620006366040518060400160405280601c81526020017f42657374204d6f76696520696e2053657074656d626572203230323400000000815250604051806060016040528060298152602001620025b46029913962000e8e60201b60201c565b620006b26040518060400160405280601c81526020017f42657374204d6f76696520696e2053657074656d6265722032303234000000008152506040518060400160405280601081526020017f5472616e73666f726d657273204f6e650000000000000000000000000000000081525062000e8e60201b60201c565b6200072e6040518060400160405280601c81526020017f42657374204d6f76696520696e2053657074656d6265722032303234000000008152506040518060400160405280600f81526020017f44657370696361626c65204d652034000000000000000000000000000000000081525062000e8e60201b60201c565b620007aa6040518060400160405280601c81526020017f42657374204d6f76696520696e2053657074656d6265722032303234000000008152506040518060400160405280601381526020017f486973205468726565204461756768746572730000000000000000000000000081525062000e8e60201b60201c565b6200080a60405180606001604052806023815260200162002591602391396040518060400160405280600c81526020017f496e73696465204f75742032000000000000000000000000000000000000000081525062000e8e60201b60201c565b6200086a60405180606001604052806023815260200162002591602391396040518060400160405280601481526020017f44656164706f6f6c202620576f6c766572696e6500000000000000000000000081525062000e8e60201b60201c565b620008ca60405180606001604052806023815260200162002591602391396040518060400160405280601781526020017f426565746c656a7569636520426565746c656a7569636500000000000000000081525062000e8e60201b60201c565b6200092a60405180606001604052806023815260200162002591602391396040518060400160405280600881526020017f4c6f6e676c65677300000000000000000000000000000000000000000000000081525062000e8e60201b60201c565b6200098a60405180606001604052806023815260200162002591602391396040518060400160405280601481526020017f536f6e696320746865204865646765686f67203300000000000000000000000081525062000e8e60201b60201c565b620009ce6040518060600160405280602381526020016200259160239139604051806060016040528060298152602001620025b46029913962000e8e60201b60201c565b62000a2e60405180606001604052806023815260200162002591602391396040518060400160405280601081526020017f5472616e73666f726d657273204f6e650000000000000000000000000000000081525062000e8e60201b60201c565b62000a8e60405180606001604052806023815260200162002591602391396040518060400160405280600f81526020017f44657370696361626c65204d652034000000000000000000000000000000000081525062000e8e60201b60201c565b62000aee60405180606001604052806023815260200162002591602391396040518060400160405280601381526020017f486973205468726565204461756768746572730000000000000000000000000081525062000e8e60201b60201c565b62000b4e604051806060016040528060238152602001620025dd602391396040518060400160405280600c81526020017f496e73696465204f75742032000000000000000000000000000000000000000081525062000e8e60201b60201c565b62000bae604051806060016040528060238152602001620025dd602391396040518060400160405280601481526020017f44656164706f6f6c202620576f6c766572696e6500000000000000000000000081525062000e8e60201b60201c565b62000c0e604051806060016040528060238152602001620025dd602391396040518060400160405280601781526020017f426565746c656a7569636520426565746c656a7569636500000000000000000081525062000e8e60201b60201c565b62000c6e604051806060016040528060238152602001620025dd602391396040518060400160405280600881526020017f4c6f6e676c65677300000000000000000000000000000000000000000000000081525062000e8e60201b60201c565b62000cce604051806060016040528060238152602001620025dd602391396040518060400160405280601481526020017f536f6e696320746865204865646765686f67203300000000000000000000000081525062000e8e60201b60201c565b62000d12604051806060016040528060238152602001620025dd60239139604051806060016040528060298152602001620025b46029913962000e8e60201b60201c565b62000d72604051806060016040528060238152602001620025dd602391396040518060400160405280601081526020017f5472616e73666f726d657273204f6e650000000000000000000000000000000081525062000e8e60201b60201c565b62000dd2604051806060016040528060238152602001620025dd602391396040518060400160405280600f81526020017f44657370696361626c65204d652034000000000000000000000000000000000081525062000e8e60201b60201c565b62000e32604051806060016040528060238152602001620025dd602391396040518060400160405280601381526020017f486973205468726565204461756768746572730000000000000000000000000081525062000e8e60201b60201c565b6200110b565b6000808460405162000e4b919062001041565b908152602001604051809103902090508381600001908051906020019062000e7592919062000f5a565b5082816004018190555081816005018190555050505050565b6000808360405162000ea1919062001041565b9081526020016040518091039020905060405180604001604052808381526020016000815250816001018360405162000edb919062001041565b9081526020016040518091039020600082015181600001908051906020019062000f0792919062000f5a565b5060208201518160010155905050806002018290806001815401808255809150506001900390600052602060002001600090919091909150908051906020019062000f5492919062000f5a565b50505050565b82805462000f6890620010a6565b90600052602060002090601f01602090048101928262000f8c576000855562000fd8565b82601f1062000fa757805160ff191683800117855562000fd8565b8280016001018555821562000fd8579182015b8281111562000fd757825182559160200191906001019062000fba565b5b50905062000fe7919062000feb565b5090565b5b808211156200100657600081600090555060010162000fec565b5090565b600062001017826200105a565b62001023818562001065565b93506200103581856020860162001070565b80840191505092915050565b60006200104f82846200100a565b915081905092915050565b600081519050919050565b600081905092915050565b60005b838110156200109057808201518184015260208101905062001073565b83811115620010a0576000848401525b50505050565b60006002820490506001821680620010bf57607f821691505b60208210811415620010d657620010d5620010dc565b5b50919050565b7f4e487b7100000000000000000000000000000000000000000000000000000000600052602260045260246000fd5b611434806200111b6000396000f3fe608060405234801561001057600080fd5b506004361061004c5760003560e01c806318c30c6e1461005157806346ee4b8614610082578063561b29cc1461009e578063b2e635e1146100d0575b600080fd5b61006b60048036038101906100669190610c3f565b6100ec565b60405161007992919061100f565b60405180910390f35b61009c60048036038101906100979190610c3f565b610475565b005b6100b860048036038101906100b39190610c3f565b6107a3565b6040516100c793929190611046565b60405180910390f35b6100ea60048036038101906100e59190610c80565b61086b565b005b606080826000816040516101009190610ff8565b908152602001604051809103902060040154421015610154576040517f08c379a000000000000000000000000000000000000000000000000000000000815260040161014b906110e4565b60405180910390fd5b6000816040516101649190610ff8565b9081526020016040518091039020600501544211156101b8576040517f08c379a00000000000000000000000000000000000000000000000000000000081526004016101af906110c4565b60405180910390fd5b600080856040516101c99190610ff8565b908152602001604051809103902090506000816002018054905090508067ffffffffffffffff811115610225577f4e487b7100000000000000000000000000000000000000000000000000000000600052604160045260246000fd5b60405190808252806020026020018201604052801561025857816020015b60608152602001906001900390816102435790505b5094508067ffffffffffffffff81111561029b577f4e487b7100000000000000000000000000000000000000000000000000000000600052604160045260246000fd5b6040519080825280602002602001820160405280156102c95781602001602082028036833780820191505090505b50935060005b8181101561046c576000836002018281548110610315577f4e487b7100000000000000000000000000000000000000000000000000000000600052603260045260246000fd5b90600052602060002001805461032a906112e5565b80601f0160208091040260200160405190810160405280929190818152602001828054610356906112e5565b80156103a35780601f10610378576101008083540402835291602001916103a3565b820191906000526020600020905b81548152906001019060200180831161038657829003601f168201915b50505050509050808783815181106103e4577f4e487b7100000000000000000000000000000000000000000000000000000000600052603260045260246000fd5b602002602001018190525083600101816040516104019190610ff8565b90815260200160405180910390206001015486838151811061044c577f4e487b7100000000000000000000000000000000000000000000000000000000600052603260045260246000fd5b60200260200101818152505050808061046490611317565b9150506102cf565b50505050915091565b806000816040516104869190610ff8565b9081526020016040518091039020600401544210156104da576040517f08c379a00000000000000000000000000000000000000000000000000000000081526004016104d1906110e4565b60405180910390fd5b6000816040516104ea9190610ff8565b90815260200160405180910390206005015442111561053e576040517f08c379a0000000000000000000000000000000000000000000000000000000008152600401610535906110c4565b60405180910390fd5b6000808360405161054f9190610ff8565b908152602001604051809103902090508060030160003373ffffffffffffffffffffffffffffffffffffffff1673ffffffffffffffffffffffffffffffffffffffff16815260200190815260200160002060009054906101000a900460ff166105ed576040517f08c379a00000000000000000000000000000000000000000000000000000000081526004016105e490611084565b60405180910390fd5b60008160060160003373ffffffffffffffffffffffffffffffffffffffff1673ffffffffffffffffffffffffffffffffffffffff168152602001908152602001600020805461063b906112e5565b80601f0160208091040260200160405190810160405280929190818152602001828054610667906112e5565b80156106b45780601f10610689576101008083540402835291602001916106b4565b820191906000526020600020905b81548152906001019060200180831161069757829003601f168201915b50505050509050600182600101826040516106cf9190610ff8565b908152602001604051809103902060010160008282546106ef9190611265565b9250508190555060008260030160003373ffffffffffffffffffffffffffffffffffffffff1673ffffffffffffffffffffffffffffffffffffffff16815260200190815260200160002060006101000a81548160ff0219169083151502179055508160060160003373ffffffffffffffffffffffffffffffffffffffff1673ffffffffffffffffffffffffffffffffffffffff168152602001908152602001600020600061079d9190610af4565b50505050565b6000818051602081018201805184825260208301602085012081835280955050505050506000915090508060000180546107dc906112e5565b80601f0160208091040260200160405190810160405280929190818152602001828054610808906112e5565b80156108555780601f1061082a57610100808354040283529160200191610855565b820191906000526020600020905b81548152906001019060200180831161083857829003601f168201915b5050505050908060040154908060050154905083565b8160008160405161087c9190610ff8565b9081526020016040518091039020600401544210156108d0576040517f08c379a00000000000000000000000000000000000000000000000000000000081526004016108c7906110e4565b60405180910390fd5b6000816040516108e09190610ff8565b908152602001604051809103902060050154421115610934576040517f08c379a000000000000000000000000000000000000000000000000000000000815260040161092b906110c4565b60405180910390fd5b826000816040516109459190610ff8565b908152602001604051809103902060030160003373ffffffffffffffffffffffffffffffffffffffff1673ffffffffffffffffffffffffffffffffffffffff16815260200190815260200160002060009054906101000a900460ff16156109e1576040517f08c379a00000000000000000000000000000000000000000000000000000000081526004016109d8906110a4565b60405180910390fd5b600080856040516109f29190610ff8565b9081526020016040518091039020905060018160010185604051610a169190610ff8565b90815260200160405180910390206001016000828254610a36919061120f565b9250508190555060018160030160003373ffffffffffffffffffffffffffffffffffffffff1673ffffffffffffffffffffffffffffffffffffffff16815260200190815260200160002060006101000a81548160ff021916908315150217905550838160060160003373ffffffffffffffffffffffffffffffffffffffff1673ffffffffffffffffffffffffffffffffffffffff1681526020019081526020016000209080519060200190610aec929190610b34565b505050505050565b508054610b00906112e5565b6000825580601f10610b125750610b31565b601f016020900490600052602060002090810190610b309190610bba565b5b50565b828054610b40906112e5565b90600052602060002090601f016020900481019282610b625760008555610ba9565b82601f10610b7b57805160ff1916838001178555610ba9565b82800160010185558215610ba9579182015b82811115610ba8578251825591602001919060010190610b8d565b5b509050610bb69190610bba565b5090565b5b80821115610bd3576000816000905550600101610bbb565b5090565b6000610bea610be584611135565b611104565b905082815260208101848484011115610c0257600080fd5b610c0d8482856112a3565b509392505050565b600082601f830112610c2657600080fd5b8135610c36848260208601610bd7565b91505092915050565b600060208284031215610c5157600080fd5b600082013567ffffffffffffffff811115610c6b57600080fd5b610c7784828501610c15565b91505092915050565b60008060408385031215610c9357600080fd5b600083013567ffffffffffffffff811115610cad57600080fd5b610cb985828601610c15565b925050602083013567ffffffffffffffff811115610cd657600080fd5b610ce285828601610c15565b9150509250929050565b6000610cf88383610deb565b905092915050565b6000610d0c8383610fda565b60208301905092915050565b6000610d2382611185565b610d2d81856111c0565b935083602082028501610d3f85611165565b8060005b85811015610d7b5784840389528151610d5c8582610cec565b9450610d67836111a6565b925060208a01995050600181019050610d43565b50829750879550505050505092915050565b6000610d9882611190565b610da281856111d1565b9350610dad83611175565b8060005b83811015610dde578151610dc58882610d00565b9750610dd0836111b3565b925050600181019050610db1565b5085935050505092915050565b6000610df68261119b565b610e0081856111e2565b9350610e108185602086016112b2565b610e19816113ed565b840191505092915050565b6000610e2f8261119b565b610e3981856111f3565b9350610e498185602086016112b2565b610e52816113ed565b840191505092915050565b6000610e688261119b565b610e728185611204565b9350610e828185602086016112b2565b80840191505092915050565b6000610e9b6024836111f3565b91507f596f752068617665206e6f7420766f74656420696e207468697320636174656760008301527f6f72792e000000000000000000000000000000000000000000000000000000006020830152604082019050919050565b6000610f016028836111f3565b91507f596f75206861766520616c726561647920766f74656420696e2074686973206360008301527f617465676f72792e0000000000000000000000000000000000000000000000006020830152604082019050919050565b6000610f676011836111f3565b91507f566f74696e672068617320656e6465642e0000000000000000000000000000006000830152602082019050919050565b6000610fa7601b836111f3565b91507f566f74696e6720686173206e6f742073746172746564207965742e00000000006000830152602082019050919050565b610fe381611299565b82525050565b610ff281611299565b82525050565b60006110048284610e5d565b915081905092915050565b600060408201905081810360008301526110298185610d18565b9050818103602083015261103d8184610d8d565b90509392505050565b600060608201905081810360008301526110608186610e24565b905061106f6020830185610fe9565b61107c6040830184610fe9565b949350505050565b6000602082019050818103600083015261109d81610e8e565b9050919050565b600060208201905081810360008301526110bd81610ef4565b9050919050565b600060208201905081810360008301526110dd81610f5a565b9050919050565b600060208201905081810360008301526110fd81610f9a565b9050919050565b6000604051905081810181811067ffffffffffffffff8211171561112b5761112a6113be565b5b8060405250919050565b600067ffffffffffffffff8211156111505761114f6113be565b5b601f19601f8301169050602081019050919050565b6000819050602082019050919050565b6000819050602082019050919050565b600081519050919050565b600081519050919050565b600081519050919050565b6000602082019050919050565b6000602082019050919050565b600082825260208201905092915050565b600082825260208201905092915050565b600082825260208201905092915050565b600082825260208201905092915050565b600081905092915050565b600061121a82611299565b915061122583611299565b9250827fffffffffffffffffffffffffffffffffffffffffffffffffffffffffffffffff0382111561125a57611259611360565b5b828201905092915050565b600061127082611299565b915061127b83611299565b92508282101561128e5761128d611360565b5b828203905092915050565b6000819050919050565b82818337600083830152505050565b60005b838110156112d05780820151818401526020810190506112b5565b838111156112df576000848401525b50505050565b600060028204905060018216806112fd57607f821691505b602082108114156113115761131061138f565b5b50919050565b600061132282611299565b91507fffffffffffffffffffffffffffffffffffffffffffffffffffffffffffffffff82141561135557611354611360565b5b600182019050919050565b7f4e487b7100000000000000000000000000000000000000000000000000000000600052601160045260246000fd5b7f4e487b7100000000000000000000000000000000000000000000000000000000600052602260045260246000fd5b7f4e487b7100000000000000000000000000000000000000000000000000000000600052604160045260246000fd5b6000601f19601f830116905091905056fea26469706673582212206a937c4553d8a787a2bbe25d041df31ee406fbb916cffe135f3aa254e8132d4a64736f6c634300080000334265737420486f72726f72204d6f76696520696e206f63746f62657220323032344265737420436f6d656479204d6f76696520696e206f63746f62657220323032344265737420436f6d656479204d6f76696520696e2053657074656d6265722032303234546865204c6f7264206f66207468652052696e67733a205468652052696e6773206f6620506f7765724265737420486f72726f72204d6f76696520696e2053657074656d6265722032303234",
  "immutableReferences": {},
  "source": "// SPDX-License-Identifier: MIT\r\npragma solidity ^0.8.0;\r\n\r\ncontract MovieVoting {\r\n\r\n    struct Movie {\r\n        string name;\r\n        uint256 votes;\r\n    }\r\n\r\n    struct Category {\r\n        string name;\r\n        mapping(string => Movie) movies;\r\n        string[] movieList;  // Array to store movie names for iteration\r\n        mapping(address => bool) hasVoted;\r\n        uint256 startTime;\r\n        uint256 endTime;\r\n        mapping(address => string) votedMovie; // Track the movie voted by each address\r\n    }\r\n\r\n    mapping(string => Category) public categories;\r\n\r\n    // Modifier to check if voting is open\r\n    modifier votingOpen(string memory categoryName) {\r\n        require(block.timestamp >= categories[categoryName].startTime, \"Voting has not started yet.\");\r\n        require(block.timestamp <= categories[categoryName].endTime, \"Voting has ended.\");\r\n        _;\r\n    }\r\n\r\n    // Modifier to ensure the user has not already voted\r\n    modifier hasNotVoted(string memory categoryName) {\r\n        require(!categories[categoryName].hasVoted[msg.sender], \"You have already voted in this category.\");\r\n        _;\r\n    }\r\n\r\n    // Function to add movie category\r\n    constructor(){\r\n        addCategory(\"Best Movie in august 2024\", 1722384000, 1725062400);\r\n        addCategory(\"Best Comedy Movie in august 2024\", 1722384000, 1725062400);\r\n        addCategory(\"Best Horror Movie in august 2024\", 1722384000, 1725062400);\r\n        addCategory(\"Best Movie in october 2024\", 1727654400, 1730332800);\r\n        addCategory(\"Best Comedy Movie in october 2024\", 1727654400, 1730332800);\r\n        addCategory(\"Best Horror Movie in october 2024\", 1727654400, 1730332800);\r\n        addCategory(\"Best Movie in September 2024\", 1725062400, 1727654400);\r\n        addCategory(\"Best Comedy Movie in September 2024\", 1725062400, 1727654400);\r\n        addCategory(\"Best Horror Movie in September 2024\", 1725062400, 1727654400);\r\n        addMovieToCategory(\"Best Movie in august 2024\", \"Inside Out 2\");\r\n        addMovieToCategory(\"Best Movie in october 2024\", \"Inside Out 2\");\r\n        addMovieToCategory(\"Best Movie in September 2024\", \"Inside Out 2\");\r\n        addMovieToCategory(\"Best Movie in September 2024\", \"Deadpool & Wolverine\");\r\n        addMovieToCategory(\"Best Movie in September 2024\", \"Beetlejuice Beetlejuice\");\r\n        addMovieToCategory(\"Best Movie in September 2024\", \"Longlegs\");\r\n        addMovieToCategory(\"Best Movie in September 2024\", \"Sonic the Hedgehog 3\");\r\n        addMovieToCategory(\"Best Movie in September 2024\", \"The Lord of the Rings: The Rings of Power\");\r\n        addMovieToCategory(\"Best Movie in September 2024\", \"Transformers One\");\r\n        addMovieToCategory(\"Best Movie in September 2024\", \"Despicable Me 4\");\r\n        addMovieToCategory(\"Best Movie in September 2024\", \"His Three Daughters\");\r\n        addMovieToCategory(\"Best Comedy Movie in September 2024\", \"Inside Out 2\");\r\n        addMovieToCategory(\"Best Comedy Movie in September 2024\", \"Deadpool & Wolverine\");\r\n        addMovieToCategory(\"Best Comedy Movie in September 2024\", \"Beetlejuice Beetlejuice\");\r\n        addMovieToCategory(\"Best Comedy Movie in September 2024\", \"Longlegs\");\r\n        addMovieToCategory(\"Best Comedy Movie in September 2024\", \"Sonic the Hedgehog 3\");\r\n        addMovieToCategory(\"Best Comedy Movie in September 2024\", \"The Lord of the Rings: The Rings of Power\");\r\n        addMovieToCategory(\"Best Comedy Movie in September 2024\", \"Transformers One\");\r\n        addMovieToCategory(\"Best Comedy Movie in September 2024\", \"Despicable Me 4\");\r\n        addMovieToCategory(\"Best Comedy Movie in September 2024\", \"His Three Daughters\");\r\n        addMovieToCategory(\"Best Horror Movie in September 2024\", \"Inside Out 2\");\r\n        addMovieToCategory(\"Best Horror Movie in September 2024\", \"Deadpool & Wolverine\");\r\n        addMovieToCategory(\"Best Horror Movie in September 2024\", \"Beetlejuice Beetlejuice\");\r\n        addMovieToCategory(\"Best Horror Movie in September 2024\", \"Longlegs\");\r\n        addMovieToCategory(\"Best Horror Movie in September 2024\", \"Sonic the Hedgehog 3\");\r\n        addMovieToCategory(\"Best Horror Movie in September 2024\", \"The Lord of the Rings: The Rings of Power\");\r\n        addMovieToCategory(\"Best Horror Movie in September 2024\", \"Transformers One\");\r\n        addMovieToCategory(\"Best Horror Movie in September 2024\", \"Despicable Me 4\");\r\n        addMovieToCategory(\"Best Horror Movie in September 2024\", \"His Three Daughters\");\r\n    }\r\n    function addCategory(string memory categoryName, uint256 startTime, uint256 endTime) private {\r\n        Category storage category = categories[categoryName];\r\n        category.name = categoryName;\r\n        category.startTime = startTime;\r\n        category.endTime = endTime;\r\n    }\r\n\r\n    // Function to add a movie to a category\r\n    function addMovieToCategory(string memory categoryName, string memory movieName) private {\r\n        Category storage category = categories[categoryName];\r\n        category.movies[movieName] = Movie(movieName, 0);\r\n        category.movieList.push(movieName);  // Add movie name to the list\r\n    }\r\n\r\n    // Function to submit a vote\r\n    function submitVote(string memory categoryName, string memory movieName) public votingOpen(categoryName) hasNotVoted(categoryName) {\r\n        Category storage category = categories[categoryName];\r\n        category.movies[movieName].votes += 1;\r\n        category.hasVoted[msg.sender] = true;\r\n        category.votedMovie[msg.sender] = movieName; // Track the voted movie\r\n    }\r\n\r\n    // Function to view voting results\r\n    function viewVotingResults(string memory categoryName) public view votingOpen(categoryName) returns (string[] memory movieNames, uint256[] memory voteCounts) {\r\n        Category storage category = categories[categoryName];\r\n        uint256 movieCount = category.movieList.length;\r\n\r\n        movieNames = new string[](movieCount);\r\n        voteCounts = new uint256[](movieCount);\r\n\r\n        for (uint i = 0; i < movieCount; i++) {\r\n            string memory movieName = category.movieList[i];\r\n            movieNames[i] = movieName;\r\n            voteCounts[i] = category.movies[movieName].votes;\r\n        }\r\n    }\r\n\r\n    // Function to cancel a vote\r\n    function cancelVote(string memory categoryName) public votingOpen(categoryName) {\r\n        Category storage category = categories[categoryName];\r\n        require(category.hasVoted[msg.sender], \"You have not voted in this category.\");\r\n\r\n        string memory votedMovieName = category.votedMovie[msg.sender];\r\n        category.movies[votedMovieName].votes -= 1; // Decrement the vote count\r\n        category.hasVoted[msg.sender] = false; // Mark the user as not having voted\r\n        delete category.votedMovie[msg.sender]; // Clear the voted movie record\r\n    }\r\n}\r\n",
  "sourcePath": "C:\\Users\\User\\Desktop\\movie6\\smart_contract\\contracts\\VoteMovie.sol",
  "compiler": {
    "name": "solc",
    "version": "0.8.0+commit.c7dfd78e.Emscripten.clang"
  },
  "schemaVersion": "3.4.16",
  "updatedAt": "2024-09-26T08:01:10.387Z",
  "networkType": "ethereum",
  "devdoc": {
    "kind": "dev",
    "methods": {},
    "version": 1
  },
  "userdoc": {
    "kind": "user",
    "methods": {},
    "version": 1
  }
}