{
  "contractName": "NotificationManagement",
  "abi": [
    {
      "anonymous": false,
      "inputs": [
        {
          "indexed": true,
          "internalType": "address",
          "name": "userAddress",
          "type": "address"
        },
        {
          "indexed": false,
          "internalType": "string",
          "name": "message",
          "type": "string"
        },
        {
          "indexed": false,
          "internalType": "uint256",
          "name": "timestamp",
          "type": "uint256"
        }
      ],
      "name": "NotificationCreated",
      "type": "event"
    },
    {
      "inputs": [],
      "name": "getNotifications",
      "outputs": [
        {
          "components": [
            {
              "internalType": "string",
              "name": "message",
              "type": "string"
            },
            {
              "internalType": "uint256",
              "name": "timestamp",
              "type": "uint256"
            },
            {
              "internalType": "bool",
              "name": "isRead",
              "type": "bool"
            }
          ],
          "internalType": "struct NotificationManagement.Notification[]",
          "name": "",
          "type": "tuple[]"
        }
      ],
      "stateMutability": "view",
      "type": "function",
      "constant": true
    },
    {
      "inputs": [
        {
          "internalType": "uint256",
          "name": "index",
          "type": "uint256"
        }
      ],
      "name": "markAsRead",
      "outputs": [],
      "stateMutability": "nonpayable",
      "type": "function"
    },
    {
      "inputs": [
        {
          "internalType": "address",
          "name": "_userAddress",
          "type": "address"
        },
        {
          "internalType": "string",
          "name": "_movieTitle",
          "type": "string"
        }
      ],
      "name": "notifySubscriptionUpdate",
      "outputs": [],
      "stateMutability": "nonpayable",
      "type": "function"
    },
    {
      "inputs": [
        {
          "internalType": "address",
          "name": "_userAddress",
          "type": "address"
        },
        {
          "internalType": "string",
          "name": "_status",
          "type": "string"
        }
      ],
      "name": "notifyTransactionStatus",
      "outputs": [],
      "stateMutability": "nonpayable",
      "type": "function"
    }
  ],
  "bytecode": "0x608060405234801561001057600080fd5b50610c40806100206000396000f3fe608060405234801561001057600080fd5b506004361061004c5760003560e01c80637c100c3614610051578063cf48bd2c1461006d578063d79f20a11461008b578063f0e20d64146100a7575b600080fd5b61006b6004803603810190610066919061064c565b6100c3565b005b6100756101e9565b604051610082919061096d565b60405180910390f35b6100a560048036038101906100a091906105f8565b61033b565b005b6100c160048036038101906100bc91906105f8565b61036e565b005b6000803373ffffffffffffffffffffffffffffffffffffffff1673ffffffffffffffffffffffffffffffffffffffff168152602001908152602001600020805490508110610146576040517f08c379a000000000000000000000000000000000000000000000000000000000815260040161013d906109bf565b60405180910390fd5b60016000803373ffffffffffffffffffffffffffffffffffffffff1673ffffffffffffffffffffffffffffffffffffffff16815260200190815260200160002082815481106101be577f4e487b7100000000000000000000000000000000000000000000000000000000600052603260045260246000fd5b906000526020600020906003020160020160006101000a81548160ff02191690831515021790555050565b60606000803373ffffffffffffffffffffffffffffffffffffffff1673ffffffffffffffffffffffffffffffffffffffff168152602001908152602001600020805480602002602001604051908101604052809291908181526020016000905b82821015610332578382906000526020600020906003020160405180606001604052908160008201805461027c90610b3b565b80601f01602080910402602001604051908101604052809291908181526020018280546102a890610b3b565b80156102f55780601f106102ca576101008083540402835291602001916102f5565b820191906000526020600020905b8154815290600101906020018083116102d857829003601f168201915b50505050508152602001600182015481526020016002820160009054906101000a900460ff16151515158152505081526020019060010190610249565b50505050905090565b60008160405160200161034e919061094b565b604051602081830303815290604052905061036983826103a1565b505050565b600081604051602001610381919061091e565b604051602081830303815290604052905061039c83826103a1565b505050565b6000808373ffffffffffffffffffffffffffffffffffffffff1673ffffffffffffffffffffffffffffffffffffffff168152602001908152602001600020604051806060016040528083815260200142815260200160001515815250908060018154018082558091505060019003906000526020600020906003020160009091909190915060008201518160000190805190602001906104429291906104c3565b506020820151816001015560408201518160020160006101000a81548160ff02191690831515021790555050508173ffffffffffffffffffffffffffffffffffffffff167f7bc6e2563ef04278b8ef163a8e27f976695b0fb5219a3d7d63f0ecf9a964436382426040516104b792919061098f565b60405180910390a25050565b8280546104cf90610b3b565b90600052602060002090601f0160209004810192826104f15760008555610538565b82601f1061050a57805160ff1916838001178555610538565b82800160010185558215610538579182015b8281111561053757825182559160200191906001019061051c565b5b5090506105459190610549565b5090565b5b8082111561056257600081600090555060010161054a565b5090565b600061057961057484610a10565b6109df565b90508281526020810184848401111561059157600080fd5b61059c848285610af9565b509392505050565b6000813590506105b381610bdc565b92915050565b600082601f8301126105ca57600080fd5b81356105da848260208601610566565b91505092915050565b6000813590506105f281610bf3565b92915050565b6000806040838503121561060b57600080fd5b6000610619858286016105a4565b925050602083013567ffffffffffffffff81111561063657600080fd5b610642858286016105b9565b9150509250929050565b60006020828403121561065e57600080fd5b600061066c848285016105e3565b91505092915050565b600061068183836108b0565b905092915050565b600061069482610a50565b61069e8185610a73565b9350836020820285016106b085610a40565b8060005b858110156106ec57848403895281516106cd8582610675565b94506106d883610a66565b925060208a019950506001810190506106b4565b50829750879550505050505092915050565b61070781610ac3565b82525050565b600061071882610a5b565b6107228185610a84565b9350610732818560208601610b08565b61073b81610bcb565b840191505092915050565b600061075182610a5b565b61075b8185610a95565b935061076b818560208601610b08565b61077481610bcb565b840191505092915050565b600061078a82610a5b565b6107948185610aa6565b93506107a4818560208601610b08565b80840191505092915050565b60006107bd600d83610a95565b91507f496e76616c696420696e646578000000000000000000000000000000000000006000830152602082019050919050565b60006107fd601283610aa6565b91507f20686173206265656e20757064617465642e00000000000000000000000000006000830152601282019050919050565b600061083d601683610aa6565b91507f596f757220737562736372697074696f6e20666f7220000000000000000000006000830152601682019050919050565b600061087d601483610aa6565b91507f5472616e73616374696f6e207374617475733a200000000000000000000000006000830152601482019050919050565b600060608301600083015184820360008601526108cd828261070d565b91505060208301516108e26020860182610900565b5060408301516108f560408601826106fe565b508091505092915050565b61090981610aef565b82525050565b61091881610aef565b82525050565b600061092982610830565b9150610935828461077f565b9150610940826107f0565b915081905092915050565b600061095682610870565b9150610962828461077f565b915081905092915050565b600060208201905081810360008301526109878184610689565b905092915050565b600060408201905081810360008301526109a98185610746565b90506109b8602083018461090f565b9392505050565b600060208201905081810360008301526109d8816107b0565b9050919050565b6000604051905081810181811067ffffffffffffffff82111715610a0657610a05610b9c565b5b8060405250919050565b600067ffffffffffffffff821115610a2b57610a2a610b9c565b5b601f19601f8301169050602081019050919050565b6000819050602082019050919050565b600081519050919050565b600081519050919050565b6000602082019050919050565b600082825260208201905092915050565b600082825260208201905092915050565b600082825260208201905092915050565b600081905092915050565b6000610abc82610acf565b9050919050565b60008115159050919050565b600073ffffffffffffffffffffffffffffffffffffffff82169050919050565b6000819050919050565b82818337600083830152505050565b60005b83811015610b26578082015181840152602081019050610b0b565b83811115610b35576000848401525b50505050565b60006002820490506001821680610b5357607f821691505b60208210811415610b6757610b66610b6d565b5b50919050565b7f4e487b7100000000000000000000000000000000000000000000000000000000600052602260045260246000fd5b7f4e487b7100000000000000000000000000000000000000000000000000000000600052604160045260246000fd5b6000601f19601f8301169050919050565b610be581610ab1565b8114610bf057600080fd5b50565b610bfc81610aef565b8114610c0757600080fd5b5056fea2646970667358221220a7b2d81adff89178e7d1ec86addbcb0d6aff5dea22fe1011b08902e3806eb28064736f6c63430008000033",
  "immutableReferences": {},
  "source": "// SPDX-License-Identifier: MIT\r\npragma solidity ^0.8.0;\r\n\r\ncontract NotificationManagement {\r\n    struct Notification {\r\n        string message;\r\n        uint256 timestamp;\r\n        bool isRead;\r\n    }\r\n\r\n    mapping(address => Notification[]) private notifications;\r\n\r\n    event NotificationCreated(address indexed userAddress, string message, uint256 timestamp);\r\n\r\n    // Add a notification for a user\r\n    function addNotification(address _userAddress, string memory _message) internal {\r\n        notifications[_userAddress].push(Notification({\r\n            message: _message,\r\n            timestamp: block.timestamp,\r\n            isRead: false\r\n        }));\r\n        emit NotificationCreated(_userAddress, _message, block.timestamp);\r\n    }\r\n\r\n    // Retrieve notifications for a user\r\n    function getNotifications() public view returns (Notification[] memory) {\r\n        return notifications[msg.sender];\r\n    }\r\n\r\n    // Mark a notification as read\r\n    function markAsRead(uint256 index) public {\r\n        require(index < notifications[msg.sender].length, \"Invalid index\");\r\n        notifications[msg.sender][index].isRead = true;\r\n    }\r\n\r\n    // Example function to trigger a notification for subscription update\r\n    function notifySubscriptionUpdate(address _userAddress, string memory _movieTitle) public {\r\n        string memory message = string(abi.encodePacked(\"Your subscription for \", _movieTitle, \" has been updated.\"));\r\n        addNotification(_userAddress, message);\r\n    }\r\n\r\n    // Example function to trigger a notification for transaction status\r\n    function notifyTransactionStatus(address _userAddress, string memory _status) public {\r\n        string memory message = string(abi.encodePacked(\"Transaction status: \", _status));\r\n        addNotification(_userAddress, message);\r\n    }\r\n}\r\n",
  "sourcePath": "C:\\Users\\choon\\Xampp\\htdocs\\Movie_subscription_solidity-3\\smart_contract\\contracts\\NotificationManagement.sol",
  "compiler": {
    "name": "solc",
    "version": "0.8.0+commit.c7dfd78e.Emscripten.clang"
  },
  "schemaVersion": "3.4.16",
  "updatedAt": "2024-09-25T07:04:08.772Z",
  "networkType": "ethereum",
  "devdoc": {
    "kind": "dev",
    "methods": {},
    "version": 1
  },
  "userdoc": {
    "kind": "user",
    "methods": {},
    "version": 1
  }
}