{
  "contractName": "TimeLock",
  "abi": [
    {
      "inputs": [],
      "stateMutability": "nonpayable",
      "type": "constructor"
    },
    {
      "anonymous": false,
      "inputs": [
        {
          "indexed": false,
          "internalType": "bytes32",
          "name": "txId",
          "type": "bytes32"
        }
      ],
      "name": "TransactionCanceled",
      "type": "event"
    },
    {
      "anonymous": false,
      "inputs": [
        {
          "indexed": false,
          "internalType": "bytes32",
          "name": "txId",
          "type": "bytes32"
        }
      ],
      "name": "TransactionExecuted",
      "type": "event"
    },
    {
      "anonymous": false,
      "inputs": [
        {
          "indexed": false,
          "internalType": "bytes32",
          "name": "txId",
          "type": "bytes32"
        },
        {
          "indexed": true,
          "internalType": "address",
          "name": "to",
          "type": "address"
        },
        {
          "indexed": false,
          "internalType": "uint256",
          "name": "value",
          "type": "uint256"
        },
        {
          "indexed": false,
          "internalType": "bytes",
          "name": "data",
          "type": "bytes"
        },
        {
          "indexed": false,
          "internalType": "uint256",
          "name": "executionTime",
          "type": "uint256"
        }
      ],
      "name": "TransactionQueued",
      "type": "event"
    },
    {
      "inputs": [],
      "name": "owner",
      "outputs": [
        {
          "internalType": "address",
          "name": "",
          "type": "address"
        }
      ],
      "stateMutability": "view",
      "type": "function",
      "constant": true
    },
    {
      "inputs": [
        {
          "internalType": "bytes32",
          "name": "",
          "type": "bytes32"
        }
      ],
      "name": "transactions",
      "outputs": [
        {
          "internalType": "address",
          "name": "to",
          "type": "address"
        },
        {
          "internalType": "uint256",
          "name": "value",
          "type": "uint256"
        },
        {
          "internalType": "bytes",
          "name": "data",
          "type": "bytes"
        },
        {
          "internalType": "uint256",
          "name": "executionTime",
          "type": "uint256"
        },
        {
          "internalType": "bool",
          "name": "executed",
          "type": "bool"
        },
        {
          "internalType": "bool",
          "name": "canceled",
          "type": "bool"
        }
      ],
      "stateMutability": "view",
      "type": "function",
      "constant": true
    },
    {
      "inputs": [
        {
          "internalType": "address",
          "name": "_to",
          "type": "address"
        },
        {
          "internalType": "uint256",
          "name": "_value",
          "type": "uint256"
        },
        {
          "internalType": "bytes",
          "name": "_data",
          "type": "bytes"
        },
        {
          "internalType": "uint256",
          "name": "_executionTime",
          "type": "uint256"
        }
      ],
      "name": "queueTransaction",
      "outputs": [
        {
          "internalType": "bytes32",
          "name": "",
          "type": "bytes32"
        }
      ],
      "stateMutability": "nonpayable",
      "type": "function"
    },
    {
      "inputs": [
        {
          "internalType": "bytes32",
          "name": "_txId",
          "type": "bytes32"
        }
      ],
      "name": "executeTransaction",
      "outputs": [],
      "stateMutability": "nonpayable",
      "type": "function"
    },
    {
      "inputs": [
        {
          "internalType": "bytes32",
          "name": "_txId",
          "type": "bytes32"
        }
      ],
      "name": "cancelTransaction",
      "outputs": [],
      "stateMutability": "nonpayable",
      "type": "function"
    },
    {
      "inputs": [
        {
          "internalType": "bytes32",
          "name": "_txId",
          "type": "bytes32"
        },
        {
          "internalType": "uint256",
          "name": "newExecutionTime",
          "type": "uint256"
        },
        {
          "internalType": "address",
          "name": "newBeneficiary",
          "type": "address"
        }
      ],
      "name": "adjustTransaction",
      "outputs": [],
      "stateMutability": "nonpayable",
      "type": "function"
    }
  ],
  "bytecode": "0x608060405234801561001057600080fd5b5033600160006101000a81548173ffffffffffffffffffffffffffffffffffffffff021916908373ffffffffffffffffffffffffffffffffffffffff160217905550611364806100616000396000f3fe608060405234801561001057600080fd5b50600436106100625760003560e01c80630c3556ed14610067578063642f2eaf1461008357806370ba3339146100b85780638da5cb5b146100d45780638e361cdf146100f2578063c69ed5f214610122575b600080fd5b610081600480360381019061007c9190610bea565b61013e565b005b61009d60048036038101906100989190610bc1565b6102da565b6040516100af96959493929190610f77565b60405180910390f35b6100d260048036038101906100cd9190610bc1565b6103d8565b005b6100dc610528565b6040516100e99190610f10565b60405180910390f35b61010c60048036038101906101079190610b46565b61054e565b6040516101199190610fdf565b60405180910390f35b61013c60048036038101906101379190610bc1565b6107c9565b005b600160009054906101000a900473ffffffffffffffffffffffffffffffffffffffff1673ffffffffffffffffffffffffffffffffffffffff163373ffffffffffffffffffffffffffffffffffffffff16146101ce576040517f08c379a00000000000000000000000000000000000000000000000000000000081526004016101c5906110e6565b60405180910390fd5b600080600085815260200190815260200160002090508060040160009054906101000a900460ff1615610236576040517f08c379a000000000000000000000000000000000000000000000000000000000815260040161022d90611046565b60405180910390fd5b8060040160019054906101000a900460ff1615610288576040517f08c379a000000000000000000000000000000000000000000000000000000000815260040161027f90611086565b60405180910390fd5b828160030181905550818160000160006101000a81548173ffffffffffffffffffffffffffffffffffffffff021916908373ffffffffffffffffffffffffffffffffffffffff16021790555050505050565b60006020528060005260406000206000915090508060000160009054906101000a900473ffffffffffffffffffffffffffffffffffffffff169080600101549080600201805461032990611248565b80601f016020809104026020016040519081016040528092919081815260200182805461035590611248565b80156103a25780601f10610377576101008083540402835291602001916103a2565b820191906000526020600020905b81548152906001019060200180831161038557829003601f168201915b5050505050908060030154908060040160009054906101000a900460ff16908060040160019054906101000a900460ff16905086565b600160009054906101000a900473ffffffffffffffffffffffffffffffffffffffff1673ffffffffffffffffffffffffffffffffffffffff163373ffffffffffffffffffffffffffffffffffffffff1614610468576040517f08c379a000000000000000000000000000000000000000000000000000000000815260040161045f906110e6565b60405180910390fd5b600080600083815260200190815260200160002090508060040160009054906101000a900460ff16156104d0576040517f08c379a00000000000000000000000000000000000000000000000000000000081526004016104c790611046565b60405180910390fd5b60018160040160016101000a81548160ff0219169083151502179055507fdecc068a49633f4a89136211fcf06f0c95bb0756be29aaba7e7eec56da7945c58260405161051c9190610fdf565b60405180910390a15050565b600160009054906101000a900473ffffffffffffffffffffffffffffffffffffffff1681565b6000600160009054906101000a900473ffffffffffffffffffffffffffffffffffffffff1673ffffffffffffffffffffffffffffffffffffffff163373ffffffffffffffffffffffffffffffffffffffff16146105e0576040517f08c379a00000000000000000000000000000000000000000000000000000000081526004016105d7906110e6565b60405180910390fd5b428211610622576040517f08c379a0000000000000000000000000000000000000000000000000000000008152600401610619906110c6565b60405180910390fd5b60008585858560405160200161063b9493929190610f2b565b6040516020818303038152906040528051906020012090506040518060c001604052808773ffffffffffffffffffffffffffffffffffffffff1681526020018681526020018581526020018481526020016000151581526020016000151581525060008083815260200190815260200160002060008201518160000160006101000a81548173ffffffffffffffffffffffffffffffffffffffff021916908373ffffffffffffffffffffffffffffffffffffffff16021790555060208201518160010155604082015181600201908051906020019061071b9291906109fc565b506060820151816003015560808201518160040160006101000a81548160ff02191690831515021790555060a08201518160040160016101000a81548160ff0219169083151502179055509050508573ffffffffffffffffffffffffffffffffffffffff167f4efebf40a8244d219085e74f928a18e8c9d17adc6b39270b8706cca0a92b648d828787876040516107b59493929190610ffa565b60405180910390a280915050949350505050565b600080600083815260200190815260200160002090508060030154421015610826576040517f08c379a000000000000000000000000000000000000000000000000000000000815260040161081d90611066565b60405180910390fd5b8060040160009054906101000a900460ff1615610878576040517f08c379a000000000000000000000000000000000000000000000000000000000815260040161086f90611046565b60405180910390fd5b8060040160019054906101000a900460ff16156108ca576040517f08c379a00000000000000000000000000000000000000000000000000000000081526004016108c190611086565b60405180910390fd5b60008160000160009054906101000a900473ffffffffffffffffffffffffffffffffffffffff1673ffffffffffffffffffffffffffffffffffffffff1682600101548360020160405161091d9190610ef9565b60006040518083038185875af1925050503d806000811461095a576040519150601f19603f3d011682016040523d82523d6000602084013e61095f565b606091505b50509050806109a3576040517f08c379a000000000000000000000000000000000000000000000000000000000815260040161099a906110a6565b60405180910390fd5b60018260040160006101000a81548160ff0219169083151502179055507f862d83c6c5af275e697bfd4e27c8323c196b44bdd011dd9aaab6db0ec9943dce836040516109ef9190610fdf565b60405180910390a1505050565b828054610a0890611248565b90600052602060002090601f016020900481019282610a2a5760008555610a71565b82601f10610a4357805160ff1916838001178555610a71565b82800160010185558215610a71579182015b82811115610a70578251825591602001919060010190610a55565b5b509050610a7e9190610a82565b5090565b5b80821115610a9b576000816000905550600101610a83565b5090565b6000610ab2610aad84611137565b611106565b905082815260208101848484011115610aca57600080fd5b610ad5848285611206565b509392505050565b600081359050610aec816112e9565b92915050565b600081359050610b0181611300565b92915050565b600082601f830112610b1857600080fd5b8135610b28848260208601610a9f565b91505092915050565b600081359050610b4081611317565b92915050565b60008060008060808587031215610b5c57600080fd5b6000610b6a87828801610add565b9450506020610b7b87828801610b31565b935050604085013567ffffffffffffffff811115610b9857600080fd5b610ba487828801610b07565b9250506060610bb587828801610b31565b91505092959194509250565b600060208284031215610bd357600080fd5b6000610be184828501610af2565b91505092915050565b600080600060608486031215610bff57600080fd5b6000610c0d86828701610af2565b9350506020610c1e86828701610b31565b9250506040610c2f86828701610add565b9150509250925092565b610c42816111b4565b82525050565b610c51816111c6565b82525050565b610c60816111d2565b82525050565b6000610c718261117c565b610c7b8185611187565b9350610c8b818560208601611215565b610c94816112d8565b840191505092915050565b60008154610cac81611248565b610cb68186611198565b94506001821660008114610cd15760018114610ce257610d15565b60ff19831686528186019350610d15565b610ceb85611167565b60005b83811015610d0d57815481890152600182019150602081019050610cee565b838801955050505b50505092915050565b6000610d2b601c836111a3565b91507f5472616e73616374696f6e20616c7265616479206578656375746564000000006000830152602082019050919050565b6000610d6b6023836111a3565b91507f5472616e73616374696f6e206e6f7420726561647920666f722065786563757460008301527f696f6e00000000000000000000000000000000000000000000000000000000006020830152604082019050919050565b6000610dd1601d836111a3565b91507f5472616e73616374696f6e20686173206265656e2063616e63656c65640000006000830152602082019050919050565b6000610e11601c836111a3565b91507f5472616e73616374696f6e20657865637574696f6e206661696c6564000000006000830152602082019050919050565b6000610e516024836111a3565b91507f457865637574696f6e2074696d65206d75737420626520696e2074686520667560008301527f74757265000000000000000000000000000000000000000000000000000000006020830152604082019050919050565b6000610eb76016836111a3565b91507f4e6f742074686520636f6e7472616374206f776e6572000000000000000000006000830152602082019050919050565b610ef3816111fc565b82525050565b6000610f058284610c9f565b915081905092915050565b6000602082019050610f256000830184610c39565b92915050565b6000608082019050610f406000830187610c39565b610f4d6020830186610eea565b8181036040830152610f5f8185610c66565b9050610f6e6060830184610eea565b95945050505050565b600060c082019050610f8c6000830189610c39565b610f996020830188610eea565b8181036040830152610fab8187610c66565b9050610fba6060830186610eea565b610fc76080830185610c48565b610fd460a0830184610c48565b979650505050505050565b6000602082019050610ff46000830184610c57565b92915050565b600060808201905061100f6000830187610c57565b61101c6020830186610eea565b818103604083015261102e8185610c66565b905061103d6060830184610eea565b95945050505050565b6000602082019050818103600083015261105f81610d1e565b9050919050565b6000602082019050818103600083015261107f81610d5e565b9050919050565b6000602082019050818103600083015261109f81610dc4565b9050919050565b600060208201905081810360008301526110bf81610e04565b9050919050565b600060208201905081810360008301526110df81610e44565b9050919050565b600060208201905081810360008301526110ff81610eaa565b9050919050565b6000604051905081810181811067ffffffffffffffff8211171561112d5761112c6112a9565b5b8060405250919050565b600067ffffffffffffffff821115611152576111516112a9565b5b601f19601f8301169050602081019050919050565b60008190508160005260206000209050919050565b600081519050919050565b600082825260208201905092915050565b600081905092915050565b600082825260208201905092915050565b60006111bf826111dc565b9050919050565b60008115159050919050565b6000819050919050565b600073ffffffffffffffffffffffffffffffffffffffff82169050919050565b6000819050919050565b82818337600083830152505050565b60005b83811015611233578082015181840152602081019050611218565b83811115611242576000848401525b50505050565b6000600282049050600182168061126057607f821691505b602082108114156112745761127361127a565b5b50919050565b7f4e487b7100000000000000000000000000000000000000000000000000000000600052602260045260246000fd5b7f4e487b7100000000000000000000000000000000000000000000000000000000600052604160045260246000fd5b6000601f19601f8301169050919050565b6112f2816111b4565b81146112fd57600080fd5b50565b611309816111d2565b811461131457600080fd5b50565b611320816111fc565b811461132b57600080fd5b5056fea2646970667358221220b734a93fc9bf675abc4220a784498e15b1f65f953bab575c48a05d8f0614d69664736f6c63430008000033",
  "immutableReferences": {},
  "source": "// SPDX-License-Identifier: MIT\r\npragma solidity ^0.8.0;\r\n\r\ncontract TimeLock {\r\n    struct Transaction {\r\n        address to;\r\n        uint256 value;\r\n        bytes data;\r\n        uint256 executionTime;\r\n        bool executed;\r\n        bool canceled;\r\n    }\r\n\r\n    mapping(bytes32 => Transaction) public transactions;\r\n    address public owner;\r\n\r\n    event TransactionQueued(bytes32 txId, address indexed to, uint256 value, bytes data, uint256 executionTime);\r\n    event TransactionExecuted(bytes32 txId);\r\n    event TransactionCanceled(bytes32 txId);\r\n\r\n    modifier onlyOwner() {\r\n        require(msg.sender == owner, \"Not the contract owner\");\r\n        _;\r\n    }\r\n\r\n    constructor() {\r\n        owner = msg.sender;\r\n    }\r\n\r\n    function queueTransaction(address _to, uint256 _value, bytes memory _data, uint256 _executionTime) public onlyOwner returns (bytes32) {\r\n        require(_executionTime > block.timestamp, \"Execution time must be in the future\");\r\n\r\n        bytes32 txId = keccak256(abi.encode(_to, _value, _data, _executionTime));\r\n        transactions[txId] = Transaction({\r\n            to: _to,\r\n            value: _value,\r\n            data: _data,\r\n            executionTime: _executionTime,\r\n            executed: false,\r\n            canceled: false\r\n        });\r\n\r\n        emit TransactionQueued(txId, _to, _value, _data, _executionTime);\r\n        return txId;\r\n    }\r\n\r\n    function executeTransaction(bytes32 _txId) public {\r\n        Transaction storage txn = transactions[_txId];\r\n        require(block.timestamp >= txn.executionTime, \"Transaction not ready for execution\");\r\n        require(!txn.executed, \"Transaction already executed\");\r\n        require(!txn.canceled, \"Transaction has been canceled\");\r\n\r\n        (bool success, ) = txn.to.call{value: txn.value}(txn.data);\r\n        require(success, \"Transaction execution failed\");\r\n\r\n        txn.executed = true;\r\n        emit TransactionExecuted(_txId);\r\n    }\r\n\r\n    function cancelTransaction(bytes32 _txId) public onlyOwner {\r\n        Transaction storage txn = transactions[_txId];\r\n        require(!txn.executed, \"Transaction already executed\");\r\n        txn.canceled = true;\r\n        emit TransactionCanceled(_txId);\r\n    }\r\n\r\n    function adjustTransaction(bytes32 _txId, uint256 newExecutionTime, address newBeneficiary) public onlyOwner {\r\n        Transaction storage txn = transactions[_txId];\r\n        require(!txn.executed, \"Transaction already executed\");\r\n        require(!txn.canceled, \"Transaction has been canceled\");\r\n\r\n        txn.executionTime = newExecutionTime;\r\n        txn.to = newBeneficiary;\r\n    }\r\n}\r\n",
  "sourcePath": "/mnt/c/Users/User/Desktop/Movie_subscription_solidity/smart_contract/contracts/timelock.sol",
  "compiler": {
    "name": "solc",
    "version": "0.8.0+commit.c7dfd78e.Emscripten.clang"
  },
  "schemaVersion": "3.4.16",
  "updatedAt": "2024-09-09T12:31:08.579Z",
  "networkType": "ethereum",
  "devdoc": {
    "kind": "dev",
    "methods": {},
    "version": 1
  },
  "userdoc": {
    "kind": "user",
    "methods": {},
    "version": 1
  }
}