{
  "contractName": "TransactionPayment",
  "abi": [
    {
      "anonymous": false,
      "inputs": [
        {
          "indexed": true,
          "internalType": "bytes32",
          "name": "subscriptionId",
          "type": "bytes32"
        }
      ],
      "name": "SubscriptionCancelled",
      "type": "event"
    },
    {
      "anonymous": false,
      "inputs": [
        {
          "indexed": true,
          "internalType": "bytes32",
          "name": "subscriptionId",
          "type": "bytes32"
        },
        {
          "indexed": true,
          "internalType": "address",
          "name": "beneficiary",
          "type": "address"
        },
        {
          "indexed": false,
          "internalType": "uint256",
          "name": "amount",
          "type": "uint256"
        }
      ],
      "name": "SubscriptionExecuted",
      "type": "event"
    },
    {
      "anonymous": false,
      "inputs": [
        {
          "indexed": true,
          "internalType": "bytes32",
          "name": "subscriptionId",
          "type": "bytes32"
        },
        {
          "indexed": true,
          "internalType": "address",
          "name": "subscriber",
          "type": "address"
        },
        {
          "indexed": false,
          "internalType": "uint256",
          "name": "unlockTime",
          "type": "uint256"
        }
      ],
      "name": "SubscriptionQueued",
      "type": "event"
    },
    {
      "inputs": [],
      "name": "BENEFICIARY_ADDRESS",
      "outputs": [
        {
          "internalType": "address payable",
          "name": "",
          "type": "address"
        }
      ],
      "stateMutability": "view",
      "type": "function",
      "constant": true
    },
    {
      "inputs": [
        {
          "internalType": "bytes32",
          "name": "",
          "type": "bytes32"
        }
      ],
      "name": "subscriptions",
      "outputs": [
        {
          "internalType": "address payable",
          "name": "subscriber",
          "type": "address"
        },
        {
          "internalType": "uint256",
          "name": "amount",
          "type": "uint256"
        },
        {
          "internalType": "uint256",
          "name": "unlockTime",
          "type": "uint256"
        },
        {
          "internalType": "bool",
          "name": "cancelled",
          "type": "bool"
        },
        {
          "internalType": "bool",
          "name": "executed",
          "type": "bool"
        }
      ],
      "stateMutability": "view",
      "type": "function",
      "constant": true
    },
    {
      "inputs": [
        {
          "internalType": "uint256",
          "name": "_unlockTime",
          "type": "uint256"
        }
      ],
      "name": "queueSubscription",
      "outputs": [
        {
          "internalType": "uint256",
          "name": "",
          "type": "uint256"
        }
      ],
      "stateMutability": "payable",
      "type": "function",
      "payable": true
    },
    {
      "inputs": [
        {
          "internalType": "bytes32",
          "name": "_subscriptionId",
          "type": "bytes32"
        }
      ],
      "name": "cancelSubscription",
      "outputs": [],
      "stateMutability": "nonpayable",
      "type": "function"
    },
    {
      "inputs": [
        {
          "internalType": "bytes32",
          "name": "_subscriptionId",
          "type": "bytes32"
        }
      ],
      "name": "executeSubscription",
      "outputs": [],
      "stateMutability": "nonpayable",
      "type": "function"
    },
    {
      "inputs": [
        {
          "internalType": "bytes32",
          "name": "_subscriptionId",
          "type": "bytes32"
        }
      ],
      "name": "getSubscriptionStatus",
      "outputs": [
        {
          "internalType": "string",
          "name": "",
          "type": "string"
        }
      ],
      "stateMutability": "view",
      "type": "function",
      "constant": true
    }
  ],
  "bytecode": "0x608060405234801561001057600080fd5b506111cf806100206000396000f3fe6080604052600436106100555760003560e01c806316d121901461005a57806319d7f5f4146100975780631f96737a146100c057806394259c6c146100f0578063d21f1ffc14610131578063d6a2179a1461015a575b600080fd5b34801561006657600080fd5b50610081600480360381019061007c9190610aa4565b610185565b60405161008e9190610e4a565b60405180910390f35b3480156100a357600080fd5b506100be60048036038101906100b99190610aa4565b610317565b005b6100da60048036038101906100d59190610acd565b610545565b6040516100e79190610f6c565b60405180910390f35b3480156100fc57600080fd5b5061011760048036038101906101129190610aa4565b6107e9565b604051610128959493929190610df7565b60405180910390f35b34801561013d57600080fd5b5061015860048036038101906101539190610aa4565b610859565b005b34801561016657600080fd5b5061016f610a62565b60405161017c9190610ddc565b60405180910390f35b606060008060008481526020019081526020016000206040518060a00160405290816000820160009054906101000a900473ffffffffffffffffffffffffffffffffffffffff1673ffffffffffffffffffffffffffffffffffffffff1673ffffffffffffffffffffffffffffffffffffffff16815260200160018201548152602001600282015481526020016003820160009054906101000a900460ff161515151581526020016003820160019054906101000a900460ff1615151515815250509050806060015115610290576040518060400160405280600981526020017f43616e63656c6c65640000000000000000000000000000000000000000000000815250915050610312565b8060800151156102d8576040518060400160405280600881526020017f4578656375746564000000000000000000000000000000000000000000000000815250915050610312565b6040518060400160405280600681526020017f51756575656400000000000000000000000000000000000000000000000000008152509150505b919050565b6000801b81141561035d576040517f08c379a000000000000000000000000000000000000000000000000000000000815260040161035490610e6c565b60405180910390fd5b6000806000838152602001908152602001600020905080600201544210156103ba576040517f08c379a00000000000000000000000000000000000000000000000000000000081526004016103b190610f2c565b60405180910390fd5b8060030160009054906101000a900460ff161561040c576040517f08c379a000000000000000000000000000000000000000000000000000000000815260040161040390610eac565b60405180910390fd5b8060030160019054906101000a900460ff161561045e576040517f08c379a000000000000000000000000000000000000000000000000000000000815260040161045590610f0c565b60405180910390fd5b60018160030160016101000a81548160ff02191690831515021790555073ebf3dd4fb5466791f924140aaa3d5b9387e4a19e73ffffffffffffffffffffffffffffffffffffffff166108fc82600101549081150290604051600060405180830381858888f193505050501580156104d9573d6000803e3d6000fd5b5073ebf3dd4fb5466791f924140aaa3d5b9387e4a19e73ffffffffffffffffffffffffffffffffffffffff16827f1d5883832d242eae9d635d0d6a02e3f73c5fe5e0f6357b9c63fea7b18d9f28b983600101546040516105399190610f6c565b60405180910390a35050565b6000803411610589576040517f08c379a000000000000000000000000000000000000000000000000000000000815260040161058090610ecc565b60405180910390fd5b4282116105cb576040517f08c379a00000000000000000000000000000000000000000000000000000000081526004016105c290610eec565b60405180910390fd5b6000620186a042336040516020016105e4929190610db0565b6040516020818303038152906040528051906020012060001c61060791906110be565b90505b600073ffffffffffffffffffffffffffffffffffffffff166000808360001b815260200190815260200160002060000160009054906101000a900473ffffffffffffffffffffffffffffffffffffffff1673ffffffffffffffffffffffffffffffffffffffff161461069857620186a06001826106879190610fa3565b61069191906110be565b905061060a565b6040518060a001604052803373ffffffffffffffffffffffffffffffffffffffff168152602001348152602001848152602001600015158152602001600015158152506000808360001b815260200190815260200160002060008201518160000160006101000a81548173ffffffffffffffffffffffffffffffffffffffff021916908373ffffffffffffffffffffffffffffffffffffffff160217905550602082015181600101556040820151816002015560608201518160030160006101000a81548160ff02191690831515021790555060808201518160030160016101000a81548160ff0219169083151502179055509050503373ffffffffffffffffffffffffffffffffffffffff168160001b7f37225c3d942c48c49e32cbb6ca1eb4f8de1522b204628e8f1ce9542da502dcbc856040516107d89190610f6c565b60405180910390a380915050919050565b60006020528060005260406000206000915090508060000160009054906101000a900473ffffffffffffffffffffffffffffffffffffffff16908060010154908060020154908060030160009054906101000a900460ff16908060030160019054906101000a900460ff16905085565b600080600083815260200190815260200160002090508060000160009054906101000a900473ffffffffffffffffffffffffffffffffffffffff1673ffffffffffffffffffffffffffffffffffffffff163373ffffffffffffffffffffffffffffffffffffffff1614610901576040517f08c379a00000000000000000000000000000000000000000000000000000000081526004016108f890610f4c565b60405180910390fd5b8060030160009054906101000a900460ff1615610953576040517f08c379a000000000000000000000000000000000000000000000000000000000815260040161094a90610e8c565b60405180910390fd5b8060030160019054906101000a900460ff16156109a5576040517f08c379a000000000000000000000000000000000000000000000000000000000815260040161099c90610f0c565b60405180910390fd5b60018160030160006101000a81548160ff0219169083151502179055508060000160009054906101000a900473ffffffffffffffffffffffffffffffffffffffff1673ffffffffffffffffffffffffffffffffffffffff166108fc82600101549081150290604051600060405180830381858888f19350505050158015610a30573d6000803e3d6000fd5b50817fcef6ecfd66d42c68c27def452dfeb1195cab6999685acd9ae7c30b11b51c587a60405160405180910390a25050565b73ebf3dd4fb5466791f924140aaa3d5b9387e4a19e81565b600081359050610a898161116b565b92915050565b600081359050610a9e81611182565b92915050565b600060208284031215610ab657600080fd5b6000610ac484828501610a7a565b91505092915050565b600060208284031215610adf57600080fd5b6000610aed84828501610a8f565b91505092915050565b610aff8161100b565b82525050565b610b16610b1182610ff9565b611090565b82525050565b610b258161101d565b82525050565b6000610b3682610f87565b610b408185610f92565b9350610b5081856020860161105d565b610b598161114d565b840191505092915050565b6000610b71601783610f92565b91507f496e76616c696420737562736372697074696f6e2049440000000000000000006000830152602082019050919050565b6000610bb1601e83610f92565b91507f537562736372697074696f6e20616c72656164792063616e63656c6c656400006000830152602082019050919050565b6000610bf1601f83610f92565b91507f537562736372697074696f6e20686173206265656e2063616e63656c6c6564006000830152602082019050919050565b6000610c31601c83610f92565b91507f4e6f204554482073656e7420666f7220737562736372697074696f6e000000006000830152602082019050919050565b6000610c71602183610f92565b91507f556e6c6f636b2074696d65206d75737420626520696e2074686520667574757260008301527f65000000000000000000000000000000000000000000000000000000000000006020830152604082019050919050565b6000610cd7601d83610f92565b91507f537562736372697074696f6e20616c72656164792065786563757465640000006000830152602082019050919050565b6000610d17601783610f92565b91507f556e6c6f636b2074696d65206e6f7420726561636865640000000000000000006000830152602082019050919050565b6000610d57601e83610f92565b91507f4f6e6c792074686520737562736372696265722063616e2063616e63656c00006000830152602082019050919050565b610d9381611053565b82525050565b610daa610da582611053565b6110b4565b82525050565b6000610dbc8285610d99565b602082019150610dcc8284610b05565b6014820191508190509392505050565b6000602082019050610df16000830184610af6565b92915050565b600060a082019050610e0c6000830188610af6565b610e196020830187610d8a565b610e266040830186610d8a565b610e336060830185610b1c565b610e406080830184610b1c565b9695505050505050565b60006020820190508181036000830152610e648184610b2b565b905092915050565b60006020820190508181036000830152610e8581610b64565b9050919050565b60006020820190508181036000830152610ea581610ba4565b9050919050565b60006020820190508181036000830152610ec581610be4565b9050919050565b60006020820190508181036000830152610ee581610c24565b9050919050565b60006020820190508181036000830152610f0581610c64565b9050919050565b60006020820190508181036000830152610f2581610cca565b9050919050565b60006020820190508181036000830152610f4581610d0a565b9050919050565b60006020820190508181036000830152610f6581610d4a565b9050919050565b6000602082019050610f816000830184610d8a565b92915050565b600081519050919050565b600082825260208201905092915050565b6000610fae82611053565b9150610fb983611053565b9250827fffffffffffffffffffffffffffffffffffffffffffffffffffffffffffffffff03821115610fee57610fed6110ef565b5b828201905092915050565b600061100482611033565b9050919050565b600061101682611033565b9050919050565b60008115159050919050565b6000819050919050565b600073ffffffffffffffffffffffffffffffffffffffff82169050919050565b6000819050919050565b60005b8381101561107b578082015181840152602081019050611060565b8381111561108a576000848401525b50505050565b600061109b826110a2565b9050919050565b60006110ad8261115e565b9050919050565b6000819050919050565b60006110c982611053565b91506110d483611053565b9250826110e4576110e361111e565b5b828206905092915050565b7f4e487b7100000000000000000000000000000000000000000000000000000000600052601160045260246000fd5b7f4e487b7100000000000000000000000000000000000000000000000000000000600052601260045260246000fd5b6000601f19601f8301169050919050565b60008160601b9050919050565b61117481611029565b811461117f57600080fd5b50565b61118b81611053565b811461119657600080fd5b5056fea26469706673582212206c38f64b124eff62a0dddb68d5369b1aaf8848777ef2534ce14b998bb2ebaf5d64736f6c63430008000033",
  "immutableReferences": {},
  "source": "pragma solidity ^0.8.0;\r\n\r\ncontract TransactionPayment {\r\n    address payable public constant BENEFICIARY_ADDRESS = payable(0xEBf3DD4Fb5466791f924140aAA3D5b9387E4A19E); // Correct beneficiary address\r\n\r\n    struct Subscription {\r\n        address payable subscriber;\r\n        uint amount;\r\n        uint unlockTime;\r\n        bool cancelled;\r\n        bool executed;\r\n    }\r\n\r\n    mapping(bytes32 => Subscription) public subscriptions;\r\n\r\n    // Events\r\n    event SubscriptionQueued(bytes32 indexed subscriptionId, address indexed subscriber, uint256 unlockTime);\r\n    event SubscriptionCancelled(bytes32 indexed subscriptionId);\r\n    event SubscriptionExecuted(bytes32 indexed subscriptionId, address indexed beneficiary, uint amount);\r\n\r\n    // Queue a subscription payment\r\n    function queueSubscription(uint _unlockTime) external payable returns (uint) {\r\n        require(msg.value > 0, \"No ETH sent for subscription\");\r\n        require(_unlockTime > block.timestamp, \"Unlock time must be in the future\");\r\n\r\n        // Generate a 5-digit random subscription ID\r\n        uint subscriptionId = uint(keccak256(abi.encodePacked(block.timestamp, msg.sender))) % 100000;\r\n\r\n        // Ensure the subscription ID is unique\r\n        while (subscriptions[bytes32(subscriptionId)].subscriber != address(0)) {\r\n            subscriptionId = (subscriptionId + 1) % 100000;\r\n        }\r\n\r\n        // Create the subscription record\r\n        subscriptions[bytes32(subscriptionId)] = Subscription({\r\n            subscriber: payable(msg.sender),\r\n            amount: msg.value,\r\n            unlockTime: _unlockTime,\r\n            cancelled: false,\r\n            executed: false\r\n        });\r\n\r\n        // Emit the SubscriptionQueued event\r\n        emit SubscriptionQueued(bytes32(subscriptionId), msg.sender, _unlockTime);\r\n\r\n        return subscriptionId;\r\n    }\r\n\r\n    // Cancel the subscription and refund the money to the subscriber\r\n    function cancelSubscription(bytes32 _subscriptionId) external {\r\n        Subscription storage sub = subscriptions[_subscriptionId];\r\n        require(msg.sender == sub.subscriber, \"Only the subscriber can cancel\");\r\n        require(!sub.cancelled, \"Subscription already cancelled\");\r\n        require(!sub.executed, \"Subscription already executed\");\r\n\r\n        // Mark the subscription as cancelled\r\n        sub.cancelled = true;\r\n        \r\n        // Refund the money to the subscriber\r\n        sub.subscriber.transfer(sub.amount);\r\n        // Emit the SubscriptionCancelled event\r\n        emit SubscriptionCancelled(_subscriptionId);\r\n    }\r\n\r\n    // Execute the subscription payment when the unlock time has passed\r\n    function executeSubscription(bytes32 _subscriptionId) external {\r\n        require(_subscriptionId != bytes32(0), \"Invalid subscription ID\");\r\n        Subscription storage sub = subscriptions[_subscriptionId];\r\n        require(block.timestamp >= sub.unlockTime, \"Unlock time not reached\");\r\n        require(!sub.cancelled, \"Subscription has been cancelled\");\r\n        require(!sub.executed, \"Subscription already executed\");\r\n\r\n        // Mark the subscription as executed\r\n        sub.executed = true;\r\n\r\n        // Transfer the locked funds to the beneficiary\r\n        BENEFICIARY_ADDRESS.transfer(sub.amount);\r\n\r\n        emit SubscriptionExecuted(_subscriptionId, BENEFICIARY_ADDRESS, sub.amount);\r\n    }\r\n\r\n    // Check the status of a subscription (queued, executed, or cancelled)\r\n    function getSubscriptionStatus(bytes32 _subscriptionId) external view returns (string memory) {\r\n        Subscription memory sub = subscriptions[_subscriptionId];\r\n        if (sub.cancelled) {\r\n            return \"Cancelled\";\r\n        } else if (sub.executed) {\r\n            return \"Executed\";\r\n        } else {\r\n            return \"Queued\";\r\n        }\r\n    }\r\n}",
  "sourcePath": "C:\\Users\\User\\Desktop\\movie_last\\smart_contract\\contracts\\TransactionPayment.sol",
  "compiler": {
    "name": "solc",
    "version": "0.8.0+commit.c7dfd78e.Emscripten.clang"
  },
  "schemaVersion": "3.4.16",
  "updatedAt": "2024-09-26T14:31:30.022Z",
  "networkType": "ethereum",
  "devdoc": {
    "kind": "dev",
    "methods": {},
    "version": 1
  },
  "userdoc": {
    "kind": "user",
    "methods": {},
    "version": 1
  }
}