{
  "contractName": "TransactionPayment",
  "abi": [
    {
      "inputs": [
        {
          "internalType": "address",
          "name": "_userManagementAddress",
          "type": "address"
        }
      ],
      "stateMutability": "nonpayable",
      "type": "constructor"
    },
    {
      "anonymous": false,
      "inputs": [
        {
          "indexed": true,
          "internalType": "uint256",
          "name": "subscriptionId",
          "type": "uint256"
        }
      ],
      "name": "SubscriptionCancelled",
      "type": "event"
    },
    {
      "anonymous": false,
      "inputs": [
        {
          "indexed": true,
          "internalType": "uint256",
          "name": "subscriptionId",
          "type": "uint256"
        },
        {
          "indexed": true,
          "internalType": "address",
          "name": "beneficiary",
          "type": "address"
        },
        {
          "indexed": false,
          "internalType": "uint256",
          "name": "amount",
          "type": "uint256"
        }
      ],
      "name": "SubscriptionExecuted",
      "type": "event"
    },
    {
      "anonymous": false,
      "inputs": [
        {
          "indexed": true,
          "internalType": "uint256",
          "name": "subscriptionId",
          "type": "uint256"
        },
        {
          "indexed": true,
          "internalType": "address",
          "name": "subscriber",
          "type": "address"
        },
        {
          "indexed": false,
          "internalType": "uint256",
          "name": "unlockTime",
          "type": "uint256"
        }
      ],
      "name": "SubscriptionQueued",
      "type": "event"
    },
    {
      "inputs": [
        {
          "internalType": "uint256",
          "name": "",
          "type": "uint256"
        }
      ],
      "name": "subscriptions",
      "outputs": [
        {
          "internalType": "address payable",
          "name": "subscriber",
          "type": "address"
        },
        {
          "internalType": "uint256",
          "name": "amount",
          "type": "uint256"
        },
        {
          "internalType": "uint256",
          "name": "unlockTime",
          "type": "uint256"
        },
        {
          "internalType": "bool",
          "name": "cancelled",
          "type": "bool"
        },
        {
          "internalType": "bool",
          "name": "executed",
          "type": "bool"
        }
      ],
      "stateMutability": "view",
      "type": "function",
      "constant": true
    },
    {
      "inputs": [],
      "name": "userManagement",
      "outputs": [
        {
          "internalType": "contract IUserManagement",
          "name": "",
          "type": "address"
        }
      ],
      "stateMutability": "view",
      "type": "function",
      "constant": true
    },
    {
      "inputs": [
        {
          "internalType": "address",
          "name": "",
          "type": "address"
        }
      ],
      "name": "userToSubscriptionId",
      "outputs": [
        {
          "internalType": "uint256",
          "name": "",
          "type": "uint256"
        }
      ],
      "stateMutability": "view",
      "type": "function",
      "constant": true
    },
    {
      "inputs": [
        {
          "internalType": "uint256",
          "name": "_unlockTime",
          "type": "uint256"
        }
      ],
      "name": "queueSubscription",
      "outputs": [
        {
          "internalType": "uint256",
          "name": "",
          "type": "uint256"
        }
      ],
      "stateMutability": "payable",
      "type": "function",
      "payable": true
    },
    {
      "inputs": [
        {
          "internalType": "uint256",
          "name": "_subscriptionId",
          "type": "uint256"
        }
      ],
      "name": "cancelSubscription",
      "outputs": [],
      "stateMutability": "nonpayable",
      "type": "function"
    },
    {
      "inputs": [
        {
          "internalType": "uint256",
          "name": "_subscriptionId",
          "type": "uint256"
        },
        {
          "internalType": "address payable",
          "name": "_beneficiary",
          "type": "address"
        }
      ],
      "name": "executeSubscription",
      "outputs": [],
      "stateMutability": "nonpayable",
      "type": "function"
    },
    {
      "inputs": [
        {
          "internalType": "address",
          "name": "_user",
          "type": "address"
        }
      ],
      "name": "getSubscriptionStatus",
      "outputs": [
        {
          "internalType": "string",
          "name": "",
          "type": "string"
        }
      ],
      "stateMutability": "view",
      "type": "function",
      "constant": true
    },
    {
      "inputs": [
        {
          "internalType": "address",
          "name": "_user",
          "type": "address"
        }
      ],
      "name": "getCurrentSubscription",
      "outputs": [
        {
          "components": [
            {
              "internalType": "address payable",
              "name": "subscriber",
              "type": "address"
            },
            {
              "internalType": "uint256",
              "name": "amount",
              "type": "uint256"
            },
            {
              "internalType": "uint256",
              "name": "unlockTime",
              "type": "uint256"
            },
            {
              "internalType": "bool",
              "name": "cancelled",
              "type": "bool"
            },
            {
              "internalType": "bool",
              "name": "executed",
              "type": "bool"
            }
          ],
          "internalType": "struct TransactionPayment.Subscription",
          "name": "",
          "type": "tuple"
        }
      ],
      "stateMutability": "view",
      "type": "function",
      "constant": true
    }
  ],
  "bytecode": "0x60806040523480156200001157600080fd5b5060405162001b5338038062001b53833981810160405281019062000037919062000095565b806000806101000a81548173ffffffffffffffffffffffffffffffffffffffff021916908373ffffffffffffffffffffffffffffffffffffffff160217905550506200010f565b6000815190506200008f81620000f5565b92915050565b600060208284031215620000a857600080fd5b6000620000b8848285016200007e565b91505092915050565b6000620000ce82620000d5565b9050919050565b600073ffffffffffffffffffffffffffffffffffffffff82169050919050565b6200010081620000c1565b81146200010c57600080fd5b50565b611a34806200011f6000396000f3fe60806040526004361061007b5760003560e01c80636a767f501161004e5780636a767f50146101575780639eb9abde14610182578063a834546b146101ab578063eda28a56146101e85761007b565b80631ddda9b6146100805780631f96737a146100bd57806321235083146100ed5780632d5bbf6014610116575b600080fd5b34801561008c57600080fd5b506100a760048036038101906100a29190610fe1565b610225565b6040516100b491906115ec565b60405180910390f35b6100d760048036038101906100d29190611033565b610443565b6040516100e49190611789565b60405180910390f35b3480156100f957600080fd5b50610114600480360381019061010f9190611033565b61088e565b005b34801561012257600080fd5b5061013d60048036038101906101389190611033565b610a98565b60405161014e95949392919061157e565b60405180910390f35b34801561016357600080fd5b5061016c610b08565b60405161017991906115d1565b60405180910390f35b34801561018e57600080fd5b506101a960048036038101906101a4919061105c565b610b2c565b005b3480156101b757600080fd5b506101d260048036038101906101cd9190610fe1565b610dd6565b6040516101df919061176e565b60405180910390f35b3480156101f457600080fd5b5061020f600480360381019061020a9190610fe1565b610f2c565b60405161021c9190611789565b60405180910390f35b60606000600260008473ffffffffffffffffffffffffffffffffffffffff1673ffffffffffffffffffffffffffffffffffffffff16815260200190815260200160002054905060008114156102af576040517f08c379a00000000000000000000000000000000000000000000000000000000081526004016102a69061162e565b60405180910390fd5b6000600160008381526020019081526020016000206040518060a00160405290816000820160009054906101000a900473ffffffffffffffffffffffffffffffffffffffff1673ffffffffffffffffffffffffffffffffffffffff1673ffffffffffffffffffffffffffffffffffffffff16815260200160018201548152602001600282015481526020016003820160009054906101000a900460ff161515151581526020016003820160019054906101000a900460ff16151515158152505090508060600151156103ba576040518060400160405280600981526020017f43616e63656c6c656400000000000000000000000000000000000000000000008152509250505061043e565b806080015115610403576040518060400160405280600881526020017f45786563757465640000000000000000000000000000000000000000000000008152509250505061043e565b6040518060400160405280600681526020017f5175657565640000000000000000000000000000000000000000000000000000815250925050505b919050565b6000803411610487576040517f08c379a000000000000000000000000000000000000000000000000000000000815260040161047e9061168e565b60405180910390fd5b4282116104c9576040517f08c379a00000000000000000000000000000000000000000000000000000000081526004016104c0906116ce565b60405180910390fd5b60008054906101000a900473ffffffffffffffffffffffffffffffffffffffff1673ffffffffffffffffffffffffffffffffffffffff1663163f7522336040518263ffffffff1660e01b81526004016105229190611563565b60206040518083038186803b15801561053a57600080fd5b505afa15801561054e573d6000803e3d6000fd5b505050506040513d601f19601f82011682018060405250810190610572919061100a565b6105b1576040517f08c379a00000000000000000000000000000000000000000000000000000000081526004016105a89061174e565b60405180910390fd5b6000620186a042336040516020016105ca929190611537565b6040516020818303038152906040528051906020012060001c6105ed91906118f5565b90505b600073ffffffffffffffffffffffffffffffffffffffff166001600083815260200190815260200160002060000160009054906101000a900473ffffffffffffffffffffffffffffffffffffffff1673ffffffffffffffffffffffffffffffffffffffff161461067c57620186a060018261066b91906117c0565b61067591906118f5565b90506105f0565b6000600260003373ffffffffffffffffffffffffffffffffffffffff1673ffffffffffffffffffffffffffffffffffffffff16815260200190815260200160002054146106fe576040517f08c379a00000000000000000000000000000000000000000000000000000000081526004016106f59061164e565b60405180910390fd5b6040518060a001604052803373ffffffffffffffffffffffffffffffffffffffff168152602001348152602001848152602001600015158152602001600015158152506001600083815260200190815260200160002060008201518160000160006101000a81548173ffffffffffffffffffffffffffffffffffffffff021916908373ffffffffffffffffffffffffffffffffffffffff160217905550602082015181600101556040820151816002015560608201518160030160006101000a81548160ff02191690831515021790555060808201518160030160016101000a81548160ff02191690831515021790555090505080600260003373ffffffffffffffffffffffffffffffffffffffff1673ffffffffffffffffffffffffffffffffffffffff168152602001908152602001600020819055503373ffffffffffffffffffffffffffffffffffffffff16817fab22804c77735435a0d488eb942ab5a252062b49add136465a84792dd776140e8560405161087d9190611789565b60405180910390a380915050919050565b60006001600083815260200190815260200160002090508060000160009054906101000a900473ffffffffffffffffffffffffffffffffffffffff1673ffffffffffffffffffffffffffffffffffffffff163373ffffffffffffffffffffffffffffffffffffffff1614610937576040517f08c379a000000000000000000000000000000000000000000000000000000000815260040161092e9061172e565b60405180910390fd5b8060030160009054906101000a900460ff1615610989576040517f08c379a00000000000000000000000000000000000000000000000000000000081526004016109809061160e565b60405180910390fd5b8060030160019054906101000a900460ff16156109db576040517f08c379a00000000000000000000000000000000000000000000000000000000081526004016109d2906116ee565b60405180910390fd5b60018160030160006101000a81548160ff0219169083151502179055508060000160009054906101000a900473ffffffffffffffffffffffffffffffffffffffff1673ffffffffffffffffffffffffffffffffffffffff166108fc82600101549081150290604051600060405180830381858888f19350505050158015610a66573d6000803e3d6000fd5b50817fbd2bcea75d16a85f005cd83447e0de57341bf926fe7419e6d553663e91ab4da760405160405180910390a25050565b60016020528060005260406000206000915090508060000160009054906101000a900473ffffffffffffffffffffffffffffffffffffffff16908060010154908060020154908060030160009054906101000a900460ff16908060030160019054906101000a900460ff16905085565b60008054906101000a900473ffffffffffffffffffffffffffffffffffffffff1681565b60008054906101000a900473ffffffffffffffffffffffffffffffffffffffff1673ffffffffffffffffffffffffffffffffffffffff1663163f7522336040518263ffffffff1660e01b8152600401610b859190611563565b60206040518083038186803b158015610b9d57600080fd5b505afa158015610bb1573d6000803e3d6000fd5b505050506040513d601f19601f82011682018060405250810190610bd5919061100a565b610c14576040517f08c379a0000000000000000000000000000000000000000000000000000000008152600401610c0b906116ae565b60405180910390fd5b60006001600084815260200190815260200160002090508060020154421015610c72576040517f08c379a0000000000000000000000000000000000000000000000000000000008152600401610c699061170e565b60405180910390fd5b8060030160009054906101000a900460ff1615610cc4576040517f08c379a0000000000000000000000000000000000000000000000000000000008152600401610cbb9061166e565b60405180910390fd5b8060030160019054906101000a900460ff1615610d16576040517f08c379a0000000000000000000000000000000000000000000000000000000008152600401610d0d906116ee565b60405180910390fd5b60018160030160016101000a81548160ff0219169083151502179055508173ffffffffffffffffffffffffffffffffffffffff166108fc82600101549081150290604051600060405180830381858888f19350505050158015610d7d573d6000803e3d6000fd5b508173ffffffffffffffffffffffffffffffffffffffff16837f11cdb8e954ebaece137d0ab76d4c8416f0834b1cd9b520ef2d1b5b0de72256f78360010154604051610dc99190611789565b60405180910390a3505050565b610dde610f44565b6000600260008473ffffffffffffffffffffffffffffffffffffffff1673ffffffffffffffffffffffffffffffffffffffff1681526020019081526020016000205490506000811415610e66576040517f08c379a0000000000000000000000000000000000000000000000000000000008152600401610e5d9061162e565b60405180910390fd5b600160008281526020019081526020016000206040518060a00160405290816000820160009054906101000a900473ffffffffffffffffffffffffffffffffffffffff1673ffffffffffffffffffffffffffffffffffffffff1673ffffffffffffffffffffffffffffffffffffffff16815260200160018201548152602001600282015481526020016003820160009054906101000a900460ff161515151581526020016003820160019054906101000a900460ff161515151581525050915050919050565b60026020528060005260406000206000915090505481565b6040518060a00160405280600073ffffffffffffffffffffffffffffffffffffffff16815260200160008152602001600081526020016000151581526020016000151581525090565b600081359050610f9c816119a2565b92915050565b600081359050610fb1816119b9565b92915050565b600081519050610fc6816119d0565b92915050565b600081359050610fdb816119e7565b92915050565b600060208284031215610ff357600080fd5b600061100184828501610f8d565b91505092915050565b60006020828403121561101c57600080fd5b600061102a84828501610fb7565b91505092915050565b60006020828403121561104557600080fd5b600061105384828501610fcc565b91505092915050565b6000806040838503121561106f57600080fd5b600061107d85828601610fcc565b925050602061108e85828601610fa2565b9150509250929050565b6110a181611828565b82525050565b6110b081611828565b82525050565b6110bf81611816565b82525050565b6110d66110d182611816565b6118c7565b82525050565b6110e58161183a565b82525050565b6110f48161183a565b82525050565b61110381611870565b82525050565b6000611114826117a4565b61111e81856117af565b935061112e818560208601611894565b61113781611984565b840191505092915050565b600061114f601e836117af565b91507f537562736372697074696f6e20616c72656164792063616e63656c6c656400006000830152602082019050919050565b600061118f6024836117af565b91507f4e6f2061637469766520737562736372697074696f6e20666f7220746869732060008301527f75736572000000000000000000000000000000000000000000000000000000006020830152604082019050919050565b60006111f5602b836117af565b91507f41637469766520737562736372697074696f6e20616c7265616479206578697360008301527f747320666f7220757365720000000000000000000000000000000000000000006020830152604082019050919050565b600061125b601f836117af565b91507f537562736372697074696f6e20686173206265656e2063616e63656c6c6564006000830152602082019050919050565b600061129b601c836117af565b91507f4e6f204554482073656e7420666f7220737562736372697074696f6e000000006000830152602082019050919050565b60006112db6017836117af565b91507f55736572206d75737420626520726567697374657265640000000000000000006000830152602082019050919050565b600061131b6021836117af565b91507f556e6c6f636b2074696d65206d75737420626520696e2074686520667574757260008301527f65000000000000000000000000000000000000000000000000000000000000006020830152604082019050919050565b6000611381601d836117af565b91507f537562736372697074696f6e20616c72656164792065786563757465640000006000830152602082019050919050565b60006113c16017836117af565b91507f556e6c6f636b2074696d65206e6f7420726561636865640000000000000000006000830152602082019050919050565b6000611401601e836117af565b91507f4f6e6c792074686520737562736372696265722063616e2063616e63656c00006000830152602082019050919050565b6000611441602d836117af565b91507f55736572206d757374206265207265676973746572656420746f20627579206160008301527f20737562736372697074696f6e000000000000000000000000000000000000006020830152604082019050919050565b60a0820160008201516114b06000850182611098565b5060208201516114c36020850182611502565b5060408201516114d66040850182611502565b5060608201516114e960608501826110dc565b5060808201516114fc60808501826110dc565b50505050565b61150b81611866565b82525050565b61151a81611866565b82525050565b61153161152c82611866565b6118eb565b82525050565b60006115438285611520565b60208201915061155382846110c5565b6014820191508190509392505050565b600060208201905061157860008301846110b6565b92915050565b600060a08201905061159360008301886110a7565b6115a06020830187611511565b6115ad6040830186611511565b6115ba60608301856110eb565b6115c760808301846110eb565b9695505050505050565b60006020820190506115e660008301846110fa565b92915050565b600060208201905081810360008301526116068184611109565b905092915050565b6000602082019050818103600083015261162781611142565b9050919050565b6000602082019050818103600083015261164781611182565b9050919050565b60006020820190508181036000830152611667816111e8565b9050919050565b600060208201905081810360008301526116878161124e565b9050919050565b600060208201905081810360008301526116a78161128e565b9050919050565b600060208201905081810360008301526116c7816112ce565b9050919050565b600060208201905081810360008301526116e78161130e565b9050919050565b6000602082019050818103600083015261170781611374565b9050919050565b60006020820190508181036000830152611727816113b4565b9050919050565b60006020820190508181036000830152611747816113f4565b9050919050565b6000602082019050818103600083015261176781611434565b9050919050565b600060a082019050611783600083018461149a565b92915050565b600060208201905061179e6000830184611511565b92915050565b600081519050919050565b600082825260208201905092915050565b60006117cb82611866565b91506117d683611866565b9250827fffffffffffffffffffffffffffffffffffffffffffffffffffffffffffffffff0382111561180b5761180a611926565b5b828201905092915050565b600061182182611846565b9050919050565b600061183382611846565b9050919050565b60008115159050919050565b600073ffffffffffffffffffffffffffffffffffffffff82169050919050565b6000819050919050565b600061187b82611882565b9050919050565b600061188d82611846565b9050919050565b60005b838110156118b2578082015181840152602081019050611897565b838111156118c1576000848401525b50505050565b60006118d2826118d9565b9050919050565b60006118e482611995565b9050919050565b6000819050919050565b600061190082611866565b915061190b83611866565b92508261191b5761191a611955565b5b828206905092915050565b7f4e487b7100000000000000000000000000000000000000000000000000000000600052601160045260246000fd5b7f4e487b7100000000000000000000000000000000000000000000000000000000600052601260045260246000fd5b6000601f19601f8301169050919050565b60008160601b9050919050565b6119ab81611816565b81146119b657600080fd5b50565b6119c281611828565b81146119cd57600080fd5b50565b6119d98161183a565b81146119e457600080fd5b50565b6119f081611866565b81146119fb57600080fd5b5056fea264697066735822122098bbbacbad579fb094f652b156e68dffd0ba3a63567af5b5c4bdf671442f31e064736f6c63430008000033",
  "immutableReferences": {},
  "source": "// SPDX-License-Identifier: MIT\r\n\r\npragma solidity ^0.8.0;\r\n\r\ninterface IUserManagement {\r\n    function isUserRegistered(address _user) external view returns (bool);\r\n}\r\n\r\ncontract TransactionPayment {\r\n    // Declare the userManagement variable to store the UserManagement contract instance\r\n    IUserManagement public userManagement;\r\n\r\n    struct Subscription {\r\n        address payable subscriber;\r\n        uint amount;\r\n        uint unlockTime;\r\n        bool cancelled;\r\n        bool executed;\r\n    }\r\n\r\n    // Constructor to initialize the user management contract address\r\n    constructor(address _userManagementAddress) {\r\n        userManagement = IUserManagement(_userManagementAddress); // Initialize the contract instance\r\n    }\r\n\r\n    mapping(uint => Subscription) public subscriptions;\r\n    mapping(address => uint) public userToSubscriptionId; // Tracks a single active subscription per user\r\n\r\n    // Events\r\n    event SubscriptionQueued(\r\n        uint indexed subscriptionId,\r\n        address indexed subscriber,\r\n        uint256 unlockTime\r\n    );\r\n    event SubscriptionCancelled(uint indexed subscriptionId);\r\n    event SubscriptionExecuted(\r\n        uint indexed subscriptionId,\r\n        address indexed beneficiary,\r\n        uint amount\r\n    );\r\n\r\n    // Modifier to check if the user is registered\r\n    modifier onlyRegisteredUser() {\r\n        require(\r\n            userManagement.isUserRegistered(msg.sender),\r\n            \"User must be registered\"\r\n        );\r\n        _;\r\n    }\r\n\r\n    // Queue a subscription payment\r\n    function queueSubscription(\r\n        uint _unlockTime\r\n    ) external payable returns (uint) {\r\n        require(msg.value > 0, \"No ETH sent for subscription\");\r\n        require(\r\n            _unlockTime > block.timestamp,\r\n            \"Unlock time must be in the future\"\r\n        );\r\n\r\n        // Check if the user is registered\r\n        require(\r\n            userManagement.isUserRegistered(msg.sender),\r\n            \"User must be registered to buy a subscription\"\r\n        );\r\n\r\n        // Generate a 5-digit random subscription ID\r\n        uint subscriptionId = uint(\r\n            keccak256(abi.encodePacked(block.timestamp, msg.sender))\r\n        ) % 100000;\r\n\r\n        // Ensure the subscription ID is unique\r\n        while (subscriptions[subscriptionId].subscriber != address(0)) {\r\n            subscriptionId = (subscriptionId + 1) % 100000;\r\n        }\r\n\r\n        // Ensure the user doesn't have another active subscription\r\n        require(\r\n            userToSubscriptionId[msg.sender] == 0,\r\n            \"Active subscription already exists for user\"\r\n        );\r\n\r\n        // Create the subscription record\r\n        subscriptions[subscriptionId] = Subscription({\r\n            subscriber: payable(msg.sender),\r\n            amount: msg.value,\r\n            unlockTime: _unlockTime,\r\n            cancelled: false,\r\n            executed: false\r\n        });\r\n\r\n        // Link the subscription ID to the user's address\r\n        userToSubscriptionId[msg.sender] = subscriptionId;\r\n\r\n        // Emit the SubscriptionQueued event\r\n        emit SubscriptionQueued(subscriptionId, msg.sender, _unlockTime);\r\n\r\n        return subscriptionId;\r\n    }\r\n\r\n    // Cancel the subscription and refund the money to the subscriber\r\n    function cancelSubscription(uint _subscriptionId) external {\r\n        Subscription storage sub = subscriptions[_subscriptionId];\r\n        require(msg.sender == sub.subscriber, \"Only the subscriber can cancel\");\r\n        require(!sub.cancelled, \"Subscription already cancelled\");\r\n        require(!sub.executed, \"Subscription already executed\");\r\n\r\n        // Mark the subscription as cancelled\r\n        sub.cancelled = true;\r\n\r\n        // Refund the money to the subscriber\r\n        sub.subscriber.transfer(sub.amount);\r\n        emit SubscriptionCancelled(_subscriptionId);\r\n    }\r\n\r\n    // Execute the subscription payment when the unlock time has passed\r\n    function executeSubscription(\r\n        uint _subscriptionId,\r\n        address payable _beneficiary\r\n    ) external onlyRegisteredUser {\r\n        Subscription storage sub = subscriptions[_subscriptionId];\r\n        require(block.timestamp >= sub.unlockTime, \"Unlock time not reached\");\r\n        require(!sub.cancelled, \"Subscription has been cancelled\");\r\n        require(!sub.executed, \"Subscription already executed\");\r\n\r\n        // Mark the subscription as executed\r\n        sub.executed = true;\r\n\r\n        // Transfer the locked funds to the beneficiary (e.g., movie platform)\r\n        _beneficiary.transfer(sub.amount);\r\n\r\n        emit SubscriptionExecuted(_subscriptionId, _beneficiary, sub.amount);\r\n    }\r\n\r\n    // Check the status of the user's active subscription\r\n    function getSubscriptionStatus(\r\n        address _user\r\n    ) external view returns (string memory) {\r\n        uint subscriptionId = userToSubscriptionId[_user];\r\n        require(subscriptionId != 0, \"No active subscription for this user\");\r\n\r\n        Subscription memory sub = subscriptions[subscriptionId];\r\n        if (sub.cancelled) {\r\n            return \"Cancelled\";\r\n        } else if (sub.executed) {\r\n            return \"Executed\";\r\n        } else {\r\n            return \"Queued\";\r\n        }\r\n    }\r\n\r\n    // View details of the user's current subscription\r\n    function getCurrentSubscription(\r\n        address _user\r\n    ) external view returns (Subscription memory) {\r\n        uint subscriptionId = userToSubscriptionId[_user];\r\n        require(subscriptionId != 0, \"No active subscription for this user\");\r\n\r\n        return subscriptions[subscriptionId];\r\n    }\r\n}\r\n",
  "sourcePath": "C:\\Users\\khord\\Documents\\Movie_subscription_solidity\\smart_contract\\contracts\\TransactionPayment.sol",
  "compiler": {
    "name": "solc",
    "version": "0.8.0+commit.c7dfd78e.Emscripten.clang"
  },
  "schemaVersion": "3.4.16",
  "updatedAt": "2024-09-26T05:19:38.776Z",
  "networkType": "ethereum",
  "devdoc": {
    "kind": "dev",
    "methods": {},
    "version": 1
  },
  "userdoc": {
    "kind": "user",
    "methods": {},
    "version": 1
  }
}