{
  "contractName": "TransactionPayment",
  "abi": [
    {
      "anonymous": false,
      "inputs": [
        {
          "indexed": true,
          "internalType": "bytes32",
          "name": "subscriptionId",
          "type": "bytes32"
        }
      ],
      "name": "SubscriptionCancelled",
      "type": "event"
    },
    {
      "anonymous": false,
      "inputs": [
        {
          "indexed": true,
          "internalType": "bytes32",
          "name": "subscriptionId",
          "type": "bytes32"
        },
        {
          "indexed": true,
          "internalType": "address",
          "name": "beneficiary",
          "type": "address"
        },
        {
          "indexed": false,
          "internalType": "uint256",
          "name": "amount",
          "type": "uint256"
        }
      ],
      "name": "SubscriptionExecuted",
      "type": "event"
    },
    {
      "anonymous": false,
      "inputs": [
        {
          "indexed": true,
          "internalType": "bytes32",
          "name": "subscriptionId",
          "type": "bytes32"
        },
        {
          "indexed": true,
          "internalType": "address",
          "name": "subscriber",
          "type": "address"
        },
        {
          "indexed": false,
          "internalType": "uint256",
          "name": "unlockTime",
          "type": "uint256"
        }
      ],
      "name": "SubscriptionQueued",
      "type": "event"
    },
    {
      "inputs": [
        {
          "internalType": "uint256",
          "name": "",
          "type": "uint256"
        }
      ],
      "name": "subscriptionIds",
      "outputs": [
        {
          "internalType": "bytes32",
          "name": "",
          "type": "bytes32"
        }
      ],
      "stateMutability": "view",
      "type": "function",
      "constant": true
    },
    {
      "inputs": [
        {
          "internalType": "bytes32",
          "name": "",
          "type": "bytes32"
        }
      ],
      "name": "subscriptions",
      "outputs": [
        {
          "internalType": "address payable",
          "name": "subscriber",
          "type": "address"
        },
        {
          "internalType": "uint256",
          "name": "amount",
          "type": "uint256"
        },
        {
          "internalType": "uint256",
          "name": "unlockTime",
          "type": "uint256"
        },
        {
          "internalType": "bool",
          "name": "cancelled",
          "type": "bool"
        },
        {
          "internalType": "bool",
          "name": "executed",
          "type": "bool"
        }
      ],
      "stateMutability": "view",
      "type": "function",
      "constant": true
    },
    {
      "inputs": [
        {
          "internalType": "uint256",
          "name": "_unlockTime",
          "type": "uint256"
        }
      ],
      "name": "queueSubscription",
      "outputs": [
        {
          "internalType": "uint256",
          "name": "",
          "type": "uint256"
        }
      ],
      "stateMutability": "payable",
      "type": "function",
      "payable": true
    },
    {
      "inputs": [
        {
          "internalType": "bytes32",
          "name": "_subscriptionId",
          "type": "bytes32"
        }
      ],
      "name": "cancelSubscription",
      "outputs": [],
      "stateMutability": "nonpayable",
      "type": "function"
    },
    {
      "inputs": [
        {
          "internalType": "bytes32",
          "name": "_subscriptionId",
          "type": "bytes32"
        },
        {
          "internalType": "address payable",
          "name": "_beneficiary",
          "type": "address"
        }
      ],
      "name": "executeSubscription",
      "outputs": [],
      "stateMutability": "nonpayable",
      "type": "function"
    },
    {
      "inputs": [
        {
          "internalType": "uint256",
          "name": "startTime",
          "type": "uint256"
        },
        {
          "internalType": "uint256",
          "name": "endTime",
          "type": "uint256"
        }
      ],
      "name": "getSubscriptionsWithinTimeFrame",
      "outputs": [
        {
          "components": [
            {
              "internalType": "address payable",
              "name": "subscriber",
              "type": "address"
            },
            {
              "internalType": "uint256",
              "name": "amount",
              "type": "uint256"
            },
            {
              "internalType": "uint256",
              "name": "unlockTime",
              "type": "uint256"
            },
            {
              "internalType": "bool",
              "name": "cancelled",
              "type": "bool"
            },
            {
              "internalType": "bool",
              "name": "executed",
              "type": "bool"
            }
          ],
          "internalType": "struct TransactionPayment.Subscription[]",
          "name": "",
          "type": "tuple[]"
        }
      ],
      "stateMutability": "view",
      "type": "function",
      "constant": true
    }
  ],
  "bytecode": "0x608060405234801561001057600080fd5b5061150e806100206000396000f3fe6080604052600436106100555760003560e01c80631f96737a1461005a57806369e1fd9a1461008a5780638cafc358146100b357806394259c6c146100f0578063a3d29f0714610131578063d21f1ffc1461016e575b600080fd5b610074600480360381019061006f9190610d05565b610197565b6040516100819190611261565b60405180910390f35b34801561009657600080fd5b506100b160048036038101906100ac9190610cc9565b61043b565b005b3480156100bf57600080fd5b506100da60048036038101906100d59190610d05565b6105fc565b6040516100e79190611166565b60405180910390f35b3480156100fc57600080fd5b5061011760048036038101906101129190610ca0565b610620565b6040516101289594939291906110f1565b60405180910390f35b34801561013d57600080fd5b5061015860048036038101906101539190610d2e565b610690565b6040516101659190611144565b60405180910390f35b34801561017a57600080fd5b5061019560048036038101906101909190610ca0565b610a0f565b005b60008034116101db576040517f08c379a00000000000000000000000000000000000000000000000000000000081526004016101d2906111c1565b60405180910390fd5b42821161021d576040517f08c379a0000000000000000000000000000000000000000000000000000000008152600401610214906111e1565b60405180910390fd5b6000620186a042336040516020016102369291906110c5565b6040516020818303038152906040528051906020012060001c61025991906113f7565b90505b600073ffffffffffffffffffffffffffffffffffffffff166000808360001b815260200190815260200160002060000160009054906101000a900473ffffffffffffffffffffffffffffffffffffffff1673ffffffffffffffffffffffffffffffffffffffff16146102ea57620186a06001826102d991906112c6565b6102e391906113f7565b905061025c565b6040518060a001604052803373ffffffffffffffffffffffffffffffffffffffff168152602001348152602001848152602001600015158152602001600015158152506000808360001b815260200190815260200160002060008201518160000160006101000a81548173ffffffffffffffffffffffffffffffffffffffff021916908373ffffffffffffffffffffffffffffffffffffffff160217905550602082015181600101556040820151816002015560608201518160030160006101000a81548160ff02191690831515021790555060808201518160030160016101000a81548160ff0219169083151502179055509050503373ffffffffffffffffffffffffffffffffffffffff168160001b7f37225c3d942c48c49e32cbb6ca1eb4f8de1522b204628e8f1ce9542da502dcbc8560405161042a9190611261565b60405180910390a380915050919050565b600080600084815260200190815260200160002090508060020154421015610498576040517f08c379a000000000000000000000000000000000000000000000000000000000815260040161048f90611221565b60405180910390fd5b8060030160009054906101000a900460ff16156104ea576040517f08c379a00000000000000000000000000000000000000000000000000000000081526004016104e1906111a1565b60405180910390fd5b8060030160019054906101000a900460ff161561053c576040517f08c379a000000000000000000000000000000000000000000000000000000000815260040161053390611201565b60405180910390fd5b60018160030160016101000a81548160ff0219169083151502179055508173ffffffffffffffffffffffffffffffffffffffff166108fc82600101549081150290604051600060405180830381858888f193505050501580156105a3573d6000803e3d6000fd5b508173ffffffffffffffffffffffffffffffffffffffff16837f1d5883832d242eae9d635d0d6a02e3f73c5fe5e0f6357b9c63fea7b18d9f28b983600101546040516105ef9190611261565b60405180910390a3505050565b6001818154811061060c57600080fd5b906000526020600020016000915090505481565b60006020528060005260406000206000915090508060000160009054906101000a900473ffffffffffffffffffffffffffffffffffffffff16908060010154908060020154908060030160009054906101000a900460ff16908060030160019054906101000a900460ff16905085565b60606000805b6001805490508110156107e8576000806000600184815481106106e2577f4e487b7100000000000000000000000000000000000000000000000000000000600052603260045260246000fd5b906000526020600020015481526020019081526020016000206040518060a00160405290816000820160009054906101000a900473ffffffffffffffffffffffffffffffffffffffff1673ffffffffffffffffffffffffffffffffffffffff1673ffffffffffffffffffffffffffffffffffffffff16815260200160018201548152602001600282015481526020016003820160009054906101000a900460ff161515151581526020016003820160019054906101000a900460ff1615151515815250509050858160400151101580156107c0575084816040015111155b156107d45782806107d090611380565b9350505b5080806107e090611380565b915050610696565b5060008167ffffffffffffffff81111561082b577f4e487b7100000000000000000000000000000000000000000000000000000000600052604160045260246000fd5b60405190808252806020026020018201604052801561086457816020015b610851610c18565b8152602001906001900390816108495790505b5090506000805b600180549050811015610a02576000806000600184815481106108b7577f4e487b7100000000000000000000000000000000000000000000000000000000600052603260045260246000fd5b906000526020600020015481526020019081526020016000206040518060a00160405290816000820160009054906101000a900473ffffffffffffffffffffffffffffffffffffffff1673ffffffffffffffffffffffffffffffffffffffff1673ffffffffffffffffffffffffffffffffffffffff16815260200160018201548152602001600282015481526020016003820160009054906101000a900460ff161515151581526020016003820160019054906101000a900460ff161515151581525050905087816040015110158015610995575086816040015111155b156109ee57808484815181106109d4577f4e487b7100000000000000000000000000000000000000000000000000000000600052603260045260246000fd5b602002602001018190525082806109ea90611380565b9350505b5080806109fa90611380565b91505061086b565b5081935050505092915050565b600080600083815260200190815260200160002090508060000160009054906101000a900473ffffffffffffffffffffffffffffffffffffffff1673ffffffffffffffffffffffffffffffffffffffff163373ffffffffffffffffffffffffffffffffffffffff1614610ab7576040517f08c379a0000000000000000000000000000000000000000000000000000000008152600401610aae90611241565b60405180910390fd5b8060030160009054906101000a900460ff1615610b09576040517f08c379a0000000000000000000000000000000000000000000000000000000008152600401610b0090611181565b60405180910390fd5b8060030160019054906101000a900460ff1615610b5b576040517f08c379a0000000000000000000000000000000000000000000000000000000008152600401610b5290611201565b60405180910390fd5b60018160030160006101000a81548160ff0219169083151502179055508060000160009054906101000a900473ffffffffffffffffffffffffffffffffffffffff1673ffffffffffffffffffffffffffffffffffffffff166108fc82600101549081150290604051600060405180830381858888f19350505050158015610be6573d6000803e3d6000fd5b50817fcef6ecfd66d42c68c27def452dfeb1195cab6999685acd9ae7c30b11b51c587a60405160405180910390a25050565b6040518060a00160405280600073ffffffffffffffffffffffffffffffffffffffff16815260200160008152602001600081526020016000151581526020016000151581525090565b600081359050610c7081611493565b92915050565b600081359050610c85816114aa565b92915050565b600081359050610c9a816114c1565b92915050565b600060208284031215610cb257600080fd5b6000610cc084828501610c76565b91505092915050565b60008060408385031215610cdc57600080fd5b6000610cea85828601610c76565b9250506020610cfb85828601610c61565b9150509250929050565b600060208284031215610d1757600080fd5b6000610d2584828501610c8b565b91505092915050565b60008060408385031215610d4157600080fd5b6000610d4f85828601610c8b565b9250506020610d6085828601610c8b565b9150509250929050565b6000610d768383611028565b60a08301905092915050565b610d8b8161132e565b82525050565b610d9a8161132e565b82525050565b610db1610dac8261131c565b6113c9565b82525050565b6000610dc28261128c565b610dcc81856112a4565b9350610dd78361127c565b8060005b83811015610e08578151610def8882610d6a565b9750610dfa83611297565b925050600181019050610ddb565b5085935050505092915050565b610e1e81611340565b82525050565b610e2d81611340565b82525050565b610e3c8161134c565b82525050565b6000610e4f601e836112b5565b91507f537562736372697074696f6e20616c72656164792063616e63656c6c656400006000830152602082019050919050565b6000610e8f601f836112b5565b91507f537562736372697074696f6e20686173206265656e2063616e63656c6c6564006000830152602082019050919050565b6000610ecf601c836112b5565b91507f4e6f204554482073656e7420666f7220737562736372697074696f6e000000006000830152602082019050919050565b6000610f0f6021836112b5565b91507f556e6c6f636b2074696d65206d75737420626520696e2074686520667574757260008301527f65000000000000000000000000000000000000000000000000000000000000006020830152604082019050919050565b6000610f75601d836112b5565b91507f537562736372697074696f6e20616c72656164792065786563757465640000006000830152602082019050919050565b6000610fb56017836112b5565b91507f556e6c6f636b2074696d65206e6f7420726561636865640000000000000000006000830152602082019050919050565b6000610ff5601e836112b5565b91507f4f6e6c792074686520737562736372696265722063616e2063616e63656c00006000830152602082019050919050565b60a08201600082015161103e6000850182610d82565b5060208201516110516020850182611090565b5060408201516110646040850182611090565b5060608201516110776060850182610e15565b50608082015161108a6080850182610e15565b50505050565b61109981611376565b82525050565b6110a881611376565b82525050565b6110bf6110ba82611376565b6113ed565b82525050565b60006110d182856110ae565b6020820191506110e18284610da0565b6014820191508190509392505050565b600060a0820190506111066000830188610d91565b611113602083018761109f565b611120604083018661109f565b61112d6060830185610e24565b61113a6080830184610e24565b9695505050505050565b6000602082019050818103600083015261115e8184610db7565b905092915050565b600060208201905061117b6000830184610e33565b92915050565b6000602082019050818103600083015261119a81610e42565b9050919050565b600060208201905081810360008301526111ba81610e82565b9050919050565b600060208201905081810360008301526111da81610ec2565b9050919050565b600060208201905081810360008301526111fa81610f02565b9050919050565b6000602082019050818103600083015261121a81610f68565b9050919050565b6000602082019050818103600083015261123a81610fa8565b9050919050565b6000602082019050818103600083015261125a81610fe8565b9050919050565b6000602082019050611276600083018461109f565b92915050565b6000819050602082019050919050565b600081519050919050565b6000602082019050919050565b600082825260208201905092915050565b600082825260208201905092915050565b60006112d182611376565b91506112dc83611376565b9250827fffffffffffffffffffffffffffffffffffffffffffffffffffffffffffffffff0382111561131157611310611428565b5b828201905092915050565b600061132782611356565b9050919050565b600061133982611356565b9050919050565b60008115159050919050565b6000819050919050565b600073ffffffffffffffffffffffffffffffffffffffff82169050919050565b6000819050919050565b600061138b82611376565b91507fffffffffffffffffffffffffffffffffffffffffffffffffffffffffffffffff8214156113be576113bd611428565b5b600182019050919050565b60006113d4826113db565b9050919050565b60006113e682611486565b9050919050565b6000819050919050565b600061140282611376565b915061140d83611376565b92508261141d5761141c611457565b5b828206905092915050565b7f4e487b7100000000000000000000000000000000000000000000000000000000600052601160045260246000fd5b7f4e487b7100000000000000000000000000000000000000000000000000000000600052601260045260246000fd5b60008160601b9050919050565b61149c8161132e565b81146114a757600080fd5b50565b6114b38161134c565b81146114be57600080fd5b50565b6114ca81611376565b81146114d557600080fd5b5056fea2646970667358221220a815e7c184c4606c6445d14bdc8163e7920fe8b571c235717e80ee72ce34620464736f6c63430008000033",
  "immutableReferences": {},
  "source": "// SPDX-License-Identifier: MIT\r\npragma solidity ^0.8.0;\r\n\r\ncontract TransactionPayment {\r\n    struct Subscription {\r\n        address payable subscriber;\r\n        uint amount;\r\n        uint unlockTime;\r\n        bool cancelled;\r\n        bool executed;\r\n    }\r\n\r\n    mapping(bytes32 => Subscription) public subscriptions;\r\n    bytes32[] public subscriptionIds;\r\n\r\n    // Events\r\n    event SubscriptionQueued(bytes32 indexed subscriptionId, address indexed subscriber, uint256 unlockTime);\r\n    event SubscriptionCancelled(bytes32 indexed subscriptionId);\r\n    event SubscriptionExecuted(bytes32 indexed subscriptionId, address indexed beneficiary, uint amount);\r\n\r\n    // Queue a subscription payment\r\nfunction queueSubscription(uint _unlockTime) external payable returns (uint) {\r\n    require(msg.value > 0, \"No ETH sent for subscription\");\r\n    require(_unlockTime > block.timestamp, \"Unlock time must be in the future\");\r\n\r\n    // Generate a 5-digit random subscription ID\r\n    uint subscriptionId = uint(keccak256(abi.encodePacked(block.timestamp, msg.sender))) % 100000;\r\n\r\n    // Ensure the subscription ID is unique\r\n    while (subscriptions[bytes32(subscriptionId)].subscriber != address(0)) {\r\n        subscriptionId = (subscriptionId + 1) % 100000;\r\n    }\r\n\r\n    // Create the subscription record\r\n    subscriptions[bytes32(subscriptionId)] = Subscription({\r\n        subscriber: payable(msg.sender),\r\n        amount: msg.value,\r\n        unlockTime: _unlockTime,\r\n        cancelled: false,\r\n        executed: false\r\n    });\r\n\r\n    // Emit the SubscriptionQueued event\r\n    emit SubscriptionQueued(bytes32(subscriptionId), msg.sender, _unlockTime);\r\n\r\n    return subscriptionId;\r\n}\r\n\r\n      // Cancel the subscription and refund the money to the subscriber\r\n    function cancelSubscription(bytes32 _subscriptionId) external {\r\n        Subscription storage sub = subscriptions[_subscriptionId];\r\n        require(msg.sender == sub.subscriber, \"Only the subscriber can cancel\");\r\n        require(!sub.cancelled, \"Subscription already cancelled\");\r\n        require(!sub.executed, \"Subscription already executed\");\r\n\r\n        // Mark the subscription as cancelled\r\n        sub.cancelled = true;\r\n        \r\n        // Refund the money to the subscriber\r\n        sub.subscriber.transfer(sub.amount);\r\n        // Emit the SubscriptionCancelled event\r\n        emit SubscriptionCancelled(_subscriptionId);\r\n    }\r\n\r\n\r\n    // Execute the subscription payment when the unlock time has passed\r\n    function executeSubscription(bytes32 _subscriptionId, address payable _beneficiary) external {\r\n        Subscription storage sub = subscriptions[_subscriptionId];\r\n        require(block.timestamp >= sub.unlockTime, \"Unlock time not reached\");\r\n        require(!sub.cancelled, \"Subscription has been cancelled\");\r\n        require(!sub.executed, \"Subscription already executed\");\r\n\r\n        // Mark the subscription as executed\r\n        sub.executed = true;\r\n\r\n        // Transfer the locked funds to the beneficiary (e.g., movie platform)\r\n        _beneficiary.transfer(sub.amount);\r\n\r\n        emit SubscriptionExecuted(_subscriptionId, _beneficiary, sub.amount);\r\n    }\r\n\r\n  // Function to get all subscriptions within a specific time frame\r\n    function getSubscriptionsWithinTimeFrame(uint startTime, uint endTime) external view returns (Subscription[] memory) {\r\n        uint count = 0;\r\n\r\n        // First, count the number of subscriptions within the time frame\r\n        for (uint i = 0; i < subscriptionIds.length; i++) {\r\n            Subscription memory sub = subscriptions[subscriptionIds[i]];\r\n            if (sub.unlockTime >= startTime && sub.unlockTime <= endTime) {\r\n                count++;\r\n            }\r\n        }\r\n\r\n        // Create an array to hold the subscriptions within the time frame\r\n        Subscription[] memory result = new Subscription[](count);\r\n        uint index = 0;\r\n\r\n        // Populate the result array with the subscriptions within the time frame\r\n        for (uint i = 0; i < subscriptionIds.length; i++) {\r\n            Subscription memory sub = subscriptions[subscriptionIds[i]];\r\n            if (sub.unlockTime >= startTime && sub.unlockTime <= endTime) {\r\n                result[index] = sub;\r\n                index++;\r\n            }\r\n        }\r\n\r\n        return result;\r\n    }\r\n}",
  "sourcePath": "C:\\Users\\User\\Desktop\\movie3\\smart_contract\\contracts\\TransactionPayment.sol",
  "compiler": {
    "name": "solc",
    "version": "0.8.0+commit.c7dfd78e.Emscripten.clang"
  },
  "schemaVersion": "3.4.16",
  "updatedAt": "2024-09-24T12:40:51.810Z",
  "networkType": "ethereum",
  "devdoc": {
    "kind": "dev",
    "methods": {},
    "version": 1
  },
  "userdoc": {
    "kind": "user",
    "methods": {},
    "version": 1
  }
}