{
  "contractName": "TransactionPayment",
  "abi": [
    {
      "anonymous": false,
      "inputs": [
        {
          "indexed": true,
          "internalType": "bytes32",
          "name": "subscriptionId",
          "type": "bytes32"
        }
      ],
      "name": "SubscriptionCancelled",
      "type": "event"
    },
    {
      "anonymous": false,
      "inputs": [
        {
          "indexed": true,
          "internalType": "bytes32",
          "name": "subscriptionId",
          "type": "bytes32"
        },
        {
          "indexed": true,
          "internalType": "address",
          "name": "beneficiary",
          "type": "address"
        },
        {
          "indexed": false,
          "internalType": "uint256",
          "name": "amount",
          "type": "uint256"
        }
      ],
      "name": "SubscriptionExecuted",
      "type": "event"
    },
    {
      "anonymous": false,
      "inputs": [
        {
          "indexed": true,
          "internalType": "bytes32",
          "name": "subscriptionId",
          "type": "bytes32"
        },
        {
          "indexed": true,
          "internalType": "address",
          "name": "subscriber",
          "type": "address"
        },
        {
          "indexed": false,
          "internalType": "uint256",
          "name": "unlockTime",
          "type": "uint256"
        }
      ],
      "name": "SubscriptionQueued",
      "type": "event"
    },
    {
      "inputs": [
        {
          "internalType": "bytes32",
          "name": "",
          "type": "bytes32"
        }
      ],
      "name": "subscriptions",
      "outputs": [
        {
          "internalType": "address payable",
          "name": "subscriber",
          "type": "address"
        },
        {
          "internalType": "uint256",
          "name": "amount",
          "type": "uint256"
        },
        {
          "internalType": "uint256",
          "name": "unlockTime",
          "type": "uint256"
        },
        {
          "internalType": "bool",
          "name": "cancelled",
          "type": "bool"
        },
        {
          "internalType": "bool",
          "name": "executed",
          "type": "bool"
        }
      ],
      "stateMutability": "view",
      "type": "function",
      "constant": true
    },
    {
      "inputs": [
        {
          "internalType": "uint256",
          "name": "_unlockTime",
          "type": "uint256"
        }
      ],
      "name": "queueSubscription",
      "outputs": [
        {
          "internalType": "uint256",
          "name": "",
          "type": "uint256"
        }
      ],
      "stateMutability": "payable",
      "type": "function",
      "payable": true
    },
    {
      "inputs": [
        {
          "internalType": "bytes32",
          "name": "_subscriptionId",
          "type": "bytes32"
        }
      ],
      "name": "cancelSubscription",
      "outputs": [],
      "stateMutability": "nonpayable",
      "type": "function"
    },
    {
      "inputs": [
        {
          "internalType": "bytes32",
          "name": "_subscriptionId",
          "type": "bytes32"
        },
        {
          "internalType": "address payable",
          "name": "_beneficiary",
          "type": "address"
        }
      ],
      "name": "executeSubscription",
      "outputs": [],
      "stateMutability": "nonpayable",
      "type": "function"
    },
    {
      "inputs": [
        {
          "internalType": "bytes32",
          "name": "_subscriptionId",
          "type": "bytes32"
        }
      ],
      "name": "getSubscriptionStatus",
      "outputs": [
        {
          "internalType": "string",
          "name": "",
          "type": "string"
        }
      ],
      "stateMutability": "view",
      "type": "function",
      "constant": true
    }
  ],
  "bytecode": "0x608060405234801561001057600080fd5b50611101806100206000396000f3fe60806040526004361061004a5760003560e01c806316d121901461004f5780631f96737a1461008c57806369e1fd9a146100bc57806394259c6c146100e5578063d21f1ffc14610126575b600080fd5b34801561005b57600080fd5b50610076600480360381019061007191906109fe565b61014f565b6040516100839190610d85565b60405180910390f35b6100a660048036038101906100a19190610a63565b6102e1565b6040516100b39190610e87565b60405180910390f35b3480156100c857600080fd5b506100e360048036038101906100de9190610a27565b610585565b005b3480156100f157600080fd5b5061010c600480360381019061010791906109fe565b610746565b60405161011d959493929190610d32565b60405180910390f35b34801561013257600080fd5b5061014d600480360381019061014891906109fe565b6107b6565b005b606060008060008481526020019081526020016000206040518060a00160405290816000820160009054906101000a900473ffffffffffffffffffffffffffffffffffffffff1673ffffffffffffffffffffffffffffffffffffffff1673ffffffffffffffffffffffffffffffffffffffff16815260200160018201548152602001600282015481526020016003820160009054906101000a900460ff161515151581526020016003820160019054906101000a900460ff161515151581525050905080606001511561025a576040518060400160405280600981526020017f43616e63656c6c656400000000000000000000000000000000000000000000008152509150506102dc565b8060800151156102a2576040518060400160405280600881526020017f45786563757465640000000000000000000000000000000000000000000000008152509150506102dc565b6040518060400160405280600681526020017f51756575656400000000000000000000000000000000000000000000000000008152509150505b919050565b6000803411610325576040517f08c379a000000000000000000000000000000000000000000000000000000000815260040161031c90610de7565b60405180910390fd5b428211610367576040517f08c379a000000000000000000000000000000000000000000000000000000000815260040161035e90610e07565b60405180910390fd5b6000620186a04233604051602001610380929190610d06565b6040516020818303038152906040528051906020012060001c6103a39190610fd9565b90505b600073ffffffffffffffffffffffffffffffffffffffff166000808360001b815260200190815260200160002060000160009054906101000a900473ffffffffffffffffffffffffffffffffffffffff1673ffffffffffffffffffffffffffffffffffffffff161461043457620186a06001826104239190610ebe565b61042d9190610fd9565b90506103a6565b6040518060a001604052803373ffffffffffffffffffffffffffffffffffffffff168152602001348152602001848152602001600015158152602001600015158152506000808360001b815260200190815260200160002060008201518160000160006101000a81548173ffffffffffffffffffffffffffffffffffffffff021916908373ffffffffffffffffffffffffffffffffffffffff160217905550602082015181600101556040820151816002015560608201518160030160006101000a81548160ff02191690831515021790555060808201518160030160016101000a81548160ff0219169083151502179055509050503373ffffffffffffffffffffffffffffffffffffffff168160001b7f37225c3d942c48c49e32cbb6ca1eb4f8de1522b204628e8f1ce9542da502dcbc856040516105749190610e87565b60405180910390a380915050919050565b6000806000848152602001908152602001600020905080600201544210156105e2576040517f08c379a00000000000000000000000000000000000000000000000000000000081526004016105d990610e47565b60405180910390fd5b8060030160009054906101000a900460ff1615610634576040517f08c379a000000000000000000000000000000000000000000000000000000000815260040161062b90610dc7565b60405180910390fd5b8060030160019054906101000a900460ff1615610686576040517f08c379a000000000000000000000000000000000000000000000000000000000815260040161067d90610e27565b60405180910390fd5b60018160030160016101000a81548160ff0219169083151502179055508173ffffffffffffffffffffffffffffffffffffffff166108fc82600101549081150290604051600060405180830381858888f193505050501580156106ed573d6000803e3d6000fd5b508173ffffffffffffffffffffffffffffffffffffffff16837f1d5883832d242eae9d635d0d6a02e3f73c5fe5e0f6357b9c63fea7b18d9f28b983600101546040516107399190610e87565b60405180910390a3505050565b60006020528060005260406000206000915090508060000160009054906101000a900473ffffffffffffffffffffffffffffffffffffffff16908060010154908060020154908060030160009054906101000a900460ff16908060030160019054906101000a900460ff16905085565b600080600083815260200190815260200160002090508060000160009054906101000a900473ffffffffffffffffffffffffffffffffffffffff1673ffffffffffffffffffffffffffffffffffffffff163373ffffffffffffffffffffffffffffffffffffffff161461085e576040517f08c379a000000000000000000000000000000000000000000000000000000000815260040161085590610e67565b60405180910390fd5b8060030160009054906101000a900460ff16156108b0576040517f08c379a00000000000000000000000000000000000000000000000000000000081526004016108a790610da7565b60405180910390fd5b8060030160019054906101000a900460ff1615610902576040517f08c379a00000000000000000000000000000000000000000000000000000000081526004016108f990610e27565b60405180910390fd5b60018160030160006101000a81548160ff0219169083151502179055508060000160009054906101000a900473ffffffffffffffffffffffffffffffffffffffff1673ffffffffffffffffffffffffffffffffffffffff166108fc82600101549081150290604051600060405180830381858888f1935050505015801561098d573d6000803e3d6000fd5b50817fcef6ecfd66d42c68c27def452dfeb1195cab6999685acd9ae7c30b11b51c587a60405160405180910390a25050565b6000813590506109ce81611086565b92915050565b6000813590506109e38161109d565b92915050565b6000813590506109f8816110b4565b92915050565b600060208284031215610a1057600080fd5b6000610a1e848285016109d4565b91505092915050565b60008060408385031215610a3a57600080fd5b6000610a48858286016109d4565b9250506020610a59858286016109bf565b9150509250929050565b600060208284031215610a7557600080fd5b6000610a83848285016109e9565b91505092915050565b610a9581610f26565b82525050565b610aac610aa782610f14565b610fab565b82525050565b610abb81610f38565b82525050565b6000610acc82610ea2565b610ad68185610ead565b9350610ae6818560208601610f78565b610aef81611068565b840191505092915050565b6000610b07601e83610ead565b91507f537562736372697074696f6e20616c72656164792063616e63656c6c656400006000830152602082019050919050565b6000610b47601f83610ead565b91507f537562736372697074696f6e20686173206265656e2063616e63656c6c6564006000830152602082019050919050565b6000610b87601c83610ead565b91507f4e6f204554482073656e7420666f7220737562736372697074696f6e000000006000830152602082019050919050565b6000610bc7602183610ead565b91507f556e6c6f636b2074696d65206d75737420626520696e2074686520667574757260008301527f65000000000000000000000000000000000000000000000000000000000000006020830152604082019050919050565b6000610c2d601d83610ead565b91507f537562736372697074696f6e20616c72656164792065786563757465640000006000830152602082019050919050565b6000610c6d601783610ead565b91507f556e6c6f636b2074696d65206e6f7420726561636865640000000000000000006000830152602082019050919050565b6000610cad601e83610ead565b91507f4f6e6c792074686520737562736372696265722063616e2063616e63656c00006000830152602082019050919050565b610ce981610f6e565b82525050565b610d00610cfb82610f6e565b610fcf565b82525050565b6000610d128285610cef565b602082019150610d228284610a9b565b6014820191508190509392505050565b600060a082019050610d476000830188610a8c565b610d546020830187610ce0565b610d616040830186610ce0565b610d6e6060830185610ab2565b610d7b6080830184610ab2565b9695505050505050565b60006020820190508181036000830152610d9f8184610ac1565b905092915050565b60006020820190508181036000830152610dc081610afa565b9050919050565b60006020820190508181036000830152610de081610b3a565b9050919050565b60006020820190508181036000830152610e0081610b7a565b9050919050565b60006020820190508181036000830152610e2081610bba565b9050919050565b60006020820190508181036000830152610e4081610c20565b9050919050565b60006020820190508181036000830152610e6081610c60565b9050919050565b60006020820190508181036000830152610e8081610ca0565b9050919050565b6000602082019050610e9c6000830184610ce0565b92915050565b600081519050919050565b600082825260208201905092915050565b6000610ec982610f6e565b9150610ed483610f6e565b9250827fffffffffffffffffffffffffffffffffffffffffffffffffffffffffffffffff03821115610f0957610f0861100a565b5b828201905092915050565b6000610f1f82610f4e565b9050919050565b6000610f3182610f4e565b9050919050565b60008115159050919050565b6000819050919050565b600073ffffffffffffffffffffffffffffffffffffffff82169050919050565b6000819050919050565b60005b83811015610f96578082015181840152602081019050610f7b565b83811115610fa5576000848401525b50505050565b6000610fb682610fbd565b9050919050565b6000610fc882611079565b9050919050565b6000819050919050565b6000610fe482610f6e565b9150610fef83610f6e565b925082610fff57610ffe611039565b5b828206905092915050565b7f4e487b7100000000000000000000000000000000000000000000000000000000600052601160045260246000fd5b7f4e487b7100000000000000000000000000000000000000000000000000000000600052601260045260246000fd5b6000601f19601f8301169050919050565b60008160601b9050919050565b61108f81610f26565b811461109a57600080fd5b50565b6110a681610f44565b81146110b157600080fd5b50565b6110bd81610f6e565b81146110c857600080fd5b5056fea2646970667358221220e82fa183214631013695047dcea7e533809f6fc603ef49dac1177ec9683fe71764736f6c63430008000033",
  "immutableReferences": {},
  "source": "pragma solidity ^0.8.0;\r\n\r\ncontract TransactionPayment {\r\n    struct Subscription {\r\n        address payable subscriber;\r\n        uint amount;\r\n        uint unlockTime;\r\n        bool cancelled;\r\n        bool executed;\r\n    }\r\n\r\n    mapping(bytes32 => Subscription) public subscriptions;\r\n\r\n    // Events\r\n    event SubscriptionQueued(bytes32 indexed subscriptionId, address indexed subscriber, uint256 unlockTime);\r\n    event SubscriptionCancelled(bytes32 indexed subscriptionId);\r\n    event SubscriptionExecuted(bytes32 indexed subscriptionId, address indexed beneficiary, uint amount);\r\n\r\n    // Queue a subscription payment\r\nfunction queueSubscription(uint _unlockTime) external payable returns (uint) {\r\n    require(msg.value > 0, \"No ETH sent for subscription\");\r\n    require(_unlockTime > block.timestamp, \"Unlock time must be in the future\");\r\n\r\n    // Generate a 5-digit random subscription ID\r\n    uint subscriptionId = uint(keccak256(abi.encodePacked(block.timestamp, msg.sender))) % 100000;\r\n\r\n    // Ensure the subscription ID is unique\r\n    while (subscriptions[bytes32(subscriptionId)].subscriber != address(0)) {\r\n        subscriptionId = (subscriptionId + 1) % 100000;\r\n    }\r\n\r\n    // Create the subscription record\r\n    subscriptions[bytes32(subscriptionId)] = Subscription({\r\n        subscriber: payable(msg.sender),\r\n        amount: msg.value,\r\n        unlockTime: _unlockTime,\r\n        cancelled: false,\r\n        executed: false\r\n    });\r\n\r\n    // Emit the SubscriptionQueued event\r\n    emit SubscriptionQueued(bytes32(subscriptionId), msg.sender, _unlockTime);\r\n\r\n    return subscriptionId;\r\n}\r\n\r\n      // Cancel the subscription and refund the money to the subscriber\r\n    function cancelSubscription(bytes32 _subscriptionId) external {\r\n        Subscription storage sub = subscriptions[_subscriptionId];\r\n        require(msg.sender == sub.subscriber, \"Only the subscriber can cancel\");\r\n        require(!sub.cancelled, \"Subscription already cancelled\");\r\n        require(!sub.executed, \"Subscription already executed\");\r\n\r\n        // Mark the subscription as cancelled\r\n        sub.cancelled = true;\r\n        \r\n        // Refund the money to the subscriber\r\n        sub.subscriber.transfer(sub.amount);\r\n        // Emit the SubscriptionCancelled event\r\n        emit SubscriptionCancelled(_subscriptionId);\r\n    }\r\n\r\n\r\n    // Execute the subscription payment when the unlock time has passed\r\n    function executeSubscription(bytes32 _subscriptionId, address payable _beneficiary) external {\r\n        Subscription storage sub = subscriptions[_subscriptionId];\r\n        require(block.timestamp >= sub.unlockTime, \"Unlock time not reached\");\r\n        require(!sub.cancelled, \"Subscription has been cancelled\");\r\n        require(!sub.executed, \"Subscription already executed\");\r\n\r\n        // Mark the subscription as executed\r\n        sub.executed = true;\r\n\r\n        // Transfer the locked funds to the beneficiary (e.g., movie platform)\r\n        _beneficiary.transfer(sub.amount);\r\n\r\n        emit SubscriptionExecuted(_subscriptionId, _beneficiary, sub.amount);\r\n    }\r\n\r\n    // Check the status of a subscription (queued, executed, or cancelled)\r\n    function getSubscriptionStatus(bytes32 _subscriptionId) external view returns (string memory) {\r\n        Subscription memory sub = subscriptions[_subscriptionId];\r\n        if (sub.cancelled) {\r\n            return \"Cancelled\";\r\n        } else if (sub.executed) {\r\n            return \"Executed\";\r\n        } else {\r\n            return \"Queued\";\r\n        }\r\n    }\r\n}",
  "sourcePath": "C:\\Users\\User\\Desktop\\Movie_update\\smart_contract\\contracts\\TransactionPayment.sol",
  "compiler": {
    "name": "solc",
    "version": "0.8.0+commit.c7dfd78e.Emscripten.clang"
  },
  "schemaVersion": "3.4.16",
  "updatedAt": "2024-09-22T14:35:16.464Z",
  "networkType": "ethereum",
  "devdoc": {
    "kind": "dev",
    "methods": {},
    "version": 1
  },
  "userdoc": {
    "kind": "user",
    "methods": {},
    "version": 1
  }
}