{
  "contractName": "TransactionPayment",
  "abi": [
    {
      "anonymous": false,
      "inputs": [
        {
          "indexed": true,
          "internalType": "uint256",
          "name": "subscriptionId",
          "type": "uint256"
        }
      ],
      "name": "SubscriptionCancelled",
      "type": "event"
    },
    {
      "anonymous": false,
      "inputs": [
        {
          "indexed": true,
          "internalType": "uint256",
          "name": "subscriptionId",
          "type": "uint256"
        },
        {
          "indexed": true,
          "internalType": "address",
          "name": "beneficiary",
          "type": "address"
        },
        {
          "indexed": false,
          "internalType": "uint256",
          "name": "amount",
          "type": "uint256"
        }
      ],
      "name": "SubscriptionExecuted",
      "type": "event"
    },
    {
      "anonymous": false,
      "inputs": [
        {
          "indexed": true,
          "internalType": "uint256",
          "name": "subscriptionId",
          "type": "uint256"
        },
        {
          "indexed": true,
          "internalType": "address",
          "name": "subscriber",
          "type": "address"
        },
        {
          "indexed": false,
          "internalType": "uint256",
          "name": "unlockTime",
          "type": "uint256"
        }
      ],
      "name": "SubscriptionQueued",
      "type": "event"
    },
    {
      "inputs": [
        {
          "internalType": "uint256",
          "name": "",
          "type": "uint256"
        }
      ],
      "name": "subscriptions",
      "outputs": [
        {
          "internalType": "address payable",
          "name": "subscriber",
          "type": "address"
        },
        {
          "internalType": "uint256",
          "name": "amount",
          "type": "uint256"
        },
        {
          "internalType": "uint256",
          "name": "unlockTime",
          "type": "uint256"
        },
        {
          "internalType": "bool",
          "name": "cancelled",
          "type": "bool"
        },
        {
          "internalType": "bool",
          "name": "executed",
          "type": "bool"
        }
      ],
      "stateMutability": "view",
      "type": "function",
      "constant": true
    },
    {
      "inputs": [
        {
          "internalType": "address",
          "name": "",
          "type": "address"
        }
      ],
      "name": "userToSubscriptionId",
      "outputs": [
        {
          "internalType": "uint256",
          "name": "",
          "type": "uint256"
        }
      ],
      "stateMutability": "view",
      "type": "function",
      "constant": true
    },
    {
      "inputs": [
        {
          "internalType": "uint256",
          "name": "_unlockTime",
          "type": "uint256"
        }
      ],
      "name": "queueSubscription",
      "outputs": [
        {
          "internalType": "uint256",
          "name": "",
          "type": "uint256"
        }
      ],
      "stateMutability": "payable",
      "type": "function",
      "payable": true
    },
    {
      "inputs": [
        {
          "internalType": "uint256",
          "name": "_subscriptionId",
          "type": "uint256"
        }
      ],
      "name": "cancelSubscription",
      "outputs": [],
      "stateMutability": "nonpayable",
      "type": "function"
    },
    {
      "inputs": [
        {
          "internalType": "uint256",
          "name": "_subscriptionId",
          "type": "uint256"
        },
        {
          "internalType": "address payable",
          "name": "_beneficiary",
          "type": "address"
        }
      ],
      "name": "executeSubscription",
      "outputs": [],
      "stateMutability": "nonpayable",
      "type": "function"
    },
    {
      "inputs": [
        {
          "internalType": "address",
          "name": "_user",
          "type": "address"
        }
      ],
      "name": "getSubscriptionStatus",
      "outputs": [
        {
          "internalType": "string",
          "name": "",
          "type": "string"
        }
      ],
      "stateMutability": "view",
      "type": "function",
      "constant": true
    },
    {
      "inputs": [
        {
          "internalType": "address",
          "name": "_user",
          "type": "address"
        }
      ],
      "name": "getCurrentSubscription",
      "outputs": [
        {
          "components": [
            {
              "internalType": "address payable",
              "name": "subscriber",
              "type": "address"
            },
            {
              "internalType": "uint256",
              "name": "amount",
              "type": "uint256"
            },
            {
              "internalType": "uint256",
              "name": "unlockTime",
              "type": "uint256"
            },
            {
              "internalType": "bool",
              "name": "cancelled",
              "type": "bool"
            },
            {
              "internalType": "bool",
              "name": "executed",
              "type": "bool"
            }
          ],
          "internalType": "struct TransactionPayment.Subscription",
          "name": "",
          "type": "tuple"
        }
      ],
      "stateMutability": "view",
      "type": "function",
      "constant": true
    }
  ],
  "bytecode": "0x608060405234801561001057600080fd5b50611651806100206000396000f3fe6080604052600436106100705760003560e01c80632d5bbf601161004e5780632d5bbf601461010b5780639eb9abde1461014c578063a834546b14610175578063eda28a56146101b257610070565b80631ddda9b6146100755780631f96737a146100b257806321235083146100e2575b600080fd5b34801561008157600080fd5b5061009c60048036038101906100979190610d9c565b6101ef565b6040516100a99190611284565b60405180910390f35b6100cc60048036038101906100c79190610dc5565b61040c565b6040516100d991906113e1565b60405180910390f35b3480156100ee57600080fd5b5061010960048036038101906101049190610dc5565b61076d565b005b34801561011757600080fd5b50610132600480360381019061012d9190610dc5565b610976565b604051610143959493929190611231565b60405180910390f35b34801561015857600080fd5b50610173600480360381019061016e9190610dee565b6109e6565b005b34801561018157600080fd5b5061019c60048036038101906101979190610d9c565b610ba7565b6040516101a991906113c6565b60405180910390f35b3480156101be57600080fd5b506101d960048036038101906101d49190610d9c565b610cfc565b6040516101e691906113e1565b60405180910390f35b60606000600160008473ffffffffffffffffffffffffffffffffffffffff1673ffffffffffffffffffffffffffffffffffffffff1681526020019081526020016000205490506000811415610279576040517f08c379a0000000000000000000000000000000000000000000000000000000008152600401610270906112c6565b60405180910390fd5b60008060008381526020019081526020016000206040518060a00160405290816000820160009054906101000a900473ffffffffffffffffffffffffffffffffffffffff1673ffffffffffffffffffffffffffffffffffffffff1673ffffffffffffffffffffffffffffffffffffffff16815260200160018201548152602001600282015481526020016003820160009054906101000a900460ff161515151581526020016003820160019054906101000a900460ff1615151515815250509050806060015115610383576040518060400160405280600981526020017f43616e63656c6c6564000000000000000000000000000000000000000000000081525092505050610407565b8060800151156103cc576040518060400160405280600881526020017f457865637574656400000000000000000000000000000000000000000000000081525092505050610407565b6040518060400160405280600681526020017f5175657565640000000000000000000000000000000000000000000000000000815250925050505b919050565b6000803411610450576040517f08c379a000000000000000000000000000000000000000000000000000000000815260040161044790611326565b60405180910390fd5b428211610492576040517f08c379a000000000000000000000000000000000000000000000000000000000815260040161048990611346565b60405180910390fd5b6000620186a042336040516020016104ab929190611205565b6040516020818303038152906040528051906020012060001c6104ce9190611529565b90505b600073ffffffffffffffffffffffffffffffffffffffff1660008083815260200190815260200160002060000160009054906101000a900473ffffffffffffffffffffffffffffffffffffffff1673ffffffffffffffffffffffffffffffffffffffff161461055c57620186a060018261054b9190611418565b6105559190611529565b90506104d1565b6000600160003373ffffffffffffffffffffffffffffffffffffffff1673ffffffffffffffffffffffffffffffffffffffff16815260200190815260200160002054146105de576040517f08c379a00000000000000000000000000000000000000000000000000000000081526004016105d5906112e6565b60405180910390fd5b6040518060a001604052803373ffffffffffffffffffffffffffffffffffffffff1681526020013481526020018481526020016000151581526020016000151581525060008083815260200190815260200160002060008201518160000160006101000a81548173ffffffffffffffffffffffffffffffffffffffff021916908373ffffffffffffffffffffffffffffffffffffffff160217905550602082015181600101556040820151816002015560608201518160030160006101000a81548160ff02191690831515021790555060808201518160030160016101000a81548160ff02191690831515021790555090505080600160003373ffffffffffffffffffffffffffffffffffffffff1673ffffffffffffffffffffffffffffffffffffffff168152602001908152602001600020819055503373ffffffffffffffffffffffffffffffffffffffff16817fab22804c77735435a0d488eb942ab5a252062b49add136465a84792dd776140e8560405161075c91906113e1565b60405180910390a380915050919050565b600080600083815260200190815260200160002090508060000160009054906101000a900473ffffffffffffffffffffffffffffffffffffffff1673ffffffffffffffffffffffffffffffffffffffff163373ffffffffffffffffffffffffffffffffffffffff1614610815576040517f08c379a000000000000000000000000000000000000000000000000000000000815260040161080c906113a6565b60405180910390fd5b8060030160009054906101000a900460ff1615610867576040517f08c379a000000000000000000000000000000000000000000000000000000000815260040161085e906112a6565b60405180910390fd5b8060030160019054906101000a900460ff16156108b9576040517f08c379a00000000000000000000000000000000000000000000000000000000081526004016108b090611366565b60405180910390fd5b60018160030160006101000a81548160ff0219169083151502179055508060000160009054906101000a900473ffffffffffffffffffffffffffffffffffffffff1673ffffffffffffffffffffffffffffffffffffffff166108fc82600101549081150290604051600060405180830381858888f19350505050158015610944573d6000803e3d6000fd5b50817fbd2bcea75d16a85f005cd83447e0de57341bf926fe7419e6d553663e91ab4da760405160405180910390a25050565b60006020528060005260406000206000915090508060000160009054906101000a900473ffffffffffffffffffffffffffffffffffffffff16908060010154908060020154908060030160009054906101000a900460ff16908060030160019054906101000a900460ff16905085565b600080600084815260200190815260200160002090508060020154421015610a43576040517f08c379a0000000000000000000000000000000000000000000000000000000008152600401610a3a90611386565b60405180910390fd5b8060030160009054906101000a900460ff1615610a95576040517f08c379a0000000000000000000000000000000000000000000000000000000008152600401610a8c90611306565b60405180910390fd5b8060030160019054906101000a900460ff1615610ae7576040517f08c379a0000000000000000000000000000000000000000000000000000000008152600401610ade90611366565b60405180910390fd5b60018160030160016101000a81548160ff0219169083151502179055508173ffffffffffffffffffffffffffffffffffffffff166108fc82600101549081150290604051600060405180830381858888f19350505050158015610b4e573d6000803e3d6000fd5b508173ffffffffffffffffffffffffffffffffffffffff16837f11cdb8e954ebaece137d0ab76d4c8416f0834b1cd9b520ef2d1b5b0de72256f78360010154604051610b9a91906113e1565b60405180910390a3505050565b610baf610d14565b6000600160008473ffffffffffffffffffffffffffffffffffffffff1673ffffffffffffffffffffffffffffffffffffffff1681526020019081526020016000205490506000811415610c37576040517f08c379a0000000000000000000000000000000000000000000000000000000008152600401610c2e906112c6565b60405180910390fd5b6000808281526020019081526020016000206040518060a00160405290816000820160009054906101000a900473ffffffffffffffffffffffffffffffffffffffff1673ffffffffffffffffffffffffffffffffffffffff1673ffffffffffffffffffffffffffffffffffffffff16815260200160018201548152602001600282015481526020016003820160009054906101000a900460ff161515151581526020016003820160019054906101000a900460ff161515151581525050915050919050565b60016020528060005260406000206000915090505481565b6040518060a00160405280600073ffffffffffffffffffffffffffffffffffffffff16815260200160008152602001600081526020016000151581526020016000151581525090565b600081359050610d6c816115d6565b92915050565b600081359050610d81816115ed565b92915050565b600081359050610d9681611604565b92915050565b600060208284031215610dae57600080fd5b6000610dbc84828501610d5d565b91505092915050565b600060208284031215610dd757600080fd5b6000610de584828501610d87565b91505092915050565b60008060408385031215610e0157600080fd5b6000610e0f85828601610d87565b9250506020610e2085828601610d72565b9150509250929050565b610e3381611480565b82525050565b610e4281611480565b82525050565b610e59610e548261146e565b6114fb565b82525050565b610e6881611492565b82525050565b610e7781611492565b82525050565b6000610e88826113fc565b610e928185611407565b9350610ea28185602086016114c8565b610eab816115b8565b840191505092915050565b6000610ec3601e83611407565b91507f537562736372697074696f6e20616c72656164792063616e63656c6c656400006000830152602082019050919050565b6000610f03602483611407565b91507f4e6f2061637469766520737562736372697074696f6e20666f7220746869732060008301527f75736572000000000000000000000000000000000000000000000000000000006020830152604082019050919050565b6000610f69602b83611407565b91507f41637469766520737562736372697074696f6e20616c7265616479206578697360008301527f747320666f7220757365720000000000000000000000000000000000000000006020830152604082019050919050565b6000610fcf601f83611407565b91507f537562736372697074696f6e20686173206265656e2063616e63656c6c6564006000830152602082019050919050565b600061100f601c83611407565b91507f4e6f204554482073656e7420666f7220737562736372697074696f6e000000006000830152602082019050919050565b600061104f602183611407565b91507f556e6c6f636b2074696d65206d75737420626520696e2074686520667574757260008301527f65000000000000000000000000000000000000000000000000000000000000006020830152604082019050919050565b60006110b5601d83611407565b91507f537562736372697074696f6e20616c72656164792065786563757465640000006000830152602082019050919050565b60006110f5601783611407565b91507f556e6c6f636b2074696d65206e6f7420726561636865640000000000000000006000830152602082019050919050565b6000611135601e83611407565b91507f4f6e6c792074686520737562736372696265722063616e2063616e63656c00006000830152602082019050919050565b60a08201600082015161117e6000850182610e2a565b50602082015161119160208501826111d0565b5060408201516111a460408501826111d0565b5060608201516111b76060850182610e5f565b5060808201516111ca6080850182610e5f565b50505050565b6111d9816114be565b82525050565b6111e8816114be565b82525050565b6111ff6111fa826114be565b61151f565b82525050565b600061121182856111ee565b6020820191506112218284610e48565b6014820191508190509392505050565b600060a0820190506112466000830188610e39565b61125360208301876111df565b61126060408301866111df565b61126d6060830185610e6e565b61127a6080830184610e6e565b9695505050505050565b6000602082019050818103600083015261129e8184610e7d565b905092915050565b600060208201905081810360008301526112bf81610eb6565b9050919050565b600060208201905081810360008301526112df81610ef6565b9050919050565b600060208201905081810360008301526112ff81610f5c565b9050919050565b6000602082019050818103600083015261131f81610fc2565b9050919050565b6000602082019050818103600083015261133f81611002565b9050919050565b6000602082019050818103600083015261135f81611042565b9050919050565b6000602082019050818103600083015261137f816110a8565b9050919050565b6000602082019050818103600083015261139f816110e8565b9050919050565b600060208201905081810360008301526113bf81611128565b9050919050565b600060a0820190506113db6000830184611168565b92915050565b60006020820190506113f660008301846111df565b92915050565b600081519050919050565b600082825260208201905092915050565b6000611423826114be565b915061142e836114be565b9250827fffffffffffffffffffffffffffffffffffffffffffffffffffffffffffffffff038211156114635761146261155a565b5b828201905092915050565b60006114798261149e565b9050919050565b600061148b8261149e565b9050919050565b60008115159050919050565b600073ffffffffffffffffffffffffffffffffffffffff82169050919050565b6000819050919050565b60005b838110156114e65780820151818401526020810190506114cb565b838111156114f5576000848401525b50505050565b60006115068261150d565b9050919050565b6000611518826115c9565b9050919050565b6000819050919050565b6000611534826114be565b915061153f836114be565b92508261154f5761154e611589565b5b828206905092915050565b7f4e487b7100000000000000000000000000000000000000000000000000000000600052601160045260246000fd5b7f4e487b7100000000000000000000000000000000000000000000000000000000600052601260045260246000fd5b6000601f19601f8301169050919050565b60008160601b9050919050565b6115df8161146e565b81146115ea57600080fd5b50565b6115f681611480565b811461160157600080fd5b50565b61160d816114be565b811461161857600080fd5b5056fea2646970667358221220a5b40ae62b17fc96725480f387c88fb0f4708ac9ad9e48db3848f14ac125867764736f6c63430008000033",
  "immutableReferences": {},
  "source": "pragma solidity ^0.8.0;\r\n\r\ncontract TransactionPayment {\r\n    struct Subscription {\r\n        address payable subscriber;\r\n        uint amount;\r\n        uint unlockTime;\r\n        bool cancelled;\r\n        bool executed;\r\n    }\r\n    \r\n    mapping(uint => Subscription) public subscriptions;\r\n    mapping(address => uint) public userToSubscriptionId; // Tracks a single active subscription per user\r\n\r\n    // Events\r\n    event SubscriptionQueued(uint indexed subscriptionId, address indexed subscriber, uint256 unlockTime);\r\n    event SubscriptionCancelled(uint indexed subscriptionId);\r\n    event SubscriptionExecuted(uint indexed subscriptionId, address indexed beneficiary, uint amount);\r\n\r\n    // Queue a subscription payment\r\n    function queueSubscription(uint _unlockTime) external payable returns (uint) {\r\n        require(msg.value > 0, \"No ETH sent for subscription\");\r\n        require(_unlockTime > block.timestamp, \"Unlock time must be in the future\");\r\n\r\n        // Generate a 5-digit random subscription ID\r\n        uint subscriptionId = uint(keccak256(abi.encodePacked(block.timestamp, msg.sender))) % 100000;\r\n\r\n        // Ensure the subscription ID is unique\r\n        while (subscriptions[subscriptionId].subscriber != address(0)) {\r\n            subscriptionId = (subscriptionId + 1) % 100000;\r\n        }\r\n\r\n        // Ensure the user doesn't have another active subscription\r\n        require(userToSubscriptionId[msg.sender] == 0, \"Active subscription already exists for user\");\r\n\r\n        // Create the subscription record\r\n        subscriptions[subscriptionId] = Subscription({\r\n            subscriber: payable(msg.sender),\r\n            amount: msg.value,\r\n            unlockTime: _unlockTime,\r\n            cancelled: false,\r\n            executed: false\r\n        });\r\n\r\n        // Link the subscription ID to the user's address\r\n        userToSubscriptionId[msg.sender] = subscriptionId;\r\n\r\n        // Emit the SubscriptionQueued event\r\n        emit SubscriptionQueued(subscriptionId, msg.sender, _unlockTime);\r\n\r\n        return subscriptionId;\r\n    }\r\n\r\n    // Cancel the subscription and refund the money to the subscriber\r\n    function cancelSubscription(uint _subscriptionId) external {\r\n        Subscription storage sub = subscriptions[_subscriptionId];\r\n        require(msg.sender == sub.subscriber, \"Only the subscriber can cancel\");\r\n        require(!sub.cancelled, \"Subscription already cancelled\");\r\n        require(!sub.executed, \"Subscription already executed\");\r\n\r\n        // Mark the subscription as cancelled\r\n        sub.cancelled = true;\r\n\r\n        // Refund the money to the subscriber\r\n        sub.subscriber.transfer(sub.amount);\r\n        emit SubscriptionCancelled(_subscriptionId);\r\n    }\r\n\r\n    // Execute the subscription payment when the unlock time has passed\r\n    function executeSubscription(uint _subscriptionId, address payable _beneficiary) external {\r\n        Subscription storage sub = subscriptions[_subscriptionId];\r\n        require(block.timestamp >= sub.unlockTime, \"Unlock time not reached\");\r\n        require(!sub.cancelled, \"Subscription has been cancelled\");\r\n        require(!sub.executed, \"Subscription already executed\");\r\n\r\n        // Mark the subscription as executed\r\n        sub.executed = true;\r\n\r\n        // Transfer the locked funds to the beneficiary (e.g., movie platform)\r\n        _beneficiary.transfer(sub.amount);\r\n\r\n        emit SubscriptionExecuted(_subscriptionId, _beneficiary, sub.amount);\r\n    }\r\n\r\n    // Check the status of the user's active subscription\r\n    function getSubscriptionStatus(address _user) external view returns (string memory) {\r\n        uint subscriptionId = userToSubscriptionId[_user];\r\n        require(subscriptionId != 0, \"No active subscription for this user\");\r\n\r\n        Subscription memory sub = subscriptions[subscriptionId];\r\n        if (sub.cancelled) {\r\n            return \"Cancelled\";\r\n        } else if (sub.executed) {\r\n            return \"Executed\";\r\n        } else {\r\n            return \"Queued\";\r\n        }\r\n    }\r\n\r\n    // View details of the user's current subscription\r\n    function getCurrentSubscription(address _user) external view returns (Subscription memory) {\r\n        uint subscriptionId = userToSubscriptionId[_user];\r\n        require(subscriptionId != 0, \"No active subscription for this user\");\r\n\r\n        return subscriptions[subscriptionId];\r\n    }\r\n}\r\n",
  "sourcePath": "C:\\Users\\khord\\Documents\\Movie_subscription_solidity\\smart_contract\\contracts\\TransactionPayment.sol",
  "compiler": {
    "name": "solc",
    "version": "0.8.0+commit.c7dfd78e.Emscripten.clang"
  },
  "schemaVersion": "3.4.16",
  "updatedAt": "2024-09-25T08:17:36.365Z",
  "networkType": "ethereum",
  "devdoc": {
    "kind": "dev",
    "methods": {},
    "version": 1
  },
  "userdoc": {
    "kind": "user",
    "methods": {},
    "version": 1
  }
}