{
  "contractName": "TransactionPayment",
  "abi": [
    {
      "anonymous": false,
      "inputs": [
        {
          "indexed": false,
          "internalType": "uint256",
          "name": "transactionId",
          "type": "uint256"
        }
      ],
      "name": "TransactionCanceled",
      "type": "event"
    },
    {
      "anonymous": false,
      "inputs": [
        {
          "indexed": false,
          "internalType": "uint256",
          "name": "transactionId",
          "type": "uint256"
        },
        {
          "indexed": true,
          "internalType": "address",
          "name": "recipient",
          "type": "address"
        },
        {
          "indexed": false,
          "internalType": "uint256",
          "name": "amount",
          "type": "uint256"
        }
      ],
      "name": "TransactionExecuted",
      "type": "event"
    },
    {
      "anonymous": false,
      "inputs": [
        {
          "indexed": false,
          "internalType": "uint256",
          "name": "transactionId",
          "type": "uint256"
        },
        {
          "indexed": true,
          "internalType": "address",
          "name": "recipient",
          "type": "address"
        },
        {
          "indexed": false,
          "internalType": "uint256",
          "name": "amount",
          "type": "uint256"
        },
        {
          "indexed": false,
          "internalType": "uint256",
          "name": "executionTime",
          "type": "uint256"
        }
      ],
      "name": "TransactionQueued",
      "type": "event"
    },
    {
      "inputs": [],
      "name": "transactionCount",
      "outputs": [
        {
          "internalType": "uint256",
          "name": "",
          "type": "uint256"
        }
      ],
      "stateMutability": "view",
      "type": "function",
      "constant": true
    },
    {
      "inputs": [
        {
          "internalType": "uint256",
          "name": "",
          "type": "uint256"
        }
      ],
      "name": "transactions",
      "outputs": [
        {
          "internalType": "address payable",
          "name": "recipient",
          "type": "address"
        },
        {
          "internalType": "uint256",
          "name": "amount",
          "type": "uint256"
        },
        {
          "internalType": "uint256",
          "name": "executionTime",
          "type": "uint256"
        },
        {
          "internalType": "bool",
          "name": "executed",
          "type": "bool"
        },
        {
          "internalType": "bool",
          "name": "canceled",
          "type": "bool"
        }
      ],
      "stateMutability": "view",
      "type": "function",
      "constant": true
    },
    {
      "inputs": [
        {
          "internalType": "address payable",
          "name": "_recipient",
          "type": "address"
        },
        {
          "internalType": "uint256",
          "name": "_amount",
          "type": "uint256"
        },
        {
          "internalType": "uint256",
          "name": "_executionTime",
          "type": "uint256"
        }
      ],
      "name": "queueTransaction",
      "outputs": [],
      "stateMutability": "payable",
      "type": "function",
      "payable": true
    },
    {
      "inputs": [
        {
          "internalType": "uint256",
          "name": "_transactionId",
          "type": "uint256"
        }
      ],
      "name": "executeTransaction",
      "outputs": [],
      "stateMutability": "nonpayable",
      "type": "function"
    },
    {
      "inputs": [
        {
          "internalType": "uint256",
          "name": "_transactionId",
          "type": "uint256"
        }
      ],
      "name": "cancelTransaction",
      "outputs": [],
      "stateMutability": "nonpayable",
      "type": "function"
    }
  ],
  "bytecode": "0x608060405234801561001057600080fd5b50610d1f806100206000396000f3fe60806040526004361061004a5760003560e01c8063062619441461004f5780633380c0d81461006b5780639ace38c214610094578063b77bf600146100d5578063ee22610b14610100575b600080fd5b61006960048036038101906100649190610719565b610129565b005b34801561007757600080fd5b50610092600480360381019061008d9190610768565b610313565b005b3480156100a057600080fd5b506100bb60048036038101906100b69190610768565b610470565b6040516100cc959493929190610a3c565b60405180910390f35b3480156100e157600080fd5b506100ea6104e0565b6040516100f79190610b6f565b60405180910390f35b34801561010c57600080fd5b5061012760048036038101906101229190610768565b6104e6565b005b34821461016b576040517f08c379a000000000000000000000000000000000000000000000000000000000815260040161016290610acf565b60405180910390fd5b4281116101ad576040517f08c379a00000000000000000000000000000000000000000000000000000000081526004016101a490610a8f565b60405180910390fd5b600160008154809291906101c090610c43565b91905055506040518060a001604052808473ffffffffffffffffffffffffffffffffffffffff16815260200183815260200182815260200160001515815260200160001515815250600080600154815260200190815260200160002060008201518160000160006101000a81548173ffffffffffffffffffffffffffffffffffffffff021916908373ffffffffffffffffffffffffffffffffffffffff160217905550602082015181600101556040820151816002015560608201518160030160006101000a81548160ff02191690831515021790555060808201518160030160016101000a81548160ff0219169083151502179055509050508273ffffffffffffffffffffffffffffffffffffffff167fd4e945063cc42a46aa22338818b4bd7e06f265b48d6eb4cf14bfe4ca7f71fe37600154848460405161030693929190610bb3565b60405180910390a2505050565b600080600083815260200190815260200160002090508060030160009054906101000a900460ff161561037b576040517f08c379a000000000000000000000000000000000000000000000000000000000815260040161037290610aaf565b60405180910390fd5b8060030160019054906101000a900460ff16156103cd576040517f08c379a00000000000000000000000000000000000000000000000000000000081526004016103c490610b0f565b60405180910390fd5b60018160030160016101000a81548160ff0219169083151502179055503373ffffffffffffffffffffffffffffffffffffffff166108fc82600101549081150290604051600060405180830381858888f19350505050158015610434573d6000803e3d6000fd5b507f05059bfe288d11577563b32ca8457bdfd86d32da708af82367af4ea6d9dbcae5826040516104649190610b6f565b60405180910390a15050565b60006020528060005260406000206000915090508060000160009054906101000a900473ffffffffffffffffffffffffffffffffffffffff16908060010154908060020154908060030160009054906101000a900460ff16908060030160019054906101000a900460ff16905085565b60015481565b600080600083815260200190815260200160002090508060030160009054906101000a900460ff161561054e576040517f08c379a000000000000000000000000000000000000000000000000000000000815260040161054590610b2f565b60405180910390fd5b8060030160019054906101000a900460ff16156105a0576040517f08c379a000000000000000000000000000000000000000000000000000000000815260040161059790610aef565b60405180910390fd5b80600201544210156105e7576040517f08c379a00000000000000000000000000000000000000000000000000000000081526004016105de90610b4f565b60405180910390fd5b60018160030160006101000a81548160ff0219169083151502179055508060000160009054906101000a900473ffffffffffffffffffffffffffffffffffffffff1673ffffffffffffffffffffffffffffffffffffffff166108fc82600101549081150290604051600060405180830381858888f19350505050158015610672573d6000803e3d6000fd5b508060000160009054906101000a900473ffffffffffffffffffffffffffffffffffffffff1673ffffffffffffffffffffffffffffffffffffffff167fda19024f6708ce28e75d9c0ec389fb05a8e5cc9dfe520f61239c10d51a11e59c8383600101546040516106e3929190610b8a565b60405180910390a25050565b6000813590506106fe81610cbb565b92915050565b60008135905061071381610cd2565b92915050565b60008060006060848603121561072e57600080fd5b600061073c868287016106ef565b935050602061074d86828701610704565b925050604061075e86828701610704565b9150509250925092565b60006020828403121561077a57600080fd5b600061078884828501610704565b91505092915050565b61079a81610bfb565b82525050565b6107a981610c0d565b82525050565b60006107bc602583610bea565b91507f457865637574696f6e2074696d65206d75737420626520696e2074686520667560008301527f747572652e0000000000000000000000000000000000000000000000000000006020830152604082019050919050565b6000610822602e83610bea565b91507f43616e6e6f742063616e63656c20616e20616c7265616479206578656375746560008301527f64207472616e73616374696f6e2e0000000000000000000000000000000000006020830152604082019050919050565b6000610888603b83610bea565b91507f54686520616d6f756e74206f662065746865722073656e74206d757374206d6160008301527f74636820746865207472616e73616374696f6e20616d6f756e742e00000000006020830152604082019050919050565b60006108ee601e83610bea565b91507f5472616e73616374696f6e20686173206265656e2063616e63656c65642e00006000830152602082019050919050565b600061092e602083610bea565b91507f5472616e73616374696f6e20697320616c72656164792063616e63656c65642e6000830152602082019050919050565b600061096e602683610bea565b91507f5472616e73616374696f6e2068617320616c7265616479206265656e2065786560008301527f63757465642e00000000000000000000000000000000000000000000000000006020830152604082019050919050565b60006109d4602383610bea565b91507f5472616e73616374696f6e2063616e6e6f74206265206578656375746564207960008301527f65742e00000000000000000000000000000000000000000000000000000000006020830152604082019050919050565b610a3681610c39565b82525050565b600060a082019050610a516000830188610791565b610a5e6020830187610a2d565b610a6b6040830186610a2d565b610a7860608301856107a0565b610a8560808301846107a0565b9695505050505050565b60006020820190508181036000830152610aa8816107af565b9050919050565b60006020820190508181036000830152610ac881610815565b9050919050565b60006020820190508181036000830152610ae88161087b565b9050919050565b60006020820190508181036000830152610b08816108e1565b9050919050565b60006020820190508181036000830152610b2881610921565b9050919050565b60006020820190508181036000830152610b4881610961565b9050919050565b60006020820190508181036000830152610b68816109c7565b9050919050565b6000602082019050610b846000830184610a2d565b92915050565b6000604082019050610b9f6000830185610a2d565b610bac6020830184610a2d565b9392505050565b6000606082019050610bc86000830186610a2d565b610bd56020830185610a2d565b610be26040830184610a2d565b949350505050565b600082825260208201905092915050565b6000610c0682610c19565b9050919050565b60008115159050919050565b600073ffffffffffffffffffffffffffffffffffffffff82169050919050565b6000819050919050565b6000610c4e82610c39565b91507fffffffffffffffffffffffffffffffffffffffffffffffffffffffffffffffff821415610c8157610c80610c8c565b5b600182019050919050565b7f4e487b7100000000000000000000000000000000000000000000000000000000600052601160045260246000fd5b610cc481610bfb565b8114610ccf57600080fd5b50565b610cdb81610c39565b8114610ce657600080fd5b5056fea264697066735822122020995330d22467a1b71c37497d636d1f420fea87ec1378189c65851d4e89041564736f6c63430008000033",
  "immutableReferences": {},
  "source": "// SPDX-License-Identifier: MIT\r\npragma solidity ^0.8.0;\r\n\r\ncontract TransactionPayment {\r\n    struct Transaction {\r\n        address payable recipient;\r\n        uint256 amount;\r\n        uint256 executionTime;\r\n        bool executed;\r\n        bool canceled;\r\n    }\r\n\r\n    mapping(uint256 => Transaction) public transactions;\r\n    uint256 public transactionCount;\r\n\r\n    event TransactionQueued(uint256 transactionId, address indexed recipient, uint256 amount, uint256 executionTime);\r\n    event TransactionExecuted(uint256 transactionId, address indexed recipient, uint256 amount);\r\n    event TransactionCanceled(uint256 transactionId);\r\n\r\n    // Queue a transaction to be executed in the future\r\n    function queueTransaction(address payable _recipient, uint256 _amount, uint256 _executionTime) external payable {\r\n        require(_amount == msg.value, \"The amount of ether sent must match the transaction amount.\");\r\n        require(_executionTime > block.timestamp, \"Execution time must be in the future.\");\r\n\r\n        transactionCount++;\r\n        transactions[transactionCount] = Transaction({\r\n            recipient: _recipient,\r\n            amount: _amount,\r\n            executionTime: _executionTime,\r\n            executed: false,\r\n            canceled: false\r\n        });\r\n\r\n        emit TransactionQueued(transactionCount, _recipient, _amount, _executionTime);\r\n    }\r\n\r\n    // Execute a transaction once the execution time has passed\r\n    function executeTransaction(uint256 _transactionId) external {\r\n        Transaction storage txn = transactions[_transactionId];\r\n        require(!txn.executed, \"Transaction has already been executed.\");\r\n        require(!txn.canceled, \"Transaction has been canceled.\");\r\n        require(block.timestamp >= txn.executionTime, \"Transaction cannot be executed yet.\");\r\n\r\n        txn.executed = true;\r\n        txn.recipient.transfer(txn.amount);\r\n\r\n        emit TransactionExecuted(_transactionId, txn.recipient, txn.amount);\r\n    }\r\n\r\n    // Cancel a queued transaction before execution\r\n    function cancelTransaction(uint256 _transactionId) external {\r\n        Transaction storage txn = transactions[_transactionId];\r\n        require(!txn.executed, \"Cannot cancel an already executed transaction.\");\r\n        require(!txn.canceled, \"Transaction is already canceled.\");\r\n        \r\n        txn.canceled = true;\r\n        payable(msg.sender).transfer(txn.amount); // Refund the amount to the sender\r\n\r\n        emit TransactionCanceled(_transactionId);\r\n    }\r\n}\r\n",
  "sourcePath": "C:\\Users\\User\\Downloads\\Movie_subscription_solidity-main\\Movie_subscription_solidity-main\\smart_contract\\contracts\\TransactionPayment.sol",
  "compiler": {
    "name": "solc",
    "version": "0.8.0+commit.c7dfd78e.Emscripten.clang"
  },
  "schemaVersion": "3.4.16",
  "updatedAt": "2024-09-19T04:04:21.574Z",
  "networkType": "ethereum",
  "devdoc": {
    "kind": "dev",
    "methods": {},
    "version": 1
  },
  "userdoc": {
    "kind": "user",
    "methods": {},
    "version": 1
  }
}