{
  "contractName": "UserManager",
  "abi": [
    {
      "inputs": [],
      "stateMutability": "nonpayable",
      "type": "constructor"
    },
    {
      "anonymous": false,
      "inputs": [
        {
          "indexed": false,
          "internalType": "string",
          "name": "title",
          "type": "string"
        },
        {
          "indexed": false,
          "internalType": "string",
          "name": "genre",
          "type": "string"
        }
      ],
      "name": "MovieAdded",
      "type": "event"
    },
    {
      "anonymous": false,
      "inputs": [
        {
          "indexed": true,
          "internalType": "address",
          "name": "userAddress",
          "type": "address"
        },
        {
          "indexed": false,
          "internalType": "string",
          "name": "username",
          "type": "string"
        },
        {
          "indexed": false,
          "internalType": "string",
          "name": "email",
          "type": "string"
        }
      ],
      "name": "ProfileUpdated",
      "type": "event"
    },
    {
      "anonymous": false,
      "inputs": [
        {
          "indexed": true,
          "internalType": "address",
          "name": "userAddress",
          "type": "address"
        },
        {
          "indexed": false,
          "internalType": "string",
          "name": "movieTitle",
          "type": "string"
        },
        {
          "indexed": false,
          "internalType": "uint256",
          "name": "subscriptionDate",
          "type": "uint256"
        }
      ],
      "name": "SubscriptionAdded",
      "type": "event"
    },
    {
      "anonymous": false,
      "inputs": [
        {
          "indexed": true,
          "internalType": "address",
          "name": "userAddress",
          "type": "address"
        },
        {
          "indexed": false,
          "internalType": "string",
          "name": "username",
          "type": "string"
        },
        {
          "indexed": false,
          "internalType": "string",
          "name": "email",
          "type": "string"
        }
      ],
      "name": "UserRegistered",
      "type": "event"
    },
    {
      "inputs": [
        {
          "internalType": "address",
          "name": "",
          "type": "address"
        }
      ],
      "name": "hasActiveSubscription",
      "outputs": [
        {
          "internalType": "bool",
          "name": "",
          "type": "bool"
        }
      ],
      "stateMutability": "view",
      "type": "function",
      "constant": true
    },
    {
      "inputs": [],
      "name": "owner",
      "outputs": [
        {
          "internalType": "address",
          "name": "",
          "type": "address"
        }
      ],
      "stateMutability": "view",
      "type": "function",
      "constant": true
    },
    {
      "inputs": [
        {
          "internalType": "address",
          "name": "",
          "type": "address"
        },
        {
          "internalType": "uint256",
          "name": "",
          "type": "uint256"
        }
      ],
      "name": "subscriptionHistory",
      "outputs": [
        {
          "internalType": "string",
          "name": "movieTitle",
          "type": "string"
        },
        {
          "internalType": "uint256",
          "name": "subscriptionDate",
          "type": "uint256"
        }
      ],
      "stateMutability": "view",
      "type": "function",
      "constant": true
    },
    {
      "inputs": [
        {
          "internalType": "address",
          "name": "",
          "type": "address"
        }
      ],
      "name": "users",
      "outputs": [
        {
          "internalType": "string",
          "name": "username",
          "type": "string"
        },
        {
          "internalType": "string",
          "name": "email",
          "type": "string"
        },
        {
          "internalType": "address",
          "name": "userAddress",
          "type": "address"
        },
        {
          "internalType": "uint256",
          "name": "lastUpdated",
          "type": "uint256"
        },
        {
          "internalType": "uint256",
          "name": "nextUpdateTime",
          "type": "uint256"
        },
        {
          "internalType": "bool",
          "name": "isUpdated",
          "type": "bool"
        }
      ],
      "stateMutability": "view",
      "type": "function",
      "constant": true
    },
    {
      "inputs": [
        {
          "internalType": "string",
          "name": "username",
          "type": "string"
        },
        {
          "internalType": "string",
          "name": "email",
          "type": "string"
        }
      ],
      "name": "registerUser",
      "outputs": [],
      "stateMutability": "nonpayable",
      "type": "function"
    },
    {
      "inputs": [
        {
          "internalType": "string",
          "name": "username",
          "type": "string"
        }
      ],
      "name": "isUsernameTaken",
      "outputs": [
        {
          "internalType": "bool",
          "name": "",
          "type": "bool"
        }
      ],
      "stateMutability": "view",
      "type": "function",
      "constant": true
    },
    {
      "inputs": [
        {
          "internalType": "string",
          "name": "email",
          "type": "string"
        }
      ],
      "name": "isEmailTaken",
      "outputs": [
        {
          "internalType": "bool",
          "name": "",
          "type": "bool"
        }
      ],
      "stateMutability": "view",
      "type": "function",
      "constant": true
    },
    {
      "inputs": [
        {
          "internalType": "string",
          "name": "_newUsername",
          "type": "string"
        },
        {
          "internalType": "string",
          "name": "_newEmail",
          "type": "string"
        }
      ],
      "name": "updateProfile",
      "outputs": [],
      "stateMutability": "nonpayable",
      "type": "function"
    },
    {
      "inputs": [
        {
          "internalType": "string",
          "name": "_movieTitle",
          "type": "string"
        }
      ],
      "name": "addSubscription",
      "outputs": [],
      "stateMutability": "nonpayable",
      "type": "function"
    },
    {
      "inputs": [],
      "name": "getOwner",
      "outputs": [
        {
          "internalType": "address",
          "name": "",
          "type": "address"
        }
      ],
      "stateMutability": "view",
      "type": "function",
      "constant": true
    },
    {
      "inputs": [],
      "name": "getProfile",
      "outputs": [
        {
          "internalType": "string",
          "name": "",
          "type": "string"
        },
        {
          "internalType": "string",
          "name": "",
          "type": "string"
        },
        {
          "internalType": "address",
          "name": "",
          "type": "address"
        },
        {
          "internalType": "uint256",
          "name": "",
          "type": "uint256"
        },
        {
          "internalType": "uint256",
          "name": "",
          "type": "uint256"
        }
      ],
      "stateMutability": "view",
      "type": "function",
      "constant": true
    },
    {
      "inputs": [],
      "name": "getSubscriptionHistory",
      "outputs": [
        {
          "components": [
            {
              "internalType": "string",
              "name": "movieTitle",
              "type": "string"
            },
            {
              "internalType": "uint256",
              "name": "subscriptionDate",
              "type": "uint256"
            }
          ],
          "internalType": "struct UserManager.Subscription[]",
          "name": "",
          "type": "tuple[]"
        }
      ],
      "stateMutability": "view",
      "type": "function",
      "constant": true
    },
    {
      "inputs": [
        {
          "internalType": "address",
          "name": "userAddress",
          "type": "address"
        }
      ],
      "name": "isUserRegistered",
      "outputs": [
        {
          "internalType": "bool",
          "name": "",
          "type": "bool"
        }
      ],
      "stateMutability": "view",
      "type": "function",
      "constant": true
    },
    {
      "inputs": [
        {
          "internalType": "string",
          "name": "title",
          "type": "string"
        },
        {
          "internalType": "string",
          "name": "genre",
          "type": "string"
        }
      ],
      "name": "addMovie",
      "outputs": [],
      "stateMutability": "nonpayable",
      "type": "function"
    },
    {
      "inputs": [],
      "name": "getAllUsers",
      "outputs": [
        {
          "components": [
            {
              "internalType": "string",
              "name": "username",
              "type": "string"
            },
            {
              "internalType": "string",
              "name": "email",
              "type": "string"
            },
            {
              "internalType": "address",
              "name": "userAddress",
              "type": "address"
            },
            {
              "internalType": "uint256",
              "name": "lastUpdated",
              "type": "uint256"
            },
            {
              "internalType": "uint256",
              "name": "nextUpdateTime",
              "type": "uint256"
            },
            {
              "internalType": "bool",
              "name": "isUpdated",
              "type": "bool"
            }
          ],
          "internalType": "struct UserManager.User[]",
          "name": "",
          "type": "tuple[]"
        }
      ],
      "stateMutability": "view",
      "type": "function",
      "constant": true
    }
  ],
  "bytecode": "0x608060405234801561001057600080fd5b50336000806101000a81548173ffffffffffffffffffffffffffffffffffffffff021916908373ffffffffffffffffffffffffffffffffffffffff160217905550612778806100606000396000f3fe608060405234801561001057600080fd5b50600436106100f55760003560e01c80638da5cb5b11610097578063c9d3cc6a11610066578063c9d3cc6a1461029e578063d6afc9b1146102ba578063e2842d79146102dc578063fc17f6fd146102fa576100f5565b80638da5cb5b146101ff578063967a8be41461021d578063a87430ba14610239578063bebe4a571461026e576100f5565b80632ec74ec2116100d35780632ec74ec21461017657806337f184d5146101925780634077467a146101c3578063893d20e8146101e1576100f5565b8063163f7522146100fa578063176c59191461012a5780631d2e4afd1461015a575b600080fd5b610114600480360381019061010f9190611b18565b61032a565b60405161012191906121de565b60405180910390f35b610144600480360381019061013f9190611b7d565b610385565b60405161015191906121de565b60405180910390f35b610174600480360381019061016f9190611bbe565b6103ba565b005b610190600480360381019061018b9190611b7d565b610724565b005b6101ac60048036038101906101a79190611b41565b6108ae565b6040516101ba929190612300565b60405180910390f35b6101cb610977565b6040516101d8919061219a565b60405180910390f35b6101e9610b41565b6040516101f6919061217f565b60405180910390f35b610207610b6a565b604051610214919061217f565b60405180910390f35b61023760048036038101906102329190611bbe565b610b8e565b005b610253600480360381019061024e9190611b18565b610c59565b60405161026596959493929190612291565b60405180910390f35b61028860048036038101906102839190611b18565b610dd2565b60405161029591906121de565b60405180910390f35b6102b860048036038101906102b39190611bbe565b610df2565b005b6102c261135a565b6040516102d3959493929190612230565b60405180910390f35b6102e4611615565b6040516102f191906121bc565b60405180910390f35b610314600480360381019061030f9190611b7d565b611960565b60405161032191906121de565b60405180910390f35b600080600160008473ffffffffffffffffffffffffffffffffffffffff1673ffffffffffffffffffffffffffffffffffffffff168152602001908152602001600020600001805461037a906125fb565b905014159050919050565b60006002826040516103979190612168565b908152602001604051809103902060009054906101000a900460ff169050919050565b6000600160003373ffffffffffffffffffffffffffffffffffffffff1673ffffffffffffffffffffffffffffffffffffffff1681526020019081526020016000206000018054610409906125fb565b90501461044b576040517f08c379a000000000000000000000000000000000000000000000000000000000815260040161044290612370565b60405180910390fd5b60028260405161045b9190612168565b908152602001604051809103902060009054906101000a900460ff16156104b7576040517f08c379a00000000000000000000000000000000000000000000000000000000081526004016104ae906123d0565b60405180910390fd5b6003816040516104c79190612168565b908152602001604051809103902060009054906101000a900460ff1615610523576040517f08c379a000000000000000000000000000000000000000000000000000000000815260040161051a90612390565b60405180910390fd5b6040518060c001604052808381526020018281526020013373ffffffffffffffffffffffffffffffffffffffff168152602001600081526020016000815260200160001515815250600160003373ffffffffffffffffffffffffffffffffffffffff1673ffffffffffffffffffffffffffffffffffffffff16815260200190815260200160002060008201518160000190805190602001906105c6929190611995565b5060208201518160010190805190602001906105e3929190611995565b5060408201518160020160006101000a81548173ffffffffffffffffffffffffffffffffffffffff021916908373ffffffffffffffffffffffffffffffffffffffff160217905550606082015181600301556080820151816004015560a08201518160050160006101000a81548160ff02191690831515021790555090505060016002836040516106749190612168565b908152602001604051809103902060006101000a81548160ff02191690831515021790555060016003826040516106ab9190612168565b908152602001604051809103902060006101000a81548160ff0219169083151502179055503373ffffffffffffffffffffffffffffffffffffffff167f92822564bab8864c3a47b34e8d23fbce5c46234eb5da261f94087b995ac0f33b83836040516107189291906121f9565b60405180910390a25050565b6000600160003373ffffffffffffffffffffffffffffffffffffffff1673ffffffffffffffffffffffffffffffffffffffff1681526020019081526020016000206000018054610773906125fb565b9050116107b5576040517f08c379a00000000000000000000000000000000000000000000000000000000081526004016107ac90612330565b60405180910390fd5b600560003373ffffffffffffffffffffffffffffffffffffffff1673ffffffffffffffffffffffffffffffffffffffff1681526020019081526020016000206040518060400160405280838152602001428152509080600181540180825580915050600190039060005260206000209060020201600090919091909150600082015181600001908051906020019061084e929190611995565b506020820151816001015550503373ffffffffffffffffffffffffffffffffffffffff167fa0bed6fbbd4e81b4b529c7f274b9f93533ad7079e0beba42dcf3da3f6d5b15d082426040516108a3929190612300565b60405180910390a250565b600560205281600052604060002081815481106108ca57600080fd5b9060005260206000209060020201600091509150508060000180546108ee906125fb565b80601f016020809104026020016040519081016040528092919081815260200182805461091a906125fb565b80156109675780601f1061093c57610100808354040283529160200191610967565b820191906000526020600020905b81548152906001019060200180831161094a57829003601f168201915b5050505050908060010154905082565b60606000600160003373ffffffffffffffffffffffffffffffffffffffff1673ffffffffffffffffffffffffffffffffffffffff16815260200190815260200160002060000180546109c8906125fb565b90501415610a0b576040517f08c379a0000000000000000000000000000000000000000000000000000000008152600401610a0290612330565b60405180910390fd5b600560003373ffffffffffffffffffffffffffffffffffffffff1673ffffffffffffffffffffffffffffffffffffffff168152602001908152602001600020805480602002602001604051908101604052809291908181526020016000905b82821015610b385783829060005260206000209060020201604051806040016040529081600082018054610a9d906125fb565b80601f0160208091040260200160405190810160405280929190818152602001828054610ac9906125fb565b8015610b165780601f10610aeb57610100808354040283529160200191610b16565b820191906000526020600020905b815481529060010190602001808311610af957829003601f168201915b5050505050815260200160018201548152505081526020019060010190610a6a565b50505050905090565b60008060009054906101000a900473ffffffffffffffffffffffffffffffffffffffff16905090565b60008054906101000a900473ffffffffffffffffffffffffffffffffffffffff1681565b60008054906101000a900473ffffffffffffffffffffffffffffffffffffffff1673ffffffffffffffffffffffffffffffffffffffff163373ffffffffffffffffffffffffffffffffffffffff1614610c1c576040517f08c379a0000000000000000000000000000000000000000000000000000000008152600401610c1390612350565b60405180910390fd5b7fc493497c830c3d7255d9620f154cf8b3d1f5fc34578d3bb6719961d215e3499b8282604051610c4d9291906121f9565b60405180910390a15050565b6001602052806000526040600020600091509050806000018054610c7c906125fb565b80601f0160208091040260200160405190810160405280929190818152602001828054610ca8906125fb565b8015610cf55780601f10610cca57610100808354040283529160200191610cf5565b820191906000526020600020905b815481529060010190602001808311610cd857829003601f168201915b505050505090806001018054610d0a906125fb565b80601f0160208091040260200160405190810160405280929190818152602001828054610d36906125fb565b8015610d835780601f10610d5857610100808354040283529160200191610d83565b820191906000526020600020905b815481529060010190602001808311610d6657829003601f168201915b5050505050908060020160009054906101000a900473ffffffffffffffffffffffffffffffffffffffff16908060030154908060040154908060050160009054906101000a900460ff16905086565b60046020528060005260406000206000915054906101000a900460ff1681565b6000600160003373ffffffffffffffffffffffffffffffffffffffff1673ffffffffffffffffffffffffffffffffffffffff1681526020019081526020016000206000018054610e41906125fb565b905011610e83576040517f08c379a0000000000000000000000000000000000000000000000000000000008152600401610e7a90612330565b60405180910390fd5b600282604051610e939190612168565b908152602001604051809103902060009054906101000a900460ff161580610f175750600160003373ffffffffffffffffffffffffffffffffffffffff1673ffffffffffffffffffffffffffffffffffffffff168152602001908152602001600020600001604051610f059190612151565b60405180910390208280519060200120145b610f56576040517f08c379a0000000000000000000000000000000000000000000000000000000008152600401610f4d906123d0565b60405180910390fd5b600381604051610f669190612168565b908152602001604051809103902060009054906101000a900460ff161580610fea5750600160003373ffffffffffffffffffffffffffffffffffffffff1673ffffffffffffffffffffffffffffffffffffffff168152602001908152602001600020600101604051610fd89190612151565b60405180910390208180519060200120145b611029576040517f08c379a000000000000000000000000000000000000000000000000000000000815260040161102090612390565b60405180910390fd5b600160003373ffffffffffffffffffffffffffffffffffffffff1673ffffffffffffffffffffffffffffffffffffffff16815260200190815260200160002060050160009054906101000a900460ff166110dc5760018060003373ffffffffffffffffffffffffffffffffffffffff1673ffffffffffffffffffffffffffffffffffffffff16815260200190815260200160002060050160006101000a81548160ff021916908315150217905550611162565b600160003373ffffffffffffffffffffffffffffffffffffffff1673ffffffffffffffffffffffffffffffffffffffff16815260200190815260200160002060040154421015611161576040517f08c379a0000000000000000000000000000000000000000000000000000000008152600401611158906123b0565b60405180910390fd5b5b81600160003373ffffffffffffffffffffffffffffffffffffffff1673ffffffffffffffffffffffffffffffffffffffff16815260200190815260200160002060000190805190602001906111b8929190611995565b5080600160003373ffffffffffffffffffffffffffffffffffffffff1673ffffffffffffffffffffffffffffffffffffffff168152602001908152602001600020600101908051906020019061120f929190611995565b5042600160003373ffffffffffffffffffffffffffffffffffffffff1673ffffffffffffffffffffffffffffffffffffffff168152602001908152602001600020600301819055506201518042611266919061251b565b600160003373ffffffffffffffffffffffffffffffffffffffff1673ffffffffffffffffffffffffffffffffffffffff1681526020019081526020016000206004018190555060018060003373ffffffffffffffffffffffffffffffffffffffff1673ffffffffffffffffffffffffffffffffffffffff16815260200190815260200160002060050160006101000a81548160ff0219169083151502179055503373ffffffffffffffffffffffffffffffffffffffff167f6eb3a1c6a4675ba92d44e090515b1ceea358f26565d2854df0c99c3f5eaf9850838360405161134e9291906121f9565b60405180910390a25050565b606080600080600080600160003373ffffffffffffffffffffffffffffffffffffffff1673ffffffffffffffffffffffffffffffffffffffff16815260200190815260200160002060000180546113b0906125fb565b905014156113f3576040517f08c379a00000000000000000000000000000000000000000000000000000000081526004016113ea90612330565b60405180910390fd5b6000600160003373ffffffffffffffffffffffffffffffffffffffff1673ffffffffffffffffffffffffffffffffffffffff1681526020019081526020016000206040518060c001604052908160008201805461144f906125fb565b80601f016020809104026020016040519081016040528092919081815260200182805461147b906125fb565b80156114c85780601f1061149d576101008083540402835291602001916114c8565b820191906000526020600020905b8154815290600101906020018083116114ab57829003601f168201915b505050505081526020016001820180546114e1906125fb565b80601f016020809104026020016040519081016040528092919081815260200182805461150d906125fb565b801561155a5780601f1061152f5761010080835404028352916020019161155a565b820191906000526020600020905b81548152906001019060200180831161153d57829003601f168201915b505050505081526020016002820160009054906101000a900473ffffffffffffffffffffffffffffffffffffffff1673ffffffffffffffffffffffffffffffffffffffff1673ffffffffffffffffffffffffffffffffffffffff16815260200160038201548152602001600482015481526020016005820160009054906101000a900460ff16151515158152505090508060000151816020015182604001518360600151846080015195509550955095509550509091929394565b6060600060068054905067ffffffffffffffff81111561165e577f4e487b7100000000000000000000000000000000000000000000000000000000600052604160045260246000fd5b60405190808252806020026020018201604052801561169757816020015b611684611a1b565b81526020019060019003908161167c5790505b50905060005b6006805490508110156119585760016000600683815481106116e8577f4e487b7100000000000000000000000000000000000000000000000000000000600052603260045260246000fd5b9060005260206000200160009054906101000a900473ffffffffffffffffffffffffffffffffffffffff1673ffffffffffffffffffffffffffffffffffffffff1673ffffffffffffffffffffffffffffffffffffffff1681526020019081526020016000206040518060c0016040529081600082018054611768906125fb565b80601f0160208091040260200160405190810160405280929190818152602001828054611794906125fb565b80156117e15780601f106117b6576101008083540402835291602001916117e1565b820191906000526020600020905b8154815290600101906020018083116117c457829003601f168201915b505050505081526020016001820180546117fa906125fb565b80601f0160208091040260200160405190810160405280929190818152602001828054611826906125fb565b80156118735780601f1061184857610100808354040283529160200191611873565b820191906000526020600020905b81548152906001019060200180831161185657829003601f168201915b505050505081526020016002820160009054906101000a900473ffffffffffffffffffffffffffffffffffffffff1673ffffffffffffffffffffffffffffffffffffffff1673ffffffffffffffffffffffffffffffffffffffff16815260200160038201548152602001600482015481526020016005820160009054906101000a900460ff16151515158152505082828151811061193a577f4e487b7100000000000000000000000000000000000000000000000000000000600052603260045260246000fd5b602002602001018190525080806119509061262d565b91505061169d565b508091505090565b60006003826040516119729190612168565b908152602001604051809103902060009054906101000a900460ff169050919050565b8280546119a1906125fb565b90600052602060002090601f0160209004810192826119c35760008555611a0a565b82601f106119dc57805160ff1916838001178555611a0a565b82800160010185558215611a0a579182015b82811115611a095782518255916020019190600101906119ee565b5b509050611a179190611a69565b5090565b6040518060c001604052806060815260200160608152602001600073ffffffffffffffffffffffffffffffffffffffff16815260200160008152602001600081526020016000151581525090565b5b80821115611a82576000816000905550600101611a6a565b5090565b6000611a99611a9484612421565b6123f0565b905082815260208101848484011115611ab157600080fd5b611abc8482856125b9565b509392505050565b600081359050611ad381612714565b92915050565b600082601f830112611aea57600080fd5b8135611afa848260208601611a86565b91505092915050565b600081359050611b128161272b565b92915050565b600060208284031215611b2a57600080fd5b6000611b3884828501611ac4565b91505092915050565b60008060408385031215611b5457600080fd5b6000611b6285828601611ac4565b9250506020611b7385828601611b03565b9150509250929050565b600060208284031215611b8f57600080fd5b600082013567ffffffffffffffff811115611ba957600080fd5b611bb584828501611ad9565b91505092915050565b60008060408385031215611bd157600080fd5b600083013567ffffffffffffffff811115611beb57600080fd5b611bf785828601611ad9565b925050602083013567ffffffffffffffff811115611c1457600080fd5b611c2085828601611ad9565b9150509250929050565b6000611c368383612066565b905092915050565b6000611c4a83836120a3565b905092915050565b611c5b81612571565b82525050565b611c6a81612571565b82525050565b6000611c7b82612486565b611c8581856124c1565b935083602082028501611c9785612451565b8060005b85811015611cd35784840389528151611cb48582611c2a565b9450611cbf836124a7565b925060208a01995050600181019050611c9b565b50829750879550505050505092915050565b6000611cf082612491565b611cfa81856124d2565b935083602082028501611d0c85612461565b8060005b85811015611d485784840389528151611d298582611c3e565b9450611d34836124b4565b925060208a01995050600181019050611d10565b50829750879550505050505092915050565b611d6381612583565b82525050565b611d7281612583565b82525050565b60008154611d85816125fb565b611d8f81866124e3565b94506001821660008114611daa5760018114611dbb57611dee565b60ff19831686528186019350611dee565b611dc485612471565b60005b83811015611de657815481890152600182019150602081019050611dc7565b838801955050505b50505092915050565b6000611e028261249c565b611e0c81856124ee565b9350611e1c8185602086016125c8565b611e2581612703565b840191505092915050565b6000611e3b8261249c565b611e4581856124ff565b9350611e558185602086016125c8565b611e5e81612703565b840191505092915050565b6000611e748261249c565b611e7e8185612510565b9350611e8e8185602086016125c8565b80840191505092915050565b6000611ea76013836124ff565b91507f55736572206e6f742072656769737465726564000000000000000000000000006000830152602082019050919050565b6000611ee76026836124ff565b91507f4f6e6c7920746865206f776e65722063616e20706572666f726d20746869732060008301527f616374696f6e00000000000000000000000000000000000000000000000000006020830152604082019050919050565b6000611f4d6017836124ff565b91507f5573657220616c726561647920726567697374657265640000000000000000006000830152602082019050919050565b6000611f8d6016836124ff565b91507f456d61696c20697320616c72656164792074616b656e000000000000000000006000830152602082019050919050565b6000611fcd602f836124ff565b91507f50726f66696c652063616e206f6e6c792062652075706461746564206f6e636560008301527f20657665727920323420686f75727300000000000000000000000000000000006020830152604082019050919050565b60006120336019836124ff565b91507f557365726e616d6520697320616c72656164792074616b656e000000000000006000830152602082019050919050565b600060408301600083015184820360008601526120838282611df7565b91505060208301516120986020860182612133565b508091505092915050565b600060c08301600083015184820360008601526120c08282611df7565b915050602083015184820360208601526120da8282611df7565b91505060408301516120ef6040860182611c52565b5060608301516121026060860182612133565b5060808301516121156080860182612133565b5060a083015161212860a0860182611d5a565b508091505092915050565b61213c816125af565b82525050565b61214b816125af565b82525050565b600061215d8284611d78565b915081905092915050565b60006121748284611e69565b915081905092915050565b60006020820190506121946000830184611c61565b92915050565b600060208201905081810360008301526121b48184611c70565b905092915050565b600060208201905081810360008301526121d68184611ce5565b905092915050565b60006020820190506121f36000830184611d69565b92915050565b600060408201905081810360008301526122138185611e30565b905081810360208301526122278184611e30565b90509392505050565b600060a082019050818103600083015261224a8188611e30565b9050818103602083015261225e8187611e30565b905061226d6040830186611c61565b61227a6060830185612142565b6122876080830184612142565b9695505050505050565b600060c08201905081810360008301526122ab8189611e30565b905081810360208301526122bf8188611e30565b90506122ce6040830187611c61565b6122db6060830186612142565b6122e86080830185612142565b6122f560a0830184611d69565b979650505050505050565b6000604082019050818103600083015261231a8185611e30565b90506123296020830184612142565b9392505050565b6000602082019050818103600083015261234981611e9a565b9050919050565b6000602082019050818103600083015261236981611eda565b9050919050565b6000602082019050818103600083015261238981611f40565b9050919050565b600060208201905081810360008301526123a981611f80565b9050919050565b600060208201905081810360008301526123c981611fc0565b9050919050565b600060208201905081810360008301526123e981612026565b9050919050565b6000604051905081810181811067ffffffffffffffff82111715612417576124166126d4565b5b8060405250919050565b600067ffffffffffffffff82111561243c5761243b6126d4565b5b601f19601f8301169050602081019050919050565b6000819050602082019050919050565b6000819050602082019050919050565b60008190508160005260206000209050919050565b600081519050919050565b600081519050919050565b600081519050919050565b6000602082019050919050565b6000602082019050919050565b600082825260208201905092915050565b600082825260208201905092915050565b600081905092915050565b600082825260208201905092915050565b600082825260208201905092915050565b600081905092915050565b6000612526826125af565b9150612531836125af565b9250827fffffffffffffffffffffffffffffffffffffffffffffffffffffffffffffffff0382111561256657612565612676565b5b828201905092915050565b600061257c8261258f565b9050919050565b60008115159050919050565b600073ffffffffffffffffffffffffffffffffffffffff82169050919050565b6000819050919050565b82818337600083830152505050565b60005b838110156125e65780820151818401526020810190506125cb565b838111156125f5576000848401525b50505050565b6000600282049050600182168061261357607f821691505b60208210811415612627576126266126a5565b5b50919050565b6000612638826125af565b91507fffffffffffffffffffffffffffffffffffffffffffffffffffffffffffffffff82141561266b5761266a612676565b5b600182019050919050565b7f4e487b7100000000000000000000000000000000000000000000000000000000600052601160045260246000fd5b7f4e487b7100000000000000000000000000000000000000000000000000000000600052602260045260246000fd5b7f4e487b7100000000000000000000000000000000000000000000000000000000600052604160045260246000fd5b6000601f19601f8301169050919050565b61271d81612571565b811461272857600080fd5b50565b612734816125af565b811461273f57600080fd5b5056fea26469706673582212200bdb0604bee5430933651e3edab26bd7e6db681d49e4cc2a8901bb27bd179b0464736f6c63430008000033",
  "immutableReferences": {},
  "source": "// SPDX-License-Identifier: MIT\r\npragma solidity ^0.8.0;\r\n\r\ncontract UserManager {\r\n    address public owner;\r\n\r\n    struct User {\r\n        string username;\r\n        string email;\r\n        address userAddress;\r\n        uint lastUpdated; // Tracks the last time the profile was updated\r\n        uint nextUpdateTime; // Tracks the next time the profile can be updated\r\n        bool isUpdated; // New flag to track if the profile has been updated\r\n        // bool hasActiveSubscription;  \r\n    }\r\n\r\n    struct Subscription {\r\n        string movieTitle;\r\n        uint256 subscriptionDate;\r\n    }\r\n\r\n    mapping(address => User) public users;\r\n    mapping(string => bool) private usernames; // Mapping to prevent duplicate usernames\r\n    mapping(string => bool) private emails; // Mapping to prevent duplicate emails\r\n    mapping(address => bool) public hasActiveSubscription; // Tracks active subscriptions\r\n    mapping(address => Subscription[]) public subscriptionHistory; // Track subscription history\r\n\r\n    address[] private userAddresses;\r\n\r\n    event UserRegistered(\r\n        address indexed userAddress,\r\n        string username,\r\n        string email\r\n    );\r\n    event ProfileUpdated(\r\n        address indexed userAddress,\r\n        string username,\r\n        string email\r\n    );\r\n    event SubscriptionAdded(\r\n        address indexed userAddress,\r\n        string movieTitle,\r\n        uint256 subscriptionDate\r\n    );\r\n    event MovieAdded(string title, string genre);\r\n\r\n    constructor() {\r\n        owner = msg.sender;\r\n    }\r\n\r\n    modifier onlyOwner() {\r\n        require(msg.sender == owner, \"Only the owner can perform this action\");\r\n        _;\r\n    }\r\n\r\n//     modifier onlySubscribed() {\r\n//     require(users[msg.sender].hasActiveSubscription, \"You must have an active subscription to perform this action\");\r\n//     _;\r\n// }\r\n\r\n    function registerUser(string memory username, string memory email) public {\r\n        require(\r\n            bytes(users[msg.sender].username).length == 0,\r\n            \"User already registered\"\r\n        );\r\n        require(!usernames[username], \"Username is already taken\");\r\n        require(!emails[email], \"Email is already taken\");\r\n\r\n        users[msg.sender] = User({\r\n            username: username,\r\n            email: email,\r\n            userAddress: msg.sender,\r\n            lastUpdated: 0,\r\n            nextUpdateTime: 0,\r\n            isUpdated: false\r\n        });\r\n\r\n        usernames[username] = true; // Mark username as taken\r\n        emails[email] = true; // Mark email as taken\r\n\r\n        emit UserRegistered(msg.sender, username, email);\r\n    }\r\n\r\n//     // Function to update subscription status, callable by TransactionPayment.sol\r\n// function setSubscriptionStatus(address _user, bool _status) external {\r\n//     require(msg.sender == addressOfTransactionPaymentContract, \"Only TransactionPayment can call this\");\r\n//     hasActiveSubscription[_user] = _status;\r\n// }\r\n\r\n    function isUsernameTaken(string memory username) public view returns (bool) {\r\n    return usernames[username];\r\n}\r\n\r\n// Check if the email is taken\r\nfunction isEmailTaken(string memory email) public view returns (bool) {\r\n    return emails[email];\r\n}\r\n\r\n    function updateProfile(string memory _newUsername, string memory _newEmail) public {\r\n        require(\r\n            bytes(users[msg.sender].username).length > 0,\r\n            \"User not registered\"\r\n        );\r\n\r\n        // Prevent profile update if the username or email is already taken by someone else\r\n        require(!usernames[_newUsername] || keccak256(bytes(_newUsername)) == keccak256(bytes(users[msg.sender].username)),\r\n            \"Username is already taken\");\r\n        require(!emails[_newEmail] || keccak256(bytes(_newEmail)) == keccak256(bytes(users[msg.sender].email)),\r\n            \"Email is already taken\");\r\n\r\n        // Profile update logic\r\n        if (!users[msg.sender].isUpdated) {\r\n            // Allow update if profile has not been updated before\r\n            users[msg.sender].isUpdated = true;\r\n        } else {\r\n            // Allow profile update only if 24 hours have passed\r\n            require(\r\n                block.timestamp >= users[msg.sender].nextUpdateTime,\r\n                \"Profile can only be updated once every 24 hours\"\r\n            );\r\n        }\r\n\r\n        // Update the profile details\r\n        users[msg.sender].username = _newUsername;\r\n        users[msg.sender].email = _newEmail;\r\n        users[msg.sender].lastUpdated = block.timestamp;\r\n        users[msg.sender].nextUpdateTime = block.timestamp + 1 days;\r\n        users[msg.sender].isUpdated = true;\r\n\r\n        emit ProfileUpdated(msg.sender, _newUsername, _newEmail);\r\n    }\r\n\r\n    function addSubscription(string memory _movieTitle) public {\r\n        require(\r\n            bytes(users[msg.sender].username).length > 0,\r\n            \"User not registered\"\r\n        );\r\n\r\n        subscriptionHistory[msg.sender].push(\r\n            Subscription(_movieTitle, block.timestamp)\r\n        );\r\n\r\n        emit SubscriptionAdded(msg.sender, _movieTitle, block.timestamp);\r\n    }\r\n\r\n    function getOwner() public view returns (address) {\r\n        return owner;\r\n    }\r\n\r\n    function getProfile() public view returns (string memory, string memory, address, uint, uint) {\r\n        require(\r\n            bytes(users[msg.sender].username).length != 0,\r\n            \"User not registered\"\r\n        );\r\n        User memory user = users[msg.sender];\r\n\r\n        return (\r\n            user.username,\r\n            user.email,\r\n            user.userAddress,\r\n            user.lastUpdated,\r\n            user.nextUpdateTime\r\n        );\r\n    }\r\n\r\n    function getSubscriptionHistory() public view returns (Subscription[] memory) {\r\n        require(\r\n            bytes(users[msg.sender].username).length != 0,\r\n            \"User not registered\"\r\n        );\r\n        return subscriptionHistory[msg.sender];\r\n    }\r\n\r\n    function isUserRegistered(address userAddress) public view returns (bool) {\r\n        return bytes(users[userAddress].username).length != 0;\r\n    }\r\n\r\n    function addMovie(string memory title, string memory genre) public onlyOwner {\r\n        emit MovieAdded(title, genre);\r\n    }\r\n\r\n//     function getSubscriptionHistory() public view onlySubscribed returns (Subscription[] memory) {\r\n//     // Ensure user is registered and return subscription history\r\n//     require(bytes(users[msg.sender].username).length != 0, \"User not registered\");\r\n//     return subscriptionHistory[msg.sender];\r\n// }\r\n\r\nfunction getAllUsers() public view returns (User[] memory) {\r\n        User[] memory allUsers = new User[](userAddresses.length);\r\n        for (uint i = 0; i < userAddresses.length; i++) {\r\n            allUsers[i] = users[userAddresses[i]];\r\n        }\r\n        return allUsers;\r\n    }\r\n}\r\n",
  "sourcePath": "C:\\Users\\User\\Desktop\\movie4\\smart_contract\\contracts\\UserManagement.sol",
  "compiler": {
    "name": "solc",
    "version": "0.8.0+commit.c7dfd78e.Emscripten.clang"
  },
  "schemaVersion": "3.4.16",
  "updatedAt": "2024-09-25T04:09:45.774Z",
  "networkType": "ethereum",
  "devdoc": {
    "kind": "dev",
    "methods": {},
    "version": 1
  },
  "userdoc": {
    "kind": "user",
    "methods": {},
    "version": 1
  }
}