{
  "contractName": "UserManager",
  "abi": [
    {
      "inputs": [],
      "stateMutability": "nonpayable",
      "type": "constructor"
    },
    {
      "anonymous": false,
      "inputs": [
        {
          "indexed": false,
          "internalType": "string",
          "name": "title",
          "type": "string"
        },
        {
          "indexed": false,
          "internalType": "string",
          "name": "genre",
          "type": "string"
        }
      ],
      "name": "MovieAdded",
      "type": "event"
    },
    {
      "anonymous": false,
      "inputs": [
        {
          "indexed": true,
          "internalType": "address",
          "name": "userAddress",
          "type": "address"
        },
        {
          "indexed": false,
          "internalType": "string",
          "name": "username",
          "type": "string"
        },
        {
          "indexed": false,
          "internalType": "string",
          "name": "email",
          "type": "string"
        }
      ],
      "name": "ProfileUpdated",
      "type": "event"
    },
    {
      "anonymous": false,
      "inputs": [
        {
          "indexed": true,
          "internalType": "address",
          "name": "userAddress",
          "type": "address"
        },
        {
          "indexed": false,
          "internalType": "string",
          "name": "movieTitle",
          "type": "string"
        },
        {
          "indexed": false,
          "internalType": "uint256",
          "name": "subscriptionDate",
          "type": "uint256"
        }
      ],
      "name": "SubscriptionAdded",
      "type": "event"
    },
    {
      "anonymous": false,
      "inputs": [
        {
          "indexed": true,
          "internalType": "address",
          "name": "userAddress",
          "type": "address"
        },
        {
          "indexed": false,
          "internalType": "string",
          "name": "username",
          "type": "string"
        },
        {
          "indexed": false,
          "internalType": "string",
          "name": "email",
          "type": "string"
        }
      ],
      "name": "UserRegistered",
      "type": "event"
    },
    {
      "inputs": [
        {
          "internalType": "address",
          "name": "",
          "type": "address"
        }
      ],
      "name": "hasActiveSubscription",
      "outputs": [
        {
          "internalType": "bool",
          "name": "",
          "type": "bool"
        }
      ],
      "stateMutability": "view",
      "type": "function",
      "constant": true
    },
    {
      "inputs": [],
      "name": "owner",
      "outputs": [
        {
          "internalType": "address",
          "name": "",
          "type": "address"
        }
      ],
      "stateMutability": "view",
      "type": "function",
      "constant": true
    },
    {
      "inputs": [
        {
          "internalType": "address",
          "name": "",
          "type": "address"
        },
        {
          "internalType": "uint256",
          "name": "",
          "type": "uint256"
        }
      ],
      "name": "subscriptionHistory",
      "outputs": [
        {
          "internalType": "string",
          "name": "movieTitle",
          "type": "string"
        },
        {
          "internalType": "uint256",
          "name": "subscriptionDate",
          "type": "uint256"
        }
      ],
      "stateMutability": "view",
      "type": "function",
      "constant": true
    },
    {
      "inputs": [
        {
          "internalType": "address",
          "name": "",
          "type": "address"
        }
      ],
      "name": "users",
      "outputs": [
        {
          "internalType": "string",
          "name": "username",
          "type": "string"
        },
        {
          "internalType": "string",
          "name": "email",
          "type": "string"
        },
        {
          "internalType": "address",
          "name": "userAddress",
          "type": "address"
        },
        {
          "internalType": "uint256",
          "name": "lastUpdated",
          "type": "uint256"
        },
        {
          "internalType": "uint256",
          "name": "nextUpdateTime",
          "type": "uint256"
        },
        {
          "internalType": "bool",
          "name": "isUpdated",
          "type": "bool"
        }
      ],
      "stateMutability": "view",
      "type": "function",
      "constant": true
    },
    {
      "inputs": [
        {
          "internalType": "string",
          "name": "username",
          "type": "string"
        },
        {
          "internalType": "string",
          "name": "email",
          "type": "string"
        }
      ],
      "name": "registerUser",
      "outputs": [],
      "stateMutability": "nonpayable",
      "type": "function"
    },
    {
      "inputs": [
        {
          "internalType": "string",
          "name": "username",
          "type": "string"
        }
      ],
      "name": "isUsernameTaken",
      "outputs": [
        {
          "internalType": "bool",
          "name": "",
          "type": "bool"
        }
      ],
      "stateMutability": "view",
      "type": "function",
      "constant": true
    },
    {
      "inputs": [
        {
          "internalType": "string",
          "name": "email",
          "type": "string"
        }
      ],
      "name": "isEmailTaken",
      "outputs": [
        {
          "internalType": "bool",
          "name": "",
          "type": "bool"
        }
      ],
      "stateMutability": "view",
      "type": "function",
      "constant": true
    },
    {
      "inputs": [
        {
          "internalType": "string",
          "name": "_newUsername",
          "type": "string"
        },
        {
          "internalType": "string",
          "name": "_newEmail",
          "type": "string"
        }
      ],
      "name": "updateProfile",
      "outputs": [],
      "stateMutability": "nonpayable",
      "type": "function"
    },
    {
      "inputs": [
        {
          "internalType": "string",
          "name": "_movieTitle",
          "type": "string"
        }
      ],
      "name": "addSubscription",
      "outputs": [],
      "stateMutability": "nonpayable",
      "type": "function"
    },
    {
      "inputs": [],
      "name": "getOwner",
      "outputs": [
        {
          "internalType": "address",
          "name": "",
          "type": "address"
        }
      ],
      "stateMutability": "view",
      "type": "function",
      "constant": true
    },
    {
      "inputs": [],
      "name": "getProfile",
      "outputs": [
        {
          "internalType": "string",
          "name": "",
          "type": "string"
        },
        {
          "internalType": "string",
          "name": "",
          "type": "string"
        },
        {
          "internalType": "address",
          "name": "",
          "type": "address"
        },
        {
          "internalType": "uint256",
          "name": "",
          "type": "uint256"
        },
        {
          "internalType": "uint256",
          "name": "",
          "type": "uint256"
        }
      ],
      "stateMutability": "view",
      "type": "function",
      "constant": true
    },
    {
      "inputs": [],
      "name": "getSubscriptionHistory",
      "outputs": [
        {
          "components": [
            {
              "internalType": "string",
              "name": "movieTitle",
              "type": "string"
            },
            {
              "internalType": "uint256",
              "name": "subscriptionDate",
              "type": "uint256"
            }
          ],
          "internalType": "struct UserManager.Subscription[]",
          "name": "",
          "type": "tuple[]"
        }
      ],
      "stateMutability": "view",
      "type": "function",
      "constant": true
    },
    {
      "inputs": [
        {
          "internalType": "address",
          "name": "userAddress",
          "type": "address"
        }
      ],
      "name": "isUserRegistered",
      "outputs": [
        {
          "internalType": "bool",
          "name": "",
          "type": "bool"
        }
      ],
      "stateMutability": "view",
      "type": "function",
      "constant": true
    },
    {
      "inputs": [
        {
          "internalType": "string",
          "name": "title",
          "type": "string"
        },
        {
          "internalType": "string",
          "name": "genre",
          "type": "string"
        }
      ],
      "name": "addMovie",
      "outputs": [],
      "stateMutability": "nonpayable",
      "type": "function"
    }
  ],
  "bytecode": "0x608060405234801561001057600080fd5b50336000806101000a81548173ffffffffffffffffffffffffffffffffffffffff021916908373ffffffffffffffffffffffffffffffffffffffff1602179055506121db806100606000396000f3fe608060405234801561001057600080fd5b50600436106100ea5760003560e01c80638da5cb5b1161008c578063bebe4a5711610066578063bebe4a5714610263578063c9d3cc6a14610293578063d6afc9b1146102af578063fc17f6fd146102d1576100ea565b80638da5cb5b146101f4578063967a8be414610212578063a87430ba1461022e576100ea565b80632ec74ec2116100c85780632ec74ec21461016b57806337f184d5146101875780634077467a146101b8578063893d20e8146101d6576100ea565b8063163f7522146100ef578063176c59191461011f5780631d2e4afd1461014f575b600080fd5b61010960048036038101906101049190611756565b610301565b6040516101169190611cc3565b60405180910390f35b610139600480360381019061013491906117bb565b61035c565b6040516101469190611cc3565b60405180910390f35b610169600480360381019061016491906117fc565b610391565b005b610185600480360381019061018091906117bb565b6106fb565b005b6101a1600480360381019061019c919061177f565b610885565b6040516101af929190611de5565b60405180910390f35b6101c061094e565b6040516101cd9190611ca1565b60405180910390f35b6101de610b18565b6040516101eb9190611c86565b60405180910390f35b6101fc610b41565b6040516102099190611c86565b60405180910390f35b61022c600480360381019061022791906117fc565b610b65565b005b61024860048036038101906102439190611756565b610c30565b60405161025a96959493929190611d76565b60405180910390f35b61027d60048036038101906102789190611756565b610da9565b60405161028a9190611cc3565b60405180910390f35b6102ad60048036038101906102a891906117fc565b610dc9565b005b6102b7611331565b6040516102c8959493929190611d15565b60405180910390f35b6102eb60048036038101906102e691906117bb565b6115ec565b6040516102f89190611cc3565b60405180910390f35b600080600160008473ffffffffffffffffffffffffffffffffffffffff1673ffffffffffffffffffffffffffffffffffffffff1681526020019081526020016000206000018054610351906120a7565b905014159050919050565b600060028260405161036e9190611c6f565b908152602001604051809103902060009054906101000a900460ff169050919050565b6000600160003373ffffffffffffffffffffffffffffffffffffffff1673ffffffffffffffffffffffffffffffffffffffff16815260200190815260200160002060000180546103e0906120a7565b905014610422576040517f08c379a000000000000000000000000000000000000000000000000000000000815260040161041990611e55565b60405180910390fd5b6002826040516104329190611c6f565b908152602001604051809103902060009054906101000a900460ff161561048e576040517f08c379a000000000000000000000000000000000000000000000000000000000815260040161048590611eb5565b60405180910390fd5b60038160405161049e9190611c6f565b908152602001604051809103902060009054906101000a900460ff16156104fa576040517f08c379a00000000000000000000000000000000000000000000000000000000081526004016104f190611e75565b60405180910390fd5b6040518060c001604052808381526020018281526020013373ffffffffffffffffffffffffffffffffffffffff168152602001600081526020016000815260200160001515815250600160003373ffffffffffffffffffffffffffffffffffffffff1673ffffffffffffffffffffffffffffffffffffffff168152602001908152602001600020600082015181600001908051906020019061059d929190611621565b5060208201518160010190805190602001906105ba929190611621565b5060408201518160020160006101000a81548173ffffffffffffffffffffffffffffffffffffffff021916908373ffffffffffffffffffffffffffffffffffffffff160217905550606082015181600301556080820151816004015560a08201518160050160006101000a81548160ff021916908315150217905550905050600160028360405161064b9190611c6f565b908152602001604051809103902060006101000a81548160ff02191690831515021790555060016003826040516106829190611c6f565b908152602001604051809103902060006101000a81548160ff0219169083151502179055503373ffffffffffffffffffffffffffffffffffffffff167f92822564bab8864c3a47b34e8d23fbce5c46234eb5da261f94087b995ac0f33b83836040516106ef929190611cde565b60405180910390a25050565b6000600160003373ffffffffffffffffffffffffffffffffffffffff1673ffffffffffffffffffffffffffffffffffffffff168152602001908152602001600020600001805461074a906120a7565b90501161078c576040517f08c379a000000000000000000000000000000000000000000000000000000000815260040161078390611e15565b60405180910390fd5b600560003373ffffffffffffffffffffffffffffffffffffffff1673ffffffffffffffffffffffffffffffffffffffff16815260200190815260200160002060405180604001604052808381526020014281525090806001815401808255809150506001900390600052602060002090600202016000909190919091506000820151816000019080519060200190610825929190611621565b506020820151816001015550503373ffffffffffffffffffffffffffffffffffffffff167fa0bed6fbbd4e81b4b529c7f274b9f93533ad7079e0beba42dcf3da3f6d5b15d0824260405161087a929190611de5565b60405180910390a250565b600560205281600052604060002081815481106108a157600080fd5b9060005260206000209060020201600091509150508060000180546108c5906120a7565b80601f01602080910402602001604051908101604052809291908181526020018280546108f1906120a7565b801561093e5780601f106109135761010080835404028352916020019161093e565b820191906000526020600020905b81548152906001019060200180831161092157829003601f168201915b5050505050908060010154905082565b60606000600160003373ffffffffffffffffffffffffffffffffffffffff1673ffffffffffffffffffffffffffffffffffffffff168152602001908152602001600020600001805461099f906120a7565b905014156109e2576040517f08c379a00000000000000000000000000000000000000000000000000000000081526004016109d990611e15565b60405180910390fd5b600560003373ffffffffffffffffffffffffffffffffffffffff1673ffffffffffffffffffffffffffffffffffffffff168152602001908152602001600020805480602002602001604051908101604052809291908181526020016000905b82821015610b0f5783829060005260206000209060020201604051806040016040529081600082018054610a74906120a7565b80601f0160208091040260200160405190810160405280929190818152602001828054610aa0906120a7565b8015610aed5780601f10610ac257610100808354040283529160200191610aed565b820191906000526020600020905b815481529060010190602001808311610ad057829003601f168201915b5050505050815260200160018201548152505081526020019060010190610a41565b50505050905090565b60008060009054906101000a900473ffffffffffffffffffffffffffffffffffffffff16905090565b60008054906101000a900473ffffffffffffffffffffffffffffffffffffffff1681565b60008054906101000a900473ffffffffffffffffffffffffffffffffffffffff1673ffffffffffffffffffffffffffffffffffffffff163373ffffffffffffffffffffffffffffffffffffffff1614610bf3576040517f08c379a0000000000000000000000000000000000000000000000000000000008152600401610bea90611e35565b60405180910390fd5b7fc493497c830c3d7255d9620f154cf8b3d1f5fc34578d3bb6719961d215e3499b8282604051610c24929190611cde565b60405180910390a15050565b6001602052806000526040600020600091509050806000018054610c53906120a7565b80601f0160208091040260200160405190810160405280929190818152602001828054610c7f906120a7565b8015610ccc5780601f10610ca157610100808354040283529160200191610ccc565b820191906000526020600020905b815481529060010190602001808311610caf57829003601f168201915b505050505090806001018054610ce1906120a7565b80601f0160208091040260200160405190810160405280929190818152602001828054610d0d906120a7565b8015610d5a5780601f10610d2f57610100808354040283529160200191610d5a565b820191906000526020600020905b815481529060010190602001808311610d3d57829003601f168201915b5050505050908060020160009054906101000a900473ffffffffffffffffffffffffffffffffffffffff16908060030154908060040154908060050160009054906101000a900460ff16905086565b60046020528060005260406000206000915054906101000a900460ff1681565b6000600160003373ffffffffffffffffffffffffffffffffffffffff1673ffffffffffffffffffffffffffffffffffffffff1681526020019081526020016000206000018054610e18906120a7565b905011610e5a576040517f08c379a0000000000000000000000000000000000000000000000000000000008152600401610e5190611e15565b60405180910390fd5b600282604051610e6a9190611c6f565b908152602001604051809103902060009054906101000a900460ff161580610eee5750600160003373ffffffffffffffffffffffffffffffffffffffff1673ffffffffffffffffffffffffffffffffffffffff168152602001908152602001600020600001604051610edc9190611c58565b60405180910390208280519060200120145b610f2d576040517f08c379a0000000000000000000000000000000000000000000000000000000008152600401610f2490611eb5565b60405180910390fd5b600381604051610f3d9190611c6f565b908152602001604051809103902060009054906101000a900460ff161580610fc15750600160003373ffffffffffffffffffffffffffffffffffffffff1673ffffffffffffffffffffffffffffffffffffffff168152602001908152602001600020600101604051610faf9190611c58565b60405180910390208180519060200120145b611000576040517f08c379a0000000000000000000000000000000000000000000000000000000008152600401610ff790611e75565b60405180910390fd5b600160003373ffffffffffffffffffffffffffffffffffffffff1673ffffffffffffffffffffffffffffffffffffffff16815260200190815260200160002060050160009054906101000a900460ff166110b35760018060003373ffffffffffffffffffffffffffffffffffffffff1673ffffffffffffffffffffffffffffffffffffffff16815260200190815260200160002060050160006101000a81548160ff021916908315150217905550611139565b600160003373ffffffffffffffffffffffffffffffffffffffff1673ffffffffffffffffffffffffffffffffffffffff16815260200190815260200160002060040154421015611138576040517f08c379a000000000000000000000000000000000000000000000000000000000815260040161112f90611e95565b60405180910390fd5b5b81600160003373ffffffffffffffffffffffffffffffffffffffff1673ffffffffffffffffffffffffffffffffffffffff168152602001908152602001600020600001908051906020019061118f929190611621565b5080600160003373ffffffffffffffffffffffffffffffffffffffff1673ffffffffffffffffffffffffffffffffffffffff16815260200190815260200160002060010190805190602001906111e6929190611621565b5042600160003373ffffffffffffffffffffffffffffffffffffffff1673ffffffffffffffffffffffffffffffffffffffff16815260200190815260200160002060030181905550620151804261123d9190611fc7565b600160003373ffffffffffffffffffffffffffffffffffffffff1673ffffffffffffffffffffffffffffffffffffffff1681526020019081526020016000206004018190555060018060003373ffffffffffffffffffffffffffffffffffffffff1673ffffffffffffffffffffffffffffffffffffffff16815260200190815260200160002060050160006101000a81548160ff0219169083151502179055503373ffffffffffffffffffffffffffffffffffffffff167f6eb3a1c6a4675ba92d44e090515b1ceea358f26565d2854df0c99c3f5eaf98508383604051611325929190611cde565b60405180910390a25050565b606080600080600080600160003373ffffffffffffffffffffffffffffffffffffffff1673ffffffffffffffffffffffffffffffffffffffff1681526020019081526020016000206000018054611387906120a7565b905014156113ca576040517f08c379a00000000000000000000000000000000000000000000000000000000081526004016113c190611e15565b60405180910390fd5b6000600160003373ffffffffffffffffffffffffffffffffffffffff1673ffffffffffffffffffffffffffffffffffffffff1681526020019081526020016000206040518060c0016040529081600082018054611426906120a7565b80601f0160208091040260200160405190810160405280929190818152602001828054611452906120a7565b801561149f5780601f106114745761010080835404028352916020019161149f565b820191906000526020600020905b81548152906001019060200180831161148257829003601f168201915b505050505081526020016001820180546114b8906120a7565b80601f01602080910402602001604051908101604052809291908181526020018280546114e4906120a7565b80156115315780601f1061150657610100808354040283529160200191611531565b820191906000526020600020905b81548152906001019060200180831161151457829003601f168201915b505050505081526020016002820160009054906101000a900473ffffffffffffffffffffffffffffffffffffffff1673ffffffffffffffffffffffffffffffffffffffff1673ffffffffffffffffffffffffffffffffffffffff16815260200160038201548152602001600482015481526020016005820160009054906101000a900460ff16151515158152505090508060000151816020015182604001518360600151846080015195509550955095509550509091929394565b60006003826040516115fe9190611c6f565b908152602001604051809103902060009054906101000a900460ff169050919050565b82805461162d906120a7565b90600052602060002090601f01602090048101928261164f5760008555611696565b82601f1061166857805160ff1916838001178555611696565b82800160010185558215611696579182015b8281111561169557825182559160200191906001019061167a565b5b5090506116a391906116a7565b5090565b5b808211156116c05760008160009055506001016116a8565b5090565b60006116d76116d284611f06565b611ed5565b9050828152602081018484840111156116ef57600080fd5b6116fa848285612065565b509392505050565b60008135905061171181612177565b92915050565b600082601f83011261172857600080fd5b81356117388482602086016116c4565b91505092915050565b6000813590506117508161218e565b92915050565b60006020828403121561176857600080fd5b600061177684828501611702565b91505092915050565b6000806040838503121561179257600080fd5b60006117a085828601611702565b92505060206117b185828601611741565b9150509250929050565b6000602082840312156117cd57600080fd5b600082013567ffffffffffffffff8111156117e757600080fd5b6117f384828501611717565b91505092915050565b6000806040838503121561180f57600080fd5b600083013567ffffffffffffffff81111561182957600080fd5b61183585828601611717565b925050602083013567ffffffffffffffff81111561185257600080fd5b61185e85828601611717565b9150509250929050565b60006118748383611bfd565b905092915050565b6118858161201d565b82525050565b600061189682611f5b565b6118a08185611f7e565b9350836020820285016118b285611f36565b8060005b858110156118ee57848403895281516118cf8582611868565b94506118da83611f71565b925060208a019950506001810190506118b6565b50829750879550505050505092915050565b6119098161202f565b82525050565b6000815461191c816120a7565b6119268186611f8f565b94506001821660008114611941576001811461195257611985565b60ff19831686528186019350611985565b61195b85611f46565b60005b8381101561197d5781548189015260018201915060208101905061195e565b838801955050505b50505092915050565b600061199982611f66565b6119a38185611f9a565b93506119b3818560208601612074565b6119bc81612166565b840191505092915050565b60006119d282611f66565b6119dc8185611fab565b93506119ec818560208601612074565b6119f581612166565b840191505092915050565b6000611a0b82611f66565b611a158185611fbc565b9350611a25818560208601612074565b80840191505092915050565b6000611a3e601383611fab565b91507f55736572206e6f742072656769737465726564000000000000000000000000006000830152602082019050919050565b6000611a7e602683611fab565b91507f4f6e6c7920746865206f776e65722063616e20706572666f726d20746869732060008301527f616374696f6e00000000000000000000000000000000000000000000000000006020830152604082019050919050565b6000611ae4601783611fab565b91507f5573657220616c726561647920726567697374657265640000000000000000006000830152602082019050919050565b6000611b24601683611fab565b91507f456d61696c20697320616c72656164792074616b656e000000000000000000006000830152602082019050919050565b6000611b64602f83611fab565b91507f50726f66696c652063616e206f6e6c792062652075706461746564206f6e636560008301527f20657665727920323420686f75727300000000000000000000000000000000006020830152604082019050919050565b6000611bca601983611fab565b91507f557365726e616d6520697320616c72656164792074616b656e000000000000006000830152602082019050919050565b60006040830160008301518482036000860152611c1a828261198e565b9150506020830151611c2f6020860182611c3a565b508091505092915050565b611c438161205b565b82525050565b611c528161205b565b82525050565b6000611c64828461190f565b915081905092915050565b6000611c7b8284611a00565b915081905092915050565b6000602082019050611c9b600083018461187c565b92915050565b60006020820190508181036000830152611cbb818461188b565b905092915050565b6000602082019050611cd86000830184611900565b92915050565b60006040820190508181036000830152611cf881856119c7565b90508181036020830152611d0c81846119c7565b90509392505050565b600060a0820190508181036000830152611d2f81886119c7565b90508181036020830152611d4381876119c7565b9050611d52604083018661187c565b611d5f6060830185611c49565b611d6c6080830184611c49565b9695505050505050565b600060c0820190508181036000830152611d9081896119c7565b90508181036020830152611da481886119c7565b9050611db3604083018761187c565b611dc06060830186611c49565b611dcd6080830185611c49565b611dda60a0830184611900565b979650505050505050565b60006040820190508181036000830152611dff81856119c7565b9050611e0e6020830184611c49565b9392505050565b60006020820190508181036000830152611e2e81611a31565b9050919050565b60006020820190508181036000830152611e4e81611a71565b9050919050565b60006020820190508181036000830152611e6e81611ad7565b9050919050565b60006020820190508181036000830152611e8e81611b17565b9050919050565b60006020820190508181036000830152611eae81611b57565b9050919050565b60006020820190508181036000830152611ece81611bbd565b9050919050565b6000604051905081810181811067ffffffffffffffff82111715611efc57611efb612137565b5b8060405250919050565b600067ffffffffffffffff821115611f2157611f20612137565b5b601f19601f8301169050602081019050919050565b6000819050602082019050919050565b60008190508160005260206000209050919050565b600081519050919050565b600081519050919050565b6000602082019050919050565b600082825260208201905092915050565b600081905092915050565b600082825260208201905092915050565b600082825260208201905092915050565b600081905092915050565b6000611fd28261205b565b9150611fdd8361205b565b9250827fffffffffffffffffffffffffffffffffffffffffffffffffffffffffffffffff03821115612012576120116120d9565b5b828201905092915050565b60006120288261203b565b9050919050565b60008115159050919050565b600073ffffffffffffffffffffffffffffffffffffffff82169050919050565b6000819050919050565b82818337600083830152505050565b60005b83811015612092578082015181840152602081019050612077565b838111156120a1576000848401525b50505050565b600060028204905060018216806120bf57607f821691505b602082108114156120d3576120d2612108565b5b50919050565b7f4e487b7100000000000000000000000000000000000000000000000000000000600052601160045260246000fd5b7f4e487b7100000000000000000000000000000000000000000000000000000000600052602260045260246000fd5b7f4e487b7100000000000000000000000000000000000000000000000000000000600052604160045260246000fd5b6000601f19601f8301169050919050565b6121808161201d565b811461218b57600080fd5b50565b6121978161205b565b81146121a257600080fd5b5056fea264697066735822122095a19d090689ed584131c7496769d724e2af0d9b487e9f71d80d0617ba45b6b464736f6c63430008000033",
  "immutableReferences": {},
  "source": "// SPDX-License-Identifier: MIT\r\npragma solidity ^0.8.0;\r\n\r\ncontract UserManager {\r\n    address public owner;\r\n\r\n    struct User {\r\n        string username;\r\n        string email;\r\n        address userAddress;\r\n        uint lastUpdated; // Tracks the last time the profile was updated\r\n        uint nextUpdateTime; // Tracks the next time the profile can be updated\r\n        bool isUpdated; // New flag to track if the profile has been updated\r\n        // bool hasActiveSubscription;  \r\n    }\r\n\r\n    struct Subscription {\r\n        string movieTitle;\r\n        uint256 subscriptionDate;\r\n    }\r\n\r\n    mapping(address => User) public users;\r\n    mapping(string => bool) private usernames; // Mapping to prevent duplicate usernames\r\n    mapping(string => bool) private emails; // Mapping to prevent duplicate emails\r\n    mapping(address => bool) public hasActiveSubscription; // Tracks active subscriptions\r\n    mapping(address => Subscription[]) public subscriptionHistory; // Track subscription history\r\n\r\n    event UserRegistered(\r\n        address indexed userAddress,\r\n        string username,\r\n        string email\r\n    );\r\n    event ProfileUpdated(\r\n        address indexed userAddress,\r\n        string username,\r\n        string email\r\n    );\r\n    event SubscriptionAdded(\r\n        address indexed userAddress,\r\n        string movieTitle,\r\n        uint256 subscriptionDate\r\n    );\r\n    event MovieAdded(string title, string genre);\r\n\r\n    constructor() {\r\n        owner = msg.sender;\r\n    }\r\n\r\n    modifier onlyOwner() {\r\n        require(msg.sender == owner, \"Only the owner can perform this action\");\r\n        _;\r\n    }\r\n\r\n//     modifier onlySubscribed() {\r\n//     require(users[msg.sender].hasActiveSubscription, \"You must have an active subscription to perform this action\");\r\n//     _;\r\n// }\r\n\r\n    function registerUser(string memory username, string memory email) public {\r\n        require(\r\n            bytes(users[msg.sender].username).length == 0,\r\n            \"User already registered\"\r\n        );\r\n        require(!usernames[username], \"Username is already taken\");\r\n        require(!emails[email], \"Email is already taken\");\r\n\r\n        users[msg.sender] = User({\r\n            username: username,\r\n            email: email,\r\n            userAddress: msg.sender,\r\n            lastUpdated: 0,\r\n            nextUpdateTime: 0,\r\n            isUpdated: false\r\n        });\r\n\r\n        usernames[username] = true; // Mark username as taken\r\n        emails[email] = true; // Mark email as taken\r\n\r\n        emit UserRegistered(msg.sender, username, email);\r\n    }\r\n\r\n//     // Function to update subscription status, callable by TransactionPayment.sol\r\n// function setSubscriptionStatus(address _user, bool _status) external {\r\n//     require(msg.sender == addressOfTransactionPaymentContract, \"Only TransactionPayment can call this\");\r\n//     hasActiveSubscription[_user] = _status;\r\n// }\r\n\r\n    function isUsernameTaken(string memory username) public view returns (bool) {\r\n    return usernames[username];\r\n}\r\n\r\n// Check if the email is taken\r\nfunction isEmailTaken(string memory email) public view returns (bool) {\r\n    return emails[email];\r\n}\r\n\r\n    function updateProfile(string memory _newUsername, string memory _newEmail) public {\r\n        require(\r\n            bytes(users[msg.sender].username).length > 0,\r\n            \"User not registered\"\r\n        );\r\n\r\n        // Prevent profile update if the username or email is already taken by someone else\r\n        require(!usernames[_newUsername] || keccak256(bytes(_newUsername)) == keccak256(bytes(users[msg.sender].username)),\r\n            \"Username is already taken\");\r\n        require(!emails[_newEmail] || keccak256(bytes(_newEmail)) == keccak256(bytes(users[msg.sender].email)),\r\n            \"Email is already taken\");\r\n\r\n        // Profile update logic\r\n        if (!users[msg.sender].isUpdated) {\r\n            // Allow update if profile has not been updated before\r\n            users[msg.sender].isUpdated = true;\r\n        } else {\r\n            // Allow profile update only if 24 hours have passed\r\n            require(\r\n                block.timestamp >= users[msg.sender].nextUpdateTime,\r\n                \"Profile can only be updated once every 24 hours\"\r\n            );\r\n        }\r\n\r\n        // Update the profile details\r\n        users[msg.sender].username = _newUsername;\r\n        users[msg.sender].email = _newEmail;\r\n        users[msg.sender].lastUpdated = block.timestamp;\r\n        users[msg.sender].nextUpdateTime = block.timestamp + 1 days;\r\n        users[msg.sender].isUpdated = true;\r\n\r\n        emit ProfileUpdated(msg.sender, _newUsername, _newEmail);\r\n    }\r\n\r\n    function addSubscription(string memory _movieTitle) public {\r\n        require(\r\n            bytes(users[msg.sender].username).length > 0,\r\n            \"User not registered\"\r\n        );\r\n\r\n        subscriptionHistory[msg.sender].push(\r\n            Subscription(_movieTitle, block.timestamp)\r\n        );\r\n\r\n        emit SubscriptionAdded(msg.sender, _movieTitle, block.timestamp);\r\n    }\r\n\r\n    function getOwner() public view returns (address) {\r\n        return owner;\r\n    }\r\n\r\n    function getProfile() public view returns (string memory, string memory, address, uint, uint) {\r\n        require(\r\n            bytes(users[msg.sender].username).length != 0,\r\n            \"User not registered\"\r\n        );\r\n        User memory user = users[msg.sender];\r\n\r\n        return (\r\n            user.username,\r\n            user.email,\r\n            user.userAddress,\r\n            user.lastUpdated,\r\n            user.nextUpdateTime\r\n        );\r\n    }\r\n\r\n    function getSubscriptionHistory() public view returns (Subscription[] memory) {\r\n        require(\r\n            bytes(users[msg.sender].username).length != 0,\r\n            \"User not registered\"\r\n        );\r\n        return subscriptionHistory[msg.sender];\r\n    }\r\n\r\n    function isUserRegistered(address userAddress) public view returns (bool) {\r\n        return bytes(users[userAddress].username).length != 0;\r\n    }\r\n\r\n    function addMovie(string memory title, string memory genre) public onlyOwner {\r\n        emit MovieAdded(title, genre);\r\n    }\r\n\r\n//     function getSubscriptionHistory() public view onlySubscribed returns (Subscription[] memory) {\r\n//     // Ensure user is registered and return subscription history\r\n//     require(bytes(users[msg.sender].username).length != 0, \"User not registered\");\r\n//     return subscriptionHistory[msg.sender];\r\n// }\r\n}\r\n",
  "sourcePath": "C:\\Users\\choon\\Xampp\\htdocs\\Movie_subscription_solidity-3\\smart_contract\\contracts\\UserManagement.sol",
  "compiler": {
    "name": "solc",
    "version": "0.8.0+commit.c7dfd78e.Emscripten.clang"
  },
  "schemaVersion": "3.4.16",
  "updatedAt": "2024-09-25T07:04:08.750Z",
  "networkType": "ethereum",
  "devdoc": {
    "kind": "dev",
    "methods": {},
    "version": 1
  },
  "userdoc": {
    "kind": "user",
    "methods": {},
    "version": 1
  }
}