{
  "contractName": "UserManager",
  "abi": [
    {
      "anonymous": false,
      "inputs": [
        {
          "indexed": true,
          "internalType": "address",
          "name": "userAddress",
          "type": "address"
        },
        {
          "indexed": false,
          "internalType": "string",
          "name": "username",
          "type": "string"
        },
        {
          "indexed": false,
          "internalType": "string",
          "name": "email",
          "type": "string"
        }
      ],
      "name": "ProfileUpdated",
      "type": "event"
    },
    {
      "anonymous": false,
      "inputs": [
        {
          "indexed": true,
          "internalType": "address",
          "name": "userAddress",
          "type": "address"
        },
        {
          "indexed": false,
          "internalType": "string",
          "name": "movieTitle",
          "type": "string"
        },
        {
          "indexed": false,
          "internalType": "uint256",
          "name": "subscriptionDate",
          "type": "uint256"
        }
      ],
      "name": "SubscriptionAdded",
      "type": "event"
    },
    {
      "anonymous": false,
      "inputs": [
        {
          "indexed": true,
          "internalType": "address",
          "name": "userAddress",
          "type": "address"
        },
        {
          "indexed": false,
          "internalType": "string",
          "name": "username",
          "type": "string"
        },
        {
          "indexed": false,
          "internalType": "string",
          "name": "email",
          "type": "string"
        }
      ],
      "name": "UserRegistered",
      "type": "event"
    },
    {
      "inputs": [
        {
          "internalType": "address",
          "name": "",
          "type": "address"
        },
        {
          "internalType": "uint256",
          "name": "",
          "type": "uint256"
        }
      ],
      "name": "subscriptionHistory",
      "outputs": [
        {
          "internalType": "string",
          "name": "movieTitle",
          "type": "string"
        },
        {
          "internalType": "uint256",
          "name": "subscriptionDate",
          "type": "uint256"
        }
      ],
      "stateMutability": "view",
      "type": "function",
      "constant": true
    },
    {
      "inputs": [
        {
          "internalType": "address",
          "name": "",
          "type": "address"
        }
      ],
      "name": "users",
      "outputs": [
        {
          "internalType": "string",
          "name": "username",
          "type": "string"
        },
        {
          "internalType": "string",
          "name": "email",
          "type": "string"
        },
        {
          "internalType": "address",
          "name": "userAddress",
          "type": "address"
        },
        {
          "internalType": "uint256",
          "name": "lastUpdated",
          "type": "uint256"
        }
      ],
      "stateMutability": "view",
      "type": "function",
      "constant": true
    },
    {
      "inputs": [
        {
          "internalType": "string",
          "name": "username",
          "type": "string"
        },
        {
          "internalType": "string",
          "name": "email",
          "type": "string"
        }
      ],
      "name": "registerUser",
      "outputs": [],
      "stateMutability": "nonpayable",
      "type": "function"
    },
    {
      "inputs": [
        {
          "internalType": "string",
          "name": "_newUsername",
          "type": "string"
        },
        {
          "internalType": "string",
          "name": "_newEmail",
          "type": "string"
        }
      ],
      "name": "updateProfile",
      "outputs": [],
      "stateMutability": "nonpayable",
      "type": "function"
    },
    {
      "inputs": [
        {
          "internalType": "string",
          "name": "_movieTitle",
          "type": "string"
        }
      ],
      "name": "addSubscription",
      "outputs": [],
      "stateMutability": "nonpayable",
      "type": "function"
    },
    {
      "inputs": [],
      "name": "getProfile",
      "outputs": [
        {
          "internalType": "string",
          "name": "",
          "type": "string"
        },
        {
          "internalType": "string",
          "name": "",
          "type": "string"
        },
        {
          "internalType": "address",
          "name": "",
          "type": "address"
        },
        {
          "internalType": "uint256",
          "name": "",
          "type": "uint256"
        }
      ],
      "stateMutability": "view",
      "type": "function",
      "constant": true
    },
    {
      "inputs": [],
      "name": "getSubscriptionHistory",
      "outputs": [
        {
          "components": [
            {
              "internalType": "string",
              "name": "movieTitle",
              "type": "string"
            },
            {
              "internalType": "uint256",
              "name": "subscriptionDate",
              "type": "uint256"
            }
          ],
          "internalType": "struct UserManager.Subscription[]",
          "name": "",
          "type": "tuple[]"
        }
      ],
      "stateMutability": "view",
      "type": "function",
      "constant": true
    }
  ],
  "bytecode": "0x608060405234801561001057600080fd5b5061166b806100206000396000f3fe608060405234801561001057600080fd5b506004361061007d5760003560e01c80634077467a1161005b5780634077467a146100eb578063a87430ba14610109578063c9d3cc6a1461013c578063d6afc9b1146101585761007d565b80631d2e4afd146100825780632ec74ec21461009e57806337f184d5146100ba575b600080fd5b61009c60048036038101906100979190610fa9565b610179565b005b6100b860048036038101906100b39190610f68565b610360565b005b6100d460048036038101906100cf9190610f2c565b6104e9565b6040516100e292919061130c565b60405180910390f35b6100f36105b2565b6040516101009190611260565b60405180910390f35b610123600480360381019061011e9190610f03565b61077b565b60405161013394939291906112b9565b60405180910390f35b61015660048036038101906101519190610fa9565b6108db565b005b610160610b43565b60405161017094939291906112b9565b60405180910390f35b60008060003373ffffffffffffffffffffffffffffffffffffffff1673ffffffffffffffffffffffffffffffffffffffff16815260200190815260200160002060000180546101c790611537565b905014610209576040517f08c379a00000000000000000000000000000000000000000000000000000000081526004016102009061135c565b60405180910390fd5b60405180608001604052808381526020018281526020013373ffffffffffffffffffffffffffffffffffffffff168152602001428152506000803373ffffffffffffffffffffffffffffffffffffffff1673ffffffffffffffffffffffffffffffffffffffff168152602001908152602001600020600082015181600001908051906020019061029a929190610dce565b5060208201518160010190805190602001906102b7929190610dce565b5060408201518160020160006101000a81548173ffffffffffffffffffffffffffffffffffffffff021916908373ffffffffffffffffffffffffffffffffffffffff160217905550606082015181600301559050503373ffffffffffffffffffffffffffffffffffffffff167f92822564bab8864c3a47b34e8d23fbce5c46234eb5da261f94087b995ac0f33b8383604051610354929190611282565b60405180910390a25050565b60008060003373ffffffffffffffffffffffffffffffffffffffff1673ffffffffffffffffffffffffffffffffffffffff16815260200190815260200160002060000180546103ae90611537565b9050116103f0576040517f08c379a00000000000000000000000000000000000000000000000000000000081526004016103e79061133c565b60405180910390fd5b600160003373ffffffffffffffffffffffffffffffffffffffff1673ffffffffffffffffffffffffffffffffffffffff16815260200190815260200160002060405180604001604052808381526020014281525090806001815401808255809150506001900390600052602060002090600202016000909190919091506000820151816000019080519060200190610489929190610dce565b506020820151816001015550503373ffffffffffffffffffffffffffffffffffffffff167fa0bed6fbbd4e81b4b529c7f274b9f93533ad7079e0beba42dcf3da3f6d5b15d082426040516104de92919061130c565b60405180910390a250565b6001602052816000526040600020818154811061050557600080fd5b90600052602060002090600202016000915091505080600001805461052990611537565b80601f016020809104026020016040519081016040528092919081815260200182805461055590611537565b80156105a25780601f10610577576101008083540402835291602001916105a2565b820191906000526020600020905b81548152906001019060200180831161058557829003601f168201915b5050505050908060010154905082565b606060008060003373ffffffffffffffffffffffffffffffffffffffff1673ffffffffffffffffffffffffffffffffffffffff168152602001908152602001600020600001805461060290611537565b90501415610645576040517f08c379a000000000000000000000000000000000000000000000000000000000815260040161063c9061133c565b60405180910390fd5b600160003373ffffffffffffffffffffffffffffffffffffffff1673ffffffffffffffffffffffffffffffffffffffff168152602001908152602001600020805480602002602001604051908101604052809291908181526020016000905b8282101561077257838290600052602060002090600202016040518060400160405290816000820180546106d790611537565b80601f016020809104026020016040519081016040528092919081815260200182805461070390611537565b80156107505780601f1061072557610100808354040283529160200191610750565b820191906000526020600020905b81548152906001019060200180831161073357829003601f168201915b50505050508152602001600182015481525050815260200190600101906106a4565b50505050905090565b600060205280600052604060002060009150905080600001805461079e90611537565b80601f01602080910402602001604051908101604052809291908181526020018280546107ca90611537565b80156108175780601f106107ec57610100808354040283529160200191610817565b820191906000526020600020905b8154815290600101906020018083116107fa57829003601f168201915b50505050509080600101805461082c90611537565b80601f016020809104026020016040519081016040528092919081815260200182805461085890611537565b80156108a55780601f1061087a576101008083540402835291602001916108a5565b820191906000526020600020905b81548152906001019060200180831161088857829003601f168201915b5050505050908060020160009054906101000a900473ffffffffffffffffffffffffffffffffffffffff16908060030154905084565b60008060003373ffffffffffffffffffffffffffffffffffffffff1673ffffffffffffffffffffffffffffffffffffffff168152602001908152602001600020600001805461092990611537565b90501161096b576040517f08c379a00000000000000000000000000000000000000000000000000000000081526004016109629061133c565b60405180910390fd5b620151806000803373ffffffffffffffffffffffffffffffffffffffff1673ffffffffffffffffffffffffffffffffffffffff168152602001908152602001600020600301546109bb9190611463565b4210156109fd576040517f08c379a00000000000000000000000000000000000000000000000000000000081526004016109f49061137c565b60405180910390fd5b816000803373ffffffffffffffffffffffffffffffffffffffff1673ffffffffffffffffffffffffffffffffffffffff1681526020019081526020016000206000019080519060200190610a52929190610dce565b50806000803373ffffffffffffffffffffffffffffffffffffffff1673ffffffffffffffffffffffffffffffffffffffff1681526020019081526020016000206001019080519060200190610aa8929190610dce565b50426000803373ffffffffffffffffffffffffffffffffffffffff1673ffffffffffffffffffffffffffffffffffffffff168152602001908152602001600020600301819055503373ffffffffffffffffffffffffffffffffffffffff167f6eb3a1c6a4675ba92d44e090515b1ceea358f26565d2854df0c99c3f5eaf98508383604051610b37929190611282565b60405180910390a25050565b60608060008060008060003373ffffffffffffffffffffffffffffffffffffffff1673ffffffffffffffffffffffffffffffffffffffff1681526020019081526020016000206000018054610b9790611537565b90501415610bda576040517f08c379a0000000000000000000000000000000000000000000000000000000008152600401610bd19061133c565b60405180910390fd5b60008060003373ffffffffffffffffffffffffffffffffffffffff1673ffffffffffffffffffffffffffffffffffffffff168152602001908152602001600020604051806080016040529081600082018054610c3590611537565b80601f0160208091040260200160405190810160405280929190818152602001828054610c6190611537565b8015610cae5780601f10610c8357610100808354040283529160200191610cae565b820191906000526020600020905b815481529060010190602001808311610c9157829003601f168201915b50505050508152602001600182018054610cc790611537565b80601f0160208091040260200160405190810160405280929190818152602001828054610cf390611537565b8015610d405780601f10610d1557610100808354040283529160200191610d40565b820191906000526020600020905b815481529060010190602001808311610d2357829003601f168201915b505050505081526020016002820160009054906101000a900473ffffffffffffffffffffffffffffffffffffffff1673ffffffffffffffffffffffffffffffffffffffff1673ffffffffffffffffffffffffffffffffffffffff1681526020016003820154815250509050806000015181602001518260400151836060015194509450945094505090919293565b828054610dda90611537565b90600052602060002090601f016020900481019282610dfc5760008555610e43565b82601f10610e1557805160ff1916838001178555610e43565b82800160010185558215610e43579182015b82811115610e42578251825591602001919060010190610e27565b5b509050610e509190610e54565b5090565b5b80821115610e6d576000816000905550600101610e55565b5090565b6000610e84610e7f846113cd565b61139c565b905082815260208101848484011115610e9c57600080fd5b610ea78482856114f5565b509392505050565b600081359050610ebe81611607565b92915050565b600082601f830112610ed557600080fd5b8135610ee5848260208601610e71565b91505092915050565b600081359050610efd8161161e565b92915050565b600060208284031215610f1557600080fd5b6000610f2384828501610eaf565b91505092915050565b60008060408385031215610f3f57600080fd5b6000610f4d85828601610eaf565b9250506020610f5e85828601610eee565b9150509250929050565b600060208284031215610f7a57600080fd5b600082013567ffffffffffffffff811115610f9457600080fd5b610fa084828501610ec4565b91505092915050565b60008060408385031215610fbc57600080fd5b600083013567ffffffffffffffff811115610fd657600080fd5b610fe285828601610ec4565b925050602083013567ffffffffffffffff811115610fff57600080fd5b61100b85828601610ec4565b9150509250929050565b60006110218383611205565b905092915050565b611032816114b9565b82525050565b60006110438261140d565b61104d8185611430565b93508360208202850161105f856113fd565b8060005b8581101561109b578484038952815161107c8582611015565b945061108783611423565b925060208a01995050600181019050611063565b50829750879550505050505092915050565b60006110b882611418565b6110c28185611441565b93506110d2818560208601611504565b6110db816115f6565b840191505092915050565b60006110f182611418565b6110fb8185611452565b935061110b818560208601611504565b611114816115f6565b840191505092915050565b600061112c601383611452565b91507f55736572206e6f742072656769737465726564000000000000000000000000006000830152602082019050919050565b600061116c601783611452565b91507f5573657220616c726561647920726567697374657265640000000000000000006000830152602082019050919050565b60006111ac602f83611452565b91507f50726f66696c652063616e206f6e6c792062652075706461746564206f6e636560008301527f20657665727920323420686f75727300000000000000000000000000000000006020830152604082019050919050565b6000604083016000830151848203600086015261122282826110ad565b91505060208301516112376020860182611242565b508091505092915050565b61124b816114eb565b82525050565b61125a816114eb565b82525050565b6000602082019050818103600083015261127a8184611038565b905092915050565b6000604082019050818103600083015261129c81856110e6565b905081810360208301526112b081846110e6565b90509392505050565b600060808201905081810360008301526112d381876110e6565b905081810360208301526112e781866110e6565b90506112f66040830185611029565b6113036060830184611251565b95945050505050565b6000604082019050818103600083015261132681856110e6565b90506113356020830184611251565b9392505050565b600060208201905081810360008301526113558161111f565b9050919050565b600060208201905081810360008301526113758161115f565b9050919050565b600060208201905081810360008301526113958161119f565b9050919050565b6000604051905081810181811067ffffffffffffffff821117156113c3576113c26115c7565b5b8060405250919050565b600067ffffffffffffffff8211156113e8576113e76115c7565b5b601f19601f8301169050602081019050919050565b6000819050602082019050919050565b600081519050919050565b600081519050919050565b6000602082019050919050565b600082825260208201905092915050565b600082825260208201905092915050565b600082825260208201905092915050565b600061146e826114eb565b9150611479836114eb565b9250827fffffffffffffffffffffffffffffffffffffffffffffffffffffffffffffffff038211156114ae576114ad611569565b5b828201905092915050565b60006114c4826114cb565b9050919050565b600073ffffffffffffffffffffffffffffffffffffffff82169050919050565b6000819050919050565b82818337600083830152505050565b60005b83811015611522578082015181840152602081019050611507565b83811115611531576000848401525b50505050565b6000600282049050600182168061154f57607f821691505b6020821081141561156357611562611598565b5b50919050565b7f4e487b7100000000000000000000000000000000000000000000000000000000600052601160045260246000fd5b7f4e487b7100000000000000000000000000000000000000000000000000000000600052602260045260246000fd5b7f4e487b7100000000000000000000000000000000000000000000000000000000600052604160045260246000fd5b6000601f19601f8301169050919050565b611610816114b9565b811461161b57600080fd5b50565b611627816114eb565b811461163257600080fd5b5056fea2646970667358221220fceff28a3f95569dccd39bf1b570883b406fe7830404a3b4c655b41611cc104b64736f6c63430008000033",
  "immutableReferences": {},
  "source": "// SPDX-License-Identifier: MIT\r\npragma solidity ^0.8.0;\r\n\r\ncontract UserManager {\r\n    struct User {\r\n        string username;\r\n        string email;\r\n        address userAddress;\r\n        uint lastUpdated; // Tracks the last time the profile was updated\r\n    }\r\n\r\n    struct Subscription {\r\n        string movieTitle;\r\n        uint256 subscriptionDate;\r\n    }\r\n\r\n    mapping(address => User) public users;\r\n    mapping(address => Subscription[]) public subscriptionHistory; // Track subscription history\r\n\r\n    event UserRegistered(address indexed userAddress, string username, string email);\r\n    event ProfileUpdated(address indexed userAddress, string username, string email);\r\n    event SubscriptionAdded(address indexed userAddress, string movieTitle, uint256 subscriptionDate);\r\n\r\n    // Register the user\r\n    function registerUser(string memory username, string memory email) public {\r\n        require(bytes(users[msg.sender].username).length == 0, \"User already registered\");\r\n        users[msg.sender] = User({\r\n            username: username,\r\n            email: email,\r\n            userAddress: msg.sender,\r\n            lastUpdated: block.timestamp\r\n        });\r\n\r\n        // Emit event after successful registration\r\n        emit UserRegistered(msg.sender, username, email);\r\n    }\r\n\r\n    // Update profile details with 24-hour restriction\r\n    function updateProfile(string memory _newUsername, string memory _newEmail) public {\r\n        require(bytes(users[msg.sender].username).length > 0, \"User not registered\");\r\n        require(block.timestamp >= users[msg.sender].lastUpdated + 24 hours, \"Profile can only be updated once every 24 hours\");\r\n\r\n        users[msg.sender].username = _newUsername;\r\n        users[msg.sender].email = _newEmail;\r\n        users[msg.sender].lastUpdated = block.timestamp; // Update the timestamp\r\n\r\n        emit ProfileUpdated(msg.sender, _newUsername, _newEmail);\r\n    }\r\n\r\n    // Add a subscription to the user's history\r\n    function addSubscription(string memory _movieTitle) public {\r\n        require(bytes(users[msg.sender].username).length > 0, \"User not registered\");\r\n\r\n        subscriptionHistory[msg.sender].push(Subscription(_movieTitle, block.timestamp));\r\n\r\n        emit SubscriptionAdded(msg.sender, _movieTitle, block.timestamp);\r\n    }\r\n\r\n    // Get user profile\r\n    function getProfile() public view returns (string memory, string memory, address, uint) {\r\n        require(bytes(users[msg.sender].username).length != 0, \"User not registered\");\r\n        User memory user = users[msg.sender];\r\n        return (user.username, user.email, user.userAddress, user.lastUpdated);\r\n    }\r\n\r\n    // Get subscription history for the user\r\n    function getSubscriptionHistory() public view returns (Subscription[] memory) {\r\n        require(bytes(users[msg.sender].username).length != 0, \"User not registered\");\r\n        return subscriptionHistory[msg.sender];\r\n    }\r\n}\r\n",
  "sourcePath": "C:\\Users\\User\\Desktop\\Movie_update\\smart_contract\\contracts\\UserManagement.sol",
  "compiler": {
    "name": "solc",
    "version": "0.8.0+commit.c7dfd78e.Emscripten.clang"
  },
  "schemaVersion": "3.4.16",
  "updatedAt": "2024-09-22T14:35:16.458Z",
  "networkType": "ethereum",
  "devdoc": {
    "kind": "dev",
    "methods": {},
    "version": 1
  },
  "userdoc": {
    "kind": "user",
    "methods": {},
    "version": 1
  }
}