{
  "contractName": "UserManager",
  "abi": [
    {
      "inputs": [],
      "stateMutability": "nonpayable",
      "type": "constructor"
    },
    {
      "anonymous": false,
      "inputs": [
        {
          "indexed": true,
          "internalType": "address",
          "name": "userAddress",
          "type": "address"
        },
        {
          "indexed": false,
          "internalType": "string",
          "name": "username",
          "type": "string"
        },
        {
          "indexed": false,
          "internalType": "string",
          "name": "email",
          "type": "string"
        }
      ],
      "name": "ProfileUpdated",
      "type": "event"
    },
    {
      "anonymous": false,
      "inputs": [
        {
          "indexed": true,
          "internalType": "address",
          "name": "userAddress",
          "type": "address"
        },
        {
          "indexed": false,
          "internalType": "string",
          "name": "movieTitle",
          "type": "string"
        },
        {
          "indexed": false,
          "internalType": "uint256",
          "name": "subscriptionDate",
          "type": "uint256"
        }
      ],
      "name": "SubscriptionAdded",
      "type": "event"
    },
    {
      "anonymous": false,
      "inputs": [
        {
          "indexed": true,
          "internalType": "address",
          "name": "userAddress",
          "type": "address"
        },
        {
          "indexed": false,
          "internalType": "string",
          "name": "username",
          "type": "string"
        },
        {
          "indexed": false,
          "internalType": "string",
          "name": "email",
          "type": "string"
        }
      ],
      "name": "UserRegistered",
      "type": "event"
    },
    {
      "inputs": [],
      "name": "owner",
      "outputs": [
        {
          "internalType": "address",
          "name": "",
          "type": "address"
        }
      ],
      "stateMutability": "view",
      "type": "function"
    },
    {
      "inputs": [
        {
          "internalType": "address",
          "name": "",
          "type": "address"
        },
        {
          "internalType": "uint256",
          "name": "",
          "type": "uint256"
        }
      ],
      "name": "subscriptionHistory",
      "outputs": [
        {
          "internalType": "string",
          "name": "movieTitle",
          "type": "string"
        },
        {
          "internalType": "uint256",
          "name": "subscriptionDate",
          "type": "uint256"
        }
      ],
      "stateMutability": "view",
      "type": "function"
    },
    {
      "inputs": [
        {
          "internalType": "address",
          "name": "",
          "type": "address"
        }
      ],
      "name": "users",
      "outputs": [
        {
          "internalType": "string",
          "name": "username",
          "type": "string"
        },
        {
          "internalType": "string",
          "name": "email",
          "type": "string"
        },
        {
          "internalType": "address",
          "name": "userAddress",
          "type": "address"
        },
        {
          "internalType": "uint256",
          "name": "lastUpdated",
          "type": "uint256"
        },
        {
          "internalType": "bool",
          "name": "isActive",
          "type": "bool"
        }
      ],
      "stateMutability": "view",
      "type": "function"
    },
    {
      "inputs": [
        {
          "internalType": "string",
          "name": "username",
          "type": "string"
        },
        {
          "internalType": "string",
          "name": "email",
          "type": "string"
        }
      ],
      "name": "registerUser",
      "outputs": [],
      "stateMutability": "nonpayable",
      "type": "function"
    },
    {
      "inputs": [],
      "name": "getOwner",
      "outputs": [
        {
          "internalType": "address",
          "name": "",
          "type": "address"
        }
      ],
      "stateMutability": "view",
      "type": "function"
    },
    {
      "inputs": [
        {
          "internalType": "address",
          "name": "userAddress",
          "type": "address"
        }
      ],
      "name": "deactivateUser",
      "outputs": [],
      "stateMutability": "nonpayable",
      "type": "function"
    },
    {
      "inputs": [
        {
          "internalType": "string",
          "name": "_newUsername",
          "type": "string"
        },
        {
          "internalType": "string",
          "name": "_newEmail",
          "type": "string"
        }
      ],
      "name": "updateProfile",
      "outputs": [],
      "stateMutability": "nonpayable",
      "type": "function"
    },
    {
      "inputs": [
        {
          "internalType": "string",
          "name": "_movieTitle",
          "type": "string"
        }
      ],
      "name": "addSubscription",
      "outputs": [],
      "stateMutability": "nonpayable",
      "type": "function"
    },
    {
      "inputs": [],
      "name": "getProfile",
      "outputs": [
        {
          "internalType": "string",
          "name": "",
          "type": "string"
        },
        {
          "internalType": "string",
          "name": "",
          "type": "string"
        },
        {
          "internalType": "address",
          "name": "",
          "type": "address"
        },
        {
          "internalType": "uint256",
          "name": "",
          "type": "uint256"
        }
      ],
      "stateMutability": "view",
      "type": "function"
    },
    {
      "inputs": [],
      "name": "getSubscriptionHistory",
      "outputs": [
        {
          "components": [
            {
              "internalType": "string",
              "name": "movieTitle",
              "type": "string"
            },
            {
              "internalType": "uint256",
              "name": "subscriptionDate",
              "type": "uint256"
            }
          ],
          "internalType": "struct UserManager.Subscription[]",
          "name": "",
          "type": "tuple[]"
        }
      ],
      "stateMutability": "view",
      "type": "function"
    },
    {
      "inputs": [
        {
          "internalType": "address",
          "name": "userAddress",
          "type": "address"
        }
      ],
      "name": "isUserRegistered",
      "outputs": [
        {
          "internalType": "bool",
          "name": "",
          "type": "bool"
        }
      ],
      "stateMutability": "view",
      "type": "function"
    },
    {
      "inputs": [],
      "name": "ownerOnlyFunction",
      "outputs": [],
      "stateMutability": "nonpayable",
      "type": "function"
    }
  ],
  "bytecode": "0x608060405234801561001057600080fd5b50336000806101000a81548173ffffffffffffffffffffffffffffffffffffffff021916908373ffffffffffffffffffffffffffffffffffffffff160217905550611c74806100606000396000f3fe608060405234801561001057600080fd5b50600436106100b45760003560e01c8063893d20e811610071578063893d20e81461018c5780638da5cb5b146101aa578063a87430ba146101c8578063c9d3cc6a146101fc578063d6afc9b114610218578063e021c20614610239576100b4565b8063163f7522146100b95780631a47767b146100e95780631d2e4afd146101055780632ec74ec21461012157806337f184d51461013d5780634077467a1461016e575b600080fd5b6100d360048036038101906100ce9190611374565b610243565b6040516100e091906117c3565b60405180910390f35b61010360048036038101906100fe9190611374565b61029e565b005b61011f600480360381019061011a919061141a565b6104ab565b005b61013b600480360381019061013691906113d9565b6106bd565b005b6101576004803603810190610152919061139d565b610847565b6040516101659291906118c9565b60405180910390f35b610176610910565b60405161018391906117a1565b60405180910390f35b610194610ada565b6040516101a19190611786565b60405180910390f35b6101b2610b03565b6040516101bf9190611786565b60405180910390f35b6101e260048036038101906101dd9190611374565b610b27565b6040516101f3959493929190611868565b60405180910390f35b6102166004803603810190610211919061141a565b610c9a565b005b610220610f07565b6040516102309493929190611815565b60405180910390f35b6102416111af565b005b600080600160008473ffffffffffffffffffffffffffffffffffffffff1673ffffffffffffffffffffffffffffffffffffffff168152602001908152602001600020600001805461029390611b40565b905014159050919050565b60008054906101000a900473ffffffffffffffffffffffffffffffffffffffff1673ffffffffffffffffffffffffffffffffffffffff163373ffffffffffffffffffffffffffffffffffffffff161461032c576040517f08c379a000000000000000000000000000000000000000000000000000000000815260040161032390611919565b60405180910390fd5b6000600160008373ffffffffffffffffffffffffffffffffffffffff1673ffffffffffffffffffffffffffffffffffffffff168152602001908152602001600020600001805461037b90611b40565b905014156103be576040517f08c379a00000000000000000000000000000000000000000000000000000000081526004016103b5906118f9565b60405180910390fd5b600160008273ffffffffffffffffffffffffffffffffffffffff1673ffffffffffffffffffffffffffffffffffffffff16815260200190815260200160002060040160009054906101000a900460ff1661044d576040517f08c379a000000000000000000000000000000000000000000000000000000000815260040161044490611939565b60405180910390fd5b6000600160008373ffffffffffffffffffffffffffffffffffffffff1673ffffffffffffffffffffffffffffffffffffffff16815260200190815260200160002060040160006101000a81548160ff02191690831515021790555050565b6000600160003373ffffffffffffffffffffffffffffffffffffffff1673ffffffffffffffffffffffffffffffffffffffff16815260200190815260200160002060000180546104fa90611b40565b90501461053c576040517f08c379a000000000000000000000000000000000000000000000000000000000815260040161053390611959565b60405180910390fd5b6040518060a001604052808381526020018281526020013373ffffffffffffffffffffffffffffffffffffffff16815260200142815260200160011515815250600160003373ffffffffffffffffffffffffffffffffffffffff1673ffffffffffffffffffffffffffffffffffffffff16815260200190815260200160002060008201518160000190805190602001906105d792919061123f565b5060208201518160010190805190602001906105f492919061123f565b5060408201518160020160006101000a81548173ffffffffffffffffffffffffffffffffffffffff021916908373ffffffffffffffffffffffffffffffffffffffff1602179055506060820151816003015560808201518160040160006101000a81548160ff0219169083151502179055509050503373ffffffffffffffffffffffffffffffffffffffff167f92822564bab8864c3a47b34e8d23fbce5c46234eb5da261f94087b995ac0f33b83836040516106b19291906117de565b60405180910390a25050565b6000600160003373ffffffffffffffffffffffffffffffffffffffff1673ffffffffffffffffffffffffffffffffffffffff168152602001908152602001600020600001805461070c90611b40565b90501161074e576040517f08c379a0000000000000000000000000000000000000000000000000000000008152600401610745906118f9565b60405180910390fd5b600260003373ffffffffffffffffffffffffffffffffffffffff1673ffffffffffffffffffffffffffffffffffffffff168152602001908152602001600020604051806040016040528083815260200142815250908060018154018082558091505060019003906000526020600020906002020160009091909190915060008201518160000190805190602001906107e792919061123f565b506020820151816001015550503373ffffffffffffffffffffffffffffffffffffffff167fa0bed6fbbd4e81b4b529c7f274b9f93533ad7079e0beba42dcf3da3f6d5b15d0824260405161083c9291906118c9565b60405180910390a250565b6002602052816000526040600020818154811061086357600080fd5b90600052602060002090600202016000915091505080600001805461088790611b40565b80601f01602080910402602001604051908101604052809291908181526020018280546108b390611b40565b80156109005780601f106108d557610100808354040283529160200191610900565b820191906000526020600020905b8154815290600101906020018083116108e357829003601f168201915b5050505050908060010154905082565b60606000600160003373ffffffffffffffffffffffffffffffffffffffff1673ffffffffffffffffffffffffffffffffffffffff168152602001908152602001600020600001805461096190611b40565b905014156109a4576040517f08c379a000000000000000000000000000000000000000000000000000000000815260040161099b906118f9565b60405180910390fd5b600260003373ffffffffffffffffffffffffffffffffffffffff1673ffffffffffffffffffffffffffffffffffffffff168152602001908152602001600020805480602002602001604051908101604052809291908181526020016000905b82821015610ad15783829060005260206000209060020201604051806040016040529081600082018054610a3690611b40565b80601f0160208091040260200160405190810160405280929190818152602001828054610a6290611b40565b8015610aaf5780601f10610a8457610100808354040283529160200191610aaf565b820191906000526020600020905b815481529060010190602001808311610a9257829003601f168201915b5050505050815260200160018201548152505081526020019060010190610a03565b50505050905090565b60008060009054906101000a900473ffffffffffffffffffffffffffffffffffffffff16905090565b60008054906101000a900473ffffffffffffffffffffffffffffffffffffffff1681565b6001602052806000526040600020600091509050806000018054610b4a90611b40565b80601f0160208091040260200160405190810160405280929190818152602001828054610b7690611b40565b8015610bc35780601f10610b9857610100808354040283529160200191610bc3565b820191906000526020600020905b815481529060010190602001808311610ba657829003601f168201915b505050505090806001018054610bd890611b40565b80601f0160208091040260200160405190810160405280929190818152602001828054610c0490611b40565b8015610c515780601f10610c2657610100808354040283529160200191610c51565b820191906000526020600020905b815481529060010190602001808311610c3457829003601f168201915b5050505050908060020160009054906101000a900473ffffffffffffffffffffffffffffffffffffffff16908060030154908060040160009054906101000a900460ff16905085565b6000600160003373ffffffffffffffffffffffffffffffffffffffff1673ffffffffffffffffffffffffffffffffffffffff1681526020019081526020016000206000018054610ce990611b40565b905011610d2b576040517f08c379a0000000000000000000000000000000000000000000000000000000008152600401610d22906118f9565b60405180910390fd5b62015180600160003373ffffffffffffffffffffffffffffffffffffffff1673ffffffffffffffffffffffffffffffffffffffff16815260200190815260200160002060030154610d7c9190611a60565b421015610dbe576040517f08c379a0000000000000000000000000000000000000000000000000000000008152600401610db590611979565b60405180910390fd5b81600160003373ffffffffffffffffffffffffffffffffffffffff1673ffffffffffffffffffffffffffffffffffffffff1681526020019081526020016000206000019080519060200190610e1492919061123f565b5080600160003373ffffffffffffffffffffffffffffffffffffffff1673ffffffffffffffffffffffffffffffffffffffff1681526020019081526020016000206001019080519060200190610e6b92919061123f565b5042600160003373ffffffffffffffffffffffffffffffffffffffff1673ffffffffffffffffffffffffffffffffffffffff168152602001908152602001600020600301819055503373ffffffffffffffffffffffffffffffffffffffff167f6eb3a1c6a4675ba92d44e090515b1ceea358f26565d2854df0c99c3f5eaf98508383604051610efb9291906117de565b60405180910390a25050565b6060806000806000600160003373ffffffffffffffffffffffffffffffffffffffff1673ffffffffffffffffffffffffffffffffffffffff1681526020019081526020016000206000018054610f5c90611b40565b90501415610f9f576040517f08c379a0000000000000000000000000000000000000000000000000000000008152600401610f96906118f9565b60405180910390fd5b6000600160003373ffffffffffffffffffffffffffffffffffffffff1673ffffffffffffffffffffffffffffffffffffffff1681526020019081526020016000206040518060a0016040529081600082018054610ffb90611b40565b80601f016020809104026020016040519081016040528092919081815260200182805461102790611b40565b80156110745780601f1061104957610100808354040283529160200191611074565b820191906000526020600020905b81548152906001019060200180831161105757829003601f168201915b5050505050815260200160018201805461108d90611b40565b80601f01602080910402602001604051908101604052809291908181526020018280546110b990611b40565b80156111065780601f106110db57610100808354040283529160200191611106565b820191906000526020600020905b8154815290600101906020018083116110e957829003601f168201915b505050505081526020016002820160009054906101000a900473ffffffffffffffffffffffffffffffffffffffff1673ffffffffffffffffffffffffffffffffffffffff1673ffffffffffffffffffffffffffffffffffffffff168152602001600382015481526020016004820160009054906101000a900460ff1615151515815250509050806000015181602001518260400151836060015194509450945094505090919293565b60008054906101000a900473ffffffffffffffffffffffffffffffffffffffff1673ffffffffffffffffffffffffffffffffffffffff163373ffffffffffffffffffffffffffffffffffffffff161461123d576040517f08c379a000000000000000000000000000000000000000000000000000000000815260040161123490611919565b60405180910390fd5b565b82805461124b90611b40565b90600052602060002090601f01602090048101928261126d57600085556112b4565b82601f1061128657805160ff19168380011785556112b4565b828001600101855582156112b4579182015b828111156112b3578251825591602001919060010190611298565b5b5090506112c191906112c5565b5090565b5b808211156112de5760008160009055506001016112c6565b5090565b60006112f56112f0846119ca565b611999565b90508281526020810184848401111561130d57600080fd5b611318848285611afe565b509392505050565b60008135905061132f81611c10565b92915050565b600082601f83011261134657600080fd5b81356113568482602086016112e2565b91505092915050565b60008135905061136e81611c27565b92915050565b60006020828403121561138657600080fd5b600061139484828501611320565b91505092915050565b600080604083850312156113b057600080fd5b60006113be85828601611320565b92505060206113cf8582860161135f565b9150509250929050565b6000602082840312156113eb57600080fd5b600082013567ffffffffffffffff81111561140557600080fd5b61141184828501611335565b91505092915050565b6000806040838503121561142d57600080fd5b600083013567ffffffffffffffff81111561144757600080fd5b61145385828601611335565b925050602083013567ffffffffffffffff81111561147057600080fd5b61147c85828601611335565b9150509250929050565b6000611492838361172b565b905092915050565b6114a381611ab6565b82525050565b60006114b482611a0a565b6114be8185611a2d565b9350836020820285016114d0856119fa565b8060005b8581101561150c57848403895281516114ed8582611486565b94506114f883611a20565b925060208a019950506001810190506114d4565b50829750879550505050505092915050565b61152781611ac8565b82525050565b600061153882611a15565b6115428185611a3e565b9350611552818560208601611b0d565b61155b81611bff565b840191505092915050565b600061157182611a15565b61157b8185611a4f565b935061158b818560208601611b0d565b61159481611bff565b840191505092915050565b60006115ac601383611a4f565b91507f55736572206e6f742072656769737465726564000000000000000000000000006000830152602082019050919050565b60006115ec602683611a4f565b91507f4f6e6c7920746865206f776e65722063616e20706572666f726d20746869732060008301527f616374696f6e00000000000000000000000000000000000000000000000000006020830152604082019050919050565b6000611652601b83611a4f565b91507f5573657220697320616c726561647920646561637469766174656400000000006000830152602082019050919050565b6000611692601783611a4f565b91507f5573657220616c726561647920726567697374657265640000000000000000006000830152602082019050919050565b60006116d2602f83611a4f565b91507f50726f66696c652063616e206f6e6c792062652075706461746564206f6e636560008301527f20657665727920323420686f75727300000000000000000000000000000000006020830152604082019050919050565b60006040830160008301518482036000860152611748828261152d565b915050602083015161175d6020860182611768565b508091505092915050565b61177181611af4565b82525050565b61178081611af4565b82525050565b600060208201905061179b600083018461149a565b92915050565b600060208201905081810360008301526117bb81846114a9565b905092915050565b60006020820190506117d8600083018461151e565b92915050565b600060408201905081810360008301526117f88185611566565b9050818103602083015261180c8184611566565b90509392505050565b6000608082019050818103600083015261182f8187611566565b905081810360208301526118438186611566565b9050611852604083018561149a565b61185f6060830184611777565b95945050505050565b600060a08201905081810360008301526118828188611566565b905081810360208301526118968187611566565b90506118a5604083018661149a565b6118b26060830185611777565b6118bf608083018461151e565b9695505050505050565b600060408201905081810360008301526118e38185611566565b90506118f26020830184611777565b9392505050565b600060208201905081810360008301526119128161159f565b9050919050565b60006020820190508181036000830152611932816115df565b9050919050565b6000602082019050818103600083015261195281611645565b9050919050565b6000602082019050818103600083015261197281611685565b9050919050565b60006020820190508181036000830152611992816116c5565b9050919050565b6000604051905081810181811067ffffffffffffffff821117156119c0576119bf611bd0565b5b8060405250919050565b600067ffffffffffffffff8211156119e5576119e4611bd0565b5b601f19601f8301169050602081019050919050565b6000819050602082019050919050565b600081519050919050565b600081519050919050565b6000602082019050919050565b600082825260208201905092915050565b600082825260208201905092915050565b600082825260208201905092915050565b6000611a6b82611af4565b9150611a7683611af4565b9250827fffffffffffffffffffffffffffffffffffffffffffffffffffffffffffffffff03821115611aab57611aaa611b72565b5b828201905092915050565b6000611ac182611ad4565b9050919050565b60008115159050919050565b600073ffffffffffffffffffffffffffffffffffffffff82169050919050565b6000819050919050565b82818337600083830152505050565b60005b83811015611b2b578082015181840152602081019050611b10565b83811115611b3a576000848401525b50505050565b60006002820490506001821680611b5857607f821691505b60208210811415611b6c57611b6b611ba1565b5b50919050565b7f4e487b7100000000000000000000000000000000000000000000000000000000600052601160045260246000fd5b7f4e487b7100000000000000000000000000000000000000000000000000000000600052602260045260246000fd5b7f4e487b7100000000000000000000000000000000000000000000000000000000600052604160045260246000fd5b6000601f19601f8301169050919050565b611c1981611ab6565b8114611c2457600080fd5b50565b611c3081611af4565b8114611c3b57600080fd5b5056fea26469706673582212203d5d56a14d29b0130c86d06d31332aea476dc4b7f353d308c6e401ad52326af064736f6c63430008000033",
  "immutableReferences": {},
  "source": "// SPDX-License-Identifier: MIT\r\npragma solidity ^0.8.0;\r\n\r\ncontract UserManager {\r\n    address public owner;\r\n\r\n    struct User {\r\n        string username;\r\n        string email;\r\n        address userAddress;\r\n        uint lastUpdated; // Tracks the last time the profile was updated\r\n        bool isActive;\r\n    }\r\n\r\n    struct Subscription {\r\n        string movieTitle;\r\n        uint256 subscriptionDate;\r\n    }\r\n\r\n    mapping(address => User) public users;\r\n    mapping(address => Subscription[]) public subscriptionHistory; // Track subscription history\r\n\r\n    event UserRegistered(address indexed userAddress, string username, string email);\r\n    event ProfileUpdated(address indexed userAddress, string username, string email);\r\n    event SubscriptionAdded(address indexed userAddress, string movieTitle, uint256 subscriptionDate);\r\n\r\n        // Constructor: Set the deployer as the owner\r\n    constructor() {\r\n        owner = msg.sender;\r\n    }\r\n\r\n    // Modifier to restrict access to only the owner\r\n    modifier onlyOwner() {\r\n        require(msg.sender == owner, \"Only the owner can perform this action\");\r\n        _;\r\n    }\r\n\r\n    // Register the user\r\n    function registerUser(string memory username, string memory email) public {\r\n        require(bytes(users[msg.sender].username).length == 0, \"User already registered\");\r\n        users[msg.sender] = User({\r\n            username: username,\r\n            email: email,\r\n            userAddress: msg.sender,\r\n            lastUpdated: block.timestamp,\r\n            isActive: true \r\n        });\r\n\r\n        // Emit event after successful registration\r\n        emit UserRegistered(msg.sender, username, email);\r\n    }\r\n\r\n        function getOwner() public view returns (address) {\r\n        return owner;\r\n    }\r\n\r\n    // Deactivate a user account (owner only)\r\nfunction deactivateUser(address userAddress) public onlyOwner {\r\n    require(bytes(users[userAddress].username).length != 0, \"User not registered\");\r\n    require(users[userAddress].isActive, \"User is already deactivated\");\r\n\r\n    users[userAddress].isActive = false;\r\n}\r\n\r\n    // Update profile details with 24-hour restriction\r\n    function updateProfile(string memory _newUsername, string memory _newEmail) public {\r\n        require(bytes(users[msg.sender].username).length > 0, \"User not registered\");\r\n        require(block.timestamp >= users[msg.sender].lastUpdated + 24 hours, \"Profile can only be updated once every 24 hours\");\r\n\r\n        users[msg.sender].username = _newUsername;\r\n        users[msg.sender].email = _newEmail;\r\n        users[msg.sender].lastUpdated = block.timestamp; // Update the timestamp\r\n\r\n        emit ProfileUpdated(msg.sender, _newUsername, _newEmail);\r\n    }\r\n\r\n    // Add a subscription to the user's history\r\n    function addSubscription(string memory _movieTitle) public {\r\n        require(bytes(users[msg.sender].username).length > 0, \"User not registered\");\r\n\r\n        subscriptionHistory[msg.sender].push(Subscription(_movieTitle, block.timestamp));\r\n\r\n        emit SubscriptionAdded(msg.sender, _movieTitle, block.timestamp);\r\n    }\r\n\r\n    // Get user profile\r\n    function getProfile() public view returns (string memory, string memory, address, uint) {\r\n        require(bytes(users[msg.sender].username).length != 0, \"User not registered\");\r\n        User memory user = users[msg.sender];\r\n        return (user.username, user.email, user.userAddress, user.lastUpdated);\r\n    }\r\n\r\n    // Get subscription history for the user\r\n    function getSubscriptionHistory() public view returns (Subscription[] memory) {\r\n        require(bytes(users[msg.sender].username).length != 0, \"User not registered\");\r\n        return subscriptionHistory[msg.sender];\r\n    }\r\n\r\n    function isUserRegistered(address userAddress) public view returns (bool) {\r\n        return bytes(users[userAddress].username).length != 0;\r\n    }\r\n\r\n        // Function that can only be performed by the owner (for example, adding movies)\r\n    function ownerOnlyFunction() public onlyOwner {\r\n        // Logic for owner-specific functionality\r\n    }\r\n\r\n}\r\n",
  "sourcePath": "C:\\Users\\khord\\Documents\\Movie_subscription_solidity\\smart_contract\\contracts\\UserManagement.sol",
  "compiler": {
    "name": "solc",
    "version": "0.8.0+commit.c7dfd78e.Emscripten.clang"
  },
  "schemaVersion": "3.4.16",
  "updatedAt": "2024-09-18T13:26:45.322Z",
  "devdoc": {
    "kind": "dev",
    "methods": {},
    "version": 1
  },
  "userdoc": {
    "kind": "user",
    "methods": {},
    "version": 1
  }
}