{
  "contractName": "UserManager",
  "abi": [
    {
      "inputs": [],
      "stateMutability": "nonpayable",
      "type": "constructor"
    },
    {
      "anonymous": false,
      "inputs": [
        {
          "indexed": false,
          "internalType": "string",
          "name": "title",
          "type": "string"
        },
        {
          "indexed": false,
          "internalType": "string",
          "name": "genre",
          "type": "string"
        }
      ],
      "name": "MovieAdded",
      "type": "event"
    },
    {
      "anonymous": false,
      "inputs": [
        {
          "indexed": true,
          "internalType": "address",
          "name": "userAddress",
          "type": "address"
        },
        {
          "indexed": false,
          "internalType": "string",
          "name": "username",
          "type": "string"
        },
        {
          "indexed": false,
          "internalType": "string",
          "name": "email",
          "type": "string"
        }
      ],
      "name": "ProfileUpdated",
      "type": "event"
    },
    {
      "anonymous": false,
      "inputs": [
        {
          "indexed": true,
          "internalType": "address",
          "name": "userAddress",
          "type": "address"
        },
        {
          "indexed": false,
          "internalType": "string",
          "name": "movieTitle",
          "type": "string"
        },
        {
          "indexed": false,
          "internalType": "uint256",
          "name": "subscriptionDate",
          "type": "uint256"
        }
      ],
      "name": "SubscriptionAdded",
      "type": "event"
    },
    {
      "anonymous": false,
      "inputs": [
        {
          "indexed": true,
          "internalType": "address",
          "name": "userAddress",
          "type": "address"
        },
        {
          "indexed": false,
          "internalType": "string",
          "name": "username",
          "type": "string"
        },
        {
          "indexed": false,
          "internalType": "string",
          "name": "email",
          "type": "string"
        }
      ],
      "name": "UserRegistered",
      "type": "event"
    },
    {
      "inputs": [],
      "name": "owner",
      "outputs": [
        {
          "internalType": "address",
          "name": "",
          "type": "address"
        }
      ],
      "stateMutability": "view",
      "type": "function",
      "constant": true
    },
    {
      "inputs": [
        {
          "internalType": "address",
          "name": "",
          "type": "address"
        },
        {
          "internalType": "uint256",
          "name": "",
          "type": "uint256"
        }
      ],
      "name": "subscriptionHistory",
      "outputs": [
        {
          "internalType": "string",
          "name": "movieTitle",
          "type": "string"
        },
        {
          "internalType": "uint256",
          "name": "subscriptionDate",
          "type": "uint256"
        }
      ],
      "stateMutability": "view",
      "type": "function",
      "constant": true
    },
    {
      "inputs": [
        {
          "internalType": "address",
          "name": "",
          "type": "address"
        }
      ],
      "name": "users",
      "outputs": [
        {
          "internalType": "string",
          "name": "username",
          "type": "string"
        },
        {
          "internalType": "string",
          "name": "email",
          "type": "string"
        },
        {
          "internalType": "address",
          "name": "userAddress",
          "type": "address"
        },
        {
          "internalType": "uint256",
          "name": "lastUpdated",
          "type": "uint256"
        },
        {
          "internalType": "uint256",
          "name": "nextUpdateTime",
          "type": "uint256"
        },
        {
          "internalType": "bool",
          "name": "isUpdated",
          "type": "bool"
        }
      ],
      "stateMutability": "view",
      "type": "function",
      "constant": true
    },
    {
      "inputs": [
        {
          "internalType": "string",
          "name": "username",
          "type": "string"
        },
        {
          "internalType": "string",
          "name": "email",
          "type": "string"
        }
      ],
      "name": "registerUser",
      "outputs": [],
      "stateMutability": "nonpayable",
      "type": "function"
    },
    {
      "inputs": [
        {
          "internalType": "string",
          "name": "username",
          "type": "string"
        }
      ],
      "name": "isUsernameTaken",
      "outputs": [
        {
          "internalType": "bool",
          "name": "",
          "type": "bool"
        }
      ],
      "stateMutability": "view",
      "type": "function",
      "constant": true
    },
    {
      "inputs": [
        {
          "internalType": "string",
          "name": "email",
          "type": "string"
        }
      ],
      "name": "isEmailTaken",
      "outputs": [
        {
          "internalType": "bool",
          "name": "",
          "type": "bool"
        }
      ],
      "stateMutability": "view",
      "type": "function",
      "constant": true
    },
    {
      "inputs": [
        {
          "internalType": "string",
          "name": "_newUsername",
          "type": "string"
        },
        {
          "internalType": "string",
          "name": "_newEmail",
          "type": "string"
        }
      ],
      "name": "updateProfile",
      "outputs": [],
      "stateMutability": "nonpayable",
      "type": "function"
    },
    {
      "inputs": [
        {
          "internalType": "string",
          "name": "_movieTitle",
          "type": "string"
        }
      ],
      "name": "addSubscription",
      "outputs": [],
      "stateMutability": "nonpayable",
      "type": "function"
    },
    {
      "inputs": [],
      "name": "getOwner",
      "outputs": [
        {
          "internalType": "address",
          "name": "",
          "type": "address"
        }
      ],
      "stateMutability": "view",
      "type": "function",
      "constant": true
    },
    {
      "inputs": [],
      "name": "getProfile",
      "outputs": [
        {
          "internalType": "string",
          "name": "",
          "type": "string"
        },
        {
          "internalType": "string",
          "name": "",
          "type": "string"
        },
        {
          "internalType": "address",
          "name": "",
          "type": "address"
        },
        {
          "internalType": "uint256",
          "name": "",
          "type": "uint256"
        },
        {
          "internalType": "uint256",
          "name": "",
          "type": "uint256"
        }
      ],
      "stateMutability": "view",
      "type": "function",
      "constant": true
    },
    {
      "inputs": [],
      "name": "getSubscriptionHistory",
      "outputs": [
        {
          "components": [
            {
              "internalType": "string",
              "name": "movieTitle",
              "type": "string"
            },
            {
              "internalType": "uint256",
              "name": "subscriptionDate",
              "type": "uint256"
            }
          ],
          "internalType": "struct UserManager.Subscription[]",
          "name": "",
          "type": "tuple[]"
        }
      ],
      "stateMutability": "view",
      "type": "function",
      "constant": true
    },
    {
      "inputs": [
        {
          "internalType": "address",
          "name": "userAddress",
          "type": "address"
        }
      ],
      "name": "isUserRegistered",
      "outputs": [
        {
          "internalType": "bool",
          "name": "",
          "type": "bool"
        }
      ],
      "stateMutability": "view",
      "type": "function",
      "constant": true
    },
    {
      "inputs": [
        {
          "internalType": "string",
          "name": "title",
          "type": "string"
        },
        {
          "internalType": "string",
          "name": "genre",
          "type": "string"
        }
      ],
      "name": "addMovie",
      "outputs": [],
      "stateMutability": "nonpayable",
      "type": "function"
    }
  ],
  "bytecode": "0x608060405234801561001057600080fd5b50336000806101000a81548173ffffffffffffffffffffffffffffffffffffffff021916908373ffffffffffffffffffffffffffffffffffffffff160217905550612170806100606000396000f3fe608060405234801561001057600080fd5b50600436106100cf5760003560e01c8063893d20e81161008c578063a87430ba11610066578063a87430ba14610213578063c9d3cc6a14610248578063d6afc9b114610264578063fc17f6fd14610286576100cf565b8063893d20e8146101bb5780638da5cb5b146101d9578063967a8be4146101f7576100cf565b8063163f7522146100d4578063176c5919146101045780631d2e4afd146101345780632ec74ec21461015057806337f184d51461016c5780634077467a1461019d575b600080fd5b6100ee60048036038101906100e991906116eb565b6102b6565b6040516100fb9190611c58565b60405180910390f35b61011e60048036038101906101199190611750565b610311565b60405161012b9190611c58565b60405180910390f35b61014e60048036038101906101499190611791565b610346565b005b61016a60048036038101906101659190611750565b6106b0565b005b61018660048036038101906101819190611714565b61083a565b604051610194929190611d7a565b60405180910390f35b6101a5610903565b6040516101b29190611c36565b60405180910390f35b6101c3610acd565b6040516101d09190611c1b565b60405180910390f35b6101e1610af6565b6040516101ee9190611c1b565b60405180910390f35b610211600480360381019061020c9190611791565b610b1a565b005b61022d600480360381019061022891906116eb565b610be5565b60405161023f96959493929190611d0b565b60405180910390f35b610262600480360381019061025d9190611791565b610d5e565b005b61026c6112c6565b60405161027d959493929190611caa565b60405180910390f35b6102a0600480360381019061029b9190611750565b611581565b6040516102ad9190611c58565b60405180910390f35b600080600160008473ffffffffffffffffffffffffffffffffffffffff1673ffffffffffffffffffffffffffffffffffffffff16815260200190815260200160002060000180546103069061203c565b905014159050919050565b60006002826040516103239190611c04565b908152602001604051809103902060009054906101000a900460ff169050919050565b6000600160003373ffffffffffffffffffffffffffffffffffffffff1673ffffffffffffffffffffffffffffffffffffffff16815260200190815260200160002060000180546103959061203c565b9050146103d7576040517f08c379a00000000000000000000000000000000000000000000000000000000081526004016103ce90611dea565b60405180910390fd5b6002826040516103e79190611c04565b908152602001604051809103902060009054906101000a900460ff1615610443576040517f08c379a000000000000000000000000000000000000000000000000000000000815260040161043a90611e4a565b60405180910390fd5b6003816040516104539190611c04565b908152602001604051809103902060009054906101000a900460ff16156104af576040517f08c379a00000000000000000000000000000000000000000000000000000000081526004016104a690611e0a565b60405180910390fd5b6040518060c001604052808381526020018281526020013373ffffffffffffffffffffffffffffffffffffffff168152602001600081526020016000815260200160001515815250600160003373ffffffffffffffffffffffffffffffffffffffff1673ffffffffffffffffffffffffffffffffffffffff16815260200190815260200160002060008201518160000190805190602001906105529291906115b6565b50602082015181600101908051906020019061056f9291906115b6565b5060408201518160020160006101000a81548173ffffffffffffffffffffffffffffffffffffffff021916908373ffffffffffffffffffffffffffffffffffffffff160217905550606082015181600301556080820151816004015560a08201518160050160006101000a81548160ff02191690831515021790555090505060016002836040516106009190611c04565b908152602001604051809103902060006101000a81548160ff02191690831515021790555060016003826040516106379190611c04565b908152602001604051809103902060006101000a81548160ff0219169083151502179055503373ffffffffffffffffffffffffffffffffffffffff167f92822564bab8864c3a47b34e8d23fbce5c46234eb5da261f94087b995ac0f33b83836040516106a4929190611c73565b60405180910390a25050565b6000600160003373ffffffffffffffffffffffffffffffffffffffff1673ffffffffffffffffffffffffffffffffffffffff16815260200190815260200160002060000180546106ff9061203c565b905011610741576040517f08c379a000000000000000000000000000000000000000000000000000000000815260040161073890611daa565b60405180910390fd5b600460003373ffffffffffffffffffffffffffffffffffffffff1673ffffffffffffffffffffffffffffffffffffffff168152602001908152602001600020604051806040016040528083815260200142815250908060018154018082558091505060019003906000526020600020906002020160009091909190915060008201518160000190805190602001906107da9291906115b6565b506020820151816001015550503373ffffffffffffffffffffffffffffffffffffffff167fa0bed6fbbd4e81b4b529c7f274b9f93533ad7079e0beba42dcf3da3f6d5b15d0824260405161082f929190611d7a565b60405180910390a250565b6004602052816000526040600020818154811061085657600080fd5b90600052602060002090600202016000915091505080600001805461087a9061203c565b80601f01602080910402602001604051908101604052809291908181526020018280546108a69061203c565b80156108f35780601f106108c8576101008083540402835291602001916108f3565b820191906000526020600020905b8154815290600101906020018083116108d657829003601f168201915b5050505050908060010154905082565b60606000600160003373ffffffffffffffffffffffffffffffffffffffff1673ffffffffffffffffffffffffffffffffffffffff16815260200190815260200160002060000180546109549061203c565b90501415610997576040517f08c379a000000000000000000000000000000000000000000000000000000000815260040161098e90611daa565b60405180910390fd5b600460003373ffffffffffffffffffffffffffffffffffffffff1673ffffffffffffffffffffffffffffffffffffffff168152602001908152602001600020805480602002602001604051908101604052809291908181526020016000905b82821015610ac45783829060005260206000209060020201604051806040016040529081600082018054610a299061203c565b80601f0160208091040260200160405190810160405280929190818152602001828054610a559061203c565b8015610aa25780601f10610a7757610100808354040283529160200191610aa2565b820191906000526020600020905b815481529060010190602001808311610a8557829003601f168201915b50505050508152602001600182015481525050815260200190600101906109f6565b50505050905090565b60008060009054906101000a900473ffffffffffffffffffffffffffffffffffffffff16905090565b60008054906101000a900473ffffffffffffffffffffffffffffffffffffffff1681565b60008054906101000a900473ffffffffffffffffffffffffffffffffffffffff1673ffffffffffffffffffffffffffffffffffffffff163373ffffffffffffffffffffffffffffffffffffffff1614610ba8576040517f08c379a0000000000000000000000000000000000000000000000000000000008152600401610b9f90611dca565b60405180910390fd5b7fc493497c830c3d7255d9620f154cf8b3d1f5fc34578d3bb6719961d215e3499b8282604051610bd9929190611c73565b60405180910390a15050565b6001602052806000526040600020600091509050806000018054610c089061203c565b80601f0160208091040260200160405190810160405280929190818152602001828054610c349061203c565b8015610c815780601f10610c5657610100808354040283529160200191610c81565b820191906000526020600020905b815481529060010190602001808311610c6457829003601f168201915b505050505090806001018054610c969061203c565b80601f0160208091040260200160405190810160405280929190818152602001828054610cc29061203c565b8015610d0f5780601f10610ce457610100808354040283529160200191610d0f565b820191906000526020600020905b815481529060010190602001808311610cf257829003601f168201915b5050505050908060020160009054906101000a900473ffffffffffffffffffffffffffffffffffffffff16908060030154908060040154908060050160009054906101000a900460ff16905086565b6000600160003373ffffffffffffffffffffffffffffffffffffffff1673ffffffffffffffffffffffffffffffffffffffff1681526020019081526020016000206000018054610dad9061203c565b905011610def576040517f08c379a0000000000000000000000000000000000000000000000000000000008152600401610de690611daa565b60405180910390fd5b600282604051610dff9190611c04565b908152602001604051809103902060009054906101000a900460ff161580610e835750600160003373ffffffffffffffffffffffffffffffffffffffff1673ffffffffffffffffffffffffffffffffffffffff168152602001908152602001600020600001604051610e719190611bed565b60405180910390208280519060200120145b610ec2576040517f08c379a0000000000000000000000000000000000000000000000000000000008152600401610eb990611e4a565b60405180910390fd5b600381604051610ed29190611c04565b908152602001604051809103902060009054906101000a900460ff161580610f565750600160003373ffffffffffffffffffffffffffffffffffffffff1673ffffffffffffffffffffffffffffffffffffffff168152602001908152602001600020600101604051610f449190611bed565b60405180910390208180519060200120145b610f95576040517f08c379a0000000000000000000000000000000000000000000000000000000008152600401610f8c90611e0a565b60405180910390fd5b600160003373ffffffffffffffffffffffffffffffffffffffff1673ffffffffffffffffffffffffffffffffffffffff16815260200190815260200160002060050160009054906101000a900460ff166110485760018060003373ffffffffffffffffffffffffffffffffffffffff1673ffffffffffffffffffffffffffffffffffffffff16815260200190815260200160002060050160006101000a81548160ff0219169083151502179055506110ce565b600160003373ffffffffffffffffffffffffffffffffffffffff1673ffffffffffffffffffffffffffffffffffffffff168152602001908152602001600020600401544210156110cd576040517f08c379a00000000000000000000000000000000000000000000000000000000081526004016110c490611e2a565b60405180910390fd5b5b81600160003373ffffffffffffffffffffffffffffffffffffffff1673ffffffffffffffffffffffffffffffffffffffff16815260200190815260200160002060000190805190602001906111249291906115b6565b5080600160003373ffffffffffffffffffffffffffffffffffffffff1673ffffffffffffffffffffffffffffffffffffffff168152602001908152602001600020600101908051906020019061117b9291906115b6565b5042600160003373ffffffffffffffffffffffffffffffffffffffff1673ffffffffffffffffffffffffffffffffffffffff1681526020019081526020016000206003018190555062015180426111d29190611f5c565b600160003373ffffffffffffffffffffffffffffffffffffffff1673ffffffffffffffffffffffffffffffffffffffff1681526020019081526020016000206004018190555060018060003373ffffffffffffffffffffffffffffffffffffffff1673ffffffffffffffffffffffffffffffffffffffff16815260200190815260200160002060050160006101000a81548160ff0219169083151502179055503373ffffffffffffffffffffffffffffffffffffffff167f6eb3a1c6a4675ba92d44e090515b1ceea358f26565d2854df0c99c3f5eaf985083836040516112ba929190611c73565b60405180910390a25050565b606080600080600080600160003373ffffffffffffffffffffffffffffffffffffffff1673ffffffffffffffffffffffffffffffffffffffff168152602001908152602001600020600001805461131c9061203c565b9050141561135f576040517f08c379a000000000000000000000000000000000000000000000000000000000815260040161135690611daa565b60405180910390fd5b6000600160003373ffffffffffffffffffffffffffffffffffffffff1673ffffffffffffffffffffffffffffffffffffffff1681526020019081526020016000206040518060c00160405290816000820180546113bb9061203c565b80601f01602080910402602001604051908101604052809291908181526020018280546113e79061203c565b80156114345780601f1061140957610100808354040283529160200191611434565b820191906000526020600020905b81548152906001019060200180831161141757829003601f168201915b5050505050815260200160018201805461144d9061203c565b80601f01602080910402602001604051908101604052809291908181526020018280546114799061203c565b80156114c65780601f1061149b576101008083540402835291602001916114c6565b820191906000526020600020905b8154815290600101906020018083116114a957829003601f168201915b505050505081526020016002820160009054906101000a900473ffffffffffffffffffffffffffffffffffffffff1673ffffffffffffffffffffffffffffffffffffffff1673ffffffffffffffffffffffffffffffffffffffff16815260200160038201548152602001600482015481526020016005820160009054906101000a900460ff16151515158152505090508060000151816020015182604001518360600151846080015195509550955095509550509091929394565b60006003826040516115939190611c04565b908152602001604051809103902060009054906101000a900460ff169050919050565b8280546115c29061203c565b90600052602060002090601f0160209004810192826115e4576000855561162b565b82601f106115fd57805160ff191683800117855561162b565b8280016001018555821561162b579182015b8281111561162a57825182559160200191906001019061160f565b5b509050611638919061163c565b5090565b5b8082111561165557600081600090555060010161163d565b5090565b600061166c61166784611e9b565b611e6a565b90508281526020810184848401111561168457600080fd5b61168f848285611ffa565b509392505050565b6000813590506116a68161210c565b92915050565b600082601f8301126116bd57600080fd5b81356116cd848260208601611659565b91505092915050565b6000813590506116e581612123565b92915050565b6000602082840312156116fd57600080fd5b600061170b84828501611697565b91505092915050565b6000806040838503121561172757600080fd5b600061173585828601611697565b9250506020611746858286016116d6565b9150509250929050565b60006020828403121561176257600080fd5b600082013567ffffffffffffffff81111561177c57600080fd5b611788848285016116ac565b91505092915050565b600080604083850312156117a457600080fd5b600083013567ffffffffffffffff8111156117be57600080fd5b6117ca858286016116ac565b925050602083013567ffffffffffffffff8111156117e757600080fd5b6117f3858286016116ac565b9150509250929050565b60006118098383611b92565b905092915050565b61181a81611fb2565b82525050565b600061182b82611ef0565b6118358185611f13565b93508360208202850161184785611ecb565b8060005b85811015611883578484038952815161186485826117fd565b945061186f83611f06565b925060208a0199505060018101905061184b565b50829750879550505050505092915050565b61189e81611fc4565b82525050565b600081546118b18161203c565b6118bb8186611f24565b945060018216600081146118d657600181146118e75761191a565b60ff1983168652818601935061191a565b6118f085611edb565b60005b83811015611912578154818901526001820191506020810190506118f3565b838801955050505b50505092915050565b600061192e82611efb565b6119388185611f2f565b9350611948818560208601612009565b611951816120fb565b840191505092915050565b600061196782611efb565b6119718185611f40565b9350611981818560208601612009565b61198a816120fb565b840191505092915050565b60006119a082611efb565b6119aa8185611f51565b93506119ba818560208601612009565b80840191505092915050565b60006119d3601383611f40565b91507f55736572206e6f742072656769737465726564000000000000000000000000006000830152602082019050919050565b6000611a13602683611f40565b91507f4f6e6c7920746865206f776e65722063616e20706572666f726d20746869732060008301527f616374696f6e00000000000000000000000000000000000000000000000000006020830152604082019050919050565b6000611a79601783611f40565b91507f5573657220616c726561647920726567697374657265640000000000000000006000830152602082019050919050565b6000611ab9601683611f40565b91507f456d61696c20697320616c72656164792074616b656e000000000000000000006000830152602082019050919050565b6000611af9602f83611f40565b91507f50726f66696c652063616e206f6e6c792062652075706461746564206f6e636560008301527f20657665727920323420686f75727300000000000000000000000000000000006020830152604082019050919050565b6000611b5f601983611f40565b91507f557365726e616d6520697320616c72656164792074616b656e000000000000006000830152602082019050919050565b60006040830160008301518482036000860152611baf8282611923565b9150506020830151611bc46020860182611bcf565b508091505092915050565b611bd881611ff0565b82525050565b611be781611ff0565b82525050565b6000611bf982846118a4565b915081905092915050565b6000611c108284611995565b915081905092915050565b6000602082019050611c306000830184611811565b92915050565b60006020820190508181036000830152611c508184611820565b905092915050565b6000602082019050611c6d6000830184611895565b92915050565b60006040820190508181036000830152611c8d818561195c565b90508181036020830152611ca1818461195c565b90509392505050565b600060a0820190508181036000830152611cc4818861195c565b90508181036020830152611cd8818761195c565b9050611ce76040830186611811565b611cf46060830185611bde565b611d016080830184611bde565b9695505050505050565b600060c0820190508181036000830152611d25818961195c565b90508181036020830152611d39818861195c565b9050611d486040830187611811565b611d556060830186611bde565b611d626080830185611bde565b611d6f60a0830184611895565b979650505050505050565b60006040820190508181036000830152611d94818561195c565b9050611da36020830184611bde565b9392505050565b60006020820190508181036000830152611dc3816119c6565b9050919050565b60006020820190508181036000830152611de381611a06565b9050919050565b60006020820190508181036000830152611e0381611a6c565b9050919050565b60006020820190508181036000830152611e2381611aac565b9050919050565b60006020820190508181036000830152611e4381611aec565b9050919050565b60006020820190508181036000830152611e6381611b52565b9050919050565b6000604051905081810181811067ffffffffffffffff82111715611e9157611e906120cc565b5b8060405250919050565b600067ffffffffffffffff821115611eb657611eb56120cc565b5b601f19601f8301169050602081019050919050565b6000819050602082019050919050565b60008190508160005260206000209050919050565b600081519050919050565b600081519050919050565b6000602082019050919050565b600082825260208201905092915050565b600081905092915050565b600082825260208201905092915050565b600082825260208201905092915050565b600081905092915050565b6000611f6782611ff0565b9150611f7283611ff0565b9250827fffffffffffffffffffffffffffffffffffffffffffffffffffffffffffffffff03821115611fa757611fa661206e565b5b828201905092915050565b6000611fbd82611fd0565b9050919050565b60008115159050919050565b600073ffffffffffffffffffffffffffffffffffffffff82169050919050565b6000819050919050565b82818337600083830152505050565b60005b8381101561202757808201518184015260208101905061200c565b83811115612036576000848401525b50505050565b6000600282049050600182168061205457607f821691505b602082108114156120685761206761209d565b5b50919050565b7f4e487b7100000000000000000000000000000000000000000000000000000000600052601160045260246000fd5b7f4e487b7100000000000000000000000000000000000000000000000000000000600052602260045260246000fd5b7f4e487b7100000000000000000000000000000000000000000000000000000000600052604160045260246000fd5b6000601f19601f8301169050919050565b61211581611fb2565b811461212057600080fd5b50565b61212c81611ff0565b811461213757600080fd5b5056fea2646970667358221220160d68f2d45a816d7f027d16eeff507d1f7f2b8b480c4d2253cd2ed138a9fde764736f6c63430008000033",
  "immutableReferences": {},
  "source": "// SPDX-License-Identifier: MIT\r\npragma solidity ^0.8.0;\r\n\r\ncontract UserManager {\r\n    address public owner;\r\n\r\n    struct User {\r\n        string username;\r\n        string email;\r\n        address userAddress;\r\n        uint lastUpdated; // Tracks the last time the profile was updated\r\n        uint nextUpdateTime; // Tracks the next time the profile can be updated\r\n        bool isUpdated; // New flag to track if the profile has been updated\r\n    }\r\n\r\n    struct Subscription {\r\n        string movieTitle;\r\n        uint256 subscriptionDate;\r\n    }\r\n\r\n    mapping(address => User) public users;\r\n    mapping(string => bool) private usernames; // Mapping to prevent duplicate usernames\r\n    mapping(string => bool) private emails; // Mapping to prevent duplicate emails\r\n    mapping(address => Subscription[]) public subscriptionHistory; // Track subscription history\r\n\r\n    event UserRegistered(\r\n        address indexed userAddress,\r\n        string username,\r\n        string email\r\n    );\r\n    event ProfileUpdated(\r\n        address indexed userAddress,\r\n        string username,\r\n        string email\r\n    );\r\n    event SubscriptionAdded(\r\n        address indexed userAddress,\r\n        string movieTitle,\r\n        uint256 subscriptionDate\r\n    );\r\n    event MovieAdded(string title, string genre);\r\n\r\n    constructor() {\r\n        owner = msg.sender;\r\n    }\r\n\r\n    modifier onlyOwner() {\r\n        require(msg.sender == owner, \"Only the owner can perform this action\");\r\n        _;\r\n    }\r\n\r\n    function registerUser(string memory username, string memory email) public {\r\n        require(\r\n            bytes(users[msg.sender].username).length == 0,\r\n            \"User already registered\"\r\n        );\r\n        require(!usernames[username], \"Username is already taken\");\r\n        require(!emails[email], \"Email is already taken\");\r\n\r\n        users[msg.sender] = User({\r\n            username: username,\r\n            email: email,\r\n            userAddress: msg.sender,\r\n            lastUpdated: 0,\r\n            nextUpdateTime: 0,\r\n            isUpdated: false\r\n        });\r\n\r\n        usernames[username] = true; // Mark username as taken\r\n        emails[email] = true; // Mark email as taken\r\n\r\n        emit UserRegistered(msg.sender, username, email);\r\n    }\r\n\r\n    function isUsernameTaken(string memory username) public view returns (bool) {\r\n    return usernames[username];\r\n}\r\n\r\n// Check if the email is taken\r\nfunction isEmailTaken(string memory email) public view returns (bool) {\r\n    return emails[email];\r\n}\r\n\r\n    function updateProfile(string memory _newUsername, string memory _newEmail) public {\r\n        require(\r\n            bytes(users[msg.sender].username).length > 0,\r\n            \"User not registered\"\r\n        );\r\n\r\n        // Prevent profile update if the username or email is already taken by someone else\r\n        require(!usernames[_newUsername] || keccak256(bytes(_newUsername)) == keccak256(bytes(users[msg.sender].username)),\r\n            \"Username is already taken\");\r\n        require(!emails[_newEmail] || keccak256(bytes(_newEmail)) == keccak256(bytes(users[msg.sender].email)),\r\n            \"Email is already taken\");\r\n\r\n        // Profile update logic\r\n        if (!users[msg.sender].isUpdated) {\r\n            // Allow update if profile has not been updated before\r\n            users[msg.sender].isUpdated = true;\r\n        } else {\r\n            // Allow profile update only if 24 hours have passed\r\n            require(\r\n                block.timestamp >= users[msg.sender].nextUpdateTime,\r\n                \"Profile can only be updated once every 24 hours\"\r\n            );\r\n        }\r\n\r\n        // Update the profile details\r\n        users[msg.sender].username = _newUsername;\r\n        users[msg.sender].email = _newEmail;\r\n        users[msg.sender].lastUpdated = block.timestamp;\r\n        users[msg.sender].nextUpdateTime = block.timestamp + 1 days;\r\n        users[msg.sender].isUpdated = true;\r\n\r\n        emit ProfileUpdated(msg.sender, _newUsername, _newEmail);\r\n    }\r\n\r\n    function addSubscription(string memory _movieTitle) public {\r\n        require(\r\n            bytes(users[msg.sender].username).length > 0,\r\n            \"User not registered\"\r\n        );\r\n\r\n        subscriptionHistory[msg.sender].push(\r\n            Subscription(_movieTitle, block.timestamp)\r\n        );\r\n\r\n        emit SubscriptionAdded(msg.sender, _movieTitle, block.timestamp);\r\n    }\r\n\r\n    function getOwner() public view returns (address) {\r\n        return owner;\r\n    }\r\n\r\n    function getProfile() public view returns (string memory, string memory, address, uint, uint) {\r\n        require(\r\n            bytes(users[msg.sender].username).length != 0,\r\n            \"User not registered\"\r\n        );\r\n        User memory user = users[msg.sender];\r\n\r\n        return (\r\n            user.username,\r\n            user.email,\r\n            user.userAddress,\r\n            user.lastUpdated,\r\n            user.nextUpdateTime\r\n        );\r\n    }\r\n\r\n    function getSubscriptionHistory() public view returns (Subscription[] memory) {\r\n        require(\r\n            bytes(users[msg.sender].username).length != 0,\r\n            \"User not registered\"\r\n        );\r\n        return subscriptionHistory[msg.sender];\r\n    }\r\n\r\n    function isUserRegistered(address userAddress) public view returns (bool) {\r\n        return bytes(users[userAddress].username).length != 0;\r\n    }\r\n\r\n    function addMovie(string memory title, string memory genre) public onlyOwner {\r\n        emit MovieAdded(title, genre);\r\n    }\r\n}\r\n",
  "sourcePath": "C:\\Users\\User\\Desktop\\movie3\\smart_contract\\contracts\\UserManagement.sol",
  "compiler": {
    "name": "solc",
    "version": "0.8.0+commit.c7dfd78e.Emscripten.clang"
  },
  "schemaVersion": "3.4.16",
  "updatedAt": "2024-09-24T12:40:51.799Z",
  "networkType": "ethereum",
  "devdoc": {
    "kind": "dev",
    "methods": {},
    "version": 1
  },
  "userdoc": {
    "kind": "user",
    "methods": {},
    "version": 1
  }
}