{
  "contractName": "UserManagement",
  "abi": [
    {
      "inputs": [],
      "stateMutability": "nonpayable",
      "type": "constructor"
    },
    {
      "anonymous": false,
      "inputs": [
        {
          "indexed": false,
          "internalType": "string",
          "name": "title",
          "type": "string"
        },
        {
          "indexed": false,
          "internalType": "string",
          "name": "genre",
          "type": "string"
        }
      ],
      "name": "MovieAdded",
      "type": "event"
    },
    {
      "anonymous": false,
      "inputs": [
        {
          "indexed": true,
          "internalType": "address",
          "name": "userAddress",
          "type": "address"
        },
        {
          "indexed": false,
          "internalType": "string",
          "name": "username",
          "type": "string"
        },
        {
          "indexed": false,
          "internalType": "string",
          "name": "email",
          "type": "string"
        }
      ],
      "name": "ProfileUpdated",
      "type": "event"
    },
    {
      "anonymous": false,
      "inputs": [
        {
          "indexed": true,
          "internalType": "address",
          "name": "userAddress",
          "type": "address"
        },
        {
          "indexed": false,
          "internalType": "string",
          "name": "username",
          "type": "string"
        },
        {
          "indexed": false,
          "internalType": "string",
          "name": "email",
          "type": "string"
        }
      ],
      "name": "UserRegistered",
      "type": "event"
    },
    {
      "inputs": [],
      "name": "owner",
      "outputs": [
        {
          "internalType": "address",
          "name": "",
          "type": "address"
        }
      ],
      "stateMutability": "view",
      "type": "function",
      "constant": true
    },
    {
      "inputs": [],
      "name": "transactionPayment",
      "outputs": [
        {
          "internalType": "contract ITransactionPayment",
          "name": "",
          "type": "address"
        }
      ],
      "stateMutability": "view",
      "type": "function",
      "constant": true
    },
    {
      "inputs": [
        {
          "internalType": "address",
          "name": "",
          "type": "address"
        }
      ],
      "name": "users",
      "outputs": [
        {
          "internalType": "string",
          "name": "username",
          "type": "string"
        },
        {
          "internalType": "string",
          "name": "email",
          "type": "string"
        },
        {
          "internalType": "address",
          "name": "userAddress",
          "type": "address"
        },
        {
          "internalType": "uint256",
          "name": "lastUpdated",
          "type": "uint256"
        },
        {
          "internalType": "uint256",
          "name": "nextUpdateTime",
          "type": "uint256"
        }
      ],
      "stateMutability": "view",
      "type": "function",
      "constant": true
    },
    {
      "inputs": [
        {
          "internalType": "string",
          "name": "username",
          "type": "string"
        }
      ],
      "name": "isUsernameTaken",
      "outputs": [
        {
          "internalType": "bool",
          "name": "",
          "type": "bool"
        }
      ],
      "stateMutability": "view",
      "type": "function",
      "constant": true
    },
    {
      "inputs": [
        {
          "internalType": "string",
          "name": "email",
          "type": "string"
        }
      ],
      "name": "isEmailTaken",
      "outputs": [
        {
          "internalType": "bool",
          "name": "",
          "type": "bool"
        }
      ],
      "stateMutability": "view",
      "type": "function",
      "constant": true
    },
    {
      "inputs": [
        {
          "internalType": "string",
          "name": "username",
          "type": "string"
        },
        {
          "internalType": "string",
          "name": "email",
          "type": "string"
        }
      ],
      "name": "registerUser",
      "outputs": [],
      "stateMutability": "nonpayable",
      "type": "function"
    },
    {
      "inputs": [
        {
          "internalType": "string",
          "name": "_newUsername",
          "type": "string"
        },
        {
          "internalType": "string",
          "name": "_newEmail",
          "type": "string"
        }
      ],
      "name": "updateProfile",
      "outputs": [],
      "stateMutability": "nonpayable",
      "type": "function"
    },
    {
      "inputs": [],
      "name": "getOwner",
      "outputs": [
        {
          "internalType": "address",
          "name": "",
          "type": "address"
        }
      ],
      "stateMutability": "view",
      "type": "function",
      "constant": true
    },
    {
      "inputs": [],
      "name": "getProfile",
      "outputs": [
        {
          "internalType": "string",
          "name": "",
          "type": "string"
        },
        {
          "internalType": "string",
          "name": "",
          "type": "string"
        },
        {
          "internalType": "address",
          "name": "",
          "type": "address"
        },
        {
          "internalType": "uint256",
          "name": "",
          "type": "uint256"
        },
        {
          "internalType": "uint256",
          "name": "",
          "type": "uint256"
        }
      ],
      "stateMutability": "view",
      "type": "function",
      "constant": true
    },
    {
      "inputs": [],
      "name": "getUserSubscriptionInfo",
      "outputs": [
        {
          "internalType": "uint256",
          "name": "amount",
          "type": "uint256"
        },
        {
          "internalType": "uint256",
          "name": "unlockTime",
          "type": "uint256"
        },
        {
          "internalType": "bool",
          "name": "cancelled",
          "type": "bool"
        },
        {
          "internalType": "bool",
          "name": "executed",
          "type": "bool"
        }
      ],
      "stateMutability": "view",
      "type": "function",
      "constant": true
    },
    {
      "inputs": [
        {
          "internalType": "address",
          "name": "userAddress",
          "type": "address"
        }
      ],
      "name": "isUserRegistered",
      "outputs": [
        {
          "internalType": "bool",
          "name": "",
          "type": "bool"
        }
      ],
      "stateMutability": "view",
      "type": "function",
      "constant": true
    },
    {
      "inputs": [
        {
          "internalType": "string",
          "name": "title",
          "type": "string"
        },
        {
          "internalType": "string",
          "name": "genre",
          "type": "string"
        }
      ],
      "name": "addMovie",
      "outputs": [],
      "stateMutability": "nonpayable",
      "type": "function"
    },
    {
      "inputs": [],
      "name": "getUserAddresses",
      "outputs": [
        {
          "internalType": "address[]",
          "name": "",
          "type": "address[]"
        }
      ],
      "stateMutability": "view",
      "type": "function",
      "constant": true
    },
    {
      "inputs": [],
      "name": "getAllUsers",
      "outputs": [
        {
          "components": [
            {
              "internalType": "string",
              "name": "username",
              "type": "string"
            },
            {
              "internalType": "string",
              "name": "email",
              "type": "string"
            },
            {
              "internalType": "address",
              "name": "userAddress",
              "type": "address"
            },
            {
              "internalType": "uint256",
              "name": "lastUpdated",
              "type": "uint256"
            },
            {
              "internalType": "uint256",
              "name": "nextUpdateTime",
              "type": "uint256"
            }
          ],
          "internalType": "struct UserManagement.User[]",
          "name": "",
          "type": "tuple[]"
        }
      ],
      "stateMutability": "view",
      "type": "function",
      "constant": true
    }
  ],
  "bytecode": "0x608060405234801561001057600080fd5b50336000806101000a81548173ffffffffffffffffffffffffffffffffffffffff021916908373ffffffffffffffffffffffffffffffffffffffff160217905550612349806100606000396000f3fe608060405234801561001057600080fd5b50600436106100ea5760003560e01c8063967a8be41161008c578063c9d3cc6a11610066578063c9d3cc6a14610254578063d6afc9b114610270578063e2842d7914610292578063fc17f6fd146102b0576100ea565b8063967a8be4146101e6578063a591efde14610202578063a87430ba14610220576100ea565b8063564f9174116100c8578063564f91741461016b57806385d894c31461018c578063893d20e8146101aa5780638da5cb5b146101c8576100ea565b8063163f7522146100ef578063176c59191461011f5780631d2e4afd1461014f575b600080fd5b6101096004803603810190610104919061173b565b6102e0565b6040516101169190611db3565b60405180910390f35b610139600480360381019061013491906117db565b61033b565b6040516101469190611db3565b60405180910390f35b6101696004803603810190610164919061181c565b610370565b005b6101736106b1565b6040516101839493929190611f41565b60405180910390f35b61019461088d565b6040516101a19190611dce565b60405180910390f35b6101b26108b3565b6040516101bf9190611d54565b60405180910390f35b6101d06108dc565b6040516101dd9190611d54565b60405180910390f35b61020060048036038101906101fb919061181c565b610900565b005b61020a6109cb565b6040516102179190611d6f565b60405180910390f35b61023a6004803603810190610235919061173b565b610a59565b60405161024b959493929190611e20565b60405180910390f35b61026e6004803603810190610269919061181c565b610bbf565b005b610278610f92565b604051610289959493929190611e20565b60405180910390f35b61029a611232565b6040516102a79190611d91565b60405180910390f35b6102ca60048036038101906102c591906117db565b611562565b6040516102d79190611db3565b60405180910390f35b600080600260008473ffffffffffffffffffffffffffffffffffffffff1673ffffffffffffffffffffffffffffffffffffffff1681526020019081526020016000206000018054610330906121b5565b905014159050919050565b600060038260405161034d9190611d3d565b908152602001604051809103902060009054906101000a900460ff169050919050565b6000600260003373ffffffffffffffffffffffffffffffffffffffff1673ffffffffffffffffffffffffffffffffffffffff16815260200190815260200160002060000180546103bf906121b5565b905014610401576040517f08c379a00000000000000000000000000000000000000000000000000000000081526004016103f890611ec1565b60405180910390fd5b6003826040516104119190611d3d565b908152602001604051809103902060009054906101000a900460ff161561046d576040517f08c379a000000000000000000000000000000000000000000000000000000000815260040161046490611f21565b60405180910390fd5b60048160405161047d9190611d3d565b908152602001604051809103902060009054906101000a900460ff16156104d9576040517f08c379a00000000000000000000000000000000000000000000000000000000081526004016104d090611ee1565b60405180910390fd5b6040518060a001604052808381526020018281526020013373ffffffffffffffffffffffffffffffffffffffff168152602001600081526020016000815250600260003373ffffffffffffffffffffffffffffffffffffffff1673ffffffffffffffffffffffffffffffffffffffff1681526020019081526020016000206000820151816000019080519060200190610573929190611597565b506020820151816001019080519060200190610590929190611597565b5060408201518160020160006101000a81548173ffffffffffffffffffffffffffffffffffffffff021916908373ffffffffffffffffffffffffffffffffffffffff160217905550606082015181600301556080820151816004015590505060016003836040516106019190611d3d565b908152602001604051809103902060006101000a81548160ff02191690831515021790555060016004826040516106389190611d3d565b908152602001604051809103902060006101000a81548160ff0219169083151502179055503373ffffffffffffffffffffffffffffffffffffffff167f92822564bab8864c3a47b34e8d23fbce5c46234eb5da261f94087b995ac0f33b83836040516106a5929190611de9565b60405180910390a25050565b6000806000806000600260003373ffffffffffffffffffffffffffffffffffffffff1673ffffffffffffffffffffffffffffffffffffffff1681526020019081526020016000206000018054610706906121b5565b90501415610749576040517f08c379a000000000000000000000000000000000000000000000000000000000815260040161074090611e81565b60405180910390fd5b6000806000806000600160009054906101000a900473ffffffffffffffffffffffffffffffffffffffff1673ffffffffffffffffffffffffffffffffffffffff1663a834546b336040518263ffffffff1660e01b81526004016107ac9190611d54565b60a06040518083038186803b1580156107c457600080fd5b505afa1580156107d8573d6000803e3d6000fd5b505050506040513d601f19601f820116820180604052508101906107fc9190611764565b94509450945094509450600073ffffffffffffffffffffffffffffffffffffffff168573ffffffffffffffffffffffffffffffffffffffff161415610876576040517f08c379a000000000000000000000000000000000000000000000000000000000815260040161086d90611f01565b60405180910390fd5b838383839850985098509850505050505090919293565b600160009054906101000a900473ffffffffffffffffffffffffffffffffffffffff1681565b60008060009054906101000a900473ffffffffffffffffffffffffffffffffffffffff16905090565b60008054906101000a900473ffffffffffffffffffffffffffffffffffffffff1681565b60008054906101000a900473ffffffffffffffffffffffffffffffffffffffff1673ffffffffffffffffffffffffffffffffffffffff163373ffffffffffffffffffffffffffffffffffffffff161461098e576040517f08c379a000000000000000000000000000000000000000000000000000000000815260040161098590611ea1565b60405180910390fd5b7fc493497c830c3d7255d9620f154cf8b3d1f5fc34578d3bb6719961d215e3499b82826040516109bf929190611de9565b60405180910390a15050565b60606005805480602002602001604051908101604052809291908181526020018280548015610a4f57602002820191906000526020600020905b8160009054906101000a900473ffffffffffffffffffffffffffffffffffffffff1673ffffffffffffffffffffffffffffffffffffffff1681526020019060010190808311610a05575b5050505050905090565b6002602052806000526040600020600091509050806000018054610a7c906121b5565b80601f0160208091040260200160405190810160405280929190818152602001828054610aa8906121b5565b8015610af55780601f10610aca57610100808354040283529160200191610af5565b820191906000526020600020905b815481529060010190602001808311610ad857829003601f168201915b505050505090806001018054610b0a906121b5565b80601f0160208091040260200160405190810160405280929190818152602001828054610b36906121b5565b8015610b835780601f10610b5857610100808354040283529160200191610b83565b820191906000526020600020905b815481529060010190602001808311610b6657829003601f168201915b5050505050908060020160009054906101000a900473ffffffffffffffffffffffffffffffffffffffff16908060030154908060040154905085565b6000600260003373ffffffffffffffffffffffffffffffffffffffff1673ffffffffffffffffffffffffffffffffffffffff1681526020019081526020016000206000018054610c0e906121b5565b905011610c50576040517f08c379a0000000000000000000000000000000000000000000000000000000008152600401610c4790611e81565b60405180910390fd5b600382604051610c609190611d3d565b908152602001604051809103902060009054906101000a900460ff161580610ce45750600260003373ffffffffffffffffffffffffffffffffffffffff1673ffffffffffffffffffffffffffffffffffffffff168152602001908152602001600020600001604051610cd29190611d26565b60405180910390208280519060200120145b610d23576040517f08c379a0000000000000000000000000000000000000000000000000000000008152600401610d1a90611f21565b60405180910390fd5b600481604051610d339190611d3d565b908152602001604051809103902060009054906101000a900460ff161580610db75750600260003373ffffffffffffffffffffffffffffffffffffffff1673ffffffffffffffffffffffffffffffffffffffff168152602001908152602001600020600101604051610da59190611d26565b60405180910390208180519060200120145b610df6576040517f08c379a0000000000000000000000000000000000000000000000000000000008152600401610ded90611ee1565b60405180910390fd5b81600260003373ffffffffffffffffffffffffffffffffffffffff1673ffffffffffffffffffffffffffffffffffffffff1681526020019081526020016000206000019080519060200190610e4c929190611597565b5080600260003373ffffffffffffffffffffffffffffffffffffffff1673ffffffffffffffffffffffffffffffffffffffff1681526020019081526020016000206001019080519060200190610ea3929190611597565b5042600260003373ffffffffffffffffffffffffffffffffffffffff1673ffffffffffffffffffffffffffffffffffffffff16815260200190815260200160002060030181905550601e42610ef891906120b1565b600260003373ffffffffffffffffffffffffffffffffffffffff1673ffffffffffffffffffffffffffffffffffffffff168152602001908152602001600020600401819055503373ffffffffffffffffffffffffffffffffffffffff167f6eb3a1c6a4675ba92d44e090515b1ceea358f26565d2854df0c99c3f5eaf98508383604051610f86929190611de9565b60405180910390a25050565b606080600080600080600260003373ffffffffffffffffffffffffffffffffffffffff1673ffffffffffffffffffffffffffffffffffffffff1681526020019081526020016000206000018054610fe8906121b5565b9050141561102b576040517f08c379a000000000000000000000000000000000000000000000000000000000815260040161102290611e81565b60405180910390fd5b6000600260003373ffffffffffffffffffffffffffffffffffffffff1673ffffffffffffffffffffffffffffffffffffffff1681526020019081526020016000206040518060a0016040529081600082018054611087906121b5565b80601f01602080910402602001604051908101604052809291908181526020018280546110b3906121b5565b80156111005780601f106110d557610100808354040283529160200191611100565b820191906000526020600020905b8154815290600101906020018083116110e357829003601f168201915b50505050508152602001600182018054611119906121b5565b80601f0160208091040260200160405190810160405280929190818152602001828054611145906121b5565b80156111925780601f1061116757610100808354040283529160200191611192565b820191906000526020600020905b81548152906001019060200180831161117557829003601f168201915b505050505081526020016002820160009054906101000a900473ffffffffffffffffffffffffffffffffffffffff1673ffffffffffffffffffffffffffffffffffffffff1673ffffffffffffffffffffffffffffffffffffffff1681526020016003820154815260200160048201548152505090508060000151816020015182604001518360600151846080015195509550955095509550509091929394565b6060600060058054905067ffffffffffffffff81111561127b577f4e487b7100000000000000000000000000000000000000000000000000000000600052604160045260246000fd5b6040519080825280602002602001820160405280156112b457816020015b6112a161161d565b8152602001906001900390816112995790505b50905060005b60058054905081101561155a576002600060058381548110611305577f4e487b7100000000000000000000000000000000000000000000000000000000600052603260045260246000fd5b9060005260206000200160009054906101000a900473ffffffffffffffffffffffffffffffffffffffff1673ffffffffffffffffffffffffffffffffffffffff1673ffffffffffffffffffffffffffffffffffffffff1681526020019081526020016000206040518060a0016040529081600082018054611385906121b5565b80601f01602080910402602001604051908101604052809291908181526020018280546113b1906121b5565b80156113fe5780601f106113d3576101008083540402835291602001916113fe565b820191906000526020600020905b8154815290600101906020018083116113e157829003601f168201915b50505050508152602001600182018054611417906121b5565b80601f0160208091040260200160405190810160405280929190818152602001828054611443906121b5565b80156114905780601f1061146557610100808354040283529160200191611490565b820191906000526020600020905b81548152906001019060200180831161147357829003601f168201915b505050505081526020016002820160009054906101000a900473ffffffffffffffffffffffffffffffffffffffff1673ffffffffffffffffffffffffffffffffffffffff1673ffffffffffffffffffffffffffffffffffffffff1681526020016003820154815260200160048201548152505082828151811061153c577f4e487b7100000000000000000000000000000000000000000000000000000000600052603260045260246000fd5b60200260200101819052508080611552906121e7565b9150506112ba565b508091505090565b60006004826040516115749190611d3d565b908152602001604051809103902060009054906101000a900460ff169050919050565b8280546115a3906121b5565b90600052602060002090601f0160209004810192826115c5576000855561160c565b82601f106115de57805160ff191683800117855561160c565b8280016001018555821561160c579182015b8281111561160b5782518255916020019190600101906115f0565b5b5090506116199190611662565b5090565b6040518060a001604052806060815260200160608152602001600073ffffffffffffffffffffffffffffffffffffffff16815260200160008152602001600081525090565b5b8082111561167b576000816000905550600101611663565b5090565b600061169261168d84611fb7565b611f86565b9050828152602081018484840111156116aa57600080fd5b6116b5848285612173565b509392505050565b6000813590506116cc816122ce565b92915050565b6000815190506116e1816122ce565b92915050565b6000815190506116f6816122e5565b92915050565b600082601f83011261170d57600080fd5b813561171d84826020860161167f565b91505092915050565b600081519050611735816122fc565b92915050565b60006020828403121561174d57600080fd5b600061175b848285016116bd565b91505092915050565b600080600080600060a0868803121561177c57600080fd5b600061178a888289016116d2565b955050602061179b88828901611726565b94505060406117ac88828901611726565b93505060606117bd888289016116e7565b92505060806117ce888289016116e7565b9150509295509295909350565b6000602082840312156117ed57600080fd5b600082013567ffffffffffffffff81111561180757600080fd5b611813848285016116fc565b91505092915050565b6000806040838503121561182f57600080fd5b600083013567ffffffffffffffff81111561184957600080fd5b611855858286016116fc565b925050602083013567ffffffffffffffff81111561187257600080fd5b61187e858286016116fc565b9150509250929050565b600061189483836118b4565b60208301905092915050565b60006118ac8383611c8b565b905092915050565b6118bd81612107565b82525050565b6118cc81612107565b82525050565b60006118dd8261201c565b6118e78185612057565b93506118f283611fe7565b8060005b8381101561192357815161190a8882611888565b97506119158361203d565b9250506001810190506118f6565b5085935050505092915050565b600061193b82612027565b6119458185612068565b93508360208202850161195785611ff7565b8060005b85811015611993578484038952815161197485826118a0565b945061197f8361204a565b925060208a0199505060018101905061195b565b50829750879550505050505092915050565b6119ae81612119565b82525050565b600081546119c1816121b5565b6119cb8186612079565b945060018216600081146119e657600181146119f757611a2a565b60ff19831686528186019350611a2a565b611a0085612007565b60005b83811015611a2257815481890152600182019150602081019050611a03565b838801955050505b50505092915050565b611a3c8161214f565b82525050565b6000611a4d82612032565b611a578185612084565b9350611a67818560208601612182565b611a70816122bd565b840191505092915050565b6000611a8682612032565b611a908185612095565b9350611aa0818560208601612182565b611aa9816122bd565b840191505092915050565b6000611abf82612032565b611ac981856120a6565b9350611ad9818560208601612182565b80840191505092915050565b6000611af2601383612095565b91507f55736572206e6f742072656769737465726564000000000000000000000000006000830152602082019050919050565b6000611b32602683612095565b91507f4f6e6c7920746865206f776e65722063616e20706572666f726d20746869732060008301527f616374696f6e00000000000000000000000000000000000000000000000000006020830152604082019050919050565b6000611b98601783612095565b91507f5573657220616c726561647920726567697374657265640000000000000000006000830152602082019050919050565b6000611bd8601683612095565b91507f456d61696c20697320616c72656164792074616b656e000000000000000000006000830152602082019050919050565b6000611c18601c83612095565b91507f4e6f2061637469766520737562736372697074696f6e20666f756e64000000006000830152602082019050919050565b6000611c58601983612095565b91507f557365726e616d6520697320616c72656164792074616b656e000000000000006000830152602082019050919050565b600060a0830160008301518482036000860152611ca88282611a42565b91505060208301518482036020860152611cc28282611a42565b9150506040830151611cd760408601826118b4565b506060830151611cea6060860182611d08565b506080830151611cfd6080860182611d08565b508091505092915050565b611d1181612145565b82525050565b611d2081612145565b82525050565b6000611d3282846119b4565b915081905092915050565b6000611d498284611ab4565b915081905092915050565b6000602082019050611d6960008301846118c3565b92915050565b60006020820190508181036000830152611d8981846118d2565b905092915050565b60006020820190508181036000830152611dab8184611930565b905092915050565b6000602082019050611dc860008301846119a5565b92915050565b6000602082019050611de36000830184611a33565b92915050565b60006040820190508181036000830152611e038185611a7b565b90508181036020830152611e178184611a7b565b90509392505050565b600060a0820190508181036000830152611e3a8188611a7b565b90508181036020830152611e4e8187611a7b565b9050611e5d60408301866118c3565b611e6a6060830185611d17565b611e776080830184611d17565b9695505050505050565b60006020820190508181036000830152611e9a81611ae5565b9050919050565b60006020820190508181036000830152611eba81611b25565b9050919050565b60006020820190508181036000830152611eda81611b8b565b9050919050565b60006020820190508181036000830152611efa81611bcb565b9050919050565b60006020820190508181036000830152611f1a81611c0b565b9050919050565b60006020820190508181036000830152611f3a81611c4b565b9050919050565b6000608082019050611f566000830187611d17565b611f636020830186611d17565b611f7060408301856119a5565b611f7d60608301846119a5565b95945050505050565b6000604051905081810181811067ffffffffffffffff82111715611fad57611fac61228e565b5b8060405250919050565b600067ffffffffffffffff821115611fd257611fd161228e565b5b601f19601f8301169050602081019050919050565b6000819050602082019050919050565b6000819050602082019050919050565b60008190508160005260206000209050919050565b600081519050919050565b600081519050919050565b600081519050919050565b6000602082019050919050565b6000602082019050919050565b600082825260208201905092915050565b600082825260208201905092915050565b600081905092915050565b600082825260208201905092915050565b600082825260208201905092915050565b600081905092915050565b60006120bc82612145565b91506120c783612145565b9250827fffffffffffffffffffffffffffffffffffffffffffffffffffffffffffffffff038211156120fc576120fb612230565b5b828201905092915050565b600061211282612125565b9050919050565b60008115159050919050565b600073ffffffffffffffffffffffffffffffffffffffff82169050919050565b6000819050919050565b600061215a82612161565b9050919050565b600061216c82612125565b9050919050565b82818337600083830152505050565b60005b838110156121a0578082015181840152602081019050612185565b838111156121af576000848401525b50505050565b600060028204905060018216806121cd57607f821691505b602082108114156121e1576121e061225f565b5b50919050565b60006121f282612145565b91507fffffffffffffffffffffffffffffffffffffffffffffffffffffffffffffffff82141561222557612224612230565b5b600182019050919050565b7f4e487b7100000000000000000000000000000000000000000000000000000000600052601160045260246000fd5b7f4e487b7100000000000000000000000000000000000000000000000000000000600052602260045260246000fd5b7f4e487b7100000000000000000000000000000000000000000000000000000000600052604160045260246000fd5b6000601f19601f8301169050919050565b6122d781612107565b81146122e257600080fd5b50565b6122ee81612119565b81146122f957600080fd5b50565b61230581612145565b811461231057600080fd5b5056fea26469706673582212206f56720f337e28c65b6afcfd0d26b9fe07aa63b791231adaea824eced96d3fbf64736f6c63430008000033",
  "immutableReferences": {},
  "source": "// SPDX-License-Identifier: MIT\r\npragma solidity ^0.8.0;\r\n\r\ninterface ITransactionPayment {\r\n    function hasActiveSubscription(address user) external view returns (bool);\r\n    function getCurrentSubscription(address user) external view returns (address, uint, uint, bool, bool);\r\n}\r\n\r\ncontract UserManagement {\r\n    address public owner;\r\n    ITransactionPayment public transactionPayment;\r\n\r\n    struct User {\r\n        string username;\r\n        string email;\r\n        address userAddress;\r\n        uint lastUpdated;\r\n        uint nextUpdateTime;\r\n    }\r\n\r\n    mapping(address => User) public users;\r\n    mapping(string => bool) private usernames; // Mapping to prevent duplicate usernames\r\n    mapping(string => bool) private emails; // Mapping to prevent duplicate emails\r\n\r\n    event UserRegistered(address indexed userAddress, string username, string email);\r\n    event ProfileUpdated(address indexed userAddress, string username, string email);\r\n    event MovieAdded(string title, string genre);\r\n\r\n    address[] private userAddresses;\r\n\r\n    // constructor(address _transactionPaymentAddress) {\r\n    //     owner = msg.sender;\r\n    //     transactionPayment = ITransactionPayment(_transactionPaymentAddress);\r\n    // }\r\n\r\n    constructor() {\r\n        owner = msg.sender;\r\n    }\r\n\r\n    modifier onlyOwner() {\r\n        require(msg.sender == owner, \"Only the owner can perform this action\");\r\n        _;\r\n    }\r\n\r\n        // Internal function to check if the username exists\r\n    function isUsernameTaken(string memory username) public view returns (bool) {\r\n        return usernames[username];\r\n    }\r\n\r\n    // Internal function to check if the email exists\r\n    function isEmailTaken(string memory email) public view returns (bool) {\r\n        return emails[email];\r\n    }\r\n\r\n    function registerUser(string memory username, string memory email) public {\r\n        require(\r\n            bytes(users[msg.sender].username).length == 0,\r\n            \"User already registered\"\r\n        );\r\n        require(!usernames[username], \"Username is already taken\");\r\n        require(!emails[email], \"Email is already taken\");\r\n\r\n        users[msg.sender] = User({\r\n            username: username,\r\n            email: email,\r\n            userAddress: msg.sender,\r\n            lastUpdated: 0,\r\n            nextUpdateTime: 0\r\n        });\r\n\r\n        usernames[username] = true; // Mark username as taken\r\n        emails[email] = true; // Mark email as taken\r\n\r\n        emit UserRegistered(msg.sender, username, email);\r\n    }\r\n\r\n    function updateProfile(string memory _newUsername, string memory _newEmail) public {\r\n        require(\r\n            bytes(users[msg.sender].username).length > 0,\r\n            \"User not registered\"\r\n        );\r\n\r\n        require(!usernames[_newUsername] || keccak256(bytes(_newUsername)) == keccak256(bytes(users[msg.sender].username)),\r\n            \"Username is already taken\");\r\n        require(!emails[_newEmail] || keccak256(bytes(_newEmail)) == keccak256(bytes(users[msg.sender].email)),\r\n            \"Email is already taken\");\r\n\r\n        users[msg.sender].username = _newUsername;\r\n        users[msg.sender].email = _newEmail;\r\n        users[msg.sender].lastUpdated = block.timestamp;\r\n        users[msg.sender].nextUpdateTime = block.timestamp + 30 seconds;\r\n\r\n        emit ProfileUpdated(msg.sender, _newUsername, _newEmail);\r\n    }\r\n\r\n    function getOwner() public view returns (address) {\r\n        return owner;\r\n    }\r\n\r\n    function getProfile() public view returns (string memory, string memory, address, uint, uint) {\r\n        require(\r\n            bytes(users[msg.sender].username).length != 0,\r\n            \"User not registered\"\r\n        );\r\n        User memory user = users[msg.sender];\r\n\r\n        return (\r\n            user.username,\r\n            user.email,\r\n            user.userAddress,\r\n            user.lastUpdated,\r\n            user.nextUpdateTime\r\n        );\r\n    }\r\n\r\n    function getUserSubscriptionInfo() public view returns (\r\n        uint amount,\r\n        uint unlockTime,\r\n        bool cancelled,\r\n        bool executed\r\n    ) {\r\n        require(\r\n            bytes(users[msg.sender].username).length != 0,\r\n            \"User not registered\"\r\n        );\r\n\r\n        (address subscriber, uint subAmount, uint subUnlockTime, bool subCancelled, bool subExecuted) = transactionPayment.getCurrentSubscription(msg.sender);\r\n        require(subscriber != address(0), \"No active subscription found\");\r\n\r\n        return (subAmount, subUnlockTime, subCancelled, subExecuted);\r\n    }\r\n\r\n    function isUserRegistered(address userAddress) public view returns (bool) {\r\n        return bytes(users[userAddress].username).length != 0;\r\n    }\r\n\r\n    function addMovie(string memory title, string memory genre) public onlyOwner {\r\n        emit MovieAdded(title, genre);\r\n    }\r\n\r\n\r\n//-------Added to retrieve user details and show in transactionHistory-----\r\nfunction getUserAddresses() public view returns (address[] memory) {\r\n    return userAddresses;\r\n}\r\n\r\nfunction getAllUsers() public view returns (User[] memory) {\r\n        User[] memory allUsers = new User[](userAddresses.length);\r\n        for (uint i = 0; i < userAddresses.length; i++) {\r\n            allUsers[i] = users[userAddresses[i]];\r\n        }\r\n        return allUsers;\r\n    }\r\n}\r\n",
  "sourcePath": "C:\\Users\\khord\\Documents\\Movie_subscription_solidity\\smart_contract\\contracts\\UserManagement.sol",
  "compiler": {
    "name": "solc",
    "version": "0.8.0+commit.c7dfd78e.Emscripten.clang"
  },
  "schemaVersion": "3.4.16",
  "updatedAt": "2024-09-26T05:19:38.765Z",
  "networkType": "ethereum",
  "devdoc": {
    "kind": "dev",
    "methods": {},
    "version": 1
  },
  "userdoc": {
    "kind": "user",
    "methods": {},
    "version": 1
  }
}