{
  "contractName": "UserManagement",
  "abi": [
    {
      "inputs": [],
      "stateMutability": "nonpayable",
      "type": "constructor"
    },
    {
      "anonymous": false,
      "inputs": [
        {
          "indexed": false,
          "internalType": "string",
          "name": "title",
          "type": "string"
        },
        {
          "indexed": false,
          "internalType": "string",
          "name": "genre",
          "type": "string"
        }
      ],
      "name": "MovieAdded",
      "type": "event"
    },
    {
      "anonymous": false,
      "inputs": [
        {
          "indexed": true,
          "internalType": "address",
          "name": "userAddress",
          "type": "address"
        },
        {
          "indexed": false,
          "internalType": "string",
          "name": "username",
          "type": "string"
        },
        {
          "indexed": false,
          "internalType": "string",
          "name": "email",
          "type": "string"
        }
      ],
      "name": "ProfileUpdated",
      "type": "event"
    },
    {
      "anonymous": false,
      "inputs": [
        {
          "indexed": true,
          "internalType": "address",
          "name": "userAddress",
          "type": "address"
        },
        {
          "indexed": false,
          "internalType": "string",
          "name": "username",
          "type": "string"
        },
        {
          "indexed": false,
          "internalType": "string",
          "name": "email",
          "type": "string"
        }
      ],
      "name": "UserRegistered",
      "type": "event"
    },
    {
      "inputs": [
        {
          "internalType": "address",
          "name": "",
          "type": "address"
        }
      ],
      "name": "hasActiveSubscription",
      "outputs": [
        {
          "internalType": "bool",
          "name": "",
          "type": "bool"
        }
      ],
      "stateMutability": "view",
      "type": "function",
      "constant": true
    },
    {
      "inputs": [],
      "name": "owner",
      "outputs": [
        {
          "internalType": "address",
          "name": "",
          "type": "address"
        }
      ],
      "stateMutability": "view",
      "type": "function",
      "constant": true
    },
    {
      "inputs": [],
      "name": "transactionPayment",
      "outputs": [
        {
          "internalType": "contract ITransactionPayment",
          "name": "",
          "type": "address"
        }
      ],
      "stateMutability": "view",
      "type": "function",
      "constant": true
    },
    {
      "inputs": [
        {
          "internalType": "address",
          "name": "",
          "type": "address"
        }
      ],
      "name": "users",
      "outputs": [
        {
          "internalType": "string",
          "name": "username",
          "type": "string"
        },
        {
          "internalType": "string",
          "name": "email",
          "type": "string"
        },
        {
          "internalType": "address",
          "name": "userAddress",
          "type": "address"
        },
        {
          "internalType": "uint256",
          "name": "lastUpdated",
          "type": "uint256"
        },
        {
          "internalType": "uint256",
          "name": "nextUpdateTime",
          "type": "uint256"
        }
      ],
      "stateMutability": "view",
      "type": "function",
      "constant": true
    },
    {
      "inputs": [
        {
          "internalType": "string",
          "name": "username",
          "type": "string"
        }
      ],
      "name": "isUsernameTaken",
      "outputs": [
        {
          "internalType": "bool",
          "name": "",
          "type": "bool"
        }
      ],
      "stateMutability": "view",
      "type": "function",
      "constant": true
    },
    {
      "inputs": [
        {
          "internalType": "string",
          "name": "email",
          "type": "string"
        }
      ],
      "name": "isEmailTaken",
      "outputs": [
        {
          "internalType": "bool",
          "name": "",
          "type": "bool"
        }
      ],
      "stateMutability": "view",
      "type": "function",
      "constant": true
    },
    {
      "inputs": [
        {
          "internalType": "string",
          "name": "username",
          "type": "string"
        },
        {
          "internalType": "string",
          "name": "email",
          "type": "string"
        }
      ],
      "name": "registerUser",
      "outputs": [],
      "stateMutability": "nonpayable",
      "type": "function"
    },
    {
      "inputs": [
        {
          "internalType": "string",
          "name": "_newUsername",
          "type": "string"
        },
        {
          "internalType": "string",
          "name": "_newEmail",
          "type": "string"
        }
      ],
      "name": "updateProfile",
      "outputs": [],
      "stateMutability": "nonpayable",
      "type": "function"
    },
    {
      "inputs": [],
      "name": "getOwner",
      "outputs": [
        {
          "internalType": "address",
          "name": "",
          "type": "address"
        }
      ],
      "stateMutability": "view",
      "type": "function",
      "constant": true
    },
    {
      "inputs": [],
      "name": "getProfile",
      "outputs": [
        {
          "internalType": "string",
          "name": "",
          "type": "string"
        },
        {
          "internalType": "string",
          "name": "",
          "type": "string"
        },
        {
          "internalType": "address",
          "name": "",
          "type": "address"
        },
        {
          "internalType": "uint256",
          "name": "",
          "type": "uint256"
        },
        {
          "internalType": "uint256",
          "name": "",
          "type": "uint256"
        }
      ],
      "stateMutability": "view",
      "type": "function",
      "constant": true
    },
    {
      "inputs": [],
      "name": "getUserSubscriptionInfo",
      "outputs": [
        {
          "internalType": "uint256",
          "name": "amount",
          "type": "uint256"
        },
        {
          "internalType": "uint256",
          "name": "unlockTime",
          "type": "uint256"
        },
        {
          "internalType": "bool",
          "name": "cancelled",
          "type": "bool"
        },
        {
          "internalType": "bool",
          "name": "executed",
          "type": "bool"
        }
      ],
      "stateMutability": "view",
      "type": "function",
      "constant": true
    },
    {
      "inputs": [
        {
          "internalType": "address",
          "name": "userAddress",
          "type": "address"
        }
      ],
      "name": "isUserRegistered",
      "outputs": [
        {
          "internalType": "bool",
          "name": "",
          "type": "bool"
        }
      ],
      "stateMutability": "view",
      "type": "function",
      "constant": true
    },
    {
      "inputs": [
        {
          "internalType": "string",
          "name": "title",
          "type": "string"
        },
        {
          "internalType": "string",
          "name": "genre",
          "type": "string"
        }
      ],
      "name": "addMovie",
      "outputs": [],
      "stateMutability": "nonpayable",
      "type": "function"
    },
    {
      "inputs": [],
      "name": "getUserAddresses",
      "outputs": [
        {
          "internalType": "address[]",
          "name": "",
          "type": "address[]"
        }
      ],
      "stateMutability": "view",
      "type": "function",
      "constant": true
    },
    {
      "inputs": [],
      "name": "getAllUsers",
      "outputs": [
        {
          "components": [
            {
              "internalType": "string",
              "name": "username",
              "type": "string"
            },
            {
              "internalType": "string",
              "name": "email",
              "type": "string"
            },
            {
              "internalType": "address",
              "name": "userAddress",
              "type": "address"
            },
            {
              "internalType": "uint256",
              "name": "lastUpdated",
              "type": "uint256"
            },
            {
              "internalType": "uint256",
              "name": "nextUpdateTime",
              "type": "uint256"
            }
          ],
          "internalType": "struct UserManagement.User[]",
          "name": "",
          "type": "tuple[]"
        }
      ],
      "stateMutability": "view",
      "type": "function",
      "constant": true
    }
  ],
  "bytecode": "0x608060405234801561001057600080fd5b50336000806101000a81548173ffffffffffffffffffffffffffffffffffffffff021916908373ffffffffffffffffffffffffffffffffffffffff1602179055506123a6806100606000396000f3fe608060405234801561001057600080fd5b50600436106100f55760003560e01c8063967a8be411610097578063c9d3cc6a11610066578063c9d3cc6a1461028f578063d6afc9b1146102ab578063e2842d79146102cd578063fc17f6fd146102eb576100f5565b8063967a8be4146101f1578063a591efde1461020d578063a87430ba1461022b578063bebe4a571461025f576100f5565b8063564f9174116100d3578063564f91741461017657806385d894c314610197578063893d20e8146101b55780638da5cb5b146101d3576100f5565b8063163f7522146100fa578063176c59191461012a5780631d2e4afd1461015a575b600080fd5b610114600480360381019061010f9190611798565b61031b565b6040516101219190611e10565b60405180910390f35b610144600480360381019061013f9190611838565b610376565b6040516101519190611e10565b60405180910390f35b610174600480360381019061016f9190611879565b6103ab565b005b61017e6106ec565b60405161018e9493929190611f9e565b60405180910390f35b61019f6108c8565b6040516101ac9190611e2b565b60405180910390f35b6101bd6108ee565b6040516101ca9190611db1565b60405180910390f35b6101db610917565b6040516101e89190611db1565b60405180910390f35b61020b60048036038101906102069190611879565b61093b565b005b610215610a06565b6040516102229190611dcc565b60405180910390f35b61024560048036038101906102409190611798565b610a94565b604051610256959493929190611e7d565b60405180910390f35b61027960048036038101906102749190611798565b610bfa565b6040516102869190611e10565b60405180910390f35b6102a960048036038101906102a49190611879565b610c1a565b005b6102b3610fef565b6040516102c4959493929190611e7d565b60405180910390f35b6102d561128f565b6040516102e29190611dee565b60405180910390f35b61030560048036038101906103009190611838565b6115bf565b6040516103129190611e10565b60405180910390f35b600080600260008473ffffffffffffffffffffffffffffffffffffffff1673ffffffffffffffffffffffffffffffffffffffff168152602001908152602001600020600001805461036b90612212565b905014159050919050565b60006003826040516103889190611d9a565b908152602001604051809103902060009054906101000a900460ff169050919050565b6000600260003373ffffffffffffffffffffffffffffffffffffffff1673ffffffffffffffffffffffffffffffffffffffff16815260200190815260200160002060000180546103fa90612212565b90501461043c576040517f08c379a000000000000000000000000000000000000000000000000000000000815260040161043390611f1e565b60405180910390fd5b60038260405161044c9190611d9a565b908152602001604051809103902060009054906101000a900460ff16156104a8576040517f08c379a000000000000000000000000000000000000000000000000000000000815260040161049f90611f7e565b60405180910390fd5b6004816040516104b89190611d9a565b908152602001604051809103902060009054906101000a900460ff1615610514576040517f08c379a000000000000000000000000000000000000000000000000000000000815260040161050b90611f3e565b60405180910390fd5b6040518060a001604052808381526020018281526020013373ffffffffffffffffffffffffffffffffffffffff168152602001600081526020016000815250600260003373ffffffffffffffffffffffffffffffffffffffff1673ffffffffffffffffffffffffffffffffffffffff16815260200190815260200160002060008201518160000190805190602001906105ae9291906115f4565b5060208201518160010190805190602001906105cb9291906115f4565b5060408201518160020160006101000a81548173ffffffffffffffffffffffffffffffffffffffff021916908373ffffffffffffffffffffffffffffffffffffffff1602179055506060820151816003015560808201518160040155905050600160038360405161063c9190611d9a565b908152602001604051809103902060006101000a81548160ff02191690831515021790555060016004826040516106739190611d9a565b908152602001604051809103902060006101000a81548160ff0219169083151502179055503373ffffffffffffffffffffffffffffffffffffffff167f92822564bab8864c3a47b34e8d23fbce5c46234eb5da261f94087b995ac0f33b83836040516106e0929190611e46565b60405180910390a25050565b6000806000806000600260003373ffffffffffffffffffffffffffffffffffffffff1673ffffffffffffffffffffffffffffffffffffffff168152602001908152602001600020600001805461074190612212565b90501415610784576040517f08c379a000000000000000000000000000000000000000000000000000000000815260040161077b90611ede565b60405180910390fd5b6000806000806000600160009054906101000a900473ffffffffffffffffffffffffffffffffffffffff1673ffffffffffffffffffffffffffffffffffffffff1663a834546b336040518263ffffffff1660e01b81526004016107e79190611db1565b60a06040518083038186803b1580156107ff57600080fd5b505afa158015610813573d6000803e3d6000fd5b505050506040513d601f19601f8201168201806040525081019061083791906117c1565b94509450945094509450600073ffffffffffffffffffffffffffffffffffffffff168573ffffffffffffffffffffffffffffffffffffffff1614156108b1576040517f08c379a00000000000000000000000000000000000000000000000000000000081526004016108a890611f5e565b60405180910390fd5b838383839850985098509850505050505090919293565b600160009054906101000a900473ffffffffffffffffffffffffffffffffffffffff1681565b60008060009054906101000a900473ffffffffffffffffffffffffffffffffffffffff16905090565b60008054906101000a900473ffffffffffffffffffffffffffffffffffffffff1681565b60008054906101000a900473ffffffffffffffffffffffffffffffffffffffff1673ffffffffffffffffffffffffffffffffffffffff163373ffffffffffffffffffffffffffffffffffffffff16146109c9576040517f08c379a00000000000000000000000000000000000000000000000000000000081526004016109c090611efe565b60405180910390fd5b7fc493497c830c3d7255d9620f154cf8b3d1f5fc34578d3bb6719961d215e3499b82826040516109fa929190611e46565b60405180910390a15050565b60606006805480602002602001604051908101604052809291908181526020018280548015610a8a57602002820191906000526020600020905b8160009054906101000a900473ffffffffffffffffffffffffffffffffffffffff1673ffffffffffffffffffffffffffffffffffffffff1681526020019060010190808311610a40575b5050505050905090565b6002602052806000526040600020600091509050806000018054610ab790612212565b80601f0160208091040260200160405190810160405280929190818152602001828054610ae390612212565b8015610b305780601f10610b0557610100808354040283529160200191610b30565b820191906000526020600020905b815481529060010190602001808311610b1357829003601f168201915b505050505090806001018054610b4590612212565b80601f0160208091040260200160405190810160405280929190818152602001828054610b7190612212565b8015610bbe5780601f10610b9357610100808354040283529160200191610bbe565b820191906000526020600020905b815481529060010190602001808311610ba157829003601f168201915b5050505050908060020160009054906101000a900473ffffffffffffffffffffffffffffffffffffffff16908060030154908060040154905085565b60056020528060005260406000206000915054906101000a900460ff1681565b6000600260003373ffffffffffffffffffffffffffffffffffffffff1673ffffffffffffffffffffffffffffffffffffffff1681526020019081526020016000206000018054610c6990612212565b905011610cab576040517f08c379a0000000000000000000000000000000000000000000000000000000008152600401610ca290611ede565b60405180910390fd5b600382604051610cbb9190611d9a565b908152602001604051809103902060009054906101000a900460ff161580610d3f5750600260003373ffffffffffffffffffffffffffffffffffffffff1673ffffffffffffffffffffffffffffffffffffffff168152602001908152602001600020600001604051610d2d9190611d83565b60405180910390208280519060200120145b610d7e576040517f08c379a0000000000000000000000000000000000000000000000000000000008152600401610d7590611f7e565b60405180910390fd5b600481604051610d8e9190611d9a565b908152602001604051809103902060009054906101000a900460ff161580610e125750600260003373ffffffffffffffffffffffffffffffffffffffff1673ffffffffffffffffffffffffffffffffffffffff168152602001908152602001600020600101604051610e009190611d83565b60405180910390208180519060200120145b610e51576040517f08c379a0000000000000000000000000000000000000000000000000000000008152600401610e4890611f3e565b60405180910390fd5b81600260003373ffffffffffffffffffffffffffffffffffffffff1673ffffffffffffffffffffffffffffffffffffffff1681526020019081526020016000206000019080519060200190610ea79291906115f4565b5080600260003373ffffffffffffffffffffffffffffffffffffffff1673ffffffffffffffffffffffffffffffffffffffff1681526020019081526020016000206001019080519060200190610efe9291906115f4565b5042600260003373ffffffffffffffffffffffffffffffffffffffff1673ffffffffffffffffffffffffffffffffffffffff168152602001908152602001600020600301819055506201518042610f55919061210e565b600260003373ffffffffffffffffffffffffffffffffffffffff1673ffffffffffffffffffffffffffffffffffffffff168152602001908152602001600020600401819055503373ffffffffffffffffffffffffffffffffffffffff167f6eb3a1c6a4675ba92d44e090515b1ceea358f26565d2854df0c99c3f5eaf98508383604051610fe3929190611e46565b60405180910390a25050565b606080600080600080600260003373ffffffffffffffffffffffffffffffffffffffff1673ffffffffffffffffffffffffffffffffffffffff168152602001908152602001600020600001805461104590612212565b90501415611088576040517f08c379a000000000000000000000000000000000000000000000000000000000815260040161107f90611ede565b60405180910390fd5b6000600260003373ffffffffffffffffffffffffffffffffffffffff1673ffffffffffffffffffffffffffffffffffffffff1681526020019081526020016000206040518060a00160405290816000820180546110e490612212565b80601f016020809104026020016040519081016040528092919081815260200182805461111090612212565b801561115d5780601f106111325761010080835404028352916020019161115d565b820191906000526020600020905b81548152906001019060200180831161114057829003601f168201915b5050505050815260200160018201805461117690612212565b80601f01602080910402602001604051908101604052809291908181526020018280546111a290612212565b80156111ef5780601f106111c4576101008083540402835291602001916111ef565b820191906000526020600020905b8154815290600101906020018083116111d257829003601f168201915b505050505081526020016002820160009054906101000a900473ffffffffffffffffffffffffffffffffffffffff1673ffffffffffffffffffffffffffffffffffffffff1673ffffffffffffffffffffffffffffffffffffffff1681526020016003820154815260200160048201548152505090508060000151816020015182604001518360600151846080015195509550955095509550509091929394565b6060600060068054905067ffffffffffffffff8111156112d8577f4e487b7100000000000000000000000000000000000000000000000000000000600052604160045260246000fd5b60405190808252806020026020018201604052801561131157816020015b6112fe61167a565b8152602001906001900390816112f65790505b50905060005b6006805490508110156115b7576002600060068381548110611362577f4e487b7100000000000000000000000000000000000000000000000000000000600052603260045260246000fd5b9060005260206000200160009054906101000a900473ffffffffffffffffffffffffffffffffffffffff1673ffffffffffffffffffffffffffffffffffffffff1673ffffffffffffffffffffffffffffffffffffffff1681526020019081526020016000206040518060a00160405290816000820180546113e290612212565b80601f016020809104026020016040519081016040528092919081815260200182805461140e90612212565b801561145b5780601f106114305761010080835404028352916020019161145b565b820191906000526020600020905b81548152906001019060200180831161143e57829003601f168201915b5050505050815260200160018201805461147490612212565b80601f01602080910402602001604051908101604052809291908181526020018280546114a090612212565b80156114ed5780601f106114c2576101008083540402835291602001916114ed565b820191906000526020600020905b8154815290600101906020018083116114d057829003601f168201915b505050505081526020016002820160009054906101000a900473ffffffffffffffffffffffffffffffffffffffff1673ffffffffffffffffffffffffffffffffffffffff1673ffffffffffffffffffffffffffffffffffffffff16815260200160038201548152602001600482015481525050828281518110611599577f4e487b7100000000000000000000000000000000000000000000000000000000600052603260045260246000fd5b602002602001018190525080806115af90612244565b915050611317565b508091505090565b60006004826040516115d19190611d9a565b908152602001604051809103902060009054906101000a900460ff169050919050565b82805461160090612212565b90600052602060002090601f0160209004810192826116225760008555611669565b82601f1061163b57805160ff1916838001178555611669565b82800160010185558215611669579182015b8281111561166857825182559160200191906001019061164d565b5b50905061167691906116bf565b5090565b6040518060a001604052806060815260200160608152602001600073ffffffffffffffffffffffffffffffffffffffff16815260200160008152602001600081525090565b5b808211156116d85760008160009055506001016116c0565b5090565b60006116ef6116ea84612014565b611fe3565b90508281526020810184848401111561170757600080fd5b6117128482856121d0565b509392505050565b6000813590506117298161232b565b92915050565b60008151905061173e8161232b565b92915050565b60008151905061175381612342565b92915050565b600082601f83011261176a57600080fd5b813561177a8482602086016116dc565b91505092915050565b60008151905061179281612359565b92915050565b6000602082840312156117aa57600080fd5b60006117b88482850161171a565b91505092915050565b600080600080600060a086880312156117d957600080fd5b60006117e78882890161172f565b95505060206117f888828901611783565b945050604061180988828901611783565b935050606061181a88828901611744565b925050608061182b88828901611744565b9150509295509295909350565b60006020828403121561184a57600080fd5b600082013567ffffffffffffffff81111561186457600080fd5b61187084828501611759565b91505092915050565b6000806040838503121561188c57600080fd5b600083013567ffffffffffffffff8111156118a657600080fd5b6118b285828601611759565b925050602083013567ffffffffffffffff8111156118cf57600080fd5b6118db85828601611759565b9150509250929050565b60006118f18383611911565b60208301905092915050565b60006119098383611ce8565b905092915050565b61191a81612164565b82525050565b61192981612164565b82525050565b600061193a82612079565b61194481856120b4565b935061194f83612044565b8060005b8381101561198057815161196788826118e5565b97506119728361209a565b925050600181019050611953565b5085935050505092915050565b600061199882612084565b6119a281856120c5565b9350836020820285016119b485612054565b8060005b858110156119f057848403895281516119d185826118fd565b94506119dc836120a7565b925060208a019950506001810190506119b8565b50829750879550505050505092915050565b611a0b81612176565b82525050565b60008154611a1e81612212565b611a2881866120d6565b94506001821660008114611a435760018114611a5457611a87565b60ff19831686528186019350611a87565b611a5d85612064565b60005b83811015611a7f57815481890152600182019150602081019050611a60565b838801955050505b50505092915050565b611a99816121ac565b82525050565b6000611aaa8261208f565b611ab481856120e1565b9350611ac48185602086016121df565b611acd8161231a565b840191505092915050565b6000611ae38261208f565b611aed81856120f2565b9350611afd8185602086016121df565b611b068161231a565b840191505092915050565b6000611b1c8261208f565b611b268185612103565b9350611b368185602086016121df565b80840191505092915050565b6000611b4f6013836120f2565b91507f55736572206e6f742072656769737465726564000000000000000000000000006000830152602082019050919050565b6000611b8f6026836120f2565b91507f4f6e6c7920746865206f776e65722063616e20706572666f726d20746869732060008301527f616374696f6e00000000000000000000000000000000000000000000000000006020830152604082019050919050565b6000611bf56017836120f2565b91507f5573657220616c726561647920726567697374657265640000000000000000006000830152602082019050919050565b6000611c356016836120f2565b91507f456d61696c20697320616c72656164792074616b656e000000000000000000006000830152602082019050919050565b6000611c75601c836120f2565b91507f4e6f2061637469766520737562736372697074696f6e20666f756e64000000006000830152602082019050919050565b6000611cb56019836120f2565b91507f557365726e616d6520697320616c72656164792074616b656e000000000000006000830152602082019050919050565b600060a0830160008301518482036000860152611d058282611a9f565b91505060208301518482036020860152611d1f8282611a9f565b9150506040830151611d346040860182611911565b506060830151611d476060860182611d65565b506080830151611d5a6080860182611d65565b508091505092915050565b611d6e816121a2565b82525050565b611d7d816121a2565b82525050565b6000611d8f8284611a11565b915081905092915050565b6000611da68284611b11565b915081905092915050565b6000602082019050611dc66000830184611920565b92915050565b60006020820190508181036000830152611de6818461192f565b905092915050565b60006020820190508181036000830152611e08818461198d565b905092915050565b6000602082019050611e256000830184611a02565b92915050565b6000602082019050611e406000830184611a90565b92915050565b60006040820190508181036000830152611e608185611ad8565b90508181036020830152611e748184611ad8565b90509392505050565b600060a0820190508181036000830152611e978188611ad8565b90508181036020830152611eab8187611ad8565b9050611eba6040830186611920565b611ec76060830185611d74565b611ed46080830184611d74565b9695505050505050565b60006020820190508181036000830152611ef781611b42565b9050919050565b60006020820190508181036000830152611f1781611b82565b9050919050565b60006020820190508181036000830152611f3781611be8565b9050919050565b60006020820190508181036000830152611f5781611c28565b9050919050565b60006020820190508181036000830152611f7781611c68565b9050919050565b60006020820190508181036000830152611f9781611ca8565b9050919050565b6000608082019050611fb36000830187611d74565b611fc06020830186611d74565b611fcd6040830185611a02565b611fda6060830184611a02565b95945050505050565b6000604051905081810181811067ffffffffffffffff8211171561200a576120096122eb565b5b8060405250919050565b600067ffffffffffffffff82111561202f5761202e6122eb565b5b601f19601f8301169050602081019050919050565b6000819050602082019050919050565b6000819050602082019050919050565b60008190508160005260206000209050919050565b600081519050919050565b600081519050919050565b600081519050919050565b6000602082019050919050565b6000602082019050919050565b600082825260208201905092915050565b600082825260208201905092915050565b600081905092915050565b600082825260208201905092915050565b600082825260208201905092915050565b600081905092915050565b6000612119826121a2565b9150612124836121a2565b9250827fffffffffffffffffffffffffffffffffffffffffffffffffffffffffffffffff038211156121595761215861228d565b5b828201905092915050565b600061216f82612182565b9050919050565b60008115159050919050565b600073ffffffffffffffffffffffffffffffffffffffff82169050919050565b6000819050919050565b60006121b7826121be565b9050919050565b60006121c982612182565b9050919050565b82818337600083830152505050565b60005b838110156121fd5780820151818401526020810190506121e2565b8381111561220c576000848401525b50505050565b6000600282049050600182168061222a57607f821691505b6020821081141561223e5761223d6122bc565b5b50919050565b600061224f826121a2565b91507fffffffffffffffffffffffffffffffffffffffffffffffffffffffffffffffff8214156122825761228161228d565b5b600182019050919050565b7f4e487b7100000000000000000000000000000000000000000000000000000000600052601160045260246000fd5b7f4e487b7100000000000000000000000000000000000000000000000000000000600052602260045260246000fd5b7f4e487b7100000000000000000000000000000000000000000000000000000000600052604160045260246000fd5b6000601f19601f8301169050919050565b61233481612164565b811461233f57600080fd5b50565b61234b81612176565b811461235657600080fd5b50565b612362816121a2565b811461236d57600080fd5b5056fea2646970667358221220d9d9b4e99b8755568e6795b208f0d59f94db3a29c3ee044c23a8666cbb1faca964736f6c63430008000033",
  "immutableReferences": {},
  "source": "// SPDX-License-Identifier: MIT\r\npragma solidity ^0.8.0;\r\n\r\ninterface ITransactionPayment {\r\n    function hasActiveSubscription(address user) external view returns (bool);\r\n    function getCurrentSubscription(address user) external view returns (address, uint, uint, bool, bool);\r\n}\r\n\r\ncontract UserManagement {\r\n    address public owner;\r\n    ITransactionPayment public transactionPayment;\r\n\r\n    struct User {\r\n        string username;\r\n        string email;\r\n        address userAddress;\r\n        uint lastUpdated;\r\n        uint nextUpdateTime;\r\n    }\r\n\r\n    mapping(address => User) public users;\r\n    mapping(string => bool) private usernames; // Mapping to prevent duplicate usernames\r\n    mapping(string => bool) private emails; // Mapping to prevent duplicate emails\r\n    mapping(address => bool) public hasActiveSubscription; // Tracks active subscriptions\r\n\r\n    event UserRegistered(address indexed userAddress, string username, string email);\r\n    event ProfileUpdated(address indexed userAddress, string username, string email);\r\n    event MovieAdded(string title, string genre);\r\n\r\n    address[] private userAddresses;\r\n\r\n    // constructor(address _transactionPaymentAddress) {\r\n    //     owner = msg.sender;\r\n    //     transactionPayment = ITransactionPayment(_transactionPaymentAddress);\r\n    // }\r\n\r\n    constructor() {\r\n        owner = msg.sender;\r\n    }\r\n\r\n    modifier onlyOwner() {\r\n        require(msg.sender == owner, \"Only the owner can perform this action\");\r\n        _;\r\n    }\r\n\r\n        // Internal function to check if the username exists\r\n    function isUsernameTaken(string memory username) public view returns (bool) {\r\n        return usernames[username];\r\n    }\r\n\r\n    // Internal function to check if the email exists\r\n    function isEmailTaken(string memory email) public view returns (bool) {\r\n        return emails[email];\r\n    }\r\n\r\n    function registerUser(string memory username, string memory email) public {\r\n        require(\r\n            bytes(users[msg.sender].username).length == 0,\r\n            \"User already registered\"\r\n        );\r\n        require(!usernames[username], \"Username is already taken\");\r\n        require(!emails[email], \"Email is already taken\");\r\n\r\n        users[msg.sender] = User({\r\n            username: username,\r\n            email: email,\r\n            userAddress: msg.sender,\r\n            lastUpdated: 0,\r\n            nextUpdateTime: 0\r\n        });\r\n\r\n        usernames[username] = true; // Mark username as taken\r\n        emails[email] = true; // Mark email as taken\r\n\r\n        emit UserRegistered(msg.sender, username, email);\r\n    }\r\n\r\n    function updateProfile(string memory _newUsername, string memory _newEmail) public {\r\n        require(\r\n            bytes(users[msg.sender].username).length > 0,\r\n            \"User not registered\"\r\n        );\r\n\r\n        require(!usernames[_newUsername] || keccak256(bytes(_newUsername)) == keccak256(bytes(users[msg.sender].username)),\r\n            \"Username is already taken\");\r\n        require(!emails[_newEmail] || keccak256(bytes(_newEmail)) == keccak256(bytes(users[msg.sender].email)),\r\n            \"Email is already taken\");\r\n\r\n        users[msg.sender].username = _newUsername;\r\n        users[msg.sender].email = _newEmail;\r\n        users[msg.sender].lastUpdated = block.timestamp;\r\n        users[msg.sender].nextUpdateTime = block.timestamp + 1 days;\r\n\r\n        emit ProfileUpdated(msg.sender, _newUsername, _newEmail);\r\n    }\r\n\r\n    function getOwner() public view returns (address) {\r\n        return owner;\r\n    }\r\n\r\n    function getProfile() public view returns (string memory, string memory, address, uint, uint) {\r\n        require(\r\n            bytes(users[msg.sender].username).length != 0,\r\n            \"User not registered\"\r\n        );\r\n        User memory user = users[msg.sender];\r\n\r\n        return (\r\n            user.username,\r\n            user.email,\r\n            user.userAddress,\r\n            user.lastUpdated,\r\n            user.nextUpdateTime\r\n        );\r\n    }\r\n\r\n    function getUserSubscriptionInfo() public view returns (\r\n        uint amount,\r\n        uint unlockTime,\r\n        bool cancelled,\r\n        bool executed\r\n    ) {\r\n        require(\r\n            bytes(users[msg.sender].username).length != 0,\r\n            \"User not registered\"\r\n        );\r\n\r\n        (address subscriber, uint subAmount, uint subUnlockTime, bool subCancelled, bool subExecuted) = transactionPayment.getCurrentSubscription(msg.sender);\r\n        require(subscriber != address(0), \"No active subscription found\");\r\n\r\n        return (subAmount, subUnlockTime, subCancelled, subExecuted);\r\n    }\r\n\r\n    function isUserRegistered(address userAddress) public view returns (bool) {\r\n        return bytes(users[userAddress].username).length != 0;\r\n    }\r\n\r\n    function addMovie(string memory title, string memory genre) public onlyOwner {\r\n        emit MovieAdded(title, genre);\r\n    }\r\n\r\n\r\n//-------Added to retrieve user details and show in transactionHistory-----\r\nfunction getUserAddresses() public view returns (address[] memory) {\r\n    return userAddresses;\r\n}\r\n\r\nfunction getAllUsers() public view returns (User[] memory) {\r\n        User[] memory allUsers = new User[](userAddresses.length);\r\n        for (uint i = 0; i < userAddresses.length; i++) {\r\n            allUsers[i] = users[userAddresses[i]];\r\n        }\r\n        return allUsers;\r\n    }\r\n}\r\n",
  "sourcePath": "C:\\Users\\choon\\Xampp\\htdocs\\Movie_subscription_solidity-4\\smart_contract\\contracts\\UserManagement.sol",
  "compiler": {
    "name": "solc",
    "version": "0.8.0+commit.c7dfd78e.Emscripten.clang"
  },
  "schemaVersion": "3.4.16",
  "updatedAt": "2024-09-26T06:42:39.252Z",
  "networkType": "ethereum",
  "devdoc": {
    "kind": "dev",
    "methods": {},
    "version": 1
  },
  "userdoc": {
    "kind": "user",
    "methods": {},
    "version": 1
  }
}