{
  "contractName": "UserManagement",
  "abi": [
    {
      "inputs": [],
      "stateMutability": "nonpayable",
      "type": "constructor"
    },
    {
      "anonymous": false,
      "inputs": [
        {
          "indexed": false,
          "internalType": "string",
          "name": "title",
          "type": "string"
        },
        {
          "indexed": false,
          "internalType": "string",
          "name": "genre",
          "type": "string"
        }
      ],
      "name": "MovieAdded",
      "type": "event"
    },
    {
      "anonymous": false,
      "inputs": [
        {
          "indexed": true,
          "internalType": "address",
          "name": "userAddress",
          "type": "address"
        },
        {
          "indexed": false,
          "internalType": "string",
          "name": "username",
          "type": "string"
        },
        {
          "indexed": false,
          "internalType": "string",
          "name": "email",
          "type": "string"
        }
      ],
      "name": "ProfileUpdated",
      "type": "event"
    },
    {
      "anonymous": false,
      "inputs": [
        {
          "indexed": true,
          "internalType": "address",
          "name": "userAddress",
          "type": "address"
        },
        {
          "indexed": false,
          "internalType": "string",
          "name": "username",
          "type": "string"
        },
        {
          "indexed": false,
          "internalType": "string",
          "name": "email",
          "type": "string"
        }
      ],
      "name": "UserRegistered",
      "type": "event"
    },
    {
      "inputs": [],
      "name": "owner",
      "outputs": [
        {
          "internalType": "address",
          "name": "",
          "type": "address"
        }
      ],
      "stateMutability": "view",
      "type": "function",
      "constant": true
    },
    {
      "inputs": [],
      "name": "transactionPayment",
      "outputs": [
        {
          "internalType": "contract ITransactionPayment",
          "name": "",
          "type": "address"
        }
      ],
      "stateMutability": "view",
      "type": "function",
      "constant": true
    },
    {
      "inputs": [
        {
          "internalType": "address",
          "name": "",
          "type": "address"
        }
      ],
      "name": "users",
      "outputs": [
        {
          "internalType": "string",
          "name": "username",
          "type": "string"
        },
        {
          "internalType": "string",
          "name": "email",
          "type": "string"
        },
        {
          "internalType": "address",
          "name": "userAddress",
          "type": "address"
        },
        {
          "internalType": "uint256",
          "name": "lastUpdated",
          "type": "uint256"
        },
        {
          "internalType": "uint256",
          "name": "nextUpdateTime",
          "type": "uint256"
        }
      ],
      "stateMutability": "view",
      "type": "function",
      "constant": true
    },
    {
      "inputs": [
        {
          "internalType": "string",
          "name": "username",
          "type": "string"
        }
      ],
      "name": "isUsernameTaken",
      "outputs": [
        {
          "internalType": "bool",
          "name": "",
          "type": "bool"
        }
      ],
      "stateMutability": "view",
      "type": "function",
      "constant": true
    },
    {
      "inputs": [
        {
          "internalType": "string",
          "name": "email",
          "type": "string"
        }
      ],
      "name": "isEmailTaken",
      "outputs": [
        {
          "internalType": "bool",
          "name": "",
          "type": "bool"
        }
      ],
      "stateMutability": "view",
      "type": "function",
      "constant": true
    },
    {
      "inputs": [
        {
          "internalType": "string",
          "name": "username",
          "type": "string"
        },
        {
          "internalType": "string",
          "name": "email",
          "type": "string"
        }
      ],
      "name": "registerUser",
      "outputs": [],
      "stateMutability": "nonpayable",
      "type": "function"
    },
    {
      "inputs": [
        {
          "internalType": "string",
          "name": "_newUsername",
          "type": "string"
        },
        {
          "internalType": "string",
          "name": "_newEmail",
          "type": "string"
        }
      ],
      "name": "updateProfile",
      "outputs": [],
      "stateMutability": "nonpayable",
      "type": "function"
    },
    {
      "inputs": [],
      "name": "getOwner",
      "outputs": [
        {
          "internalType": "address",
          "name": "",
          "type": "address"
        }
      ],
      "stateMutability": "view",
      "type": "function",
      "constant": true
    },
    {
      "inputs": [],
      "name": "getProfile",
      "outputs": [
        {
          "internalType": "string",
          "name": "",
          "type": "string"
        },
        {
          "internalType": "string",
          "name": "",
          "type": "string"
        },
        {
          "internalType": "address",
          "name": "",
          "type": "address"
        },
        {
          "internalType": "uint256",
          "name": "",
          "type": "uint256"
        },
        {
          "internalType": "uint256",
          "name": "",
          "type": "uint256"
        }
      ],
      "stateMutability": "view",
      "type": "function",
      "constant": true
    },
    {
      "inputs": [],
      "name": "getUserSubscriptionInfo",
      "outputs": [
        {
          "internalType": "uint256",
          "name": "amount",
          "type": "uint256"
        },
        {
          "internalType": "uint256",
          "name": "unlockTime",
          "type": "uint256"
        },
        {
          "internalType": "bool",
          "name": "cancelled",
          "type": "bool"
        },
        {
          "internalType": "bool",
          "name": "executed",
          "type": "bool"
        }
      ],
      "stateMutability": "view",
      "type": "function",
      "constant": true
    },
    {
      "inputs": [
        {
          "internalType": "address",
          "name": "userAddress",
          "type": "address"
        }
      ],
      "name": "isUserRegistered",
      "outputs": [
        {
          "internalType": "bool",
          "name": "",
          "type": "bool"
        }
      ],
      "stateMutability": "view",
      "type": "function",
      "constant": true
    },
    {
      "inputs": [
        {
          "internalType": "string",
          "name": "title",
          "type": "string"
        },
        {
          "internalType": "string",
          "name": "genre",
          "type": "string"
        }
      ],
      "name": "addMovie",
      "outputs": [],
      "stateMutability": "nonpayable",
      "type": "function"
    }
  ],
  "bytecode": "0x608060405234801561001057600080fd5b50336000806101000a81548173ffffffffffffffffffffffffffffffffffffffff021916908373ffffffffffffffffffffffffffffffffffffffff160217905550611bf3806100606000396000f3fe608060405234801561001057600080fd5b50600436106100b45760003560e01c80638da5cb5b116100715780638da5cb5b14610192578063967a8be4146101b0578063a87430ba146101cc578063c9d3cc6a14610200578063d6afc9b11461021c578063fc17f6fd1461023e576100b4565b8063163f7522146100b9578063176c5919146100e95780631d2e4afd14610119578063564f91741461013557806385d894c314610156578063893d20e814610174575b600080fd5b6100d360048036038101906100ce91906112c8565b61026e565b6040516100e09190611729565b60405180910390f35b61010360048036038101906100fe9190611368565b6102c9565b6040516101109190611729565b60405180910390f35b610133600480360381019061012e91906113a9565b6102fe565b005b61013d61063f565b60405161014d94939291906118b7565b60405180910390f35b61015e61081b565b60405161016b9190611744565b60405180910390f35b61017c610841565b604051610189919061170e565b60405180910390f35b61019a61086a565b6040516101a7919061170e565b60405180910390f35b6101ca60048036038101906101c591906113a9565b61088e565b005b6101e660048036038101906101e191906112c8565b610959565b6040516101f7959493929190611796565b60405180910390f35b61021a600480360381019061021591906113a9565b610abf565b005b610224610e94565b604051610235959493929190611796565b60405180910390f35b61025860048036038101906102539190611368565b611134565b6040516102659190611729565b60405180910390f35b600080600260008473ffffffffffffffffffffffffffffffffffffffff1673ffffffffffffffffffffffffffffffffffffffff16815260200190815260200160002060000180546102be90611aa8565b905014159050919050565b60006003826040516102db91906116f7565b908152602001604051809103902060009054906101000a900460ff169050919050565b6000600260003373ffffffffffffffffffffffffffffffffffffffff1673ffffffffffffffffffffffffffffffffffffffff168152602001908152602001600020600001805461034d90611aa8565b90501461038f576040517f08c379a000000000000000000000000000000000000000000000000000000000815260040161038690611837565b60405180910390fd5b60038260405161039f91906116f7565b908152602001604051809103902060009054906101000a900460ff16156103fb576040517f08c379a00000000000000000000000000000000000000000000000000000000081526004016103f290611897565b60405180910390fd5b60048160405161040b91906116f7565b908152602001604051809103902060009054906101000a900460ff1615610467576040517f08c379a000000000000000000000000000000000000000000000000000000000815260040161045e90611857565b60405180910390fd5b6040518060a001604052808381526020018281526020013373ffffffffffffffffffffffffffffffffffffffff168152602001600081526020016000815250600260003373ffffffffffffffffffffffffffffffffffffffff1673ffffffffffffffffffffffffffffffffffffffff1681526020019081526020016000206000820151816000019080519060200190610501929190611169565b50602082015181600101908051906020019061051e929190611169565b5060408201518160020160006101000a81548173ffffffffffffffffffffffffffffffffffffffff021916908373ffffffffffffffffffffffffffffffffffffffff1602179055506060820151816003015560808201518160040155905050600160038360405161058f91906116f7565b908152602001604051809103902060006101000a81548160ff02191690831515021790555060016004826040516105c691906116f7565b908152602001604051809103902060006101000a81548160ff0219169083151502179055503373ffffffffffffffffffffffffffffffffffffffff167f92822564bab8864c3a47b34e8d23fbce5c46234eb5da261f94087b995ac0f33b838360405161063392919061175f565b60405180910390a25050565b6000806000806000600260003373ffffffffffffffffffffffffffffffffffffffff1673ffffffffffffffffffffffffffffffffffffffff168152602001908152602001600020600001805461069490611aa8565b905014156106d7576040517f08c379a00000000000000000000000000000000000000000000000000000000081526004016106ce906117f7565b60405180910390fd5b6000806000806000600160009054906101000a900473ffffffffffffffffffffffffffffffffffffffff1673ffffffffffffffffffffffffffffffffffffffff1663a834546b336040518263ffffffff1660e01b815260040161073a919061170e565b60a06040518083038186803b15801561075257600080fd5b505afa158015610766573d6000803e3d6000fd5b505050506040513d601f19601f8201168201806040525081019061078a91906112f1565b94509450945094509450600073ffffffffffffffffffffffffffffffffffffffff168573ffffffffffffffffffffffffffffffffffffffff161415610804576040517f08c379a00000000000000000000000000000000000000000000000000000000081526004016107fb90611877565b60405180910390fd5b838383839850985098509850505050505090919293565b600160009054906101000a900473ffffffffffffffffffffffffffffffffffffffff1681565b60008060009054906101000a900473ffffffffffffffffffffffffffffffffffffffff16905090565b60008054906101000a900473ffffffffffffffffffffffffffffffffffffffff1681565b60008054906101000a900473ffffffffffffffffffffffffffffffffffffffff1673ffffffffffffffffffffffffffffffffffffffff163373ffffffffffffffffffffffffffffffffffffffff161461091c576040517f08c379a000000000000000000000000000000000000000000000000000000000815260040161091390611817565b60405180910390fd5b7fc493497c830c3d7255d9620f154cf8b3d1f5fc34578d3bb6719961d215e3499b828260405161094d92919061175f565b60405180910390a15050565b600260205280600052604060002060009150905080600001805461097c90611aa8565b80601f01602080910402602001604051908101604052809291908181526020018280546109a890611aa8565b80156109f55780601f106109ca576101008083540402835291602001916109f5565b820191906000526020600020905b8154815290600101906020018083116109d857829003601f168201915b505050505090806001018054610a0a90611aa8565b80601f0160208091040260200160405190810160405280929190818152602001828054610a3690611aa8565b8015610a835780601f10610a5857610100808354040283529160200191610a83565b820191906000526020600020905b815481529060010190602001808311610a6657829003601f168201915b5050505050908060020160009054906101000a900473ffffffffffffffffffffffffffffffffffffffff16908060030154908060040154905085565b6000600260003373ffffffffffffffffffffffffffffffffffffffff1673ffffffffffffffffffffffffffffffffffffffff1681526020019081526020016000206000018054610b0e90611aa8565b905011610b50576040517f08c379a0000000000000000000000000000000000000000000000000000000008152600401610b47906117f7565b60405180910390fd5b600382604051610b6091906116f7565b908152602001604051809103902060009054906101000a900460ff161580610be45750600260003373ffffffffffffffffffffffffffffffffffffffff1673ffffffffffffffffffffffffffffffffffffffff168152602001908152602001600020600001604051610bd291906116e0565b60405180910390208280519060200120145b610c23576040517f08c379a0000000000000000000000000000000000000000000000000000000008152600401610c1a90611897565b60405180910390fd5b600481604051610c3391906116f7565b908152602001604051809103902060009054906101000a900460ff161580610cb75750600260003373ffffffffffffffffffffffffffffffffffffffff1673ffffffffffffffffffffffffffffffffffffffff168152602001908152602001600020600101604051610ca591906116e0565b60405180910390208180519060200120145b610cf6576040517f08c379a0000000000000000000000000000000000000000000000000000000008152600401610ced90611857565b60405180910390fd5b81600260003373ffffffffffffffffffffffffffffffffffffffff1673ffffffffffffffffffffffffffffffffffffffff1681526020019081526020016000206000019080519060200190610d4c929190611169565b5080600260003373ffffffffffffffffffffffffffffffffffffffff1673ffffffffffffffffffffffffffffffffffffffff1681526020019081526020016000206001019080519060200190610da3929190611169565b5042600260003373ffffffffffffffffffffffffffffffffffffffff1673ffffffffffffffffffffffffffffffffffffffff168152602001908152602001600020600301819055506201518042610dfa91906119a4565b600260003373ffffffffffffffffffffffffffffffffffffffff1673ffffffffffffffffffffffffffffffffffffffff168152602001908152602001600020600401819055503373ffffffffffffffffffffffffffffffffffffffff167f6eb3a1c6a4675ba92d44e090515b1ceea358f26565d2854df0c99c3f5eaf98508383604051610e8892919061175f565b60405180910390a25050565b606080600080600080600260003373ffffffffffffffffffffffffffffffffffffffff1673ffffffffffffffffffffffffffffffffffffffff1681526020019081526020016000206000018054610eea90611aa8565b90501415610f2d576040517f08c379a0000000000000000000000000000000000000000000000000000000008152600401610f24906117f7565b60405180910390fd5b6000600260003373ffffffffffffffffffffffffffffffffffffffff1673ffffffffffffffffffffffffffffffffffffffff1681526020019081526020016000206040518060a0016040529081600082018054610f8990611aa8565b80601f0160208091040260200160405190810160405280929190818152602001828054610fb590611aa8565b80156110025780601f10610fd757610100808354040283529160200191611002565b820191906000526020600020905b815481529060010190602001808311610fe557829003601f168201915b5050505050815260200160018201805461101b90611aa8565b80601f016020809104026020016040519081016040528092919081815260200182805461104790611aa8565b80156110945780601f1061106957610100808354040283529160200191611094565b820191906000526020600020905b81548152906001019060200180831161107757829003601f168201915b505050505081526020016002820160009054906101000a900473ffffffffffffffffffffffffffffffffffffffff1673ffffffffffffffffffffffffffffffffffffffff1673ffffffffffffffffffffffffffffffffffffffff1681526020016003820154815260200160048201548152505090508060000151816020015182604001518360600151846080015195509550955095509550509091929394565b600060048260405161114691906116f7565b908152602001604051809103902060009054906101000a900460ff169050919050565b82805461117590611aa8565b90600052602060002090601f01602090048101928261119757600085556111de565b82601f106111b057805160ff19168380011785556111de565b828001600101855582156111de579182015b828111156111dd5782518255916020019190600101906111c2565b5b5090506111eb91906111ef565b5090565b5b808211156112085760008160009055506001016111f0565b5090565b600061121f61121a8461192d565b6118fc565b90508281526020810184848401111561123757600080fd5b611242848285611a66565b509392505050565b60008135905061125981611b78565b92915050565b60008151905061126e81611b78565b92915050565b60008151905061128381611b8f565b92915050565b600082601f83011261129a57600080fd5b81356112aa84826020860161120c565b91505092915050565b6000815190506112c281611ba6565b92915050565b6000602082840312156112da57600080fd5b60006112e88482850161124a565b91505092915050565b600080600080600060a0868803121561130957600080fd5b60006113178882890161125f565b9550506020611328888289016112b3565b9450506040611339888289016112b3565b935050606061134a88828901611274565b925050608061135b88828901611274565b9150509295509295909350565b60006020828403121561137a57600080fd5b600082013567ffffffffffffffff81111561139457600080fd5b6113a084828501611289565b91505092915050565b600080604083850312156113bc57600080fd5b600083013567ffffffffffffffff8111156113d657600080fd5b6113e285828601611289565b925050602083013567ffffffffffffffff8111156113ff57600080fd5b61140b85828601611289565b9150509250929050565b61141e816119fa565b82525050565b61142d81611a0c565b82525050565b6000815461144081611aa8565b61144a818661197d565b945060018216600081146114655760018114611476576114a9565b60ff198316865281860193506114a9565b61147f8561195d565b60005b838110156114a157815481890152600182019150602081019050611482565b838801955050505b50505092915050565b6114bb81611a42565b82525050565b60006114cc82611972565b6114d68185611988565b93506114e6818560208601611a75565b6114ef81611b67565b840191505092915050565b600061150582611972565b61150f8185611999565b935061151f818560208601611a75565b80840191505092915050565b6000611538601383611988565b91507f55736572206e6f742072656769737465726564000000000000000000000000006000830152602082019050919050565b6000611578602683611988565b91507f4f6e6c7920746865206f776e65722063616e20706572666f726d20746869732060008301527f616374696f6e00000000000000000000000000000000000000000000000000006020830152604082019050919050565b60006115de601783611988565b91507f5573657220616c726561647920726567697374657265640000000000000000006000830152602082019050919050565b600061161e601683611988565b91507f456d61696c20697320616c72656164792074616b656e000000000000000000006000830152602082019050919050565b600061165e601c83611988565b91507f4e6f2061637469766520737562736372697074696f6e20666f756e64000000006000830152602082019050919050565b600061169e601983611988565b91507f557365726e616d6520697320616c72656164792074616b656e000000000000006000830152602082019050919050565b6116da81611a38565b82525050565b60006116ec8284611433565b915081905092915050565b600061170382846114fa565b915081905092915050565b60006020820190506117236000830184611415565b92915050565b600060208201905061173e6000830184611424565b92915050565b600060208201905061175960008301846114b2565b92915050565b6000604082019050818103600083015261177981856114c1565b9050818103602083015261178d81846114c1565b90509392505050565b600060a08201905081810360008301526117b081886114c1565b905081810360208301526117c481876114c1565b90506117d36040830186611415565b6117e060608301856116d1565b6117ed60808301846116d1565b9695505050505050565b600060208201905081810360008301526118108161152b565b9050919050565b600060208201905081810360008301526118308161156b565b9050919050565b60006020820190508181036000830152611850816115d1565b9050919050565b6000602082019050818103600083015261187081611611565b9050919050565b6000602082019050818103600083015261189081611651565b9050919050565b600060208201905081810360008301526118b081611691565b9050919050565b60006080820190506118cc60008301876116d1565b6118d960208301866116d1565b6118e66040830185611424565b6118f36060830184611424565b95945050505050565b6000604051905081810181811067ffffffffffffffff8211171561192357611922611b38565b5b8060405250919050565b600067ffffffffffffffff82111561194857611947611b38565b5b601f19601f8301169050602081019050919050565b60008190508160005260206000209050919050565b600081519050919050565b600081905092915050565b600082825260208201905092915050565b600081905092915050565b60006119af82611a38565b91506119ba83611a38565b9250827fffffffffffffffffffffffffffffffffffffffffffffffffffffffffffffffff038211156119ef576119ee611ada565b5b828201905092915050565b6000611a0582611a18565b9050919050565b60008115159050919050565b600073ffffffffffffffffffffffffffffffffffffffff82169050919050565b6000819050919050565b6000611a4d82611a54565b9050919050565b6000611a5f82611a18565b9050919050565b82818337600083830152505050565b60005b83811015611a93578082015181840152602081019050611a78565b83811115611aa2576000848401525b50505050565b60006002820490506001821680611ac057607f821691505b60208210811415611ad457611ad3611b09565b5b50919050565b7f4e487b7100000000000000000000000000000000000000000000000000000000600052601160045260246000fd5b7f4e487b7100000000000000000000000000000000000000000000000000000000600052602260045260246000fd5b7f4e487b7100000000000000000000000000000000000000000000000000000000600052604160045260246000fd5b6000601f19601f8301169050919050565b611b81816119fa565b8114611b8c57600080fd5b50565b611b9881611a0c565b8114611ba357600080fd5b50565b611baf81611a38565b8114611bba57600080fd5b5056fea2646970667358221220434d7c8773592e300606f535a562f4d0b106c1829682c6a77f84f7f298fcc76964736f6c63430008000033",
  "immutableReferences": {},
  "source": "// SPDX-License-Identifier: MIT\r\npragma solidity ^0.8.0;\r\n\r\ninterface ITransactionPayment {\r\n    function hasActiveSubscription(address user) external view returns (bool);\r\n    function getCurrentSubscription(address user) external view returns (address, uint, uint, bool, bool);\r\n}\r\n\r\ncontract UserManagement {\r\n    address public owner;\r\n    ITransactionPayment public transactionPayment;\r\n\r\n    struct User {\r\n        string username;\r\n        string email;\r\n        address userAddress;\r\n        uint lastUpdated;\r\n        uint nextUpdateTime;\r\n    }\r\n\r\n    mapping(address => User) public users;\r\n    mapping(string => bool) private usernames;\r\n    mapping(string => bool) private emails;\r\n\r\n    event UserRegistered(address indexed userAddress, string username, string email);\r\n    event ProfileUpdated(address indexed userAddress, string username, string email);\r\n    event MovieAdded(string title, string genre);\r\n\r\n    // constructor(address _transactionPaymentAddress) {\r\n    //     owner = msg.sender;\r\n    //     transactionPayment = ITransactionPayment(_transactionPaymentAddress);\r\n    // }\r\n\r\n    constructor() {\r\n        owner = msg.sender;\r\n    }\r\n\r\n    modifier onlyOwner() {\r\n        require(msg.sender == owner, \"Only the owner can perform this action\");\r\n        _;\r\n    }\r\n\r\n        // Internal function to check if the username exists\r\n    function isUsernameTaken(string memory username) public view returns (bool) {\r\n        return usernames[username];\r\n    }\r\n\r\n    // Internal function to check if the email exists\r\n    function isEmailTaken(string memory email) public view returns (bool) {\r\n        return emails[email];\r\n    }\r\n\r\n    function registerUser(string memory username, string memory email) public {\r\n        require(\r\n            bytes(users[msg.sender].username).length == 0,\r\n            \"User already registered\"\r\n        );\r\n        require(!usernames[username], \"Username is already taken\");\r\n        require(!emails[email], \"Email is already taken\");\r\n\r\n        users[msg.sender] = User({\r\n            username: username,\r\n            email: email,\r\n            userAddress: msg.sender,\r\n            lastUpdated: 0,\r\n            nextUpdateTime: 0\r\n        });\r\n\r\n        usernames[username] = true;\r\n        emails[email] = true;\r\n\r\n        emit UserRegistered(msg.sender, username, email);\r\n    }\r\n\r\n    function updateProfile(string memory _newUsername, string memory _newEmail) public {\r\n        require(\r\n            bytes(users[msg.sender].username).length > 0,\r\n            \"User not registered\"\r\n        );\r\n\r\n        require(!usernames[_newUsername] || keccak256(bytes(_newUsername)) == keccak256(bytes(users[msg.sender].username)),\r\n            \"Username is already taken\");\r\n        require(!emails[_newEmail] || keccak256(bytes(_newEmail)) == keccak256(bytes(users[msg.sender].email)),\r\n            \"Email is already taken\");\r\n\r\n        users[msg.sender].username = _newUsername;\r\n        users[msg.sender].email = _newEmail;\r\n        users[msg.sender].lastUpdated = block.timestamp;\r\n        users[msg.sender].nextUpdateTime = block.timestamp + 1 days;\r\n\r\n        emit ProfileUpdated(msg.sender, _newUsername, _newEmail);\r\n    }\r\n\r\n    function getOwner() public view returns (address) {\r\n        return owner;\r\n    }\r\n\r\n    function getProfile() public view returns (string memory, string memory, address, uint, uint) {\r\n        require(\r\n            bytes(users[msg.sender].username).length != 0,\r\n            \"User not registered\"\r\n        );\r\n        User memory user = users[msg.sender];\r\n\r\n        return (\r\n            user.username,\r\n            user.email,\r\n            user.userAddress,\r\n            user.lastUpdated,\r\n            user.nextUpdateTime\r\n        );\r\n    }\r\n\r\n    function getUserSubscriptionInfo() public view returns (\r\n        uint amount,\r\n        uint unlockTime,\r\n        bool cancelled,\r\n        bool executed\r\n    ) {\r\n        require(\r\n            bytes(users[msg.sender].username).length != 0,\r\n            \"User not registered\"\r\n        );\r\n\r\n        (address subscriber, uint subAmount, uint subUnlockTime, bool subCancelled, bool subExecuted) = transactionPayment.getCurrentSubscription(msg.sender);\r\n        require(subscriber != address(0), \"No active subscription found\");\r\n\r\n        return (subAmount, subUnlockTime, subCancelled, subExecuted);\r\n    }\r\n\r\n    function isUserRegistered(address userAddress) public view returns (bool) {\r\n        return bytes(users[userAddress].username).length != 0;\r\n    }\r\n\r\n    function addMovie(string memory title, string memory genre) public onlyOwner {\r\n        emit MovieAdded(title, genre);\r\n    }\r\n}\r\n",
  "sourcePath": "C:\\Users\\khord\\Documents\\Movie_subscription_solidity\\smart_contract\\contracts\\UserManagement.sol",
  "compiler": {
    "name": "solc",
    "version": "0.8.0+commit.c7dfd78e.Emscripten.clang"
  },
  "schemaVersion": "3.4.16",
  "updatedAt": "2024-09-25T08:17:36.354Z",
  "networkType": "ethereum",
  "devdoc": {
    "kind": "dev",
    "methods": {},
    "version": 1
  },
  "userdoc": {
    "kind": "user",
    "methods": {},
    "version": 1
  }
}