{
  "contractName": "UserManager",
  "abi": [
    {
      "anonymous": false,
      "inputs": [
        {
          "indexed": true,
          "internalType": "address",
          "name": "userAddress",
          "type": "address"
        },
        {
          "indexed": false,
          "internalType": "string",
          "name": "username",
          "type": "string"
        },
        {
          "indexed": false,
          "internalType": "string",
          "name": "email",
          "type": "string"
        }
      ],
      "name": "ProfileUpdated",
      "type": "event"
    },
    {
      "anonymous": false,
      "inputs": [
        {
          "indexed": true,
          "internalType": "address",
          "name": "userAddress",
          "type": "address"
        },
        {
          "indexed": false,
          "internalType": "string",
          "name": "movieTitle",
          "type": "string"
        },
        {
          "indexed": false,
          "internalType": "uint256",
          "name": "subscriptionDate",
          "type": "uint256"
        }
      ],
      "name": "SubscriptionAdded",
      "type": "event"
    },
    {
      "anonymous": false,
      "inputs": [
        {
          "indexed": true,
          "internalType": "address",
          "name": "userAddress",
          "type": "address"
        },
        {
          "indexed": false,
          "internalType": "string",
          "name": "username",
          "type": "string"
        },
        {
          "indexed": false,
          "internalType": "string",
          "name": "email",
          "type": "string"
        }
      ],
      "name": "UserRegistered",
      "type": "event"
    },
    {
      "inputs": [
        {
          "internalType": "address",
          "name": "",
          "type": "address"
        },
        {
          "internalType": "uint256",
          "name": "",
          "type": "uint256"
        }
      ],
      "name": "subscriptionHistory",
      "outputs": [
        {
          "internalType": "string",
          "name": "movieTitle",
          "type": "string"
        },
        {
          "internalType": "uint256",
          "name": "subscriptionDate",
          "type": "uint256"
        }
      ],
      "stateMutability": "view",
      "type": "function"
    },
    {
      "inputs": [
        {
          "internalType": "address",
          "name": "",
          "type": "address"
        }
      ],
      "name": "users",
      "outputs": [
        {
          "internalType": "string",
          "name": "username",
          "type": "string"
        },
        {
          "internalType": "string",
          "name": "email",
          "type": "string"
        },
        {
          "internalType": "address",
          "name": "userAddress",
          "type": "address"
        },
        {
          "internalType": "uint256",
          "name": "lastUpdated",
          "type": "uint256"
        }
      ],
      "stateMutability": "view",
      "type": "function"
    },
    {
      "inputs": [
        {
          "internalType": "string",
          "name": "username",
          "type": "string"
        },
        {
          "internalType": "string",
          "name": "email",
          "type": "string"
        }
      ],
      "name": "registerUser",
      "outputs": [],
      "stateMutability": "nonpayable",
      "type": "function"
    },
    {
      "inputs": [
        {
          "internalType": "string",
          "name": "_newUsername",
          "type": "string"
        },
        {
          "internalType": "string",
          "name": "_newEmail",
          "type": "string"
        }
      ],
      "name": "updateProfile",
      "outputs": [],
      "stateMutability": "nonpayable",
      "type": "function"
    },
    {
      "inputs": [
        {
          "internalType": "string",
          "name": "_movieTitle",
          "type": "string"
        }
      ],
      "name": "addSubscription",
      "outputs": [],
      "stateMutability": "nonpayable",
      "type": "function"
    },
    {
      "inputs": [],
      "name": "getProfile",
      "outputs": [
        {
          "internalType": "string",
          "name": "",
          "type": "string"
        },
        {
          "internalType": "string",
          "name": "",
          "type": "string"
        },
        {
          "internalType": "address",
          "name": "",
          "type": "address"
        },
        {
          "internalType": "uint256",
          "name": "",
          "type": "uint256"
        }
      ],
      "stateMutability": "view",
      "type": "function"
    },
    {
      "inputs": [
        {
          "internalType": "address",
          "name": "_user",
          "type": "address"
        }
      ],
      "name": "isUserRegistered",
      "outputs": [
        {
          "internalType": "bool",
          "name": "",
          "type": "bool"
        }
      ],
      "stateMutability": "view",
      "type": "function"
    },
    {
      "inputs": [],
      "name": "getSubscriptionHistory",
      "outputs": [
        {
          "components": [
            {
              "internalType": "string",
              "name": "movieTitle",
              "type": "string"
            },
            {
              "internalType": "uint256",
              "name": "subscriptionDate",
              "type": "uint256"
            }
          ],
          "internalType": "struct UserManager.Subscription[]",
          "name": "",
          "type": "tuple[]"
        }
      ],
      "stateMutability": "view",
      "type": "function"
    }
  ],
  "bytecode": "0x608060405234801561001057600080fd5b50611735806100206000396000f3fe608060405234801561001057600080fd5b50600436106100885760003560e01c80634077467a1161005b5780634077467a14610126578063a87430ba14610144578063c9d3cc6a14610177578063d6afc9b11461019357610088565b8063163f75221461008d5780631d2e4afd146100bd5780632ec74ec2146100d957806337f184d5146100f5575b600080fd5b6100a760048036038101906100a29190610f97565b6101b4565b6040516100b49190611325565b60405180910390f35b6100d760048036038101906100d2919061103d565b61020d565b005b6100f360048036038101906100ee9190610ffc565b6103f4565b005b61010f600480360381019061010a9190610fc0565b61057d565b60405161011d9291906113ca565b60405180910390f35b61012e610646565b60405161013b9190611303565b60405180910390f35b61015e60048036038101906101599190610f97565b61080f565b60405161016e9493929190611377565b60405180910390f35b610191600480360381019061018c919061103d565b61096f565b005b61019b610bd7565b6040516101ab9493929190611377565b60405180910390f35b6000806000808473ffffffffffffffffffffffffffffffffffffffff1673ffffffffffffffffffffffffffffffffffffffff168152602001908152602001600020600001805461020390611601565b9050119050919050565b60008060003373ffffffffffffffffffffffffffffffffffffffff1673ffffffffffffffffffffffffffffffffffffffff168152602001908152602001600020600001805461025b90611601565b90501461029d576040517f08c379a00000000000000000000000000000000000000000000000000000000081526004016102949061141a565b60405180910390fd5b60405180608001604052808381526020018281526020013373ffffffffffffffffffffffffffffffffffffffff168152602001428152506000803373ffffffffffffffffffffffffffffffffffffffff1673ffffffffffffffffffffffffffffffffffffffff168152602001908152602001600020600082015181600001908051906020019061032e929190610e62565b50602082015181600101908051906020019061034b929190610e62565b5060408201518160020160006101000a81548173ffffffffffffffffffffffffffffffffffffffff021916908373ffffffffffffffffffffffffffffffffffffffff160217905550606082015181600301559050503373ffffffffffffffffffffffffffffffffffffffff167f92822564bab8864c3a47b34e8d23fbce5c46234eb5da261f94087b995ac0f33b83836040516103e8929190611340565b60405180910390a25050565b60008060003373ffffffffffffffffffffffffffffffffffffffff1673ffffffffffffffffffffffffffffffffffffffff168152602001908152602001600020600001805461044290611601565b905011610484576040517f08c379a000000000000000000000000000000000000000000000000000000000815260040161047b906113fa565b60405180910390fd5b600160003373ffffffffffffffffffffffffffffffffffffffff1673ffffffffffffffffffffffffffffffffffffffff1681526020019081526020016000206040518060400160405280838152602001428152509080600181540180825580915050600190039060005260206000209060020201600090919091909150600082015181600001908051906020019061051d929190610e62565b506020820151816001015550503373ffffffffffffffffffffffffffffffffffffffff167fa0bed6fbbd4e81b4b529c7f274b9f93533ad7079e0beba42dcf3da3f6d5b15d082426040516105729291906113ca565b60405180910390a250565b6001602052816000526040600020818154811061059957600080fd5b9060005260206000209060020201600091509150508060000180546105bd90611601565b80601f01602080910402602001604051908101604052809291908181526020018280546105e990611601565b80156106365780601f1061060b57610100808354040283529160200191610636565b820191906000526020600020905b81548152906001019060200180831161061957829003601f168201915b5050505050908060010154905082565b606060008060003373ffffffffffffffffffffffffffffffffffffffff1673ffffffffffffffffffffffffffffffffffffffff168152602001908152602001600020600001805461069690611601565b905014156106d9576040517f08c379a00000000000000000000000000000000000000000000000000000000081526004016106d0906113fa565b60405180910390fd5b600160003373ffffffffffffffffffffffffffffffffffffffff1673ffffffffffffffffffffffffffffffffffffffff168152602001908152602001600020805480602002602001604051908101604052809291908181526020016000905b82821015610806578382906000526020600020906002020160405180604001604052908160008201805461076b90611601565b80601f016020809104026020016040519081016040528092919081815260200182805461079790611601565b80156107e45780601f106107b9576101008083540402835291602001916107e4565b820191906000526020600020905b8154815290600101906020018083116107c757829003601f168201915b5050505050815260200160018201548152505081526020019060010190610738565b50505050905090565b600060205280600052604060002060009150905080600001805461083290611601565b80601f016020809104026020016040519081016040528092919081815260200182805461085e90611601565b80156108ab5780601f10610880576101008083540402835291602001916108ab565b820191906000526020600020905b81548152906001019060200180831161088e57829003601f168201915b5050505050908060010180546108c090611601565b80601f01602080910402602001604051908101604052809291908181526020018280546108ec90611601565b80156109395780601f1061090e57610100808354040283529160200191610939565b820191906000526020600020905b81548152906001019060200180831161091c57829003601f168201915b5050505050908060020160009054906101000a900473ffffffffffffffffffffffffffffffffffffffff16908060030154905084565b60008060003373ffffffffffffffffffffffffffffffffffffffff1673ffffffffffffffffffffffffffffffffffffffff16815260200190815260200160002060000180546109bd90611601565b9050116109ff576040517f08c379a00000000000000000000000000000000000000000000000000000000081526004016109f6906113fa565b60405180910390fd5b620151806000803373ffffffffffffffffffffffffffffffffffffffff1673ffffffffffffffffffffffffffffffffffffffff16815260200190815260200160002060030154610a4f9190611521565b421015610a91576040517f08c379a0000000000000000000000000000000000000000000000000000000008152600401610a889061143a565b60405180910390fd5b816000803373ffffffffffffffffffffffffffffffffffffffff1673ffffffffffffffffffffffffffffffffffffffff1681526020019081526020016000206000019080519060200190610ae6929190610e62565b50806000803373ffffffffffffffffffffffffffffffffffffffff1673ffffffffffffffffffffffffffffffffffffffff1681526020019081526020016000206001019080519060200190610b3c929190610e62565b50426000803373ffffffffffffffffffffffffffffffffffffffff1673ffffffffffffffffffffffffffffffffffffffff168152602001908152602001600020600301819055503373ffffffffffffffffffffffffffffffffffffffff167f6eb3a1c6a4675ba92d44e090515b1ceea358f26565d2854df0c99c3f5eaf98508383604051610bcb929190611340565b60405180910390a25050565b60608060008060008060003373ffffffffffffffffffffffffffffffffffffffff1673ffffffffffffffffffffffffffffffffffffffff1681526020019081526020016000206000018054610c2b90611601565b90501415610c6e576040517f08c379a0000000000000000000000000000000000000000000000000000000008152600401610c65906113fa565b60405180910390fd5b60008060003373ffffffffffffffffffffffffffffffffffffffff1673ffffffffffffffffffffffffffffffffffffffff168152602001908152602001600020604051806080016040529081600082018054610cc990611601565b80601f0160208091040260200160405190810160405280929190818152602001828054610cf590611601565b8015610d425780601f10610d1757610100808354040283529160200191610d42565b820191906000526020600020905b815481529060010190602001808311610d2557829003601f168201915b50505050508152602001600182018054610d5b90611601565b80601f0160208091040260200160405190810160405280929190818152602001828054610d8790611601565b8015610dd45780601f10610da957610100808354040283529160200191610dd4565b820191906000526020600020905b815481529060010190602001808311610db757829003601f168201915b505050505081526020016002820160009054906101000a900473ffffffffffffffffffffffffffffffffffffffff1673ffffffffffffffffffffffffffffffffffffffff1673ffffffffffffffffffffffffffffffffffffffff1681526020016003820154815250509050806000015181602001518260400151836060015194509450945094505090919293565b828054610e6e90611601565b90600052602060002090601f016020900481019282610e905760008555610ed7565b82601f10610ea957805160ff1916838001178555610ed7565b82800160010185558215610ed7579182015b82811115610ed6578251825591602001919060010190610ebb565b5b509050610ee49190610ee8565b5090565b5b80821115610f01576000816000905550600101610ee9565b5090565b6000610f18610f138461148b565b61145a565b905082815260208101848484011115610f3057600080fd5b610f3b8482856115bf565b509392505050565b600081359050610f52816116d1565b92915050565b600082601f830112610f6957600080fd5b8135610f79848260208601610f05565b91505092915050565b600081359050610f91816116e8565b92915050565b600060208284031215610fa957600080fd5b6000610fb784828501610f43565b91505092915050565b60008060408385031215610fd357600080fd5b6000610fe185828601610f43565b9250506020610ff285828601610f82565b9150509250929050565b60006020828403121561100e57600080fd5b600082013567ffffffffffffffff81111561102857600080fd5b61103484828501610f58565b91505092915050565b6000806040838503121561105057600080fd5b600083013567ffffffffffffffff81111561106a57600080fd5b61107685828601610f58565b925050602083013567ffffffffffffffff81111561109357600080fd5b61109f85828601610f58565b9150509250929050565b60006110b583836112a8565b905092915050565b6110c681611577565b82525050565b60006110d7826114cb565b6110e181856114ee565b9350836020820285016110f3856114bb565b8060005b8581101561112f578484038952815161111085826110a9565b945061111b836114e1565b925060208a019950506001810190506110f7565b50829750879550505050505092915050565b61114a81611589565b82525050565b600061115b826114d6565b61116581856114ff565b93506111758185602086016115ce565b61117e816116c0565b840191505092915050565b6000611194826114d6565b61119e8185611510565b93506111ae8185602086016115ce565b6111b7816116c0565b840191505092915050565b60006111cf601383611510565b91507f55736572206e6f742072656769737465726564000000000000000000000000006000830152602082019050919050565b600061120f601783611510565b91507f5573657220616c726561647920726567697374657265640000000000000000006000830152602082019050919050565b600061124f602f83611510565b91507f50726f66696c652063616e206f6e6c792062652075706461746564206f6e636560008301527f20657665727920323420686f75727300000000000000000000000000000000006020830152604082019050919050565b600060408301600083015184820360008601526112c58282611150565b91505060208301516112da60208601826112e5565b508091505092915050565b6112ee816115b5565b82525050565b6112fd816115b5565b82525050565b6000602082019050818103600083015261131d81846110cc565b905092915050565b600060208201905061133a6000830184611141565b92915050565b6000604082019050818103600083015261135a8185611189565b9050818103602083015261136e8184611189565b90509392505050565b600060808201905081810360008301526113918187611189565b905081810360208301526113a58186611189565b90506113b460408301856110bd565b6113c160608301846112f4565b95945050505050565b600060408201905081810360008301526113e48185611189565b90506113f360208301846112f4565b9392505050565b60006020820190508181036000830152611413816111c2565b9050919050565b6000602082019050818103600083015261143381611202565b9050919050565b6000602082019050818103600083015261145381611242565b9050919050565b6000604051905081810181811067ffffffffffffffff8211171561148157611480611691565b5b8060405250919050565b600067ffffffffffffffff8211156114a6576114a5611691565b5b601f19601f8301169050602081019050919050565b6000819050602082019050919050565b600081519050919050565b600081519050919050565b6000602082019050919050565b600082825260208201905092915050565b600082825260208201905092915050565b600082825260208201905092915050565b600061152c826115b5565b9150611537836115b5565b9250827fffffffffffffffffffffffffffffffffffffffffffffffffffffffffffffffff0382111561156c5761156b611633565b5b828201905092915050565b600061158282611595565b9050919050565b60008115159050919050565b600073ffffffffffffffffffffffffffffffffffffffff82169050919050565b6000819050919050565b82818337600083830152505050565b60005b838110156115ec5780820151818401526020810190506115d1565b838111156115fb576000848401525b50505050565b6000600282049050600182168061161957607f821691505b6020821081141561162d5761162c611662565b5b50919050565b7f4e487b7100000000000000000000000000000000000000000000000000000000600052601160045260246000fd5b7f4e487b7100000000000000000000000000000000000000000000000000000000600052602260045260246000fd5b7f4e487b7100000000000000000000000000000000000000000000000000000000600052604160045260246000fd5b6000601f19601f8301169050919050565b6116da81611577565b81146116e557600080fd5b50565b6116f1816115b5565b81146116fc57600080fd5b5056fea2646970667358221220fa78bf8c8138fe195abaa4a06880c4a841750eb55e97844ab7668eb97954e03764736f6c63430008000033",
  "immutableReferences": {},
  "source": "pragma solidity ^0.8.0;\r\n\r\ncontract UserManager {\r\n    struct User {\r\n        string username;\r\n        string email;\r\n        address userAddress;\r\n        uint lastUpdated; // Tracks the last time the profile was updated\r\n    }\r\n\r\n    struct Subscription {\r\n        string movieTitle;\r\n        uint256 subscriptionDate;\r\n    }\r\n\r\n    mapping(address => User) public users;\r\n    mapping(address => Subscription[]) public subscriptionHistory; // Track subscription history\r\n\r\n    event UserRegistered(address indexed userAddress, string username, string email);\r\n    event ProfileUpdated(address indexed userAddress, string username, string email);\r\n    event SubscriptionAdded(address indexed userAddress, string movieTitle, uint256 subscriptionDate);\r\n\r\n    // Register the user\r\n    function registerUser(string memory username, string memory email) public {\r\n        require(bytes(users[msg.sender].username).length == 0, \"User already registered\");\r\n        users[msg.sender] = User({\r\n            username: username,\r\n            email: email,\r\n            userAddress: msg.sender,\r\n            lastUpdated: block.timestamp\r\n        });\r\n\r\n        // Emit event after successful registration\r\n        emit UserRegistered(msg.sender, username, email);\r\n    }\r\n\r\n    // Update profile details with 24-hour restriction\r\n    function updateProfile(string memory _newUsername, string memory _newEmail) public {\r\n        require(bytes(users[msg.sender].username).length > 0, \"User not registered\");\r\n        require(block.timestamp >= users[msg.sender].lastUpdated + 24 hours, \"Profile can only be updated once every 24 hours\");\r\n\r\n        users[msg.sender].username = _newUsername;\r\n        users[msg.sender].email = _newEmail;\r\n        users[msg.sender].lastUpdated = block.timestamp; // Update the timestamp\r\n\r\n        emit ProfileUpdated(msg.sender, _newUsername, _newEmail);\r\n    }\r\n\r\n    // Add a subscription to the user's history\r\n    function addSubscription(string memory _movieTitle) public {\r\n        require(bytes(users[msg.sender].username).length > 0, \"User not registered\");\r\n\r\n        subscriptionHistory[msg.sender].push(Subscription(_movieTitle, block.timestamp));\r\n\r\n        emit SubscriptionAdded(msg.sender, _movieTitle, block.timestamp);\r\n    }\r\n\r\n    // Get user profile\r\n    function getProfile() public view returns (string memory, string memory, address, uint) {\r\n        require(bytes(users[msg.sender].username).length != 0, \"User not registered\");\r\n        User memory user = users[msg.sender];\r\n        return (user.username, user.email, user.userAddress, user.lastUpdated);\r\n    }\r\n\r\n    // Check if the user is registered\r\n    function isUserRegistered(address _user) public view returns (bool) {\r\n        return bytes(users[_user].username).length > 0;\r\n    }\r\n\r\n    // Get subscription history for the user\r\n    function getSubscriptionHistory() public view returns (Subscription[] memory) {\r\n        require(bytes(users[msg.sender].username).length != 0, \"User not registered\");\r\n        return subscriptionHistory[msg.sender];\r\n    }\r\n}\r\n",
  "sourcePath": "C:\\Users\\khord\\Documents\\Movie_subscription_solidity\\smart_contract\\contracts\\UserManagement.sol",
  "compiler": {
    "name": "solc",
    "version": "0.8.0+commit.c7dfd78e.Emscripten.clang"
  },
  "schemaVersion": "3.4.16",
  "updatedAt": "2024-09-18T04:03:01.740Z",
  "devdoc": {
    "kind": "dev",
    "methods": {},
    "version": 1
  },
  "userdoc": {
    "kind": "user",
    "methods": {},
    "version": 1
  }
}